:020000040800F2
:100000008007002055300008FD0C0008FF0C000898
:10001000030D0008070D00080B0D0008000000008C
:100020000000000000000000000000000F0D0008AC
:10003000110D000800000000130D0008451800080D
:100040006F3000086F3000086F3000086F30000814
:100050006F3000086F3000086F3000086F30000804
:100060006F3000086F3000086F3000086F300008F4
:100070006F3000086F3000086F3000086F300008E4
:100080006F3000086F3000086F3000086F300008D4
:100090006F3000086F3000086F300008A728000894
:1000A0006F3000086F3000086F3000086F300008B4
:1000B0006F3000086F3000086F3000086F300008A4
:1000C0006F3000086F3000086F3000086F30000894
:1000D0006F3000086F3000086F3000086F30000884
:1000E000D12800086F3000086F3000086F3000081A
:1000F0006F3000086F3000086F3000086F30000864
:100100006F3000086F3000086F3000086F30000853
:100110006F3000086F3000086F3000086F30000843
:100120006F3000086F3000086F3000086F30000833
:10013000DFF80CD005F0B8FB00480047990C000828
:100140008007002000E0401E0028FCD17047F0B579
:10015000002201230024FE4F07F8120007EB42079C
:100160007970521C00250EE0002608E0FF27DFF81A
:10017000E4C30CEBC50C0CF80670771CFEB2082E1D
:10018000F4DB6F1CFDB2082DEEDBAFE0F14F07EBA7
:10019000C0077B545F1CFBB20024EF4F07EBC00786
:1001A0007F5C07F001074FB1EA4F07EBC00C4F1C13
:1001B0001CF807709F4201DD671CFCB2E64F07EB9D
:1001C000C0077F5C07F002074FB1DFF888C3471C08
:1001D0000CEBC7077F5C9F4201DD671CFCB2DE4F62
:1001E00007EBC0077F5C07F004074FB1D94F07EB5F
:1001F000C00C4F1E1CF807709F4201DD671CFCB24B
:10020000D54F07EBC0077F5C07F008074FB1471ECB
:10021000DFF840C30CEBC7077F5C9F4201DD671C22
:10022000FCB284B9571EFAB2C94F07EB420797F9DF
:100230000000C74F07EB420797F90110C54F07EBC6
:10024000C0077B5C51E0012C07DDC14F07F81200AD
:1002500007EB42077970571CFAB2BF4F07EBC00794
:100260007F5C07F0010757B1BA4F07EBC00C4F1C7A
:100270001CF807709F4202DD4F1C79B236E0B64F82
:1002800007EBC0077F5C07F0020757B1DFF8C4C275
:10029000471C0CEBC7077F5C9F4202DD471C78B20E
:1002A00024E0AD4F07EBC0077F5C07F0040757B1B0
:1002B000A84F07EBC00C4F1E1CF807709F4202DDD1
:1002C0004F1E79B212E0A44F07EBC0077F5C07F026
:1002D000080757B1471EDFF87CC20CEBC7077F5CED
:1002E0009F4202DD471E78B200E000BF002A7FF483
:1002F0004DAFF0BD2DE9F04781468A464FF0010829
:100300000026964890F9004090F901505146484621
:10031000FFF71DFF8CE08F4800EBC40010F805804C
:100320008D4800EBC400405D00F0010080B18948B9
:1003300000EBC401681C085C404509DA00278848C6
:100340000078874204D1701C46B2681C45B26FE049
:10035000814800EBC400405D00F0020080B17D499F
:10036000601C01EBC000405D404509DA01277C4874
:100370000078874204D1701C46B2601C44B257E03A
:10038000754800EBC400405D00F0040080B1714886
:1003900000EBC401681E085C404509DA022770487A
:1003A0000078874204D1701C46B2681E45B23FE017
:1003B000694800EBC400405D00F0080080B1601E99
:1003C000644901EBC000405D404509DA03276448F9
:1003D0000078874204D1701C46B2601E44B227E008
:1003E000391D5F4A1278881AC11700EB9171891084
:1003F000A0EB81014FB25B490F7016B1304601F09E
:100400005CFA0026012F04D0022F05D0032F09D15A
:1004100005E001F080FB06E001F037FC03E001F0AD
:1004200001FC00E000BF00BF4C480470457000BFF5
:100430004C457FF470AF5545FBD12EB1304601F0ED
:100440003CFA464804704570BDE8F08770B5FF245B
:100450000025002640484449097800EBC100434983
:100460000978405C00F00C00F8B14048007841B2D7
:100470003D48007840B2FFF76AFE36483C490978AB
:1004800000EBC1003B490978405CA0420DDA3648D8
:10049000007845B23548007846B22E48344909788C
:1004A00000EBC10033490978445C2B482E49097898
:1004B00000EBC10030490978405C00F00900F8B158
:1004C0002D48007841B22848007840B2FFF73FFE3F
:1004D00020482749097800EBC10026490978405C8B
:1004E000A0420DDA2048007845B22348007846B291
:1004F00018481F49097800EBC1001E490978445C7F
:1005000015481E49097800EBC10018490978405C7C
:1005100000F00600D8B11548007841B217480078BD
:1005200040B2FFF714FE0B481149097800EBC100F7
:1005300010490978405CA04227DA1048007845B29B
:100540000A48007846B203480949097818E01CE0D7
:100550002801002007000020280200205C00002065
:100560005E000020B70000200200002004000020F0
:1005700000000020010000200500002003000020F2
:1005800000EBC100F7490978445CF748F74909785E
:1005900000EBC100F6490978405C00F00300F8B1B7
:1005A000F348007841B2F148007840B2FFF7CFFD40
:1005B000F048F149097800EBC100EA490978405C4C
:1005C000A0420DDAE948007845B2E948007846B221
:1005D000E848E949097800EBC100E2490978445C40
:1005E00031462846FFF786FE70BD2DE9F04781466B
:1005F0008A464FF001080026E04890F9004090F943
:10060000015051464846FFF7A2FD8CE0D94800EB67
:10061000C40010F80580D44800EBC400405D00F031
:10062000010080B1D34800EBC401681C085C404560
:1006300009DA0027D2480078874204D1701C46B2FC
:10064000681C45B26FE0C84800EBC400405D00F094
:10065000020080B1C749601C01EBC000405D40450D
:1006600009DA0127C6480078874204D1701C46B2D7
:10067000601C44B257E0BC4800EBC400405D00F091
:10068000040080B1BB4800EBC401681E085C404513
:1006900009DA0227BA480078874204D1701C46B2B2
:1006A000681E45B23FE0B04800EBC400405D00F07A
:1006B000080080B1601EAF4901EBC000405D4045BD
:1006C00009DA0327AE480078874204D1701C46B28D
:1006D000601E44B227E0391DA94A1278881AC11752
:1006E00000EB91718910A0EB81014FB2A5490F7009
:1006F00016B1304601F0E1F80026012F04D0022F98
:1007000005D0032F09D105E001F005FA06E001F05C
:10071000BCFA03E001F086FA00E000BF00BF974892
:100720000470457000BF4C457FF470AF5545FBD158
:100730002EB1304601F0C1F8904804704570BDE814
:10074000F08710B501460022002339B1012902D0FB
:10075000022919D10DE08A48017816E0884C2478E6
:10076000E01CC41700EB9474A410A0EB8404E1B265
:100770000BE0834C2478601CC41700EB9474A41025
:10078000A0EB8404E1B200E000BF00BF31B1012959
:100790000BD0022911D003291ED115E0774890F91A
:1007A00000204078401C43B217E074480078401C99
:1007B00042B2724890F901300FE0704890F9002081
:1007C0004078401E43B208E06C480078401E42B2B8
:1007D0006A4890F9013000E000BF00BF6A4800EBB2
:1007E000C200C05C10BD10B5644890F900005E49BD
:1007F00001EBC000614991F90110405C6049097842
:100800004C1CE11704EB91718910A4EB81020121CA
:100810009140084030B10220FFF793FF10B901F07A
:100820007AF910BD554890F900004F4901EBC0001E
:10083000524991F90110405C51490A7801219140D7
:10084000084020B10120FFF77CFF00B9E9E74B48E1
:1008500090F90000444901EBC000484991F90110AA
:10086000405C47490978CC1CE11704EB9171891071
:10087000A4EB810201219140084030B10020FFF734
:1008800060FF10B901F0CEF9CBE700BFC9E710B5A2
:100890003A4890F90000344901EBC000374991F91A
:1008A0000110405C36490978CC1CE11704EB9171CA
:1008B0008910A4EB810201219140084030B1002051
:1008C000FFF73FFF10B901F0ADF910BD2B4890F9CB
:1008D0000000254901EBC000284991F90110405C56
:1008E00027490A7801219140084020B10120FFF7F3
:1008F00028FF00B9E9E7214890F900001A4901EB07
:10090000C0001E4991F90110405C1D4909784C1C3A
:10091000E11704EB91718910A4EB81020121914050
:10092000084030B10220FFF70CFF10B901F0F3F8D6
:10093000CBE700BFC9E710B5104890F900000A499D
:1009400001EBC0000D4991F90110405C0C490A7897
:10095000012191400840C8B10120FFF7F2FEA8B97B
:1009600010BD00000100002028020020030000202C
:100970000500002007000020000000205C0000208F
:100980005E000020B700002068020020D14890F9E6
:100990000000D14901EBC000CE4991F90110405C43
:1009A000CE4909784C1CE11704EB91718910A4EB36
:1009B000810201219140084030B10220FFF7C1FEC1
:1009C00010B901F0A8F8CBE7C24890F90000C2497D
:1009D00001EBC000BF4991F90110405CBF490978A3
:1009E000CC1CE11704EB91718910A4EB8102012169
:1009F0009140084030B10020FFF7A3FE10B901F08C
:100A000011F9ADE700BFABE710B5B24890F90000AF
:100A1000B14901EBC000AF4991F90110405CAF4909
:100A20000A7801219140084020B10120FFF789FE9A
:100A300000B910BDA74890F90000A74901EBC0001C
:100A4000A44991F90110405CA4490978CC1CE11734
:100A500004EB91718910A4EB8102012191400840BF
:100A600030B10020FFF76DFE10B901F0DBF8E0E7D0
:100A7000984890F90000984901EBC000954991F918
:100A80000110405C954909784C1CE11704EB917109
:100A90008910A4EB810201219140084030B102206D
:100AA000FFF74FFE10B901F036F8C2E700BFC0E70C
:100AB00010B58848007800F00800002834D0854838
:100AC000407800F00800B8B18448007830B10128BF
:100AD00007D0022808D003280CD108E0FFF7D7FE82
:100AE00009E0FFF780FE06E0FFF725FF03E0FFF7D0
:100AF0008BFF00E000BF4CE07848007830B101285F
:100B000007D0022808D003280CD108E0FFF77CFFAB
:100B100009E0FFF7BCFE06E0FFF765FE03E0FFF724
:100B20000AFF00E000BF34E06A48407800F00800A7
:100B3000B8B16A48007830B1012807D0022808D03F
:100B400003280CD108E0FFF74EFE09E0FFF7F3FEA3
:100B500006E0FFF759FF03E0FFF799FE00E000BF52
:100B600017E05E48007830B1012807D0022808D08D
:100B700003280CD108E0FFF7DEFE09E0FFF744FF91
:100B800006E0FFF784FE03E0FFF72DFE00E000BF64
:100B900000BF10BD10B5024600204F4B03EBC2034F
:100BA0005B5C03F001033BB14D4B03EBC2044B1CF8
:100BB000E35C0BB9431CD8B2474B03EBC2035B5C4D
:100BC00003F002033BB1464C531C04EBC3035B5CD4
:100BD0000BB9431CD8B2404B03EBC2035B5C03F080
:100BE00004033BB13E4B03EBC2044B1EE35C0BB969
:100BF000431CD8B2384B03EBC2035B5C03F0080321
:100C00003BB1531E364C04EBC3035B5C0BB9431C76
:100C1000D8B210BD10B50220052813D2DFE800F0CD
:100C20000306090C0F00FFF7DEFD0CE0FFF72FFEB7
:100C300009E0FFF73DFF06E0FFF77DFE03E0FFF769
:100C4000E3FE00E000BF00BF10BD10B501217D2014
:100C500003F07CF910BD10B52248FFF773FA0121AB
:100C6000214802F066FF0821204802F060FF01F0F1
:100C70008DFC1C48FFF766FA01F08FFC01211A4831
:100C800002F055FF0821194802F053FF4FF47A7023
:100C9000FFF758FA10BD7047FFF7D7FF00F0A9F82B
:100CA00001F02BFE01F050FE00F041F9FFF7D3FFF9
:100CB0000FE001F06BFC0E48FFF744FA0D4890F985
:100CC00001100DA004F002FE01F067FC0848FFF7D8
:100CD00039FAEEE75C000020280200205E000020C8
:100CE0006802002080969800000801400010014032
:100CF000E0930400A802002025640A00704700BFAA
:100D0000FEE700BFFEE700BFFEE700BFFEE770475B
:100D1000704770470CB50020019000906C48006847
:100D200040F480306A49086000BF6948006800F4F8
:100D3000003000900198401C0190009818B901986B
:100D4000B0F5A06FF1D16248006800F4003010B136
:100D50000120009001E0002000900098012843D17C
:100D60005C48006840F010005A4908600846006876
:100D700020F0030008600846006840F002000860A8
:100D800053484068524948600846406848600846F1
:100D9000406840F4806048600846406820F47C1059
:100DA00048600846406840F4E8104860084600681B
:100DB00040F08070086000BF4548006800F0007097
:100DC0000028F9D04248406820F0030040494860BC
:100DD0000846406840F00200486000BF3C48406858
:100DE00000F00C000828F9D10CBD10B5FFF792FFF8
:100DF00010BD10B53648006840F001003449086065
:100E0000084640683449084031494860084600684F
:100E1000324908402E4908600846006820F48020C6
:100E200008600846406820F4FE0048604FF41F0048
:100E30008860FFF7DAFF4FF000602949086010BDB5
:100E400010B5002100200022214B5B6803F00C014B
:100E500021B1042906D0082928D107E0214B224CD2
:100E6000236027E01F4B204C236023E0184B5B6876
:100E700003F47010164B5B6803F48032022303EB1B
:100E8000904022B9194B4343174C23600DE0104B9F
:100E90005B6803F4003323B1144B4343124C2360CB
:100EA00003E0104B4343104C236003E00D4B0E4C0A
:100EB000236000BF00BF064B5B68C3F303130C4CF9
:100EC000E15C094B1B68CB40074C236010BD000060
:100ED00000100240002002400000FFF8FFFFF6FE75
:100EE00008ED00E000127A004800002000093D00F3
:100EF0004C00002000E0401E0028FCD1704700EBB1
:100F0000C0014FF0E02251611146096941F0010131
:100F1000116100BF4FF0E021096901F4803100291F
:100F2000F8D000214FF0E02211619161704700205C
:100F3000FA490860FA4908800881FA490860FA49C4
:100F400008800881F94948600881C8600861F8484C
:100F50004861F8488861C86100200884F649486003
:100F60000881C8600861F2484861F2488861C86138
:100F70000020088470472DE9FC5FEC49B1F90800B6
:100F800004F03BFB0646E9484168304604F0A9F905
:100F90000446E648C168204604F0A0F90546E34847
:100FA0000169284604F09AF901904FF080412046EB
:100FB00004F094FB06D24FF08041204604F08EF9F5
:100FC00004460DE04FF04041204604F07DFB06D280
:100FD0004FF08041204604F02FF9044600E0002441
:100FE0004FF08141204604F079FB04D3D3492046D9
:100FF00004F06AFB03D20020D149087002E001200E
:10100000CF490870C948C46005610146C8690199A3
:1010100004F06AF98246CA48007804F0F7FA834679
:10102000C2488169584604F05FF98146214604F0C0
:101030005BF98046BD494869294604F055F94146A7
:10104000009004F0F9F80746514604F0F5F806461A
:1010500004F0EEFAB549098C084400B2B34908849B
:10106000BDE8FC9F2DE9F04F8DB0B649898840F26C
:101070001452501A04F0C1FA8346B3480168584626
:1010800004F02CF98246B1480168504604F026F974
:101090000C90AD48C0F800B0AC48C0F800A00C9867
:1010A00004F0FEFA0446AA4AAA4B04F034FACDE949
:1010B0000601584604F0F4FA04460D46A6480078A6
:1010C00004F0A9FA0646A24AA24B04F024FA2246EA
:1010D0002B46CDE9000104F01EFA804689465146B0
:1010E000934804F001F9044604F0DAFA42464B460C
:1010F000CDE9020104F068F9CDE90401DDE9062338
:1011000004F062F9CDE9080104F0ABFA00B20A90EC
:1011100004F073FA0B90914801680B9804F08CF876
:101120008E4908600DB0BDE8F08F2DE9F04F8DB00D
:101130008449C98840F2DC52501A04F05EFA8346B2
:1011400087480168584604F0C9F882468548016816
:10115000504604F0C3F80C908148C0F800B08148B4
:10116000C0F800A00C9804F09BFA0446784A794B2A
:1011700004F0D1F9CDE90601584604F091FA04468D
:101180000D467948007804F046FA0646704A714BDD
:1011900004F0C1F922462B46CDE9000104F0BBF969
:1011A000804689465146624804F09EF8044604F0A1
:1011B00077FA42464B46CDE9020104F005F9CDE944
:1011C0000401DDE9062304F0FFF8CDE9080104F08D
:1011D00048FA00B20A9004F010FA0B9063480168D4
:1011E0000B9804F029F8614908600DB0BDE8F08F54
:1011F0002DE9FC5F5049B1F9080004F0FEF9804682
:101200005B495A48006804F0A1F88146594953489F
:10121000006804F09BF8824647484168504604F055
:101220000BF80746494604F059F80646414604F0D3
:1012300055F804464048C168204604F04FF805467A
:101240003D480169284604F049F801904FF080417B
:10125000204604F043FA06D24FF08041204604F0C5
:101260003DF804460DE04FF04041204604F02CFAD2
:1012700006D24FF08041204603F0DEFF044600E036
:1012800000244FF08141204604F028FA04D32B4972
:10129000204604F019FA03D200203749087002E012
:1012A0000120354908702448C46005610146C869B9
:1012B000019904F019F882462F48007804F0A6F945
:1012C00083461D488169584604F00EF88146214640
:1012D00004F00AF8804618494869294604F004F8E1
:1012E0004146009003F0A8FF0746514603F0A4FFD3
:1012F000064604F09DF91049098C084400B20E49D5
:101300000884BDE8FC9F10B51C4890F9010020B18D
:10131000012845D0022861D152E031E000010020CF
:10132000C802002004010020EC020020100300206D
:101330000000A0410AD7233C34030020000080C0F5
:10134000F300002064030020C4000020C800002037
:101350007B14AE47E17A843FF4000020CC000020EB
:10136000D0000020D4000020F5000020D80000208C
:101370000000C84300004843F6000020B8020020E7
:101380004FF48051F94802F0D4FB0421F84802F0F0
:10139000CEFBF848808981B2F74803F003FD1EE0D8
:1013A0004FF48051F14802F0C2FB0421F04802F0F2
:1013B000C0FBF048808981B2EF4803F0F3FC0EE0F7
:1013C0004FF48051E94802F0B2FB0421E84802F0F2
:1013D000AEFB0021E84803F0E5FC00E000BF00BFE1
:1013E00010BD10B5E54890F9010020B1012812D0D8
:1013F00002282ED11FE02021E14802F09AFB4FF491
:101400008071DF4802F093FBDC48808981B2DA48C2
:1014100003F0CAFC1EE02021D94802F088FB4FF4FB
:101420008071D74802F085FBD448808981B2D248C8
:1014300003F0BAFC0EE02021D14802F078FB4FF413
:101440008071CF4802F073FB0021CB4803F0ACFC65
:1014500000E000BF00BF10BD10B5FFF78CFDFFF727
:10146000C7FEC848008CC849098C401A00B2C1495F
:1014700088810846B0F90C00002813DB0020487072
:101480000846B0F90C00B0F5167F02DB4FF4167079
:101490008881B848B0F90C00002808DC0020B54964
:1014A000888104E00220B349487000208881B54853
:1014B000008CB549098C084400B2B0498881FFF717
:1014C00090FFFFF720FF10BDB0480088B0490880AA
:1014D0000020AE490860AE48008800B2AC490881DF
:1014E000AC480088AC4908800020AA490860AA4896
:1014F000008800B2A8490881B1F90810A44AB2F9DD
:101500000820881800EBD071491009B29D4A11815A
:10151000A149B1F908109E4AB2F90820881A00EBD7
:10152000D071491009B2984A1181704710B504462C
:10153000062C23D2DFE804F003080D13181D402108
:101540008A4802F0F4FA1AE08021884802F0EFFAA3
:1015500015E04FF48071854802F0E9FA0FE0802130
:101560008E4802F0E4FA0AE020218C4802F0DFFA0B
:1015700005E01021894802F0DAFA00E000BF00BF60
:1015800010BD10B5864800780C2873D2DFE800F053
:1015900006232F5058737B949CB5BDD68148008894
:1015A00081490988401A814908800846008841F22B
:1015B0008831884202DD07207C4908800121774874
:1015C00002F0B7FA4021694802F0B3FAFFF74AFD8A
:1015D000FFF7ABFDBBE07448408875490860012106
:1015E0006E4802F0A4FA0120FFF7A0FFAFE06E48BA
:1015F00040886F490988081A6C4948800846408825
:101600006C490860684840886B49086067484088B2
:1016100041F28831884202DD0720644948808021F8
:10162000524802F086FAFFF71DFDFFF77EFD8EE0BF
:101630005D4880885B4988800220FFF777FF86E05D
:101640005848808858498988401A584988800846EF
:10165000808841F28831884202DD07205349888022
:101660004FF48071414802F064FAFFF7FBFCFFF78A
:101670005CFD6CE06AE04C48C0884A49C8800320A1
:10168000FFF754FF63E04748C0884749C988401ABC
:101690004649C8800846C08841F28831884202DD48
:1016A00007204249C88080213C4802F042FAFFF7F7
:1016B000D9FCFFF73AFD4AE03B48008939490881E7
:1016C0000420FFF733FF42E0364800893649098994
:1016D000401A364908810846008941F2883188421B
:1016E00002DD07203149088120212C4802F021FA2F
:1016F000FFF7B8FCFFF719FD29E02B48408929497D
:1017000048810520FFF712FF21E02648408926493D
:101710004989401A254948810846408941F2883163
:10172000884202DD07202149488110211B4802F030
:1017300000FAFFF797FCFFF7F8FC08E01A4800886A
:10174000184908800020FFF7F1FE00E000BF00BF4D
:10175000134804780078401C0C2190FBF1F201FB47
:1017600012000F490870204610BD00000010014013
:1017700000140140B802002000080040A802002028
:10178000000C014010030020340300200001002061
:10179000C802002004010020EC02002000080140E3
:1017A000F70000205803002070030020640300208D
:1017B000BC000020B8000020C000002070B5FE482A
:1017C000008984B2FD48006803F017FF0546FA4817
:1017D0004168284603F082FF11D2204603F016FF2D
:1017E0000546F5484168284603F078FF07D8F249D6
:1017F00048684FF0814103F01FFDEF49486070BD1C
:1018000070B5ED48008984B2EB494868EC4903F0B3
:1018100065FF16D8E84948684FF07E5103F00CFD8B
:101820000546204603F0F2FE0646294603F04CFF2B
:1018300007D8E14948684FF07E5103F04FFDDE497B
:10184000486070BD10B5FFF73FFEDE48DA494860DA
:101850000120DD494870DD4948700220DA490870EE
:10186000DA490870FFF78DFE40B2D9490870084682
:1018700090F9000004280FD006281BD1D548C08855
:1018800040F2DC51884203DD0220D349088002E0A7
:101890000020D149088000BFCE48808840F2145112
:1018A000884204DD6FF00100CB49088002E000208F
:1018B000C9490880FFF7D0FD10BD70B50022002394
:1018C00001240025C54E3570C04D2D7805B100248A
:1018D00001281AD101220123C14D2D78C14E36783D
:1018E000B54207D141F25455BF4E35800025BF4E59
:1018F000358006E041F25455BB4E3580FC25BB4E89
:1019000035801425AD4E356007E00025B64E358094
:10191000B64E35801425A94E3560B24D2D78B04EA7
:101920003570B34D2D78072D03D1B14D6D78072D4E
:1019300017D0AF4D2D78082D03D1AD4D6D78082D02
:101940000FD0AB4D2D78072D03D1A94D6D78082D03
:1019500007D0A74D2D78082D0AD1A54D6D78072DFC
:1019600006D10022002300259F4E35809F4E3580F2
:10197000A04D2D78032D03D09E4D2D78022D05D13D
:1019800043F238159C4E35609C4E3560014601256A
:10199000984E35708C4D6E6840F26D15454306EBE0
:1019A0000515894E7560894D6E6840F26D15454389
:1019B00006EB0515854E75600225834E3570834E06
:1019C000357098E08C4D2D6841F2D066B54218D341
:1019D0007E4D6D68AD1B7D4E7560874D2D68A5F5FC
:1019E000B055D03D844E356054B1451E68B200B943
:1019F00087E04D1E854204DD0025784E357000E0FD
:101A000001247E4D2D6841F2D066B5420BD36E4D58
:101A10006D68AD1B6C4E7560784D2D68A5F5B055A1
:101A2000D03D764E3560022865DA634DB5F9085031
:101A30001E2D05DD0325694E3570714D5E4E7560B6
:101A400002B36E4D2D6842F260263544664E3688EC
:101A5000AD1B5D4E7560644D2D8842F26026751B8E
:101A60005A4E756007E0594D6E68634D2D683235EA
:101A7000AE4200D245E0574D6D88624E3688B54281
:101A8000F1DB06E0534D6D885E4E3688B54200DDD1
:101A900001224BB34F4DAD885B4E3688B5422ADAF2
:101AA000564D2D6842F2602635444F4E3688AD1BA8
:101AB000454E7560504D2D6842F2602635444A4EC1
:101AC0003688AD1B414E756007E0404D6E684A4D4B
:101AD0002D683235AE4200D213E03E4DAD884A4EFD
:101AE0003688B54207DAF0E73A4DAD88464E36887B
:101AF000B54200DD0123354D2D78002D7FF462AF16
:101B000000BF70BD00202C49486040494860032058
:101B100032490870704710B503203649087002201A
:101B2000294908702949087039490978481CC117A2
:101B300000EB91718910A0EB8101354A1170354895
:101B40003249486000E000E0FDE700BF00202F4977
:101B5000486003202149087040F6B8301B494860AE
:101B60000020886040F6B83017494860002088603F
:101B700000BF154880686430134949688842F8D925
:101B800000BF124880686430104949688842F8D91B
:101B90000320184908700020104908700A4908708D
:101BA0000A49087008498881FFF71BFC0020074993
:101BB0008881FFF7A8FB2FE010030020A40000207D
:101BC0000000A04000002041A8020020B802002030
:101BD000FD00002064030020AC000020AE000020C7
:101BE000B6000020B7000020B0000020B2000020A6
:101BF0005C000020A2000020080100200C01002051
:101C00000000F041E2000020E80000203403002042
:101C10005E00002000008CC20020FE498860FE4962
:101C2000886010BD0220FD4908700420F949087041
:101C3000F9490870FA490978C81CC11700EB91717D
:101C40008910A0EB8101F64A1170704743F2B06031
:101C5000F04948600020F349086043F2B060EE4963
:101C600048600020F049086000BFEA484168ED483C
:101C7000006864308142F8D200BFE7484168EA4812
:101C8000006864308142F8D2704710B5E7480078A8
:101C900058B3E748E749486000BFE7480088E7498C
:101CA00009888842F9DBE4484088E5490988884288
:101CB000F3DB4FF4C870D7494860002088604FF4C8
:101CC000C870D54948600020886000BFD14880684E
:101CD0006430D04949688842F8D900BFCE4880684E
:101CE0006430CD4949688842F8D90020CF4908704E
:101CF0000120D44908700020CE494860FFF702FF58
:101D00000420C64908700220C3490870C149087000
:101D1000C3490978881CC11700EB91718910A0EBA9
:101D20008101BF4A1170C848C849486000E000E01E
:101D3000FDE700BF0020C54948600520B74908708D
:101D4000C348BC4948604FF42F60B2494860002046
:101D500088604FF42F60B04948600020886000BF61
:101D6000AC4880686430AB4949688842F8D900BF04
:101D7000A94880686430A84949688842F8D9FFF7C3
:101D8000C1FE0120A5490870B248FFF7B3F8002052
:101D9000B1490870A648A74948604FF47A709D4938
:101DA0004860002088604FF47A709B4948600020AA
:101DB000886000BF974880686430964949688842C7
:101DC000F8D900BF944880686430934949688842D4
:101DD000F8D900208F4908708F4908708D49888193
:101DE000FFF7FFFA00208C498881FFF78CFA42F652
:101DF000E060884988608849886010BD30B500205F
:101E00000021874B1B789A1CD31702EB93739B100E
:101E1000A2EB83040123A3400343D8B2864A52882D
:101E20008E4B1B889A420EDD7D4B1B78DA1CD31734
:101E300002EB93739B10A2EB83040123A34098430E
:101E400041F006010CE0764B1B78DA1CD31702EB4D
:101E500093739B10A2EB83040123A3400343D8B2E6
:101E6000754A12887E4B1B889A420DDD724AD288D1
:101E70007C4B1B889A4207DD694A137801229A40FD
:101E8000904341F0400105E0654A137801229A40F1
:101E90000243D0B2684A9288734B1B889A420EDD87
:101EA0005F4B1B785A1CD31702EB93739B10A2EB6A
:101EB00083040123A340984341F030010CE0584BC8
:101EC0001B785A1CD31702EB93739B10A2EB83046D
:101ED0000123A3400343D8B2644A92F90020644B23
:101EE00003EBC202614B93F90130D0545F4A92F97F
:101EF0000020604B03EBC2025C4B93F90130D054DD
:101F00005A4A92F900205C4B03EBC202574B93F9FB
:101F10000130D054554A92F90120072A19DA534A60
:101F200092F90020544B03EBC203504A92F901206E
:101F3000521C9B5C0122824323EA82034B4A92F9A2
:101F400000204D4C04EBC204484A92F90120521C77
:101F5000A354464A92F90020072A19DA434A92F913
:101F60000020521C444B03EBC202404B93F901305A
:101F7000D35C0222824323EA82033C4A92F9002086
:101F8000521C3D4C04EBC202384C94F901401355ED
:101F9000364A92F90120002A1DDD344B93F90030B6
:101FA000354C04EBC304314B93F901305B1EE45C08
:101FB000042323EA0002D31702EB937324EAA30459
:101FC0002A4B93F900302C4D05EBC305274B93F9B1
:101FD00001305B1EEC54254A92F90020002A53DDA3
:101FE000224B93F900305B1E234C04EBC3031F4CC0
:101FF00094F901401B5D082424EA0002D41702EB87
:10200000947423EAA403194C94F90040641E1A4DF9
:1020100034E00000A8020020B8020020A200002046
:102020005E0000200C01002008010020B400002008
:102030000000F0411003002064030020EA000020AB
:10204000EC000020F20000200000A041340300203A
:102050000000A0C1404B4C00AE000020E200002078
:10206000EE000020F0000020E80000205C000020CE
:1020700068020020280200205F00002005EBC40455
:10208000E24D95F901506355E04A92F90120072A83
:1020900019DADE4A92F90020DD4B03EBC203DB4A7A
:1020A00092F90120521C9B5C00F0010243EA82037A
:1020B000D64A92F90020D64C04EBC204D34A92F9D6
:1020C0000120521CA354D14A92F90020072A19DAA0
:1020D000CE4A92F90020521CCD4B03EBC202CB4BEF
:1020E00093F90130D35C00F0020243EA8203C74A4D
:1020F00092F90020521CC64C04EBC202C34C94F966
:1021000001401355C14A92F90120002A1CDDBF4B42
:1021100093F90030BE4C04EBC304BC4B93F901307F
:102120005B1EE35C00F00402D41702EB947443EAF4
:10213000A403B64C94F90040B54D05EBC405B34C6F
:1021400094F90140641E2B55B04A92F90020002AF0
:102150001CDDAE4B93F900305B1EAD4C04EBC303AA
:10216000AA4C94F901401B5D00F00802D41702EB61
:10217000947443EAA403A54C94F90040641EA44D52
:1021800005EBC404A14D95F90150635530BD10B560
:10219000A048007830B101280BD0022810D00328C5
:1021A0001CD114E099484078401C40B297494870CF
:1021B00015E096480078401C40B2944908700EE043
:1021C00092484078401E40B29049487007E08F48DE
:1021D0000078401E40B28D49087000E000BF00BF8B
:1021E000FFF70CFE10BD70B50024002501268A48BB
:1021F000007800B1002689480078032803D087487A
:10220000007802282BD143F23810854908608549AF
:102210000860012401258448C07810B18248007804
:1022200048B98148407800F0010020B17E488078AC
:1022300000F0010078B97C48C07838B17A4800785D
:1022400020B141F69C00794908800BE041F69C00E2
:102250007649088006E000207449088002E00020EA
:102260007249088001206D49087014207049086087
:102270004BF280606F4948606749486002206D49B1
:1022800008706549087000206B490870B4E0644824
:10229000006841F2D061884226D35F484068401A06
:1022A0005D4948605E480068A0F5B050D0385C4990
:1022B0000860C6B15C48C07890B15B48007878B1DE
:1022C0005E4880885E490988884209DD5B48C0888D
:1022D0005C490988884203DD01205B49087091E070
:1022E000FFF755FF00E001264E48006841F2D0613B
:1022F00088420BD34F484068401A4E4948604948CD
:102300000068A0F5B050D038464908608CB3464804
:10231000407800F0010058BB4248006842F260215A
:10232000084442490988401A424948603C480068CC
:1023300042F2602108443D490988401A3649486004
:1023400010E035484168364800683230814209D291
:102350004BF28060374948602F4948600020364979
:1023600008704FE03048407800F001000028E8D0C5
:1023700007E0FFE73148408831490988884200DD9D
:10238000012485B32848807800F0010060BB25480F
:10239000006842F6F821084424490988401A254972
:1023A00048601F48006842F6F82108441F49098820
:1023B000401A1949486010E01748416818480068F9
:1023C0003230814209D24BF280601A49486012498A
:1023D000486000201849087014E01348807800F025
:1023E000010008B9E8E700E006E0144880881549D4
:1023F0000988884200DD01250748007800287FF41D
:1024000046AF00BFFFF7C3FE70BD00005C000020B8
:10241000280200205E000020B8020020A200002058
:10242000080100200C010020A8000020B0000020BE
:10243000A4000020A8020020AE00002064030020B9
:10244000E2000020E8000020B400002010B50028C1
:1024500007DA0A07140EFE4A00F00F031B1FD454BC
:1024600003E00A07130EFB4A135410BD10B5FA4CD3
:10247000B4F1807F01D3012011E024F07F40401EA1
:102480004FF0E02148610F214FF0FF30FFF7DEFFF2
:1024900000204FF0E021886107200861002008B18A
:1024A00000BFFEE70021481EFFF7D0FF10BD08B5B2
:1024B0000121142001F04AFD0120ADF80000102098
:1024C0008DF8030003208DF802006946E34801F00F
:1024D00081FA0121E14801F02AFB0820ADF8000053
:1024E00010208DF8030003208DF802006946DC48B7
:1024F00001F070FA0821DA4801F019FB08BD00B5B7
:1025000089B00121022001F02EFD0121042001F0FB
:102510001DFD4020ADF8200018208DF82300032079
:102520008DF8220008A9CD4801F054FA44F61F6046
:10253000ADF818000020ADF81400ADF81A00ADF8A1
:10254000160005A9C74801F039FE7020ADF8040057
:102550000120ADF806000020ADF80A00ADF80C002F
:1025600001A9C04801F067FE0121BE4802F08EF9C2
:102570000821BC4802F0AEFA0121BA4802F07AFA0A
:102580000121B84802F076F909B000BD10B543F654
:102590009821B44802F006FC10BD10B50021B148E6
:1025A00002F000FC10BD08B50121142001F0CEFCA2
:1025B0004FF48070ADF8000010208DF80300032068
:1025C0008DF802006946A64801F004FA8020ADF8B3
:1025D00000006946A24801F0FDF94020ADF8000076
:1025E00069469F4801F0F6F91020ADF800006946F1
:1025F0009A4801F0EFF92020ADF8000069469748AD
:1026000001F0E8F98020ADF800006946934801F038
:10261000E1F94FF4E071924801F08BFAB0218F4854
:1026200001F087FA08BD08B50121382001F08EFCC1
:102630002020ADF8000010208DF8030003208DF855
:1026400002006946884801F0C5F92021864801F05A
:102650006EFA4FF48070ADF800006946824801F0D0
:10266000B9F94FF48071804801F061FA4FF480505D
:10267000ADF8000069467A4801F0ACF94FF480519A
:10268000774801F054FA0420ADF800006946774815
:1026900001F0A0F90421754801F049FA08BD00B520
:1026A00089B00121042001F05EFC0121082001F025
:1026B0004DFC4020ADF8200018208DF823000320A9
:1026C0008DF8220008A9684801F084F94FF43460BD
:1026D000ADF818000020ADF81400ADF81A00ADF800
:1026E000160005A9624801F069FD6020ADF80400FC
:1026F0000120ADF806000020ADF80A00ADF80C008E
:1027000001A95B4801F097FD0121594802F0BEF88C
:102710000821574802F0DEF90121554802F0AAF9D4
:102720000121534802F0A6F809B000BD00B589B0F8
:102730000121042001F017FC0121082001F006FC12
:102740008020ADF8200018208DF8230003208DF89C
:10275000220008A9444801F03DF94FF43460ADF877
:1027600018000020ADF81400ADF81A00ADF81600FE
:1027700005A93F4801F022FD6020ADF804000120CA
:10278000ADF806000020ADF80A00ADF80C0001A974
:10279000374801F092FD0121354802F077F8082111
:1027A000334802F0A0F90121314802F063F9012118
:1027B0002F4802F05FF809B000BD1FB5012108469F
:1027C00001F0C4FB0121182001F0C0FB4FF40070A0
:1027D000ADF80C0048208DF80F0003A9224801F045
:1027E000F9F84FF48060ADF80C0048208DF80F0028
:1027F00003A91B4801F0EEF80921012001F000FABD
:102800004FF40070019000208DF808000C208DF826
:10281000090001208DF80A0001A800F0FBFF0A2141
:10282000022001F0EDF94FF48060019000208DF856
:1028300008000C208DF8090001208DF80A0001A87D
:1028400000F0E8FF17208DF80000012012E00000E2
:1028500018ED00E000E400E040190100000801402C
:102860000010014000040040000C01400014014031
:10287000000800408DF801008DF802008DF803007B
:10288000684600F0FEFB28208DF8000002208DF83D
:10289000010000208DF8020001208DF80300684639
:1028A00000F0EFFB1FBD10B54FF4007001F018F8F9
:1028B00048B120480068401C1E4908601E48006856
:1028C000401C1D4908604FF4007001F01AF810BD5B
:1028D00010B54FF4806001F003F848B11748006864
:1028E000401C1649086016480068401C14490860DE
:1028F0004FF4806001F005F810BD10B5FFF7B6FD8C
:10290000FFF7D5FDFFF7FBFDFFF74DFEFFF78BFE51
:10291000FFF7C5FEFFF70AFFFFF74FFF00F0B1F822
:102920004FF40063074A1115104600F074F900F0E7
:10293000EAFA10BD00010020080100200401002077
:102940000C010020000C014000B585B0012144F2CB
:10295000040001F0FBFA4FF40070ADF810001820ED
:102960008DF8130003208DF8120004A92E4801F001
:1029700031F84FF48060ADF8100004208DF813009A
:1029800004A9294801F026F84FF4165000900020C1
:10299000ADF80400ADF80600ADF80800ADF80C0085
:1029A0000C20ADF80A006946204802F084FA0122A2
:1029B00040F225511D4802F016FB01211B4802F090
:1029C00006FB05B000BD08B54FF4E06000F054FB15
:1029D00025208DF8000000208DF8010001208DF8E1
:1029E00002008DF80300684600F04BFB08BD70B58F
:1029F00004460D46E1B20D4802F056FB00BF8021AF
:102A00000A4802F0BFFB0028F9D0204670BD10B57F
:102A1000044600BF2021054802F0B4FB0028F9D08D
:102A2000024802F045FB10BD00080140003801409B
:102A300000B58BB00121084601F07BFA5A4800F03E
:102A4000B1FD5A4800905A4801900020029006209B
:102A500003900020049080200590400006908000A4
:102A60000790202008900002099000200A906946F3
:102A70004D4800F039FE01214B4800F060FE0BB0DC
:102A800000BD00B587B001211C2001F05FFA0E20C7
:102A9000ADF8180000208DF81B0006A9454800F08D
:102AA00099FF0120ADF8180000208DF81B0006A941
:102AB000414800F08FFF3020ADF8180000208DF85D
:102AC0001B0006A93D4800F085FFFFF7B1FF01217B
:102AD000480201F03BFA0020019001208DF8080027
:102AE0008DF809004FF46020039000200490062028
:102AF0008DF8140001A92D484C3800F052FB4FF41A
:102B0000004001F087F906230122082127484C38AC
:102B100000F0DFFB062302220F2124484C3800F08E
:102B2000D8FB062303220E2120484C3800F0D1FBAD
:102B30000623042203211D484C3800F0CAFB06235B
:102B40000522022119484C3800F0C3FB06231A461F
:102B5000012116484C3800F0BCFB012113484C38C9
:102B600000F056FB012111484C3800F046FB0F489D
:102B70004C3800F064FB00BF0C484C3800F064FB9C
:102B80000028F9D109484C3800F068FB00BF07481D
:102B90004C3800F068FB0028F9D1012103484C387B
:102BA00000F06BFB07B000BD080002404C24014060
:102BB0007003002000080140000C0140001001409B
:102BC00001460022C248814201D1042221E0C048CE
:102BD000814201D104221CE0BE48814201D1082279
:102BE00017E0BD48814201D1102212E0BB4881426A
:102BF00001D120220DE0BA48814201D1402208E0F3
:102C0000B848814201D1802203E0B748814200D117
:102C1000821590B270472DE9F84307460C461546D9
:102C20001E464FF00008C1463846FFF7C9FF8046F0
:102C30002846FFF7C5FF81460121404601F086F98D
:102C40000121484601F082F9ADF8004003208DF8DB
:102C5000020014208DF803006946384600F0BAFEE1
:102C6000ADF8006003208DF8020014208DF80300F9
:102C70006946284600F0AEFE4FF48061964800F0A9
:102C800056FF4FF40061944800F051FFBDE8F8830F
:102C9000052000BF011EA0F10100FBD1704710B557
:102CA0004FF480618C4800F042FFFFF7F1FF4FF4D2
:102CB0000061894800F03BFFFFF7EAFF8648806823
:102CC00000F4806008B9012010BD4FF48061824893
:102CD00000F02FFFFFF7DCFF4FF400617E4800F0AB
:102CE00028FFFFF7D5FF7C48806800F4806001284A
:102CF00001D10220E8E70020E6E710B54FF480613B
:102D0000754800F016FFFFF7C3FF4FF400617248EB
:102D100000F00DFFFFF7BCFF4FF480616E4800F03C
:102D200006FFFFF7B5FF10BD10B54FF480616A488C
:102D300000F0FFFEFFF7ACFF4FF40061664800F0C3
:102D4000F6FEFFF7A5FF4FF40061634800F0F1FEC7
:102D5000FFF79EFF10BD10B54FF480615E4800F094
:102D6000E6FEFFF795FF4FF400615B4800F0DFFEE1
:102D7000FFF78EFF4FF40061574800F0DAFEFFF7CF
:102D800087FF10BD70B504464FF40061524800F053
:102D9000D0FE002521E004F0800028B14FF48061CE
:102DA0004D4800F0C4FE04E04FF480614A4800F052
:102DB000C0FE6006040EFFF76BFF4FF4006146484B
:102DC00000F0B5FEFFF764FF4FF40061424800F0E9
:102DD000B0FEFFF75DFF681CC5B2082DDBDB4FF4CA
:102DE00080613D4800F0A3FEFFF752FF4FF4006101
:102DF000394800F09CFEFFF74BFF3748806800F42D
:102E0000806030B14FF40061334800F092FE002042
:102E100070BD4FF40061304800F08BFE0120F7E7F1
:102E200070B500244FF480612B4800F080FE4FF411
:102E30000061294800F07DFE00BF002518E04FF436
:102E40000061254800F073FEFFF722FF6006040EC4
:102E50002148806800F4806008B144F001044FF418
:102E600000611D4800F065FEFFF712FF681CC5B247
:102E7000082DE4DB204670BD70B506460C461546AD
:102E8000FFF70DFF3046FFF77DFF2046FFF77AFF83
:102E90002846FFF777FFFFF730FF70BD70B5044697
:102EA0000D46FFF7FCFE2046FFF76CFF2846FFF7B4
:102EB00069FFFFF7F4FE611CC8B2FFF763FFFFF77D
:102EC000AFFF0646FFF747FFFFF717FF304670BD1D
:102ED00000080140000C01400010014000140140B6
:102EE00000180140001C014000200140002107E0C3
:102EF000002200E0521C47F230539A42FADB491C90
:102F00008142F5DB704710B56420FFF7EFFF002228
:102F10006B21D020FFF7B0FF07221921D020FFF747
:102F2000ABFF07221A21D020FFF7A6FF18221B2192
:102F3000D020FFF7A1FF01221C21D020FFF79CFF2A
:102F40006420FFF7D3FF10BD70B5002400250026D4
:102F50003B21D020FFF7A2FF05463C21D020FFF700
:102F60009DFF064646EA052004B2204670BD70B5B6
:102F70000024002500263D21D020FFF78FFF0546C5
:102F80003E21D020FFF78AFF064646EA052004B21C
:102F9000204670BD70B50024002500263F21D020BA
:102FA000FFF77CFF05464021D020FFF777FF06465C
:102FB00046EA052004B2204670BD70B50024002505
:102FC00000264321D020FFF769FF05464321D0208A
:102FD000FFF764FF064646EA052004B2204670BDAE
:102FE00070B50024002500264521D020FFF756FFAC
:102FF00005464521D020FFF751FF064646EA052049
:1030000004B2204670BD70B500240025002647217B
:10301000D020FFF743FF05464721D020FFF73EFFB2
:10302000064646EA052004B2204670BD70B500246D
:10303000002500264121D020FFF730FF0546422120
:10304000D020FFF72BFF064646EA052004B22046B3
:1030500070BD00000648804706480047FEE7FEE7CF
:10306000FEE7FEE7FEE7FEE7FEE7FEE7FEE7FEE738
:10307000F30D00083101000831490143314A116064
:10308000704770B5002100230F22C47804B32D4C83
:10309000246804F4E064C4F5E064210AC1F1040387
:1030A000CA40447804FA03F18478144021430901AA
:1030B000254C0678A155047804F01F050124AC4086
:1030C00005786D11AD0005F1E025C5F8004109E076
:1030D000047804F01F050124AC401C4D06787611DD
:1030E00045F8264070BD1A4A0A400243154B1B1F83
:1030F0001A60704739B1134A121D12680243114B0E
:103100001B1D1A6006E00F4A121D126882430D4B08
:103110001B1D1A607047042808D14FF0E02109698F
:1031200041F004014FF0E022116107E04FF0E0218F
:10313000096921F004014FF0E0221161704700009D
:103140000000FA050CED00E000E400E080E100E0A2
:1031500080FFFF1F10B50446FA48844208D10121C0
:10316000401500F00DFF0021601500F009FF17E089
:10317000F548844208D10121001500F001FF00212B
:10318000201500F0FDFE0BE0F048844208D101213B
:10319000C80300F0F5FE00214FF4004000F0F0FEFF
:1031A00010BD30B50246002000235068E84C204096
:1031B0000D790C6844EA0524204350609068E54C82
:1031C0002040D1E902542C434D7944EA4504204380
:1031D0009060D06A20F470000C7C641EE4B223433B
:1031E00040EA0350D06230BD00210160017141719D
:1031F0008160C16001210174704721B1826842F091
:103200000102826003E0826822F00102826070475E
:1032100021B1826842F48072826003E0826822F405
:1032200080728260704710B50023CBB21AB1446837
:103230001C43446002E044689C43446010BD8168C4
:1032400041F0080181607047014600208A6802F061
:1032500008020AB1012000E000207047816841F0B7
:10326000040181607047014600208A6802F0040270
:103270000AB1012000E00020704721B1826842F4C9
:10328000A002826003E0826822F4A002826070479C
:10329000014600208A6802F480020AB1012000E0A1
:1032A0000020704710B50A4600210023416821F430
:1032B0006041531E41EA4331416010BD21B1426873
:1032C00042F40062426003E0426822F4006242601D
:1032D0007047F0B504460D4600200021092D11DD90
:1032E000E068A5F10A0606EB4607072606FA07F18D
:1032F0008843A5F10A0606EB460603FA06F10843E1
:10330000E0600CE0206905EB4507072606FA07F1A7
:10331000884305EB450603FA06F108432061072AB6
:103320000FDA606B561E06EB86071F2606FA07F1BA
:103330008843561E06EB860605FA06F108436063CD
:1033400022E00D2A0FDA206BD61F06EB86071F2618
:1033500006FA07F18843D61F06EB860605FA06F142
:103360000843206310E0E06AA2F10D0606EB860731
:103370001F2606FA07F18843A2F10D0606EB860622
:1033800005FA06F10843E062F0BD21B1826842F41B
:103390008012826003E0826822F4801282607047AB
:1033A0000146C86C80B2704766484C300068704770
:1033B00021B1426842F48062426003E0426822F434
:1033C00080624260704721B1426842F4805242609C
:1033D00003E0426822F48052426070470A460021AE
:1033E000816821F4E04111438160704721B1826816
:1033F00042F40042826003E0826822F4004282606C
:10340000704721B1826842F40212826003E0826850
:1034100022F4021282607047014600208A6802F49A
:1034200000120AB1012000E000207047F0B5044608
:103430001546002000220026092911DDE068A1F1CF
:103440000A0707EB470C072707FA0CF29043A1F194
:103450000A0707EB470703FA07F21043E0600CE0A6
:10346000206901EB410C072707FA0CF2904301EBAE
:10347000410703FA07F210432061A06BC0F3015625
:10348000EF1C06F1010CA7EB0C0707EB870C1F27BD
:1034900007FA0CF29043EF1C06F1010CA7EB0C07A6
:1034A00007EB870701FA07F21043A063F0BD10B5E0
:1034B0000A4600210023816B21F44011531E41EA8A
:1034C0000351816310BD08B5002300930090009B59
:1034D0000B440093009B1A6008BD08B5024600200B
:1034E0000090009201F12800009B18440090009881
:1034F000006880B208BD0A4600214168164B194099
:103500001143416070474162826270470A46002160
:10351000416821F01F0111434160704740B10949E2
:103520000831096841F40001064A0832116007E0D9
:1035300004490831096821F40001024A0832116087
:10354000704700000024014000280140003C014079
:10355000FFFEF0FFFDF7F1FFFFFD3FFF02460020F9
:1035600013680B400BB1012000E000207047CA43F4
:103570000260704770B502460020002300240B1241
:103580005568CEB205EA060415681D4015B10CB1A8
:10359000012000E0002070BD00220A12D343036026
:1035A0007047000001684FF6FE7211400160002173
:1035B000016041608160C1608D49884208D18C49B9
:1035C0000839496841F00F01894A083A51608AE098
:1035D00087491431884208D185490839496841F042
:1035E000F001834A083A51607DE0814928318842E0
:1035F00008D17F490839496841F470617C4A083A2A
:10360000516070E07A493C31884208D178490839E4
:10361000496841F47041764A083A516063E0744960
:103620005031884208D172490839496841F4702103
:103630006F4A083A516056E06D496431884208D1BA
:103640006B490839496841F47001694A083A516088
:1036500049E067497831884208D1654908394968A5
:1036600041F07061624A083A51603CE06149884229
:1036700006D1011F096841F00F01021F116032E0FD
:103680005C491431884208D15A49091F096841F040
:10369000F001584A121F116025E05649283188422E
:1036A00008D15449091F096841F47061514A121F39
:1036B000116018E04F493C31884208D14D49091F3B
:1036C000096841F470414B4A121F11600BE04949EF
:1036D0005031884207D14749091F096841F47021D8
:1036E000444A121F1160704710B50022026847F665
:1036F000F0739A430C6A8B6823430C6923434C692B
:1037000023438C692343CC6923434C6A23438C6A4B
:1037100023431A430260CB6843600B6883604B68A5
:10372000C36010BD0021016041608160C160016122
:1037300041618161C161016241628162704721B171
:10374000026842F00102026004E002684FF6FE7374
:103750001A40026070471AB103680B43036002E02D
:1037600003688B43036070474160704701464868B7
:1037700080B2704701460020002201F080531BB147
:103780001C4B083B1A6802E0194B083B1A6802EA16
:1037900001030BB1012000E00020704700F08051D0
:1037A00019B11449091F086002E01149083948603D
:1037B000704701460020002201F080531BB10D4BE1
:1037C000083B1A6802E00A4B083B1A6802EA010348
:1037D0000BB1012000E00020704700F0805119B1CA
:1037E0000449091F086002E0014908394860704730
:1037F0000800024008040240002044490860091DF6
:103800000860091D0860091D086041483F491431DE
:103810000860704700213D498279002A3AD00A4663
:10382000126803689A430B461A600A1D12680368FF
:103830009A430B1D1A60027911440A6803681A43FF
:103840000A60324A0832126803689A432F4B0833E1
:103850001A601A1D126803689A432C4B0C331A60C5
:103860004279102A0ED11A1F126803681A43274B97
:1038700008331A601A1D126803681A43234B0C336D
:103880001A600DE02149427911440A6803681A431D
:103890000A6005E0027911440A6803689A430A60E5
:1038A00070470021016001710C214171002181717B
:1038B00070471649103109680143144A10321160EB
:1038C000704701460020114A143212680A400AB1BA
:1038D000012000E0002070470C4914310860704757
:1038E000014600200022094B1B6803EA0102074B36
:1038F00014331B680B4013B10AB1012000E0002013
:10390000704702491431086070470000000401400C
:10391000FFFF0F0010B50446CC48844208D10121B6
:10392000042000F02DFB0021042000F029FB46E0DC
:10393000C748844208D10121082000F021FB002162
:10394000082000F01DFB3AE0C248844208D1012162
:10395000102000F015FB0021102000F011FB2EE0DC
:10396000BD48844208D10121202000F009FB00213C
:10397000202000F005FB22E0B848844208D1012154
:10398000402000F0FDFA0021402000F0F9FA16E096
:10399000B348844208D10121802000F0F1FA0021CF
:1039A000802000F0EDFA0AE0AE48844207D1012100
:1039B000801500F0E5FA0021A01500F0E1FA10BD35
:1039C00010B50121084600F0DBFA0021012000F0CB
:1039D000D7FA10BD2DE9F04102460025002600204F
:1039E00000230024002791F803C00CF00F0591F884
:1039F00003C00CF0100CBCF1000F03D091F802C012
:103A00004CEA050591F800C0BCF1000F31D01468F4
:103A100000202BE04FF0010C0CFA00F3B1F800C0CD
:103A20000CEA03069E4220D183004FF00F0C0CFAE3
:103A300003F7BC4305FA03FC4CEA040491F803C005
:103A4000BCF1280F06D14FF0010C0CFA00FCC2F8B3
:103A500014C00AE091F803C0BCF1480F05D14FF043
:103A6000010C0CFA00FCC2F810C0401C0828D1D38D
:103A70001460B1F800C0BCF1FF0F34DD54680020C1
:103A80002EE000F1080C4FF0010808FA0CF3B1F831
:103A900000C00CEA03069E4221D183004FF00F0CB8
:103AA0000CFA03F7BC4305FA03FC4CEA040491F852
:103AB00003C0BCF1280F05D100F1080C08FA0CF87E
:103AC000C2F8148091F803C0BCF1480F07D100F18F
:103AD000080C4FF0010808FA0CF8C2F81080401CDE
:103AE0000828CED35460BDE8F0814FF6FF71018005
:103AF000022181700421C170704702460020936842
:103B00000B400BB1012000E000207047014688689F
:103B100080B2704702460020D3680B400BB10120F1
:103B200000E0002070470146C86880B2704701611C
:103B30007047416170470AB1016100E0416170471F
:103B4000C16070474FF480320A43826181618261B3
:103B500082698269704702460020434B18684FF61D
:103B60008073184040EA021008433F4B18607047CA
:103B70003E49C8617047F0B50A4600230024002181
:103B8000002500F00046B6F1004F02D1364EF16933
:103B900001E0354E7168C0F3034583B200F440166E
:103BA000B6F5401F08D121F070612F4E766826F0DF
:103BB00070662D4F7E6012E000F48016B6F5801F0F
:103BC00006D1032606FA05F4A14341F0706106E030
:103BD000460D360103FA06F6B14341F0706122B199
:103BE000460D360103FA06F6314300F00046B6F101
:103BF000004F02D11C4EF16101E01B4E7160F0BD1F
:103C000030B500228B071C0F0F2303FA04F2164B6A
:103C100008338C1053F824309343134C08348D1020
:103C200044F8253023468C1053F824308C07240F99
:103C300000FA04F423430C4C08348D1044F825306A
:103C400030BD0A49DC3108607047000000080140BF
:103C5000000C014000100140001401400018014018
:103C6000001C0140002001400000014000002042F3
:103C7000DF48006840F00100DD4908600846406800
:103C8000DC490840DA49486008460068DA490840DB
:103C9000D74908600846006820F48020086008467C
:103CA000406820F4FE0048604FF41F0088607047B1
:103CB000CF49096821F48031CD4A11601146096865
:103CC00021F480211160B0F5803F03D0B0F5802F42
:103CD0000ED106E0C649096841F48031C44A11603A
:103CE00007E0C349096841F4A021C14A116000E01E
:103CF00000BF00BF704710B501460022002300201E
:103D00004A11012A02D1BA4C236806E0022A02D1E4
:103D1000B74C236A01E0B64C636A01F01F0201242C
:103D200094401C400CB1012000E0002010BD38B5CB
:103D3000002000900024002500BF3120FFF7DBFFAA
:103D400005460098401C00900098B0F5A06F01D087
:103D5000002DF2D03120FFF7CEFF08B1012400E0A2
:103D60000024204638BD01460020A14A106820F0FA
:103D7000F80040EAC10010607047A0490860704731
:103D8000024600209A4B586820F47C1042EA010356
:103D90001843974B5860704798490866704701462A
:103DA0000020934A506820F0030008435060704799
:103DB0008F48406800F00C007047014600208C4A94
:103DC000506820F0F0000843506070470146002022
:103DD000874A506820F4E06008435060704701460D
:103DE0000020834A506820F4605040EAC1005060CF
:103DF000704729B17E4A527A02437D4B5A7204E0E1
:103E00007B4A527A82437A4B5A7270477B49D83147
:103E10000860704701460020754A506820F4404011
:103E20000843506070470021714A20321170704A77
:103E300082F82010012802D004280AD104E00121D0
:103E40006B4A2032117005E00521694A2032117059
:103E500000E000BF00BF70476949086070476449CF
:103E6000096A0143624A1162704765494439086032
:103E7000704730B500210022002400235C4D6D689E
:103E800005F00C0121B1042905D0082923D105E052
:103E90005C4D056022E05B4D05601FE0544D6D6890
:103EA00005F47012524D6D6805F48034022505EB5F
:103EB00092421CB9544D554305600BE04C4D6D6862
:103EC00005F400351DB1504D5543056002E04D4DE0
:103ED0005543056002E04B4D056000BF00BF444DF7
:103EE0006D6805F0F0010909484D6B5C0568DD401F
:103EF00045603F4D6D6805F4E061090A434D6B5C18
:103F00004568DD4085603A4D6D6805F46051C90A29
:103F10003E4D6B5C4568DD40C560354D6D6805F410
:103F20004041890B3A4D6B5CC568B5FBF3F5056103
:103F300030BD29B12E4A526902432D4B5A6104E02B
:103F40002B4A526982432A4B5A61704729B1284A49
:103F500092690243264B9A6104E0254A92698243A2
:103F6000234B9A61704729B1214AD2690243204B01
:103F7000DA6104E01E4AD26982431D4BDA61704760
:103F800029B11B4AD2680243194BDA6004E0184A8F
:103F9000D2688243164BDA60704729B1144A12691D
:103FA0000243134B1A6104E0114A12698243104B19
:103FB0001A61704712494039086070470F49C86458
:103FC00070470B49C87170470948406A40F08070DB
:103FD00007494862704701460020054A92680A4036
:103FE0000AB1012000E00020704701498872704743
:103FF000001002400000FFF8FFFFF6FE0000424202
:104000008004424200127A0000093D0010010020A5
:104010002001002010B50446FE48844208D1012149
:10402000C014FFF7ADFF0021E014FFF7A9FFC4E0C3
:10403000B4F1804F08D101210846FFF7AEFF0021FF
:104040000120FFF7AAFFB8E0F348844208D101211C
:104050000220FFF7A2FF00210220FFF79EFFACE045
:10406000EE48844208D101210420FFF796FF002189
:104070000420FFF792FFA0E0E948844208D1012123
:104080000820FFF78AFF00210820FFF786FF94E051
:10409000E448844208D101211020FFF77EFF00216F
:1040A0001020FFF77AFF88E0DF48844208D1012121
:1040B0002020FFF772FF00212020FFF76EFF7CE039
:1040C000DA48844208D101214014FFF759FF00214A
:1040D0006014FFF755FF70E0D548844209D10121F3
:1040E000C804FFF74DFF00214FF40020FFF748FF01
:1040F00063E0D048844209D101210805FFF740FF61
:1041000000214FF48010FFF73BFF56E0CA4884427D
:1041100009D101214805FFF733FF00214FF40010BA
:10412000FFF72EFF49E0C548844208D10121402015
:10413000FFF733FF00214020FFF72FFF3DE0C0488D
:10414000844208D101218020FFF727FF0021802031
:10415000FFF723FF31E0BB48844208D101218015DD
:10416000FFF71BFF0021A015FFF717FF25E0B6485A
:10417000844209D101210804FFF702FF00214FF416
:104180008030FFF7FDFE18E0B048844209D10121DC
:104190004804FFF7F5FE00214FF40030FFF7F0FE72
:1041A0000BE0AB48844208D101218804FFF7E8FE08
:1041B00000214FF48020FFF7E3FE10BD00220288AB
:1041C000944B98420ED0994B98420BD0B0F1804F4F
:1041D00008D0914B984205D0904B984202D0904B1A
:1041E000984204D14FF68F731A404B881A438D4B77
:1041F000984207D08C4B984204D04FF6FF431A40A8
:10420000CB881A4302808B8883850B880385814B7A
:1042100098420BD0854B984208D08B4B984205D0E2
:104220008A4B984202D08A4B984201D10B7A03867E
:1042300001238382704770B5002400220023058C7F
:104240004FF6FE7635400584028C8388048B4FF64A
:104250008F752C40B51E2C400D882C43751E2A40AE
:104260000D892A434D882A436A4DA8420BD06F4DD1
:10427000A84208D0744DA84205D0744DA84202D07F
:10428000734DA84213D14FF6F7752A404D892A4342
:104290004FF6FB752A408D882A434FF6FF652B4069
:1042A0004FF6FF552B408D892B43CD892B438380BF
:1042B0000483CD888586028470BD70B500240022F9
:1042C0000023058C4FF6EF7635400584028C8388F9
:1042D000048B48F6FF752C404FF6FF452C400D88A7
:1042E0004FF6FF7606EA05252C434FF6DF752A4088
:1042F0000D8906EA05152A434D8806EA05152A4365
:10430000444DA84202D0494DA8421DD14FF67F75B9
:104310002A404D894FF6FF7606EA05152A434FF6E7
:10432000BF752A408D8806EA05152A434FF6FF35EA
:104330002B404FF2FF752B408D8906EA85052B43F4
:10434000CD8906EA85052B4383800483CD880587C4
:10435000028470BD70B5002400220023058C4FF646
:10436000FF6635400584028C8388848B4FF68F75F9
:104370002C404FF6FC752C400D882C434FF6FF5512
:104380002A400D894FF6FF7606EA05252A434D8817
:1043900006EA05252A431F4DA84202D0234DA84214
:1043A0001DD14FF2FF752A404D894FF6FF7606EA80
:1043B00005252A434FF6FF352A408D8806EA052554
:1043C0002A434EF6FF752B404DF6FF752B408D8925
:1043D00006EA05152B43CD8906EA05152B43838094
:1043E0008483CD888587028470BD70B50022002348
:1043F0000024058C4EF6FF7635400584038C8488B6
:10440000828B48F6FF752A404FF6FF452A400D88FB
:1044100020E00000002C01400004004000080040A3
:10442000000C004000100040001400400034014027
:10443000004C014000500140005401400018004071
:10444000001C0040002000400040014000440140AA
:10445000004801404FF6FF7606EA05252A434DF64F
:10446000FF752B400D8906EA05352B434D8806EA7A
:1044700005352B43FA4DA84202D0FA4DA84208D187
:104480004BF6FF752C408D894FF6FF7606EA8515B1
:104490002C4384808283CD88A0F84050038470BD73
:1044A000828B4FF2FF331A408283828B4FF6FF7369
:1044B00003EA01231A4382837047F0B50C46154680
:1044C000002200210026078C4EF6FF7C07EA0C072D
:1044D0000784828B018C4FF6FF7707EA043640F69B
:1044E000FF473A404FF6FF7707EA05273A434FF672
:1044F000FF7707EA03373A43D94FB8420ED0D94F76
:10450000B8420BD0B0F1804F08D0D74FB84205D099
:10451000D64FB84202D0D64FB84206D14DF6FF77FB
:10452000394046F48057394305E047F6FF57394094
:1045300044F48057394382830184F0BD828B4FF667
:10454000F3731A408283828B0A4382837047F0B5EB
:104550000C461546002200210026078C4FF6FF6C02
:1045600007EA0C070784828B018C4FF6FF7707EA76
:1045700004264FF60C773A404FF6FF7707EA031709
:104580002F433A43B64FB8420ED0B64FB8420BD085
:10459000B0F1804F08D0B44FB84205D0B34FB84205
:1045A00002D0B34FB84206D14FF6FF57394046F418
:1045B0008077394305E04FF2FF57394044F4807764
:1045C000394382830184F0BD028B4FF2FF331A40DE
:1045D0000283028B4FF6FF7303EA01231A4302831F
:1045E0007047F0B50C461546002200210026078CC6
:1045F0004FF6EF7C07EA0C070784028B018C4FF61D
:10460000FF7707EA041640F6FF473A404FF6FF7778
:1046100007EA03373A434FF6FF7707EA05273A439D
:104620008F4FB8420ED08F4FB8420BD0B0F1804FB1
:1046300008D08D4FB84205D08C4FB84202D08C4F75
:10464000B84206D14FF6DF77394046F010073943BC
:1046500005E04FF65F77394044F010073943028395
:104660000184F0BD028B4FF6F3731A400283028B74
:104670000A4302837047F0B50C461546002200211C
:10468000068C4FF6FE773E400684028B018C4FF677
:104690000C7632407E1C06EA03162E433243704EDF
:1046A000B0420ED06F4EB0420BD0B0F1804F08D068
:1046B0006D4EB04205D06D4EB04202D06C4EB0424D
:1046C00006D14FF6FD76314044F00106314305E056
:1046D0004FF6F576314044F0010631430283018400
:1046E000F0BD70B505460C465D4885420ED05D486C
:1046F00085420BD0B5F1804F08D05B48854205D08C
:104700005A48854202D05A48854200D100E000BF95
:10471000208850B92389A28861882846FFF7ABFF1B
:10472000E1882846FFF79EFF25E0208804280AD16B
:104730002389A28861882846FFF753FFE18828462D
:10474000FFF742FF17E0208808280AD12389A288B2
:1047500061882846FFF7FBFEE1882846FFF7EEFE5A
:1047600009E02389A28861882846FFF7A6FEE18830
:104770002846FFF795FE70BD2DE9F04105460C4631
:1047800000260127608808B9022600E00026A088DC
:10479000012801D1022700E001272088A0B9238940
:1047A000A28861882846FFF766FFE1882846FFF760
:1047B00059FF23893A4631462846FFF712FFE18820
:1047C0002846FFF701FF13E02389A2886188284665
:1047D000FFF707FFE1882846FFF7F6FE23893A46F0
:1047E00031462846FFF747FFE1882846FFF73AFFA2
:1047F000BDE8F0810A884B881A438B881A43CB881E
:104800001A430B891A434B891A438B891A43A0F820
:10481000442070474FF6FF71818000210180C180E4
:104820004180017270470021018041808180C180F8
:10483000018141818181C1817047002101804180D6
:10484000012181800021C180018170470021018008
:1048500041808180C1800181418181817047000058
:10486000002C0140003401400004004000080040DA
:10487000000C004021B1028842F00102028004E0F5
:1048800002884FF6FE731A400280704731B1B0F8CB
:10489000442042F40042A0F8442005E0B0F844204F
:1048A000C2F30E02A0F8442070471AB183890B436B
:1048B000838102E083898B438381704781827047C3
:1048C00041EA0203A0F8483070471AB183890B43CC
:1048D000838102E083898B438381704701894FF68E
:1048E000F8721140018170470A46002101894FF694
:1048F0008F73194011430181704730B504460D464E
:1049000029462046FFF7F0FF208940F0070020816C
:1049100030BD2DE9F04104460D4616461F46602D78
:1049200006D13B46012231462046FFF75AFE05E0FC
:104930003B46012231462046FFF79DFE2946204690
:10494000FFF7D2FF208940F007002081BDE8F08109
:1049500030B50C4600210189C9B24FF6FF7505EA52
:104960000325154325432943018130BD2DE9F0413D
:1049700005460E4617469846002443463A463146B9
:104980002846FFF7E5FF2C894FF6F870044044F005
:1049900007044FF68F70044044F070042C81BDE88A
:1049A000F081F0B504460D4616461F463B4632469A
:1049B00029462046FFF7CCFF208940F48040208123
:1049C000F0BD0185828270470A46002101884FF6BA
:1049D0008F731940114301807047F0B50C4615469E
:1049E0001E460021002200230189028B038C4FF612
:1049F000F877394021434FF6FC473A4040F201171F
:104A00003A434FF6DD773B404FF6FF7707EA06174C
:104A10002F433B43018102830384F0BD0A460021FA
:104A2000018B4FF68F7319401143018370470A467B
:104A30000021018B48F6FF7319404FF6FF7303EA1C
:104A400002231943018370470A460021818B4FF6E8
:104A50008F7319401143818370470A460021818B6F
:104A600048F6FF7319404FF6FF7303EA0223194318
:104A70008183704721B1028842F08002028004E005
:104A800002884FF67F731A400280704721B18288F6
:104A900042F00402828004E082884FF6FB731A40E1
:104AA0008280704721B1828842F00802828004E04F
:104AB00082884FF6F7731A408280704721B182884E
:104AC00042F00102828004E082884FF6FE731A40B1
:104AD000828070470A460021018B4FF6F773194018
:104AE0001143018370470A460021018B4FF2FF7387
:104AF00019404FF6FF7303EA0223194301837047FD
:104B00000A460021818B4FF6F773194011438183C8
:104B100070470A460021818B4FF2FF7319404FF610
:104B2000FF7303EA02231943818370470A46002179
:104B3000018B4FF6FB7319401143018370470A46FE
:104B40000021018B4FF6FF3319404FF6FF7303EA44
:104B500002231943018370470A460021818B4FF6D7
:104B6000FB7319401143818370470A460021818BF2
:104B70004FF6FF3319404FF6FF7303EA0223194340
:104B8000818370470A460021018B4FF67F731940DD
:104B90001143018370470A460021018BC1F30E01C6
:104BA0004FF6FF7303EA02231943018370470A4655
:104BB0000021818B4FF67F73194011438183704729
:104BC0000A460021818BC1F30E014FF6FF7303EA01
:104BD00002231943818370470A460021018C4FF656
:104BE000FD7319401143018470470A460021018C6E
:104BF0004FF6F77319401143018470470A460021AC
:104C0000018C4FF6DF7319404FF6FF7303EA02136E
:104C10001943018470470A460021018C4FF67F73C7
:104C200019404FF6FF7303EA0213194301847047DA
:104C30000A460021018C4FF6FF5319404FF6FF73CF
:104C400003EA02231943018470470A460021018CBC
:104C50004FF2FF7319404FF6FF7303EA0223194323
:104C6000018470470A460021018C4DF6FF731940FC
:104C70004FF6FF7303EA023319430184704730B5DE
:104C8000002301248C40A3B2048C9C430484048C34
:104C900002FA01F5ADB22C43048430BD30B50023D7
:104CA00004248C40A3B2048C9C430484048C02FA38
:104CB00001F5ADB22C43048430BD70B5034600202D
:104CC00000241846183001258D40ACB21D8CA54338
:104CD0001D8409B1082909D100EB6100056825F0A0
:104CE000700505600568154305600EE00D1FC5F3EE
:104CF0004E052844056825F4E045056005684FF633
:104D0000FF7606EA02263543056070BD21B10288B0
:104D100042F00202028004E002884FF6FD731A405E
:104D20000280704721B1028842F00402028004E050
:104D300002884FF6FB731A400280704721B18288C7
:104D400042F08002828004E082884FF67F731A402E
:104D50008280704702884FF6F7731A4002800288FB
:104D60000A430280704782884FF68F731A40828010
:104D700082880A438280704702894FF6F8731A408E
:104D8000028102890A430281704702894FF67F73CC
:104D90001A40028102890A43028170478184704768
:104DA000818570478186704701877047818770478A
:104DB000A0F84010704702884FF6FF431A40028067
:104DC00002880A43028070470146888E7047014678
:104DD000088F70470146888F70470146B1F8400040
:104DE00070470146888C70470146088D704702461F
:104DF0000020138A0B400BB1012000E00020704717
:104E0000CA430282704730B50246002000230024C6
:104E1000158A05EA0103958905EA010413B10CB16D
:104E2000012000E0002030BDCA430282704700002C
:104E300010B50446FB48844209D101218803FFF7DD
:104E40009FF800214FF48040FFF79AF832E0F648CF
:104E5000844209D101214804FFF79FF800214FF453
:104E60000030FFF79AF825E0F048844209D101218B
:104E70008804FFF792F800214FF48020FFF78DF8A7
:104E800018E0EB48844209D10121C804FFF785F8F6
:104E900000214FF40020FFF780F80BE0E548844242
:104EA00008D101210805FFF778F800214FF48010A0
:104EB000FFF773F810BD2DE9F04786B005460E46A2
:104EC0000024A24600BFA1460027B08900B100BF60
:104ED0002F462C8A4CF6FF700440F08804432C8245
:104EE000AC894EF6F3100440B088318908437189CB
:104EF00008430443AC81AC8A4FF6FF400440B089BC
:104F00000443AC8201A8FEF7B4FFC648874202D131
:104F1000DDF810A001E0DDF80CA0A88900F4004045
:104F200040B10AEBCA0000EB0A1031684900B0FB3F
:104F3000F1F807E00AEBCA0000EB0A1031688900BB
:104F4000B0FBF1F86420B8FBF0F004012009642103
:104F500001FB1089A88900F4004040B1322000EB29
:104F6000C900B0FBF1F000F00700044308E0322074
:104F700000EB09106421B0FBF1F000F00F000443D6
:104F80002C8106B0BDE8F0874FF416510160002176
:104F90008180C18001810C21418100218181704784
:104FA00010B502460020108A4FF2FF0318400B880C
:104FB0004C8823438C882343CC8823431843108296
:104FC00010BD0021018041808180C180704721B1E6
:104FD000828942F40052828104E082894DF6FF7397
:104FE0001A4082817047F0B5034600240026002550
:104FF000002040F66A17B94200D100BF1846C1F33D
:10500000421401F01F06012707FA06F5012C01D111
:105010000C3004E0022C01D1103000E014301AB141
:1050200007682F43076002E00768AF430760F0BDE1
:105030001AB1838A0B43838202E0838A8B43838283
:105040007047028A4FF6F0731A400282028A0A43BE
:105050000282704782894FF2FF731A4082818289EF
:105060000A438281704721B1828942F00202828123
:1050700004E082894FF6FD731A4082817047028AEC
:105080004FF6DF731A400282028A0A430282704797
:1050900021B1028A42F48042028204E0028A4BF685
:1050A000FF731A4002827047C1F308028280704782
:1050B00001468888C0F308007047818941F00101EA
:1050C00081817047028BD2B20283028B42EA0122B5
:1050D00002837047028B02F47F420283028B0A43F1
:1050E0000283704721B1828A42F02002828204E06A
:1050F000828A4FF6DF731A408282704721B1828A1A
:1051000042F01002828204E0828A4FF6EF731A4066
:105110008282704721B1828A42F00802828204E0D2
:10512000828A4FF6F7731A408282704721B18289D2
:1051300042F40042828103E08289C2F30E0282813E
:10514000704721B1828A42F40062828204E0828A3E
:105150004FF2FF731A4082827047828A4FF6FB73C8
:105160001A408282828A0A438282704721B1828AEF
:1051700042F00202828204E0828A4FF6FD731A40F6
:105180008282704702460020B1F5007F00D100BF47
:1051900013880B400BB1012000E00020704701F4A0
:1051A0000072B2F5007F00D100BFCA430280704791
:1051B00070B50246002400230025002040F66A1640
:1051C000B14200D100BFC1F3421501F01F03012617
:1051D00006FA03F3012D02D19689334006E0022D31
:1051E00002D1168A334001E0968A33400C12012620
:1051F00006FA04F41688344013B10CB1012000E023
:10520000002070BD10B50022002340F66A14A142B0
:1052100000D100BF0A1201249440A3B2DC430480F1
:1052200010BD00000038014000440040004800402C
:10523000004C004000500040F0B480EA0102D40F5E
:105240004200B2EB410F02D20246084611464A0024
:1052500042D0C30DDDB2C1F3C752AD1A202D35DAED
:10526000C1F3160141F4000204B15242C5F1200617
:1052700002FA06F12A411044B3EBD05F23D0C4B147
:10528000012DA0EBC35009DCF0BC4FF0004202EA54
:10529000C352DBB200F5000000F07ABA400000F122
:1052A000807000EBC350A0F1807040EAD1704900DB
:1052B00009E0490841EAC071A0EBC35000F50000C5
:1052C000400800EBC350F0BC00F059BA6142012223
:1052D00002EB4101001BF6E7F0BC704781F0004192
:1052E000AAE780F00040A7E780EA010210B502F0CB
:1052F0000043400022D04A001FD0010E01EB126192
:10530000C0F35600C2F3560240F4000042F400021B
:10531000A0FB022000047F39140400D0401C50EA96
:10532000124001D44000491EC2B20C0604EBD0105A
:10533000401C4008802A02D003E0002010BD20F06D
:105340000100002900DA0020184310BD30B480EAC3
:10535000010202F0004530F0004221F0004013D07D
:1053600090B1C30DD40DC2F31601C0F31600E41AB8
:1053700041F4000140F400027D34914201D3641CE9
:1053800000E04900002C02DA30BC002070474FF4E6
:1053900000000023914201D3891A034340084FEAD9
:1053A0004101F7D151B1914202D14FF0004105E0E6
:1053B00002D24FF0010101E06FF0010103EBC45094
:1053C000284430BC00F0DBB92DE9FE4F804681EA6D
:1053D0000300C00F0C46009021F0004123F000456F
:1053E000B8EB0200A94105D24046214690461C4632
:1053F0000B46024623F00040104347D0270DC7F369
:105400000A00C3F30A510290401A019040286BDA57
:10541000C3F3130040F4801B0098924620B1002390
:10542000D2EB030A63EB0B0B01985946C0F1400223
:10543000504600F073F906460D4650465946019A0B
:1054400000F08BF910EB08006141002487EA11524B
:1054500084EAE7731A4340D0009A62B3019A012AA2
:105460004FEA075215DC001B61EB02014FF00042CE
:1054700002EA0752CDE90042001C41F58011324694
:105480002B4600F0C2F903B0BDE8F08F404621463C
:10549000F9E7001B61EB0201001C41F580130018C5
:1054A0005B412018A2F5001747EB030140EAD570D5
:1054B000B6196D4111E06D084FEA360645EAC07530
:1054C0004FEA0752001B61EB0201001C41F58011FD
:1054D00049084FEA30000019514132462B4603B0CB
:1054E000BDE8F04F00F082B900980122400000238F
:1054F000D0EB020263EBE073009821464FEAE074C0
:10550000B8EB000061EB0401E9E783F000435BE7DF
:1055100081F0004158E72DE9FE4F81EA030404F0D1
:10552000004421F0004100944FF0000B23F00043B1
:1055300050EA01045ED052EA03045BD0C3F30A547C
:10554000C1F30A552C44A4F2F3340194A0FB025495
:10555000C1F3130141F48011C3F3130343F4801327
:1055600001FB024400FB034E840A970A44EA81547B
:1055700047EA8357A4FB076802958D0A05FB078558
:105580004FEA932C04FB0C542705029D4FEA065862
:1055900047EA1637B5EB08056EEB070C870E920E3F
:1055A00047EA811742EA8312A7FB0201B6EB0B011F
:1055B00064EB00042B0D43EA0C335E1844EB1C50E3
:1055C000DA465146E7FB0201C5F313044FEA0B33F9
:1055D00043EA14534FEA0432019C43EA0603A4F160
:1055E0000C040294009CCDE900B400F00EF903B065
:1055F000BDE8F08F00200146F9E7C10F80EAE070B6
:105600000844CA079623002100F0C2B8962300225E
:10561000114600F0BDB80EB540F2334102910021B1
:10562000CDE900110A460B4600F0EFF803B000BDCB
:1056300000F0004220F00040C10DC0F3160040F41D
:1056400000007F2901DA00207047962903DCC1F1B0
:105650009601C84001E096398840002AF4D04042C3
:10566000704770B5C1F30A5201F000450024C1F340
:10567000130140F2FF3341F480119A4201DA002015
:1056800070BD40F233439A42A2F2334203DC5242ED
:1056900000F053F800E090402C43F1D0404270BD40
:1056A00000F0004230F000400AD0C10D01F56071F9
:1056B000C0F3160042EA0151C20840071143704787
:1056C0000020014670470000002801DBC0F10040C7
:1056D000002901DBC1F1004181427047002801DB54
:1056E000C0F10040002901DBC1F100418842704750
:1056F00030B50B46014600202022012409E021FAA2
:1057000002F59D4205D303FA02F5491B04FA02F59E
:105710002844151EA2F10102F1DC30BD202A04DB71
:10572000203A00FA02F1002070479140C2F12003B4
:1057300020FA03F3194390407047202A04DB203AF3
:1057400021FA02F00021704721FA02F3D040C2F1A1
:1057500020029140084319467047202A06DBCB17E8
:10576000203A41FA02F043EAE07306E041FA02F31C
:10577000D040C2F1200291400843194670470029E9
:10578000A8BF7047401C490008BF20F001007047C7
:1057900010B4B0FA80FC00FA0CF050EA010404BF27
:1057A00010BC704749B1CCF1200421FA04F411FA7D
:1057B0000CF118BF012121430843A3EB0C01CB1DC1
:1057C0004FEA00614FEA102042BF002010BC704732
:1057D00000EBC35010440029A4BF10BC7047401C0C
:1057E000490008BF20F0010010BC704710B5141E1E
:1057F00073F1000408DA401C41F1000192185B418A
:105800001A4301D120F0010010BD2DE9F04D924660
:105810009B4611B1B1FA81F202E0B0FA80F2203277
:105820009046FFF77BFF04460F4640EA0A0041EA34
:105830000B0153465A46084313D0114653EA010060
:1058400019D0C8F140025046FFF777FF05460E46D3
:10585000504659464246FFF761FF084305D00120F4
:1058600004E020463946BDE8F08D0020054346EAB5
:10587000E0762C4337430A986305E40AA0EB08005E
:105880000022FD0A44EA47540A3002D500200146AE
:10589000E9E7010510196941DDE908450019694189
:1058A000BDE8F04DA2E70000064C074D06E0E068B9
:1058B00040F0010394E8070098471034AC42F6D357
:1058C000FAF73AFC605A0008805A00080FB4054BFA
:1058D00010B503A9044A029800F018F810BC5DF84E
:1058E00014FB0000EF2900082401002002E008C892
:1058F000121F08C1002AFAD170477047002001E04A
:1059000001C1121F002AFBD1704700002DE9FF4F93
:1059100089B09B460446002506E025280BD05A4650
:105920000B999047641C6D1C20780028F5D10DB0B0
:105930002846BDE8F08F0027B8460122474900E01D
:10594000074314F8013F203B02FA03F00842F7D165
:1059500020782E2819D114F8010F47F004072A28BF
:105960000ED06FF02F022078A0F1300109290CD859
:1059700008EB880102EB410100EB0108641CF2E72F
:105980000A98641C50F8048B0A9020780028CED026
:10599000642808D0692806D075281ED05A460B996D
:1059A00090476D1C58E00A994FF00A0901C90A9105
:1059B000002802DA40422D2102E0390504D52B21CE
:1059C0008DF82010012103E0F90704D02021F7E72A
:1059D0008A4608AE0DE00021FAE70A994FF00A095D
:1059E00001C90A91F7E74946FFF782FE303106F810
:1059F000011D0028F7D1ADEB060000F12009780762
:105A000001D44FF00108C84502DDA8EB090000E011
:105A100000208046002706E008A85A46C05D0B9982
:105A200090476D1C7F1C5745F6DB04E030205A463A
:105A30000B9990476D1CB8F10001A8F10108F5DC45
:105A400005E016F8010B5A460B9990476D1CB9F109
:105A50000001A9F10109F4DC641C65E709280100D3
:105A6000805A00080000002028010000EC580008BF
:105A7000A85B00082801002058060000FC58000818
:105A800000000707070700FF0000000000000000FB
:105A90000000000000000000000000000000000006
:105AA00000000000000000000000000000000000F6
:105AB00000000000000000000000000000000000E6
:105AC000000000000000000000A24A0400000000E6
:105AD0000000000001020304060708090000000F8F
