:020000040800F2
:10000000C007002079350008710E0008730E000843
:10001000770E00087B0E00087F0E0008000000002D
:10002000000000000000000000000000830E000837
:10003000850E000800000000870E0008371A00082F
:100040009335000893350008933500089335000870
:100050009335000893350008933500089335000860
:100060009335000893350008933500089335000850
:100070009335000893350008933500089335000840
:100080009335000893350008933500089335000830
:10009000933500089335000893350008CB2D0008F0
:1000A0009335000893350008933500089335000810
:1000B0009335000893350008933500089335000800
:1000C00093350008933500089335000893350008F0
:1000D00093350008933500089335000893350008E0
:1000E000F52D000893350008933500089335000876
:1000F00093350008933500089335000893350008C0
:1001000093350008933500089335000893350008AF
:10011000933500089335000893350008933500089F
:10012000933500089335000893350008933500088F
:10013000DFF80CD005F0DCFE00480047970C000803
:10014000C007002000E0401E0028FCD17047F0B539
:10015000002201230024FE4F07F8120007EB42079C
:100160007970521C00250EE0002608E0FF27DFF81A
:10017000E4C30CEBC50C0CF80670771CFEB2082E1D
:10018000F4DB6F1CFDB2082DEEDBAFE0F14F07EBA7
:10019000C0077B545F1CFBB20024EF4F07EBC00786
:1001A0007F5C07F001074FB1EA4F07EBC00C4F1C13
:1001B0001CF807709F4201DD671CFCB2E64F07EB9D
:1001C000C0077F5C07F002074FB1DFF888C3471C08
:1001D0000CEBC7077F5C9F4201DD671CFCB2DE4F62
:1001E00007EBC0077F5C07F004074FB1D94F07EB5F
:1001F000C00C4F1E1CF807709F4201DD671CFCB24B
:10020000D54F07EBC0077F5C07F008074FB1471ECB
:10021000DFF840C30CEBC7077F5C9F4201DD671C22
:10022000FCB284B9571EFAB2C94F07EB420797F9DF
:100230000000C74F07EB420797F90110C54F07EBC6
:10024000C0077B5C51E0012C07DDC14F07F81200AD
:1002500007EB42077970571CFAB2BF4F07EBC00794
:100260007F5C07F0010757B1BA4F07EBC00C4F1C7A
:100270001CF807709F4202DD4F1C79B236E0B64F82
:1002800007EBC0077F5C07F0020757B1DFF8C4C275
:10029000471C0CEBC7077F5C9F4202DD471C78B20E
:1002A00024E0AD4F07EBC0077F5C07F0040757B1B0
:1002B000A84F07EBC00C4F1E1CF807709F4202DDD1
:1002C0004F1E79B212E0A44F07EBC0077F5C07F026
:1002D000080757B1471EDFF87CC20CEBC7077F5CED
:1002E0009F4202DD471E78B200E000BF002A7FF483
:1002F0004DAFF0BD2DE9F04781468A464FF0010829
:100300000026964890F9004090F901505146484621
:10031000FFF71DFF8CE08F4800EBC40010F805804C
:100320008D4800EBC400405D00F0010080B18948B9
:1003300000EBC401681C085C404509DA00278848C6
:100340000078874204D1701C46B2681C45B26FE049
:10035000814800EBC400405D00F0020080B17D499F
:10036000601C01EBC000405D404509DA01277C4874
:100370000078874204D1701C46B2601C44B257E03A
:10038000754800EBC400405D00F0040080B1714886
:1003900000EBC401681E085C404509DA022770487A
:1003A0000078874204D1701C46B2681E45B23FE017
:1003B000694800EBC400405D00F0080080B1601E99
:1003C000644901EBC000405D404509DA03276448F9
:1003D0000078874204D1701C46B2601E44B227E008
:1003E000391D5F4A1278881AC11700EB9171891084
:1003F000A0EB81014FB25B490F7016B1304601F09E
:100400007AFB0026012F04D0022F05D0032F09D13B
:1004100005E001F09EFC06E001F073FD03E001F051
:100420003DFD00E000BF00BF4C480470457000BFB8
:100430004C457FF470AF5545FBD12EB1304601F0ED
:100440005AFB464804704570BDE8F08770B5FF243C
:100450000025002640484449097800EBC100434983
:100460000978405C00F00C00F8B14048007841B2D7
:100470003D48007840B2FFF76AFE36483C490978AB
:1004800000EBC1003B490978405CA0420DDA3648D8
:10049000007845B23548007846B22E48344909788C
:1004A00000EBC10033490978445C2B482E49097898
:1004B00000EBC10030490978405C00F00900F8B158
:1004C0002D48007841B22848007840B2FFF73FFE3F
:1004D00020482749097800EBC10026490978405C8B
:1004E000A0420DDA2048007845B22348007846B291
:1004F00018481F49097800EBC1001E490978445C7F
:1005000015481E49097800EBC10018490978405C7C
:1005100000F00600D8B11548007841B217480078BD
:1005200040B2FFF714FE0B481149097800EBC100F7
:1005300010490978405CA04227DA1048007845B29B
:100540000A48007846B203480949097818E01CE0D7
:1005500068010020070000206802002061000020E0
:1005600063000020BD0000200200002004000020E5
:1005700000000020010000200500002003000020F2
:1005800000EBC100F7490978445CF748F74909785E
:1005900000EBC100F6490978405C00F00300F8B1B7
:1005A000F348007841B2F148007840B2FFF7CFFD40
:1005B000F048F149097800EBC100EA490978405C4C
:1005C000A0420DDAE948007845B2E948007846B221
:1005D000E848E949097800EBC100E2490978445C40
:1005E00031462846FFF786FE70BD2DE9F04781466B
:1005F0008A464FF001080026E04890F9004090F943
:10060000015051464846FFF7A2FD8CE0D94800EB67
:10061000C40010F80580D44800EBC400405D00F031
:10062000010080B1D34800EBC401681C085C404560
:1006300009DA0027D2480078874204D1701C46B2FC
:10064000681C45B26FE0C84800EBC400405D00F094
:10065000020080B1C749601C01EBC000405D40450D
:1006600009DA0127C6480078874204D1701C46B2D7
:10067000601C44B257E0BC4800EBC400405D00F091
:10068000040080B1BB4800EBC401681E085C404513
:1006900009DA0227BA480078874204D1701C46B2B2
:1006A000681E45B23FE0B04800EBC400405D00F07A
:1006B000080080B1601EAF4901EBC000405D4045BD
:1006C00009DA0327AE480078874204D1701C46B28D
:1006D000601E44B227E0391DA94A1278881AC11752
:1006E00000EB91718910A0EB81014FB2A5490F7009
:1006F00016B1304601F0FFF90026012F04D0022F79
:1007000005D0032F09D105E001F023FB06E001F03D
:10071000F8FB03E001F0C2FB00E000BF00BF974818
:100720000470457000BF4C457FF470AF5545FBD158
:100730002EB1304601F0DFF9904804704570BDE8F5
:10074000F08710B501460022002339B1012902D0FB
:10075000022919D10DE08A48017816E0884C2478E6
:10076000E01CC41700EB9474A410A0EB8404E1B265
:100770000BE0834C2478601CC41700EB9474A41025
:10078000A0EB8404E1B200E000BF00BF31B1012959
:100790000BD0022911D003291ED115E0774890F91A
:1007A00000204078401C43B217E074480078401C99
:1007B00042B2724890F901300FE0704890F9002081
:1007C0004078401E43B208E06C480078401E42B2B8
:1007D0006A4890F9013000E000BF00BF6A4800EBB2
:1007E000C200C05C10BD10B5644890F900005E49BD
:1007F00001EBC000614991F90110405C6049097842
:100800004C1CE11704EB91718910A4EB81020121CA
:100810009140084030B10220FFF793FF10B901F07A
:1008200098FA10BD554890F900004F4901EBC000FF
:10083000524991F90110405C51490A7801219140D7
:10084000084020B10120FFF77CFF00B9E9E74B48E1
:1008500090F90000444901EBC000484991F90110AA
:10086000405C47490978CC1CE11704EB9171891071
:10087000A4EB810201219140084030B10020FFF734
:1008800060FF10B901F00AFBCBE700BFC9E710B564
:100890003A4890F90000344901EBC000374991F91A
:1008A0000110405C36490978CC1CE11704EB9171CA
:1008B0008910A4EB810201219140084030B1002051
:1008C000FFF73FFF10B901F0E9FA10BD2B4890F98E
:1008D0000000254901EBC000284991F90110405C56
:1008E00027490A7801219140084020B10120FFF7F3
:1008F00028FF00B9E9E7214890F900001A4901EB07
:10090000C0001E4991F90110405C1D4909784C1C3A
:10091000E11704EB91718910A4EB81020121914050
:10092000084030B10220FFF70CFF10B901F011FAB6
:10093000CBE700BFC9E710B5104890F900000A499D
:1009400001EBC0000D4991F90110405C0C490A7897
:10095000012191400840C8B10120FFF7F2FEA8B97B
:1009600010BD0000010000206802002003000020EC
:10097000050000200700002000000020610000208A
:1009800063000020BD000020A8020020FE4890F96E
:100990000000FE4901EBC000FB4991F90110405CE9
:1009A000FB4909784C1CE11704EB91718910A4EB09
:1009B000810201219140084030B10220FFF7C1FEC1
:1009C00010B901F0C6F9CBE7EF4890F90000EF4904
:1009D00001EBC000EC4991F90110405CEC49097849
:1009E000CC1CE11704EB91718910A4EB8102012169
:1009F0009140084030B10020FFF7A3FE10B901F08C
:100A00004DFAADE700BFABE710B5DF4890F9000045
:100A1000DE4901EBC000DC4991F90110405CDC4982
:100A20000A7801219140084020B10120FFF789FE9A
:100A300000B910BDD44890F90000D44901EBC000C2
:100A4000D14991F90110405CD1490978CC1CE117DA
:100A500004EB91718910A4EB8102012191400840BF
:100A600030B10020FFF76DFE10B901F017FAE0E792
:100A7000C54890F90000C54901EBC000C24991F991
:100A80000110405CC24909784C1CE11704EB9171DC
:100A90008910A4EB810201219140084030B102206D
:100AA000FFF74FFE10B901F054F9C2E700BFC0E7ED
:100AB00010B5B548007800F00800002834D0B248DE
:100AC000407800F00800B8B1B148007830B1012892
:100AD00007D0022808D003280CD108E0FFF7D7FE82
:100AE00009E0FFF780FE06E0FFF725FF03E0FFF7D0
:100AF0008BFF00E000BF4CE0A548007830B1012832
:100B000007D0022808D003280CD108E0FFF77CFFAB
:100B100009E0FFF7BCFE06E0FFF765FE03E0FFF724
:100B20000AFF00E000BF34E09748407800F008007A
:100B3000B8B19748007830B1012807D0022808D012
:100B400003280CD108E0FFF74EFE09E0FFF7F3FEA3
:100B500006E0FFF759FF03E0FFF799FE00E000BF52
:100B600017E08B48007830B1012807D0022808D060
:100B700003280CD108E0FFF7DEFE09E0FFF744FF91
:100B800006E0FFF784FE03E0FFF72DFE00E000BF64
:100B900000BF10BD10B5024600207C4B03EBC20322
:100BA0005B5C03F001033BB17A4B03EBC2044B1CCB
:100BB000E35C0BB9431CD8B2744B03EBC2035B5C20
:100BC00003F002033BB1734C531C04EBC3035B5CA7
:100BD0000BB9431CD8B26D4B03EBC2035B5C03F053
:100BE00004033BB16B4B03EBC2044B1EE35C0BB93C
:100BF000431CD8B2654B03EBC2035B5C03F00803F4
:100C00003BB1531E634C04EBC3035B5C0BB9431C49
:100C1000D8B210BD10B50220052813D2DFE800F0CD
:100C20000306090C0F00FFF7DEFD0CE0FFF72FFEB7
:100C300009E0FFF73DFF06E0FFF77DFE03E0FFF769
:100C4000E3FE00E000BF00BF10BD10B501217D2014
:100C500003F00EFC10BD10B54F48FFF773FA0121E9
:100C60004E4803F0F8F908214D4803F0F2F901F07D
:100C70001FFF4948FFF766FA01F021FF01214748AD
:100C800003F0E7F90821464803F0E5F94FF47A70DC
:100C9000FFF758FA10BDA2B0FFF7D7FF00F063F9D5
:100CA00002F0BDF802F0E2F800F093FAFFF7D3FF8C
:100CB00002203C49087001F0FBFE3B48FFF742FA76
:100CC00001F0FDFEBFE03948016839A005F04EF99A
:100CD0003948408938490989374AD288CDE9002105
:100CE0000290354883884288018834A005F03EF997
:100CF0003748006804F028FF04460D463548006870
:100D000004F022FF06460F463248006804F01CFF3C
:100D1000804689463048006804F016FF82468B46BC
:100D20002E48006804F010FFCDE920012C4800682F
:100D300004F00AFFCDE91E012A48006804F004FF10
:100D4000CDE91C012848006804F0FEFECDE91A0137
:100D50002648006804F0F8FECDE918012448006830
:100D600004F0F2FECDE916012248006804F0ECFE22
:100D7000CDE90CABCDE90E89CDE91067CDE912457F
:100D8000CDE9140138E00000610000206802002075
:100D900063000020A802002080969800000801400F
:100DA0000010014006000020C0C62D001C010020DC
:100DB00078783D2564090000A403002025642025DF
:100DC00064202564202564202564202564200A00F1
:100DD0001001002008010020040100200001002073
:100DE000FC000020F8000020F4000020F0000020AB
:100DF000EC000020E8000020DDE92001CDE90A0137
:100E0000DDE91E01CDE90801DDE91C01CDE906019E
:100E1000DDE91A01CDE90401DDE91801CDE902019E
:100E2000DDE91601CDE9000107A0DDE9142305F095
:100E30009DF84FF47A70FFF785F90C480078022886
:100E400001D101F029FD3EE72566092566092566E1
:100E500009256609256609256609256609256609A5
:100E60002566092566092566200D0A000600002072
:100E7000704700BFFEE700BFFEE700BFFEE700BF10
:100E8000FEE77047704770470CB500200190009056
:100E90006C48006840F480306A49086000BF6948C7
:100EA000006800F4003000900198401C0190009808
:100EB00018B90198B0F5A06FF1D16248006800F44C
:100EC000003010B10120009001E000200090009857
:100ED000012843D15C48006840F010005A4908607E
:100EE0000846006820F0030008600846006840F0EB
:100EF000020008605348406852494860084640680C
:100F000048600846406840F4806048600846406891
:100F100020F47C1048600846406840F4E8104860BF
:100F20000846006840F08070086000BF45480068CF
:100F300000F000700028F9D04248406820F003001B
:100F4000404948600846406840F00200486000BFE1
:100F50003C48406800F00C000828F9D10CBD10B5E1
:100F6000FFF792FF10BD10B53648006840F0010051
:100F700034490860084640683449084031494860AF
:100F800008460068324908402E4908600846006853
:100F900020F4802008600846406820F4FE00486085
:100FA0004FF41F008860FFF7DAFF4FF00060294917
:100FB000086010BD10B5002100200022214B5B68A5
:100FC00003F00C0121B1042906D0082928D107E03B
:100FD000214B224C236027E01F4B204C236023E051
:100FE000184B5B6803F47010164B5B6803F4803297
:100FF000022303EB904022B9194B4343174C236063
:101000000DE0104B5B6803F4003323B1144B4343F2
:10101000124C236003E0104B4343104C236003E069
:101020000D4B0E4C236000BF00BF064B5B68C3F343
:1010300003130C4CE15C094B1B68CB40074C23604D
:1010400010BD000000100240002002400000FFF828
:10105000FFFFF6FE08ED00E000127A004C000020D1
:1010600000093D005000002000E0401E0028FCD197
:10107000704700EBC0014FF0E02251611146096951
:1010800041F00101116100BF4FF0E021096901F455
:1010900080310029F8D000214FF0E02211619161E8
:1010A000704710B5FD4890F9010020B1012812D019
:1010B00002282ED11FE02021F94802F0CCFF4FF486
:1010C0008071F74802F0C5FFF448808981B2F54885
:1010D00004F0FCF81EE02021F14802F0BAFF4FF4C2
:1010E0008071EF4802F0B7FFEC48808981B2ED488B
:1010F00004F0ECF80EE02021E94802F0AAFF4FF4DA
:101100008071E74802F0A5FF0021E64804F0DEF810
:1011100000E000BF00BF10BD10B5E34890F901002A
:1011200020B1012812D002282ED11FE04FF48051A7
:10113000DE4802F090FF0421DD4802F08AFFDA4821
:10114000808981B2D74804F0BFF81EE04FF4805187
:10115000D64802F07EFF0421D54802F07CFFD24839
:10116000808981B2CF4804F0AFF80EE04FF480518F
:10117000CE4802F06EFF0421CD4802F06AFF002144
:10118000C84804F0A1F800E000BF00BF10BD10B5D2
:101190000220C5494870C14948700020C5494860CF
:1011A000FFF7BAFFFFF77DFF0020C349087010BDAD
:1011B00010B50020BC494870B8494870BF48BD49C7
:1011C0004860FFF7A9FFFFF76CFF0120BA490870DC
:1011D00010BD0020BA490860BA4908800881BA49A0
:1011E0000860BA4908800881B24948600881C8602F
:1011F00008614FF07C504861B5488861B548C861C6
:1012000000200884B44948600881C86008614FF034
:101210007C504861AE488861AE48C86100200884AF
:1012200070472DE9FC5FA349B1F9080004F039FCCF
:101230000646A0484168304604F0E5FA04469D4859
:10124000C168204604F0DCFA05469A480169284640
:1012500004F0D6FA01904FF08041204604F092FC51
:1012600006D24FF08041204604F0CAFA04460DE051
:101270004FF04041204604F07BFC06D24FF0804105
:10128000204604F06BFA044600E000244FF0814150
:10129000204604F077FC04D39049204604F068FC13
:1012A00003D200208E49087002E001208C490870AA
:1012B0008048C46005610146C869019904F0A6FA36
:1012C00082468748007804F0F5FB834679488169B7
:1012D000584604F09BFA8146214604F097FA80466E
:1012E00074494869294604F091FA4146009004F097
:1012F00035FA0746514604F031FA064604F0ECFB95
:101300006C49098C084400B26A490884BDE8FC9F16
:101310002DE9F04F8DB073498988C1F5487004F00C
:10132000C0FB824670480168504604F069FA834663
:101330006E480168584604F063FA0C906A48C0F899
:1013400000A06A48C0F800B00C9804F0FDFB044609
:10135000674A684B04F033FBCDE90601504604F0C0
:10136000F3FB04460D466448007804F0A8FB0646EB
:101370004FF03332614B04F022FB804622462B466D
:1013800004F01DFBCDE90201584604F0DDFB0446E4
:1013900000225B4B04F013FBCDE90001DDE90223E1
:1013A00004F066FACDE90401DDE9062304F060FAF1
:1013B000CDE9080104F0A9FB00B20A9004F071FB2A
:1013C0000B90504801680B9804F0C8F94D4908602B
:1013D0000DB0BDE8F08F2DE9F04F8DB04149C988BF
:1013E000C1F5617004F05DFB8246474801685046D4
:1013F00004F006FA834645480168584604F000FAAE
:101400000C904148C0F800A04048C0F800B00C98CB
:1014100004F09AFB0446364A364B04F0D0FACDE984
:101420000601504604F090FB04460D46384800780B
:1014300004F045FB06464FF03332304B04F0BFFA60
:10144000804622462B4604F0BAFACDE902015846FE
:1014500004F07AFB04460022294B04F0B0FACDE9EF
:101460000001DDE9022304F003FACDE90401DDE91E
:10147000062304F0FDF9CDE9080104F046FB00B2B3
:101480000A9004F00EFB0B90224801680B9804F0C0
:1014900065F9204908600DB0BDE8F08FF802002022
:1014A000000C014000080040E8020020001001404C
:1014B0000014014050030020600000200000C841DB
:1014C0004001002008030020440100202C030020DC
:1014D0009A99993E0AD7A33C74030020000080C06B
:1014E00035010020A4030020CC000020D000002003
:1014F0007B14AE47E17A943F360100203333D33F6B
:101500000000E03FD4000020D8000020DC000020D4
:1015100037010020E00000202DE9FC5FFE49B1F911
:10152000080004F0BEFA0646FB494868FB49096812
:1015300004F014F90746314604F062F90446F6480F
:10154000C168204604F05CF90546F3480169284665
:1015500004F056F901904FF08041204604F012FB50
:1015600006D24FF08041204604F04AF904460DE0CF
:101570004FF04041204604F0FBFA06D24FF0804184
:10158000204604F0EBF8044600E000244FF08141CF
:10159000204604F0F7FA04D3E149204604F0E8FAC3
:1015A00003D20020DF49087002E00120DD49087005
:1015B000D948C46005610146C869019904F026F95B
:1015C0008246D848007804F075FA8346D24881698B
:1015D000584604F01BF98146214604F017F980466D
:1015E000CD494869294604F011F94146009004F0BC
:1015F000B5F80746514604F0B1F8064604F06CFA17
:10160000C549098C084400B2C3490884BDE8FC9F61
:1016100010B5FFF706FEFFF77FFFC348008CBE49F9
:10162000098C401A00B2C14988810846B0F90C0003
:10163000B0F5C87F02DB4FF4C8708881BB48B0F9B1
:101640000C00002802DC0020B8498881B648008CD4
:10165000B149098C084400B2B54988810846B0F9FF
:101660000C00002813DB002048700846B0F90C007D
:10167000B0F5C87F02DB4FF4C8708881AC48B0F980
:101680000C00002808DC0020A949888104E0022021
:10169000A749487000208881FFF73EFDFFF701FD54
:1016A00010BDA4480088A44908800020A149086012
:1016B000A148008800B2A0490881A0480088A0493C
:1016C000088000209D4908609D48008800B29C4920
:1016D00008819948B0F908009A4908609848B0F91B
:1016E0000800994908609649B1F90810924AB2F980
:1016F0000820881800EBD071491009B28A4A11817C
:101700008F49B1F908108C4AB2F90820881A00EB09
:10171000D071491009B2804A1181704710B5044652
:10172000062C23D2DFE804F003080D13181D402116
:10173000864802F08EFC1AE08021844802F089FC81
:1017400015E04FF48071814802F083FC0FE08021A6
:101750007F4802F07EFC0AE020217D4802F079FCFF
:1017600005E010217A4802F074FC00E000BF00BFE1
:1017700010BD10B5774800780C286FD2DFE800F074
:10178000061F2B4C546F779098B1B9F872480088B7
:1017900072490988401A724908800846008841F257
:1017A0008831884202DD07206D49088001216848A0
:1017B00002F051FC4021654802F04DFCE9E0674829
:1017C0004088684908600121614802F042FC01201C
:1017D000FFF7A4FFDDE06148408862490988081AE4
:1017E0005F494880084640885F4908605B484088F8
:1017F0005E4908605A48408841F28831884202DDDB
:101800000720574948808021504802F024FCFFF708
:101810007FFDFFF7E0FDBCE0504880884E4988809E
:101820000220FFF77BFFB4E04B4880884B49898852
:10183000401A4B4988800846808841F288318842A6
:1018400002DD0720464988804FF480713F4802F04E
:1018500002FCFFF75DFDFFF7BEFD9AE098E03F4810
:10186000C0883D49C8800320FFF758FF91E03A48FF
:10187000C0883A49C988401A3949C8800846C08892
:1018800041F28831884202DD07203549C880802135
:101890002F4802F0E0FBFFF73BFDFFF79CFD78E0EF
:1018A0002E4800892C4908810420FFF737FF70E09B
:1018B0002948008929490989401A29490881084687
:1018C000008941F28831884202DD072024490881DD
:1018D00020211F4802F0BFFBFFF71AFDFFF77BFD39
:1018E00057E01E4840891C4948810520FFF716FF34
:1018F0004FE01948408919494989401A18494881D7
:101900000846408941F28831884202DD07201449A7
:10191000488110210E482CE074030020B000002004
:10192000000080C03801002050030020F802002091
:10193000E8020020400100200803002044010020AC
:101940002C03002018010020140100200010014089
:10195000000801403901002098030020B003002056
:10196000A4030020C4000020C0000020C800002004
:1019700006E002F070FBFFF7CBFCFFF72CFD08E060
:10198000FE480088FE4908800020FFF7C7FE00E0FF
:1019900000BF00BFFB4804780078401C0C2190FB7E
:1019A000F1F201FB1200F7490870204610BD70B536
:1019B000F548008984B2F548006804F072F80546DD
:1019C000F1484168284604F0DDF811D2204604F0C1
:1019D00071F80546EC484168284604F0D3F807D86A
:1019E000E94948684FF0814103F0B8FEE649486094
:1019F00070BD70B5E448008984B2E3494868E449A1
:101A000004F0C0F816D8E04948684FF07E5103F062
:101A1000A5FE0546204604F04DF80646294604F08A
:101A2000A7F807D8D84948684FF07E5103F0E8FE80
:101A3000D549486070BD10B5FFF733FEFFF799FE3A
:101A400040B2D4490870D448C08840F24C41884222
:101A500003DDD248D24908600BE0CF488088B0F55A
:101A6000A06F03DDCF48CE49086002E00020CC49DA
:101A70000860C5484068CC490860C349B1F908000E
:101A800004F00FF8C9490860BF48C068C849086039
:101A9000BD480069C7490860BB49B1F9200004F09E
:101AA00000F8C5490860C5484068C5490860C34991
:101AB000B1F9080003F0F5FFC2490860BF48C068EB
:101AC000C1490860BD480069C0490860BB49B1F917
:101AD000200003F0E6FFBE490860BE49B1F90C00E2
:101AE00003F0DFFFBC490860BC480078012801D141
:101AF000FFF78EFD10BD70B50022002301240025E4
:101B0000B74E3570B34D2D7805B1002401281AD198
:101B100001220123B34D2D78B34E3678B54207D15B
:101B200041F25455B14E35800025B14E358006E066
:101B300041F25455AD4E3580FC25AD4E358014250F
:101B4000924E356007E00025A84E3580A84E3580BE
:101B500014258E4E3560A44D2D78A24E3570A54DBE
:101B60002D78072D03D1A34D6D78072D17D0A14DEA
:101B70002D78082D03D19F4D6D78082D0FD09D4DE8
:101B80002D78072D03D19B4D6D78082D07D0994DE9
:101B90002D78082D0AD1974D6D78072D06D100229A
:101BA00000230025914E3580914E3580924D2D7841
:101BB000032D03D0904D2D78022D05D143F2381519
:101BC0008E4E35608E4E3560014601258A4E357049
:101BD0008C4D6E6840F26D15454306EB0515894E38
:101BE00075607C4D6E6840F26D15454306EB05153A
:101BF000784E75600225834E3570764E357098E0CC
:101C00007E4D2D6841F2D066B54218D3714D6D6896
:101C1000AD1B704E7560794D2D68A5F5B055D03D62
:101C2000764E356054B1451E68B200B987E04D1E4E
:101C3000854204DD00256A4E357000E00124704DB8
:101C40002D6841F2D066B5420BD36E4D6D68AD1B69
:101C50006C4E75606A4D2D68A5F5B055D03D684E47
:101C60003560022865DA484DB5F908501E2D05DDAE
:101C700003255B4E3570644D434E756002B3604D75
:101C80002D6842F260263544584E3688AD1B5D4EB5
:101C90007560564D2D8842F26026751B4D4E75605D
:101CA00007E04C4D6E68554D2D683235AE4200D27E
:101CB00045E0394D6D88554E3688B542F1DB06E07A
:101CC000354D6D88514E3688B54200DD01224BB34B
:101CD000314DAD884E4E3688B5422ADA484D2D68D2
:101CE00042F260263544414E3688AD1B454E756044
:101CF000424D2D6842F2602635443C4E3688AD1B7D
:101D0000344E756007E0334D6E683C4D2D683235BA
:101D1000AE4200D213E0204DAD883D4E3688B5422C
:101D200007DAF0E71C4DAD88394E3688B54200DD44
:101D30000123284D2D78002D7FF462AF00BF70BDC8
:101D40000020114948601D4948600320244908705B
:101D5000704710B5032028490870022029490870EF
:101D60001C4908702B490978481CC11700EB917178
:101D70008910A0EB8101274A11704DE0B0030020CB
:101D8000980300203901002050030020A800002003
:101D90000000A0403F010020A40300206666E63F4B
:101DA000B00000206666E6BFE8000020EC000020DE
:101DB000F0000020F4000020F80000207403002050
:101DC000FC00002000010020040100200801002088
:101DD0000C010020F802002010010020600000200B
:101DE000B4000020BC000020BD000020B600002090
:101DF000B800002061000020A7000020480100205A
:101E00004C010020E80200200000F04124010020E5
:101E10002A01002063000020FD48FE49486000E0E0
:101E200000E0FDE700BF0020FA4948600320FA49BE
:101E3000087040F6B830F94948600020886040F6E4
:101E4000B830F74948600020886000BFF4488068D7
:101E50006430F34949688842F8D900BFEF48806888
:101E60006430EE4949688842F8D90320ED4908708A
:101E70000020E9490870EA490870E8490870E84913
:101E80008881FFF749F90020E4498881FFF709F9C3
:101E90000020E3498860E149886010BD0220E149E3
:101EA00008700420DE490870DC490870DE490978B2
:101EB000C81CC11700EB91718910A0EB8101DA4AAF
:101EC0001170704743F2B060D54948600020D7498F
:101ED000086043F2B060D14948600020D4490860EE
:101EE00000BFCF484168D148006864308142F8D2D1
:101EF00000BFCA484168CE48006864308142F8D2C9
:101F0000704710B5CB48007858B3CB48CB494860F0
:101F100000BFCB480088CB4909888842F9DBC84814
:101F20004088C94909888842F3DB4FF4C870BC492E
:101F30004860002088604FF4C870B84948600020AD
:101F4000886000BFB64880686430B54949688842F7
:101F5000F8D900BFB14880686430B0494968884208
:101F6000F8D90020B34908700120B8490870002052
:101F7000B2494860FFF7E4FE0420AA490870022035
:101F8000A6490870A6490870A7490978881CC11796
:101F900000EB91718910A0EB8101A34A1170AC484C
:101FA0009C49486000E000E0FDE700BF002099493F
:101FB000486005209B490870A648A04948604FF436
:101FC0002F6097494860002088604FF42F60934944
:101FD00048600020886000BF914880686430904964
:101FE00049688842F8D900BF8C48806864308B49C2
:101FF00049688842F8D9FFF7A3FE01208949087093
:102000009548FFF731F80020834908708A488B49CA
:1020100048604FF47A7082494860002088604FF42D
:102020007A707E4948600020886000BF7C488068E4
:1020300064307B4949688842F8D900BF7748806896
:102040006430764949688842F8D90020744908709C
:102050007249087072498881FFF75EF800206F4965
:102060008881FFF71EF842F6E0606D4988606B4991
:10207000886010BD30B5002000216B4B1B789A1C86
:10208000D31702EB93739B10A2EB83040123A340AD
:102090000343D8B26A4A5288704B1B889A420EDDBD
:1020A000614B1B78DA1CD31702EB93739B10A2EBE6
:1020B00083040123A340984341F006010CE05A4BEE
:1020C0001B78DA1CD31702EB93739B10A2EB8304EB
:1020D0000123A3400343D8B2594A1288604B1B889E
:1020E0009A420DDD564AD2885E4B1B889A4207DD24
:1020F0004D4A137801229A40904341F0400105E097
:10210000494A137801229A400243D0B24C4A92883D
:10211000554B1B889A420EDD434B1B785A1CD31734
:1021200002EB93739B10A2EB83040123A34098431B
:1021300041F030010CE03C4B1B785A1CD31702EBEA
:1021400093739B10A2EB83040123A3400343D8B2F3
:10215000464A92F90020464B03EBC202434B93F9E7
:102160000130D054414A92F90020424B03EBC202A5
:102170003E4B93F90130D0543C4A92F900203E4B3B
:1021800003EBC202394B93F90130D054374A92F92C
:102190000120072A19DA354A92F90020364B03EB61
:1021A000C203324A92F90120521C9B5C01228243F5
:1021B00023EA82032D4A92F900202F4C04EBC2043B
:1021C0002A4A92F90120521CA354284A92F900206D
:1021D000072A19DA254A92F90020521C264B03EBF4
:1021E000C202224B93F90130D35C0222824323EADC
:1021F00082031E4A92F90020521C1F4C04EBC202BB
:102200001A4C94F901401355184A92F9012035E00F
:1022100000008CC274030020B4000020F8020020EB
:10222000E8020020A7000020630000204C010020ED
:1022300048010020BA0000200000F04150030020B7
:10224000A40300202C0100202E01002034010020D6
:102250000000A0410000A0C1404B4C002401002020
:1022600030010020320100202A01002061000020FE
:10227000A80200206802002064000020002A1DDD62
:10228000F84B93F90030F84C04EBC304F54B93F989
:1022900001305B1EE45C042323EA0002D31702EB47
:1022A000937324EAA304EF4B93F90030EE4D05EB52
:1022B000C305EC4B93F901305B1EEC54E94A92F9EB
:1022C0000020002A1DDDE74B93F900305B1EE64C31
:1022D00004EBC303E34C94F901401B5D082424EA9A
:1022E0000002D41702EB947423EAA403DD4C94F9A2
:1022F0000040641EDC4D05EBC404DA4D95F9015035
:102300006355D84A92F90120072A19DAD54A92F979
:102310000020D64B03EBC203D24A92F90120521C93
:102320009B5C00F0010243EA8203CE4A92F900204E
:10233000CE4C04EBC204CB4A92F90120521CA354A8
:10234000C84A92F90020072A19DAC64A92F90020F1
:10235000521CC64B03EBC202C24B93F90130D35C53
:1023600000F0020243EA8203BE4A92F90020521CA6
:10237000BE4C04EBC202BB4C94F901401355B94A60
:1023800092F90120002A1CDDB64B93F90030B74CBE
:1023900004EBC304B34B93F901305B1EE35C00F024
:1023A0000402D41702EB947443EAA403AD4C94F9ED
:1023B0000040AE4D05EBC405AA4C94F90140641EE3
:1023C0002B55A84A92F90020002A1CDDA54B93F951
:1023D00000305B1EA54C04EBC303A24C94F90140F2
:1023E0001B5D00F00802D41702EB947443EAA403C7
:1023F0009C4C94F90040641E9C4D05EBC404994D1F
:1024000095F90150635530BD10B59948007830B149
:1024100001280BD0022810D003281CD114E09148C9
:102420004078401C40B28F49487015E08D480078D4
:10243000401C40B28B4908700EE08A484078401E2C
:1024400040B28849487007E086480078401E40B294
:102450008449087000E000BF00BFFFF70BFE10BD0D
:1024600070B50024002501268248007800B10026BE
:1024700081480078032803D07F48007802282BD1B8
:1024800043F238107D4908607D4908600124012528
:102490007C48C07810B17B48007848B979484078CA
:1024A00000F0010020B17748807800F0010078B991
:1024B0007448C07838B17348007820B141F69C0068
:1024C000714908800BE041F69C006F49088006E0E6
:1024D00000206D49088002E000206B49088001203F
:1024E000654908701420694908604BF280606849AA
:1024F0004860604948600220654908705D4908707D
:10250000002064490870D6E05C48006841F2D06160
:10251000884226D357484068401A56494860574871
:102520000068A0F5B050D03854490860C6B155488D
:10253000C07890B15348007878B15748808857499F
:102540000988884209DD5448C0885549098888426D
:1025500003DD012053490870B3E0FFF755FF00E0A9
:1025600001264748006841F2D06188420BD34848B1
:102570004068401A4649486041480068A0F5B0509C
:10258000D0383F4908608CB33E48407800F00100E5
:1025900058BB3B48006842F2602108443A49098828
:1025A000401A3B4948603548006842F260210844BF
:1025B00035490988401A2F49486010E02D48416884
:1025C0002E4800683230814209D24BF28060304997
:1025D00048602849486000202E49087071E0294869
:1025E000407800F001000028E8D007E0FFE72A4823
:1025F00040882A490988884200DD012485B32148A2
:10260000807800F0010060BB1D48006842F6F821A8
:1026100008441D490988401A1D4948601748006848
:1026200042F6F821084418490988401A11494860BF
:1026300010E010484168114800683230814209D2E8
:102640004BF28060124948600A49486000201149F5
:10265000087036E00B48807800F0010008B9E8E720
:1026600022E028E0610000206400002068020020D1
:1026700063000020F8020020A7000020480100208D
:102680004C010020AC000020B6000020A800002073
:10269000E8020020B4000020A40300202401002050
:1026A0002A010020BA000020AA488088AA49098887
:1026B000884200DD0125A948007800287FF424AF76
:1026C00000BFFFF7A1FE70BD10B5FEF760FD002052
:1026D000A3490860A34948704FF461708881FEF7F0
:1026E0001BFD00BF9E48006840F6BE218842F9D31A
:1026F00001209C494870FEF70FFD4FF47A70FEF7F9
:10270000B3FC022097494870FEF706FD4FF47A703B
:10271000FEF7AAFC10BD10B5FEF739FD0020924966
:1027200008608E4948704FF461708881FEF7B9FCEB
:1027300000BF8D480068B0F5166FFAD301208749B5
:102740004870FEF7AEFC4FF47A70FEF78DFC022065
:1027500082494870FEF7A5FC4FF47A70FEF784FCBE
:1027600010BD10B5FEF713FD00207F4908607C49BD
:1027700008607C4948704FF4FA70888101207749DD
:1027800048704FF4FA708881FEF7C6FCFEF789FCAA
:1027900000BF73480068B0F5E16FFAD302207149B9
:1027A0004870FEF7B9FC02206C494870FEF779FCCE
:1027B0004FF47A70FEF758FC10BD10B5FEF7E7FC39
:1027C0000020694908606649086001206549487031
:1027D0004FF4FA7088810020604948704FF4FA7015
:1027E0008881FEF799FCFEF75CFC00BF5E4800683C
:1027F000B0F5E16FFAD302205A494870FEF78CFC1D
:10280000022056494870FEF74CFC4FF47A70FEF7F0
:102810002BFC10BD10B5FEF7BAFC00205249086031
:102820004F49086001204F4948704FF4FA70888181
:1028300000204A4948704FF4FA708881FEF76CFC1A
:10284000FEF72FFC00BF4848006840F6543188422C
:10285000F9D30020434948700120404948704FF4A3
:10286000FA70404988813D498881FEF755FCFEF7A2
:1028700018FC4FF47A70FEF7F7FB022039494870D4
:10288000FEF74AFC022035494870FEF70AFC4FF477
:102890007A70FEF7E9FB10BD10B52E48008840F2B3
:1028A0006631884230DDFEF772FC2A48C088B0F5F8
:1028B000617F05DAFFF781FF01202C49086048E0BD
:1028C00024488088B0F5487F05DAFFF74AFF0220E8
:1028D000264908603DE00120224948701F494870A0
:1028E0004FF4FA701F4988811C498881FEF714FC57
:1028F000FEF7D7FB4FF47A70FEF7B6FBFFF78AFFBF
:1029000003201A49086024E012480088B0F52F7FA0
:102910001ADD10484089B0F52F7F15DD0D4800897C
:10292000B0F5FA7F05DAFFF7F6FE04200F490860DC
:102930000FE008484088B0F5967F0ADAFFF7C4FE3A
:1029400005200A49086004E0FEF732FC0020074930
:10295000086010BDA40300202A010020F802002016
:102960004C010020E8020020480100201C0100204A
:1029700010B5002807DA0A07140EFE4A00F00F030C
:102980001B1FD45403E00A07130EFB4A135410BD57
:1029900010B5FA4CB4F1807F01D3012011E024F08E
:1029A0007F40401E4FF0E02148610F214FF0FF3083
:1029B000FFF7DEFF00204FF0E0218861072008616B
:1029C000002008B100BFFEE70021481EFFF7D0FF3E
:1029D00010BD08B50121142001F04AFD0120ADF819
:1029E000000010208DF8030003208DF802006946D6
:1029F000E34801F081FA0121E14801F02AFB0820B7
:102A0000ADF8000010208DF8030003208DF80200BF
:102A10006946DC4801F070FA0821DA4801F019FB38
:102A200008BD00B589B00121022001F02EFD012171
:102A3000042001F01DFD4020ADF8200018208DF885
:102A4000230003208DF8220008A9CD4801F054FA94
:102A500044F61F60ADF818000020ADF81400ADF882
:102A60001A00ADF8160005A9C74801F039FE70201C
:102A7000ADF804000120ADF806000020ADF80A0012
:102A8000ADF80C0001A9C04801F067FE0121BE4865
:102A900002F08EF90821BC4802F0AEFA0121BA48D2
:102AA00002F07AFA0121B84802F076F909B000BDC7
:102AB00010B543F69821B44802F006FC10BD10B5DD
:102AC0000021B14802F000FC10BD08B5012114201E
:102AD00001F0CEFC4FF48070ADF8000010208DF8AE
:102AE000030003208DF802006946A64801F004FAAD
:102AF0008020ADF800006946A24801F0FDF94020B1
:102B0000ADF8000069469F4801F0F6F91020ADF8D5
:102B1000000069469A4801F0EFF92020ADF8000066
:102B20006946974801F0E8F98020ADF80000694651
:102B3000934801F0E1F94FF4E071924801F08BFA0B
:102B4000B0218F4801F087FA08BD08B5012138206F
:102B500001F08EFC2020ADF8000010208DF803005D
:102B600003208DF802006946884801F0C5F920214C
:102B7000864801F06EFA4FF48070ADF800006946A7
:102B8000824801F0B9F94FF48071804801F061FA90
:102B90004FF48050ADF8000069467A4801F0ACF976
:102BA0004FF48051774801F054FA0420ADF800004A
:102BB0006946774801F0A0F90421754801F049FA07
:102BC00008BD00B589B00121042001F05EFC01219F
:102BD000082001F04DFC4020ADF8200018208DF8B1
:102BE000230003208DF8220008A9684801F084F929
:102BF0004FF43460ADF818000020ADF81400ADF8C3
:102C00001A00ADF8160005A9624801F069FD6020C0
:102C1000ADF804000120ADF806000020ADF80A0070
:102C2000ADF80C0001A95B4801F097FD012159485E
:102C300002F0BEF80821574802F0DEF9012155489C
:102C400002F0AAF90121534802F0A6F809B000BD2C
:102C500000B589B00121042001F017FC01210820F2
:102C600001F006FC8020ADF8200018208DF823002C
:102C700003208DF8220008A9444801F03DF94FF4E3
:102C80003460ADF818000020ADF81400ADF81A005B
:102C9000ADF8160005A93F4801F022FD6020ADF80F
:102CA00004000120ADF806000020ADF80A00ADF8E0
:102CB0000C0001A9374801F092FD0121354802F0CE
:102CC00077F80821334802F0A0F90121314802F0D9
:102CD00063F901212F4802F05FF809B000BD1FB56C
:102CE0000121084601F0C4FB0121182001F0C0FBBE
:102CF0004FF40070ADF80C0048208DF80F0003A9C8
:102D0000224801F0F9F84FF48060ADF80C0048203B
:102D10008DF80F0003A91B4801F0EEF809210120EE
:102D200001F000FA4FF40070019000208DF80800C7
:102D30000C208DF8090001208DF80A0001A800F090
:102D4000FBFF0A21022001F0EDF94FF480600190B1
:102D500000208DF808000C208DF8090001208DF866
:102D60000A0001A800F0E8FF17208DF800000120FC
:102D700012E0000018ED00E000E400E0401901005E
:102D8000000801400010014000040040000C014018
:102D900000140140000800408DF801008DF8020089
:102DA0008DF80300684600F0FEFB28208DF8000037
:102DB00002208DF8010000208DF8020001208DF81E
:102DC0000300684600F0EFFB1FBD10B54FF4007024
:102DD00001F018F848B120480068401C1E490860FE
:102DE0001E480068401C1D4908604FF4007001F047
:102DF0001AF810BD10B54FF4806001F003F848B127
:102E000017480068401C1649086016480068401CB6
:102E1000144908604FF4806001F005F810BD10B54A
:102E2000FFF7B6FDFFF7D5FDFFF7FBFDFFF74DFE02
:102E3000FFF78BFEFFF7C5FEFFF70AFFFFF74FFF17
:102E400000F0B1F84FF40063074A1115104600F086
:102E500074F900F0EAFA10BD40010020480100209A
:102E6000440100204C010020000C014000B585B059
:102E7000012144F2040001F0FBFA4FF40070ADF8B8
:102E8000100018208DF8130003208DF8120004A9FB
:102E90002E4801F031F84FF48060ADF810000420A6
:102EA0008DF8130004A9294801F026F84FF41650B4
:102EB00000900020ADF80400ADF80600ADF8080061
:102EC000ADF80C000C20ADF80A006946204802F06D
:102ED00084FA012240F225511D4802F016FB01211F
:102EE0001B4802F006FB05B000BD08B54FF4E060DA
:102EF00000F054FB25208DF8000000208DF8010023
:102F000001208DF802008DF80300684600F04BFBAD
:102F100008BD70B504460D46E1B20D4802F056FBFF
:102F200000BF80210A4802F0BFFB0028F9D02046EC
:102F300070BD10B5044600BF2021054802F0B4FB67
:102F40000028F9D0024802F045FB10BD00080140FE
:102F50000038014000B58BB00121084601F07BFA32
:102F60005A4800F0B1FD5A4800905A48019000209C
:102F700002900620039000200490802005904000DD
:102F80000690800007902020089000020990002001
:102F90000A9069464D4800F039FE01214B4800F087
:102FA00060FE0BB000BD00B587B001211C2001F010
:102FB0005FFA0E20ADF8180000208DF81B0006A95E
:102FC000454800F099FF0120ADF8180000208DF869
:102FD0001B0006A9414800F08FFF3020ADF8180013
:102FE00000208DF81B0006A93D4800F085FFFFF783
:102FF000B1FF0121480201F03BFA002001900120BD
:103000008DF808008DF809004FF46020039000202F
:10301000049006208DF8140001A92D484C3800F0CA
:1030200052FB4FF4004001F087F9062301220821EA
:1030300027484C3800F0DFFB062302220F212448EA
:103040004C3800F0D8FB062303220E2120484C38D0
:1030500000F0D1FB0623042203211D484C3800F068
:10306000CAFB06230522022119484C3800F0C3FB95
:1030700006231A46012116484C3800F0BCFB0121FA
:1030800013484C3800F056FB012111484C3800F031
:1030900046FB0F484C3800F064FB00BF0C484C382E
:1030A00000F064FB0028F9D109484C3800F068FBB7
:1030B00000BF07484C3800F068FB0028F9D1012117
:1030C00003484C3800F06BFB07B000BD080002401D
:1030D0004C240140B003002000080140000C0140D6
:1030E0000010014001460022C248814201D1042261
:1030F00021E0C048814201D104221CE0BE48814247
:1031000001D1082217E0BD48814201D1102212E00E
:10311000BB48814201D120220DE0BA48814201D151
:10312000402208E0B848814201D1802203E0B7483C
:10313000814200D1821590B270472DE9F8430746CD
:103140000C4615461E464FF00008C1463846FFF7AC
:10315000C9FF80462846FFF7C5FF8146012140464A
:1031600001F086F90121484601F082F9ADF80040EE
:1031700003208DF8020014208DF8030069463846BC
:1031800000F0BAFEADF8006003208DF802001420B4
:103190008DF803006946284600F0AEFE4FF48061CA
:1031A000964800F056FF4FF40061944800F051FF3C
:1031B000BDE8F883052000BF011EA0F10100FBD18E
:1031C000704710B54FF480618C4800F042FFFFF764
:1031D000F1FF4FF40061894800F03BFFFFF7EAFF81
:1031E0008648806800F4806008B9012010BD4FF463
:1031F0008061824800F02FFFFFF7DCFF4FF4006191
:103200007E4800F028FFFFF7D5FF7C48806800F477
:103210008060012801D10220E8E70020E6E710B530
:103220004FF48061754800F016FFFFF7C3FF4FF4BD
:103230000061724800F00DFFFFF7BCFF4FF48061A2
:103240006E4800F006FFFFF7B5FF10BD10B54FF454
:1032500080616A4800F0FFFEFFF7ACFF4FF40061A9
:10326000664800F0F6FEFFF7A5FF4FF400616348E3
:1032700000F0F1FEFFF79EFF10BD10B54FF4806126
:103280005E4800F0E6FEFFF795FF4FF400615B48F3
:1032900000F0DFFEFFF78EFF4FF40061574800F0AB
:1032A000DAFEFFF787FF10BD70B504464FF40061EA
:1032B000524800F0D0FE002521E004F0800028B143
:1032C0004FF480614D4800F0C4FE04E04FF480618B
:1032D0004A4800F0C0FE6006040EFFF76BFF4FF493
:1032E0000061464800F0B5FEFFF764FF4FF400614F
:1032F000424800F0B0FEFFF75DFF681CC5B2082D24
:10330000DBDB4FF480613D4800F0A3FEFFF752FF86
:103310004FF40061394800F09CFEFFF74BFF37483F
:10332000806800F4806030B14FF40061334800F0F1
:1033300092FE002070BD4FF40061304800F08BFE1B
:103340000120F7E770B500244FF480612B4800F0AE
:1033500080FE4FF40061294800F07DFE00BF00258B
:1033600018E04FF40061254800F073FEFFF722FFDC
:103370006006040E2148806800F4806008B144F0C3
:1033800001044FF400611D4800F065FEFFF712FFD5
:10339000681CC5B2082DE4DB204670BD70B506463A
:1033A0000C461546FFF70DFF3046FFF77DFF204620
:1033B000FFF77AFF2846FFF777FFFFF730FF70BD72
:1033C00070B504460D46FFF7FCFE2046FFF76CFF84
:1033D0002846FFF769FFFFF7F4FE611CC8B2FFF74C
:1033E00063FFFFF7AFFF0646FFF747FFFFF717FF43
:1033F000304670BD00080140000C01400010014043
:103400000014014000180140001C01400020014050
:10341000002107E0002200E0521C47F230539A429C
:10342000FADB491C8142F5DB704710B56420FFF7D9
:10343000EFFF00226B21D020FFF7B0FF07221921F8
:10344000D020FFF7ABFF07221A21D020FFF7A6FFFD
:1034500018221B21D020FFF7A1FF01221C21D02020
:10346000FFF79CFF6420FFF7D3FF10BD70B5002469
:10347000002500263B21D020FFF7A2FF05463C2176
:10348000D020FFF79DFF064646EA052004B22046FD
:1034900070BD70B50024002500263D21D020FFF727
:1034A0008FFF05463E21D020FFF78AFF064646EAF9
:1034B000052004B2204670BD70B50024002500260A
:1034C0003F21D020FFF77CFF05464021D020FFF7A9
:1034D00077FF064646EA052004B2204670BD70B567
:1034E0000024002500264321D020FFF769FF054670
:1034F0004321D020FFF764FF064646EA052004B2C8
:10350000204670BD70B50024002500264521D0203E
:10351000FFF756FF05464521D020FFF751FF06462D
:1035200046EA052004B2204670BD70B5002400258F
:1035300000264721D020FFF743FF05464721D02032
:10354000FFF73EFF064646EA052004B2204670BD5E
:1035500070B50024002500264121D020FFF730FF60
:1035600005464221D020FFF72BFF064646EA0520FC
:1035700004B2204670BD0000064880470648004758
:10358000FEE7FEE7FEE7FEE7FEE7FEE7FEE7FEE713
:10359000FEE7FEE7670F00083101000831490143EB
:1035A000314A1160704770B5002100230F22C478A2
:1035B00004B32D4C246804F4E064C4F5E064210AEB
:1035C000C1F10403CA40447804FA03F1847814403A
:1035D00021430901254C0678A155047804F01F0504
:1035E0000124AC4005786D11AD0005F1E025C5F86A
:1035F000004109E0047804F01F050124AC401C4D93
:103600000678761145F8264070BD1A4A0A400243F2
:10361000154B1B1F1A60704739B1134A121D1268EF
:103620000243114B1B1D1A6006E00F4A121D12685F
:1036300082430D4B1B1D1A607047042808D14FF0C0
:10364000E021096941F004014FF0E022116107E037
:103650004FF0E021096921F004014FF0E0221161EF
:10366000704700000000FA050CED00E000E400E007
:1036700080E100E080FFFF1F10B50446FA48844255
:1036800008D10121401500F00DFF0021601500F068
:1036900009FF17E0F548844208D10121001500F028
:1036A00001FF0021201500F0FDFE0BE0F0488442F0
:1036B00008D10121C80300F0F5FE00214FF40040BD
:1036C00000F0F0FE10BD30B5024600200023506827
:1036D000E84C20400D790C6844EA052420435060F2
:1036E0009068E54C2040D1E902542C434D7944EADE
:1036F000450420439060D06A20F470000C7C641E66
:10370000E4B2234340EA0350D06230BD002101609F
:10371000017141718160C16001210174704721B163
:10372000826842F00102826003E0826822F00102B6
:103730008260704721B1826842F48072826003E047
:10374000826822F480728260704710B50023CBB289
:103750001AB144681C43446002E044689C434460DE
:1037600010BD816841F0080181607047014600206A
:103770008A6802F008020AB1012000E000207047C8
:10378000816841F0040181607047014600208A6829
:1037900002F004020AB1012000E00020704721B1CC
:1037A000826842F4A002826003E0826822F4A002F0
:1037B00082607047014600208A6802F480020AB1E4
:1037C000012000E00020704710B50A4600210023C8
:1037D000416821F46041531E41EA4331416010BD0C
:1037E00021B1426842F40062426003E0426822F480
:1037F000006242607047F0B504460D46002000218B
:10380000092D11DDE068A5F10A0606EB460707263B
:1038100006FA07F18843A5F10A0606EB460603FA05
:1038200006F10843E0600CE0206905EB4507072638
:1038300006FA07F1884305EB450603FA06F108434B
:103840002061072A0FDA606B561E06EB86071F26DB
:1038500006FA07F18843561E06EB860605FA06F1BE
:103860000843606322E00D2A0FDA206BD61F06EBB7
:1038700086071F2606FA07F18843D61F06EB860641
:1038800005FA06F10843206310E0E06AA2F10D0694
:1038900006EB86071F2606FA07F18843A2F10D06FC
:1038A00006EB860605FA06F10843E062F0BD21B199
:1038B000826842F48012826003E0826822F48012FF
:1038C000826070470146C86C80B2704766484C30D1
:1038D0000068704721B1426842F48062426003E0B0
:1038E000426822F480624260704721B1426842F42B
:1038F0008052426003E0426822F480524260704786
:103900000A460021816821F4E0411143816070473B
:1039100021B1826842F40042826003E0826822F4AE
:1039200000428260704721B1826842F402128260D4
:1039300003E0826822F40212826070470146002090
:103940008A6802F400120AB1012000E000207047EA
:10395000F0B504461546002000220026092911DD95
:10396000E068A1F10A0707EB470C072707FA0CF2FA
:103970009043A1F10A0707EB470703FA07F2104348
:10398000E0600CE0206901EB410C072707FA0CF21C
:10399000904301EB410703FA07F210432061A06B4B
:1039A000C0F30156EF1C06F1010CA7EB0C0707EB67
:1039B000870C1F2707FA0CF29043EF1C06F1010C4D
:1039C000A7EB0C0707EB870701FA07F21043A06388
:1039D000F0BD10B50A4600210023816B21F440118F
:1039E000531E41EA0351816310BD08B500230093C3
:1039F0000090009B0B440093009B1A6008BD08B523
:103A0000024600200090009201F12800009B18441B
:103A100000900098006880B208BD0A460021416805
:103A2000164B1940114341607047416282627047F2
:103A30000A460021416821F01F011143416070478F
:103A400040B109490831096841F40001064A0832C9
:103A5000116007E004490831096821F40001024AB5
:103A60000832116070470000002401400028014026
:103A7000003C0140FFFEF0FFFDF7F1FFFFFD3FFFBF
:103A80000246002013680B400BB1012000E000202B
:103A90007047CA430260704770B502460020002399
:103AA00000240B125568CEB205EA060415681D40C5
:103AB00015B10CB1012000E0002070BD00220A12F7
:103AC000D34303607047000001684FF6FE72114057
:103AD00001600021016041608160C1608D498842C0
:103AE00008D18C490839496841F00F01894A083AE0
:103AF00051608AE087491431884208D185490839E4
:103B0000496841F0F001834A083A51607DE08149FB
:103B10002831884208D17F490839496841F47061E9
:103B20007C4A083A516070E07A493C31884208D1B9
:103B300078490839496841F47041764A083A516039
:103B400063E074495031884208D1724908394968A4
:103B500041F470216F4A083A516056E06D49643172
:103B6000884208D16B490839496841F47001694AB3
:103B7000083A516049E067497831884208D165497F
:103B80000839496841F07061624A083A51603CE086
:103B90006149884206D1011F096841F00F01021FE7
:103BA000116032E05C491431884208D15A49091F3A
:103BB000096841F0F001584A121F116025E056498A
:103BC0002831884208D15449091F096841F47061BD
:103BD000514A121F116018E04F493C31884208D108
:103BE0004D49091F096841F470414B4A121F116089
:103BF0000BE049495031884207D14749091F0968FC
:103C000041F47021444A121F1160704710B5002220
:103C1000026847F6F0739A430C6A8B6823430C6979
:103C200023434C6923438C692343CC6923434C6A67
:103C300023438C6A23431A430260CB6843600B68BA
:103C400083604B68C36010BD0021016041608160EA
:103C5000C160016141618161C16101624162816252
:103C6000704721B1026842F00102026004E002687C
:103C70004FF6FE731A40026070471AB103680B4397
:103C8000036002E003688B43036070474160704744
:103C90000146486880B2704701460020002201F0CA
:103CA00080531BB11C4B083B1A6802E0194B083BC0
:103CB0001A6802EA01030BB1012000E000207047FE
:103CC00000F0805119B11449091F086002E0114940
:103CD00008394860704701460020002201F08053F7
:103CE0001BB10D4B083B1A6802E00A4B083B1A68EF
:103CF00002EA01030BB1012000E00020704700F050
:103D0000805119B10449091F086002E001490839CE
:103D100048607047080002400804024000204449FF
:103D20000860091D0860091D0860091D08604148F8
:103D30003F4914310860704700213D498279002ACB
:103D40003AD00A46126803689A430B461A600A1D65
:103D5000126803689A430B1D1A60027911440A68BD
:103D600003681A430A60324A0832126803689A43A9
:103D70002F4B08331A601A1D126803689A432C4BA4
:103D80000C331A604279102A0ED11A1F1268036888
:103D90001A43274B08331A601A1D126803681A4326
:103DA000234B0C331A600DE02149427911440A6813
:103DB00003681A430A6005E0027911440A6803683F
:103DC0009A430A6070470021016001710C21417122
:103DD0000021817170471649103109680143144A66
:103DE00010321160704701460020114A14321268E7
:103DF0000A400AB1012000E0002070470C4914314C
:103E000008607047014600200022094B1B6803EA46
:103E10000102074B14331B680B4013B10AB1012098
:103E200000E000207047024914310860704700002C
:103E300000040140FFFF0F0010B50446CC48844247
:103E400008D10121042000F02DFB0021042000F006
:103E500029FB46E0C748844208D10121082000F030
:103E600021FB0021082000F01DFB3AE0C2488442FB
:103E700008D10121102000F015FB0021102000F0D6
:103E800011FB2EE0BD48844208D10121202000F022
:103E900009FB0021202000F005FB22E0B848844205
:103EA00008D10121402000F0FDFA0021402000F05F
:103EB000F9FA16E0B348844208D10121802000F0CD
:103EC000F1FA0021802000F0EDFA0AE0AE488442C9
:103ED00007D10121801500F0E5FA0021A01500F0BE
:103EE000E1FA10BD10B50121084600F0DBFA00210F
:103EF000012000F0D7FA10BD2DE9F041024600255F
:103F00000026002000230024002791F803C00CF0B5
:103F10000F0591F803C00CF0100CBCF1000F03D09A
:103F200091F802C04CEA050591F800C0BCF1000F01
:103F300031D0146800202BE04FF0010C0CFA00F394
:103F4000B1F800C00CEA03069E4220D183004FF076
:103F50000F0C0CFA03F7BC4305FA03FC4CEA04040B
:103F600091F803C0BCF1280F06D14FF0010C0CFAF8
:103F700000FCC2F814C00AE091F803C0BCF1480F7D
:103F800005D14FF0010C0CFA00FCC2F810C0401C27
:103F90000828D1D31460B1F800C0BCF1FF0F34DDA4
:103FA000546800202EE000F1080C4FF0010808FAD8
:103FB0000CF3B1F800C00CEA03069E4221D1830045
:103FC0004FF00F0C0CFA03F7BC4305FA03FC4CEA64
:103FD000040491F803C0BCF1280F05D100F1080CCE
:103FE00008FA0CF8C2F8148091F803C0BCF1480F2D
:103FF00007D100F1080C4FF0010808FA0CF8C2F8DC
:104000001080401C0828CED35460BDE8F0814FF6E4
:10401000FF710180022181700421C1707047024646
:10402000002093680B400BB1012000E00020704796
:104030000146886880B2704702460020D3680B4072
:104040000BB1012000E0002070470146C86880B233
:10405000704701617047416170470AB1016100E03A
:1040600041617047C16070474FF480320A438261FA
:104070008161826182698269704702460020434BF8
:1040800018684FF68073184040EA021008433F4B0F
:10409000186070473E49C8617047F0B50A46002372
:1040A00000240021002500F00046B6F1004F02D1A7
:1040B000364EF16901E0354E7168C0F3034583B2B5
:1040C00000F44016B6F5401F08D121F070612F4E64
:1040D000766826F070662D4F7E6012E000F4801640
:1040E000B6F5801F06D1032606FA05F4A14341F078
:1040F000706106E0460D360103FA06F6B14341F061
:10410000706122B1460D360103FA06F6314300F024
:104110000046B6F1004F02D11C4EF16101E01B4E8A
:104120007160F0BD30B500228B071C0F0F2303FA1E
:1041300004F2164B08338C1053F824309343134C7D
:1041400008348D1044F8253023468C1053F8243061
:104150008C07240F00FA04F423430C4C08348D1010
:1041600044F8253030BD0A49DC3108607047000052
:1041700000080140000C0140001001400014014003
:1041800000180140001C01400020014000000140D7
:1041900000002042DF48006840F00100DD4908606F
:1041A00008464068DC490840DA494860084600682B
:1041B000DA490840D74908600846006820F48020A2
:1041C00008600846406820F4FE0048604FF41F0075
:1041D00088607047CF49096821F48031CD4A116069
:1041E0001146096821F480211160B0F5803F03D0A9
:1041F000B0F5802F0ED106E0C649096841F4803140
:10420000C44A116007E0C349096841F4A021C14ACA
:10421000116000E000BF00BF704710B501460022EA
:10422000002300204A11012A02D1BA4C236806E07B
:10423000022A02D1B74C236A01E0B64C636A01F04E
:104240001F02012494401C400CB1012000E000201A
:1042500010BD38B5002000900024002500BF31209B
:10426000FFF7DBFF05460098401C00900098B0F572
:10427000A06F01D0002DF2D03120FFF7CEFF08B1A2
:10428000012400E00024204638BD01460020A14A58
:10429000106820F0F80040EAC10010607047A049A3
:1042A00008607047024600209A4B586820F47C1042
:1042B00042EA01031843974B5860704798490866D3
:1042C000704701460020934A506820F003000843DD
:1042D000506070478F48406800F00C0070470146FE
:1042E00000208C4A506820F0F0000843506070476E
:1042F00001460020874A506820F4E060084350607F
:10430000704701460020834A506820F4605040EA1C
:10431000C1005060704729B17E4A527A02437D4BFA
:104320005A7204E07B4A527A82437A4B5A7270473F
:104330007B49D8310860704701460020754A5068B3
:1043400020F440400843506070470021714A2032F9
:104350001170704A82F82010012802D004280AD176
:1043600004E001216B4A2032117005E00521694A01
:104370002032117000E000BF00BF7047694908603B
:1043800070476449096A0143624A1162704765498E
:1043900044390860704730B5002100220024002312
:1043A0005C4D6D6805F00C0121B1042905D0082988
:1043B00023D105E05C4D056022E05B4D05601FE008
:1043C000544D6D6805F47012524D6D6805F48034DB
:1043D000022505EB92421CB9544D554305600BE094
:1043E0004C4D6D6805F400351DB1504D55430560C9
:1043F00002E04D4D5543056002E04B4D056000BFA6
:1044000000BF444D6D6805F0F0010909484D6B5C33
:104410000568DD4045603F4D6D6805F4E061090ABF
:10442000434D6B5C4568DD4085603A4D6D6805F431
:104430006051C90A3E4D6B5C4568DD40C560354D35
:104440006D6805F44041890B3A4D6B5CC568B5FB5E
:10445000F3F5056130BD29B12E4A526902432D4B57
:104460005A6104E02B4A526982432A4B5A617047D1
:1044700029B1284A92690243264B9A6104E0254AF1
:1044800092698243234B9A61704729B1214AD269CC
:104490000243204BDA6104E01E4AD26982431D4B7D
:1044A000DA61704729B11B4AD2680243194BDA60BE
:1044B00004E0184AD2688243164BDA60704729B18B
:1044C000144A12690243134B1A6104E0114A12693B
:1044D0008243104B1A617047124940390860704797
:1044E0000F49C86470470B49C87170470948406A52
:1044F00040F0807007494862704701460020054A35
:1045000092680A400AB1012000E00020704701498A
:1045100088727047001002400000FFF8FFFFF6FEAF
:10452000000042428004424200127A0000093D002D
:10453000500100206001002010B50446FE4884426E
:1045400008D10121C014FFF7ADFF0021E014FFF7EF
:10455000A9FFC4E0B4F1804F08D101210846FFF75C
:10456000AEFF00210120FFF7AAFFB8E0F348844224
:1045700008D101210220FFF7A2FF00210220FFF74E
:104580009EFFACE0EE48844208D101210420FFF7F1
:1045900096FF00210420FFF792FFA0E0E948844243
:1045A00008D101210820FFF78AFF00210820FFF72A
:1045B00086FF94E0E448844208D101211020FFF7EF
:1045C0007EFF00211020FFF77AFF88E0DF48844259
:1045D00008D101212020FFF772FF00212020FFF7E2
:1045E0006EFF7CE0DA48844208D101214014FFF7D5
:1045F00059FF00216014FFF755FF70E0D548844251
:1046000009D10121C804FFF74DFF00214FF400201C
:10461000FFF748FF63E0D048844209D10121080533
:10462000FFF740FF00214FF48010FFF73BFF56E0FB
:10463000CA48844209D101214805FFF733FF002110
:104640004FF40010FFF72EFF49E0C548844208D11F
:1046500001214020FFF733FF00214020FFF72FFF0B
:104660003DE0C048844208D101218020FFF727FFA8
:1046700000218020FFF723FF31E0BB48844208D1AE
:1046800001218015FFF71BFF0021A015FFF717FF81
:1046900025E0B648844209D101210804FFF702FF52
:1046A00000214FF48030FFF7FDFE18E0B04884424F
:1046B00009D101214804FFF7F5FE00214FF4003035
:1046C000FFF7F0FE0BE0AB48844208D101218804DB
:1046D000FFF7E8FE00214FF48020FFF7E3FE10BD56
:1046E00000220288944B98420ED0994B98420BD0EE
:1046F000B0F1804F08D0914B984205D0904B984232
:1047000002D0904B984204D14FF68F731A404B88D9
:104710001A438D4B984207D08C4B984204D04FF6E9
:10472000FF431A40CB881A4302808B8883850B880D
:104730000385814B98420BD0854B984208D08B4B18
:10474000984205D08A4B984202D08A4B984201D1B8
:104750000B7A038601238382704770B50024002200
:104760000023058C4FF6FE7635400584028C838845
:10477000048B4FF68F752C40B51E2C400D882C43B2
:10478000751E2A400D892A434D882A436A4DA84246
:104790000BD06F4DA84208D0744DA84205D0744D7F
:1047A000A84202D0734DA84213D14FF6F7752A40A4
:1047B0004D892A434FF6FB752A408D882A434FF6D0
:1047C000FF652B404FF6FF552B408D892B43CD893C
:1047D0002B4383800483CD888586028470BD70B5A9
:1047E000002400220023058C4FF6EF763540058427
:1047F000028C8388048B48F6FF752C404FF6FF45EA
:104800002C400D884FF6FF7606EA05252C434FF61F
:10481000DF752A400D8906EA05152A434D8806EA08
:1048200005152A43444DA84202D0494DA8421DD146
:104830004FF67F752A404D894FF6FF7606EA05153B
:104840002A434FF6BF752A408D8806EA05152A438C
:104850004FF6FF352B404FF2FF752B408D8906EA4E
:1048600085052B43CD8906EA85052B438380048388
:10487000CD880587028470BD70B500240022002316
:10488000058C4FF6FF6635400584028C8388848B47
:104890004FF68F752C404FF6FC752C400D882C433D
:1048A0004FF6FF552A400D894FF6FF7606EA05259B
:1048B0002A434D8806EA05252A431F4DA84202D007
:1048C000234DA8421DD14FF2FF752A404D894FF666
:1048D000FF7606EA05252A434FF6FF352A408D88E4
:1048E00006EA05252A434EF6FF752B404DF6FF7567
:1048F0002B408D8906EA05152B43CD8906EA05155F
:104900002B4383808483CD888587028470BD70B5F6
:10491000002200230024058C4EF6FF7635400584E6
:10492000038C8488828B48F6FF752A404FF6FF453A
:104930002A400D8820E00000002C014000040040C7
:1049400000080040000C004000100040001400402F
:1049500000340140004C014000500140005401402F
:1049600000180040001C00400020004000400140B2
:1049700000440140004801404FF6FF7606EA052555
:104980002A434DF6FF752B400D8906EA05352B436A
:104990004D8806EA05352B43FA4DA84202D0FA4D60
:1049A000A84208D14BF6FF752C408D894FF6FF7653
:1049B00006EA85152C4384808283CD88A0F8405078
:1049C000038470BD828B4FF2FF331A408283828B47
:1049D0004FF6FF7303EA01231A4382837047F0B551
:1049E0000C461546002200210026078C4EF6FF7C5F
:1049F00007EA0C070784828B018C4FF6FF7707EAE2
:104A0000043640F6FF473A404FF6FF7707EA05279E
:104A10003A434FF6FF7707EA03373A43D94FB84294
:104A20000ED0D94FB8420BD0B0F1804F08D0D74F3D
:104A3000B84205D0D64FB84202D0D64FB84206D1C0
:104A40004DF6FF77394046F48057394305E047F685
:104A5000FF57394044F48057394382830184F0BDC5
:104A6000828B4FF6F3731A408283828B0A438283D0
:104A70007047F0B50C461546002200210026078C31
:104A80004FF6FF6C07EA0C070784828B018C4FF608
:104A9000FF7707EA04264FF60C773A404FF6FF7788
:104AA00007EA03172F433A43B64FB8420ED0B64F2A
:104AB000B8420BD0B0F1804F08D0B44FB84205D007
:104AC000B34FB84202D0B34FB84206D14FF6FF57AA
:104AD000394046F48077394305E04FF2FF573940BB
:104AE00044F48077394382830184F0BD028B4FF216
:104AF000FF331A400283028B4FF6FF7303EA012350
:104B00001A4302837047F0B50C4615460022002177
:104B10000026078C4FF6EF7C07EA0C070784028B10
:104B2000018C4FF6FF7707EA041640F6FF473A403C
:104B30004FF6FF7707EA03373A434FF6FF7707EA66
:104B400005273A438F4FB8420ED08F4FB8420BD053
:104B5000B0F1804F08D08D4FB84205D08C4FB8428D
:104B600002D08C4FB84206D14FF6DF77394046F07D
:104B70001007394305E04FF65F77394044F01007DE
:104B8000394302830184F0BD028B4FF6F3731A4060
:104B90000283028B0A4302837047F0B50C46154628
:104BA00000220021068C4FF6FE773E400684028BE1
:104BB000018C4FF60C7632407E1C06EA03162E431B
:104BC0003243704EB0420ED06F4EB0420BD0B0F1B7
:104BD000804F08D06D4EB04205D06D4EB04202D02D
:104BE0006C4EB04206D14FF6FD76314044F00106DE
:104BF000314305E04FF6F576314044F0010631438C
:104C000002830184F0BD70B505460C465D488542BF
:104C10000ED05D4885420BD0B5F1804F08D05B487F
:104C2000854205D05A48854202D05A48854200D173
:104C300000E000BF208850B92389A28861882846F7
:104C4000FFF7ABFFE1882846FFF79EFF25E02088AD
:104C500004280AD12389A28861882846FFF753FFD8
:104C6000E1882846FFF742FF17E0208808280AD18C
:104C70002389A28861882846FFF7FBFEE188284641
:104C8000FFF7EEFE09E02389A28861882846FFF736
:104C9000A6FEE1882846FFF795FE70BD2DE9F0419C
:104CA00005460C4600260127608808B9022600E068
:104CB0000026A088012801D1022700E001272088D2
:104CC000A0B92389A28861882846FFF766FFE1889A
:104CD0002846FFF759FF23893A4631462846FFF711
:104CE00012FFE1882846FFF701FF13E02389A2881D
:104CF00061882846FFF707FFE1882846FFF7F6FEA0
:104D000023893A4631462846FFF747FFE18828467F
:104D1000FFF73AFFBDE8F0810A884B881A438B8879
:104D20001A43CB881A430B891A434B891A438B8940
:104D30001A43A0F8442070474FF6FF71818000218C
:104D40000180C18041800172704700210180418053
:104D50008180C180018141818181C18170470021B1
:104D600001804180012181800021C1800181704743
:104D70000021018041808180C18001814181818148
:104D800070470000002C0140003401400004004046
:104D900000080040000C004021B1028842F00102EE
:104DA000028004E002884FF6FE731A4002807047CA
:104DB00031B1B0F8442042F40042A0F8442005E0AC
:104DC000B0F84420C2F30E02A0F8442070471AB194
:104DD00083890B43838102E083898B4383817047FE
:104DE0008182704741EA0203A0F8483070471AB147
:104DF00083890B43838102E083898B4383817047DE
:104E000001894FF6F8721140018170470A4600216E
:104E100001894FF68F73194011430181704730B5F6
:104E200004460D4629462046FFF7F0FF208940F052
:104E30000700208130BD2DE9F04104460D4616469D
:104E40001F46602D06D13B46012231462046FFF722
:104E50005AFE05E03B46012231462046FFF79DFE03
:104E600029462046FFF7D2FF208940F00700208125
:104E7000BDE8F08130B50C4600210189C9B24FF67A
:104E8000FF7505EA0325154325432943018130BDFC
:104E90002DE9F04105460E46174698460024434644
:104EA0003A4631462846FFF7E5FF2C894FF6F87061
:104EB000044044F007044FF68F70044044F070043F
:104EC0002C81BDE8F081F0B504460D4616461F461C
:104ED0003B46324629462046FFF7CCFF208940F466
:104EE00080402081F0BD0185828270470A46002102
:104EF00001884FF68F731940114301807047F0B558
:104F00000C4615461E460021002200230189028B13
:104F1000038C4FF6F877394021434FF6FC473A406F
:104F200040F201173A434FF6DD773B404FF6FF77EB
:104F300007EA06172F433B43018102830384F0BD38
:104F40000A460021018B4FF68F73194011430183EC
:104F500070470A460021018B48F6FF7319404FF64F
:104F6000FF7303EA02231943018370470A460021B5
:104F7000818B4FF68F7319401143818370470A4626
:104F80000021818B48F6FF7319404FF6FF7303EA47
:104F9000022319438183704721B1028842F08002C5
:104FA000028004E002884FF67F731A400280704747
:104FB00021B1828842F00402828004E082884FF6A8
:104FC000FB731A408280704721B1828842F0080248
:104FD000828004E082884FF6F7731A40828070471F
:104FE00021B1828842F00102828004E082884FF67B
:104FF000FE731A40828070470A460021018B4FF6EB
:10500000F77319401143018370470A460021018B51
:105010004FF2FF7319404FF6FF7303EA022319435F
:10502000018370470A460021818B4FF6F7731940C0
:105030001143818370470A460021818B4FF2FF7331
:1050400019404FF6FF7303EA022319438183704727
:105050000A460021018B4FF6FB731940114301836F
:1050600070470A460021018B4FF6FF3319404FF677
:10507000FF7303EA02231943018370470A460021A4
:10508000818B4FF6FB7319401143818370470A46A9
:105090000021818B4FF6FF3319404FF6FF7303EA6F
:1050A00002231943818370470A460021018B4FF682
:1050B0007F7319401143018370470A460021018B19
:1050C000C1F30E014FF6FF7303EA02231943018374
:1050D00070470A460021818B4FF67F7319401143B8
:1050E000818370470A460021818BC1F30E014FF680
:1050F000FF7303EA02231943818370470A460021A4
:10510000018C4FF6FD7319401143018470470A4624
:105110000021018C4FF6F773194011430184704749
:105120000A460021018C4FF6DF7319404FF6FF73DA
:1051300003EA02131943018470470A460021018CD7
:105140004FF67F7319404FF6FF7303EA02131943BA
:10515000018470470A460021018C4FF6FF53194025
:105160004FF6FF7303EA02231943018470470A468E
:105170000021018C4FF2FF7319404FF6FF7303EAD1
:1051800002231943018470470A460021018C4DF621
:10519000FF7319404FF6FF7303EA0233194301848A
:1051A000704730B5002301248C40A3B2048C9C438B
:1051B0000484048C02FA01F5ADB22C43048430BDA2
:1051C00030B5002304248C40A3B2048C9C43048497
:1051D000048C02FA01F5ADB22C43048430BD70B5E5
:1051E0000346002000241846183001258D40ACB23B
:1051F0001D8CA5431D8409B1082909D100EB61006C
:10520000056825F0700505600568154305600EE02A
:105210000D1FC5F34E052844056825F4E0450560DB
:1052200005684FF6FF7606EA02263543056070BD35
:1052300021B1028842F00202028004E002884FF6A7
:10524000FD731A400280704721B1028842F00402C7
:10525000028004E002884FF6FB731A400280704718
:1052600021B1828842F08002828004E082884FF679
:105270007F731A408280704702884FF6F7731A4096
:10528000028002880A430280704782884FF68F733B
:105290001A40828082880A438280704702894FF6D2
:1052A000F8731A40028102890A4302817047028919
:1052B0004FF67F731A40028102890A4302817047C8
:1052C0008184704781857047818670470187704768
:1052D00081877047A0F84010704702884FF6FF435F
:1052E0001A40028002880A43028070470146888E75
:1052F00070470146088F70470146888F7047014606
:10530000B1F8400070470146888C70470146088D0F
:10531000704702460020138A0B400BB1012000E0C9
:1053200000207047CA430282704730B50246002011
:1053300000230024158A05EA0103958905EA010482
:1053400013B10CB1012000E0002030BDCA4302823D
:105350007047000010B50446FB48844209D1012182
:105360008803FFF79FF800214FF48040FFF79AF879
:1053700032E0F648844209D101214804FFF79FF842
:1053800000214FF40030FFF79AF825E0F0488442FE
:1053900009D101218804FFF792F800214FF4802001
:1053A000FFF78DF818E0EB48844209D10121C804C9
:1053B000FFF785F800214FF40020FFF780F80BE09D
:1053C000E548844208D101210805FFF778F800215B
:1053D0004FF48010FFF773F810BD2DE9F04786B049
:1053E00005460E460024A24600BFA1460027B0890C
:1053F00000B100BF2F462C8A4CF6FF700440F088A5
:1054000004432C82AC894EF6F3100440B0883189F5
:105410000843718908430443AC81AC8A4FF6FF40CE
:105420000440B0890443AC8201A8FEF7B4FFC6482B
:10543000874202D1DDF810A001E0DDF80CA0A889B8
:1054400000F4004040B10AEBCA0000EB0A103168DA
:105450004900B0FBF1F807E00AEBCA0000EB0A10C4
:1054600031688900B0FBF1F86420B8FBF0F004016A
:105470002009642101FB1089A88900F4004040B193
:10548000322000EBC900B0FBF1F000F0070004434C
:1054900008E0322000EB09106421B0FBF1F000F0CD
:1054A0000F0004432C8106B0BDE8F0874FF416517D
:1054B000016000218180C18001810C214181002196
:1054C0008181704710B502460020108A4FF2FF0319
:1054D00018400B884C8823438C882343CC88234373
:1054E0001843108210BD0021018041808180C1805D
:1054F000704721B1828942F40052828104E082899E
:105500004DF6FF731A4082817047F0B503460024C0
:1055100000260025002040F66A17B94200D100BFDE
:105520001846C1F3421401F01F06012707FA06F5D9
:10553000012C01D10C3004E0022C01D1103000E02C
:1055400014301AB107682F43076002E00768AF43C1
:105550000760F0BD1AB1838A0B43838202E0838A1D
:105560008B4383827047028A4FF6F0731A4002829F
:10557000028A0A430282704782894FF2FF731A40FF
:10558000828182890A438281704721B1828942F0F7
:105590000202828104E082894FF6FD731A40828103
:1055A0007047028A4FF6DF731A400282028A0A436A
:1055B0000282704721B1028A42F48042028204E0F2
:1055C000028A4BF6FF731A4002827047C1F3080249
:1055D0008280704701468888C0F30800704781893F
:1055E00041F0010181817047028BD2B20283028BAC
:1055F00042EA012202837047028B02F47F42028357
:10560000028B0A430283704721B1828A42F0200252
:10561000828204E0828A4FF6DF731A4082827047EA
:1056200021B1828A42F01002828204E0828A4FF61F
:10563000EF731A408282704721B1828A42F00802D9
:10564000828204E0828A4FF6F7731A4082827047A2
:1056500021B1828942F40042828103E08289C2F34F
:105660000E028281704721B1828A42F400628282F6
:1056700004E0828A4FF2FF731A4082827047828A66
:105680004FF6FB731A408282828A0A4382827047F5
:1056900021B1828A42F00202828204E0828A4FF6BD
:1056A000FD731A408282704702460020B1F5007FE8
:1056B00000D100BF13880B400BB1012000E0002097
:1056C000704701F40072B2F5007F00D100BFCA43F9
:1056D0000280704770B50246002400230025002098
:1056E00040F66A16B14200D100BFC1F3421501F085
:1056F0001F03012606FA03F3012D02D196893340D8
:1057000006E0022D02D1168A334001E0968A33402A
:105710000C12012606FA04F41688344013B10CB1B9
:10572000012000E0002070BD10B50022002340F6EB
:105730006A14A14200D100BF0A1201249440A3B20E
:10574000DC43048010BD00000038014000440040EC
:1057500000480040004C004000500040F0B480EA97
:105760000102D40F4200B2EB410F02D202460846BA
:1057700011464A0042D0C30DDDB2C1F3C752AD1A83
:10578000202D35DAC1F3160141F4000204B1524272
:10579000C5F1200602FA06F12A411044B3EBD05FAE
:1057A00023D0C4B1012DA0EBC35009DCF0BC4FF0F5
:1057B000004202EAC352DBB200F5000000F06DBA0D
:1057C000400000F1807000EBC350A0F1807040EA0F
:1057D000D170490009E0490841EAC071A0EBC3500B
:1057E00000F50000400800EBC350F0BC00F04CBADC
:1057F0006142012202EB4101001BF6E7F0BC704759
:1058000081F00041AAE780F00040A7E780EA0102AA
:1058100010B502F00043400022D04A001FD0010E14
:1058200001EB1261C0F35600C2F3560240F40000CF
:1058300042F40002A0FB022000047F39140400D0CF
:10584000401C50EA124001D44000491EC2B20C066E
:1058500004EBD010401C4008802A02D003E0002056
:1058600010BD20F00100002900DA0020184310BD0F
:105870002DE9FE4F804681EA0300C00F0C460090E0
:1058800021F0004123F00045B8EB0200A94105D208
:105890004046214690461C460B46024623F00040F7
:1058A000104347D0270DC7F30A00C3F30A510290F3
:1058B000401A019040286BDAC3F3130040F4801BB8
:1058C0000098924620B10023D2EB030A63EB0B0B46
:1058D00001985946C0F14002504600F0A4F906462E
:1058E0000D4650465946019A00F0BCF910EB0800ED
:1058F0006141002487EA115284EAE7731A4340D0D9
:10590000009A62B3019A012A4FEA075215DC001B84
:1059100061EB02014FF0004202EA0752CDE900427A
:10592000001C41F5801132462B4600F0F3F903B01C
:10593000BDE8F08F40462146F9E7001B61EB02010C
:10594000001C41F5801300185B412018A2F50017D8
:1059500047EB030140EAD570B6196D4111E06D08BF
:105960004FEA360645EAC0754FEA0752001B61EB65
:105970000201001C41F5801149084FEA300000196E
:10598000514132462B4603B0BDE8F04F00F0B3B9A9
:105990000098012240000023D0EB020263EBE07389
:1059A000009821464FEAE074B8EB000061EB040177
:1059B000E9E783F000435BE781F0004158E72DE918
:1059C000FE4F81EA030404F0004421F000410094FA
:1059D0004FF0000B23F0004350EA01045ED052EA7E
:1059E00003045BD0C3F30A54C1F30A552C44A4F258
:1059F000F3340194A0FB0254C1F3130141F480116C
:105A0000C3F3130343F4801301FB024400FB034E72
:105A1000840A970A44EA815447EA8357A4FB07683B
:105A200002958D0A05FB07854FEA932C04FB0C5465
:105A30002705029D4FEA065847EA1637B5EB0805D9
:105A40006EEB070C870E920E47EA811742EA83122B
:105A5000A7FB0201B6EB0B0164EB00042B0D43EA3C
:105A60000C335E1844EB1C50DA465146E7FB02014A
:105A7000C5F313044FEA0B3343EA14534FEA0432DD
:105A8000019C43EA0603A4F10C040294009CCDE9B6
:105A900000B400F03FF903B0BDE8F08F00200146EC
:105AA000F9E7C10F80EAE0700844CA079623002195
:105AB00000F0F3B896230022114600F0EEB80EB5C0
:105AC00040F2334102910021CDE900110A460B4614
:105AD00000F020F903B000BD00F0004220F00040CB
