:020000040800F2
:10000000A0040020450100084D0100084F01000830
:1000100051010008530100085501000800000000CC
:100020000000000000000000000000005701000870
:1000300059010008000000005B010008E9300008D9
:100040005F0100085F0100085F0100085F01000810
:100050005F0100085F0100085F0100085F01000800
:100060005F0100085F0100085F0100085F010008F0
:100070005F0100085F0100085F0100085F010008E0
:100080005F0100085F0100085F0100085F010008D0
:100090005F0100085F0100085F0100085F010008C0
:1000A0005F0100085F0100085F0100085F010008B0
:1000B0005F0100085F0100085F0100085F010008A0
:1000C0005F0100085F0100085F0100085F01000890
:1000D0005F0100085F0100085F0100085F01000880
:1000E0005F0100085F0100085F0100085F01000870
:1000F0005F0100085F0100085F0100085F01000860
:100100005F0100085F0100085F0100085F0100084F
:10011000693200085F0100086D3000086F31000887
:100120005F0100085F0100085F0100085F0100082F
:10013000DFF80CD003F0D4FB00480047F925000895
:10014000A00400200648804706480047FEE7FEE777
:10015000FEE7FEE7FEE7FEE7FEE7FEE7FEE7FEE777
:10016000572700083101000831490143314A116025
:10017000704770B5002100230F22C47804B32D4CC2
:10018000246804F4E064C4F5E064210AC1F10403C6
:10019000CA40447804FA03F18478144021430901E9
:1001A000254C0678A155047804F01F050124AC40C5
:1001B00005786D11AD0005F1E025C5F8004109E0B5
:1001C000047804F01F050124AC401C4D067876111C
:1001D00045F8264070BD1A4A0A400243154B1B1FC2
:1001E0001A60704739B1134A121D12680243114B4D
:1001F0001B1D1A6006E00F4A121D126882430D4B48
:100200001B1D1A607047042808D14FF0E0210969CE
:1002100041F004014FF0E022116107E04FF0E021CE
:10022000096921F004014FF0E022116170470000DC
:100230000000FA050CED00E000E400E080E100E0E1
:1002400080FFFF1F01460020FE4A106800F03800C2
:10025000084310607047FB49096821F00801F94A1A
:10026000116011460968014311607047F54909683A
:1002700021F01001F34A1160114609680143116031
:100280007047F148EF494860F04848607047EE48D1
:10029000EC494860ED4848607047EA48006940F022
:1002A0008000E84908617047E648006940F0800036
:1002B000E449086170470420E249C96801F001017E
:1002C00009B101200EE0DF49C96801F0040109B15C
:1002D000022007E0DB49C96801F0100109B10320E1
:1002E00000E00420704700B502460423FFF7E3FF57
:1002F000034603E0FFF7DFFF0346521E012B01D147
:10030000002AF7D102B90523184600BD30B50446CE
:1003100004254FF43020FFF7E6FF0546042D17D1E2
:10032000C848006940F00200C649086108464461B7
:10033000006940F0400008614FF43020FFF7D3FF20
:100340000546C048006941F6FD710840BD49086195
:10035000284630BD10B504244FF43020FFF7C3FF0A
:100360000446042C16D1B748006940F00400B54992
:1003700008610846006940F0400008614FF43020F1
:10038000FFF7B1FF0446AF48006941F6FB71084032
:10039000AC490861204610BD00B502460423FFF7B2
:1003A0008AFF034603E0FFF786FF0346521E012B38
:1003B00001D1002AF7D102B90523184600BD10B5B6
:1003C00004244FF43020FFF7E7FF0446042C16D135
:1003D0009C48006940F004009A4908610846006999
:1003E00040F0400008614FF43020FFF7D5FF04468D
:1003F0009448006941F6FB71084092490861204623
:1004000010BD00208F49C96901F0020109B1012026
:1004100000E00020704730B5A5250424FFF7F1FF68
:1004200000B100254FF43020FFF75DFF0446042C97
:100430003AD18548834988608448886008460069C5
:1004400040F0200008610846006940F04000086163
:100450004FF43020FFF747FF0446042C1BD17948A6
:10046000006941F6DF710840764908610846006975
:1004700040F01000086176480580E002FFF733FF86
:100480000446052C10D06F48006941F6EF71084012
:100490006C49086108E0052C06D06A48006941F6FD
:1004A000EF71084067490861204630BD78B50646BF
:1004B0000C46042500200090E802FFF714FF0546D3
:1004C000042D24D15F48006940F001005D490861B6
:1004D0003480E802FFF707FF0546042D10D1B01C59
:1004E0000090200C00990880E802FFF7FCFE05460A
:1004F0005448006941F6FE7108405249086106E01F
:100500005048006941F6FE7108404E49086128468E
:1005100078BD70B504460D460426F002FFF7E3FEF1
:100520000646042E11D14748006940F001004549B4
:1005300008612580F002FFF7D6FE064641480069B3
:1005400041F6FE7108403F490861304670BD70B504
:1005500005460E460424E002FFF7C5FE0446042CBF
:1005600017D139483749886038488860084600699B
:1005700040F0100008612E80E002FFF7B4FE044650
:10058000052C06D02F48006941F6EF7108402D492F
:100590000861204670BD2DE9F04304464FF6FF7612
:1005A0003746B046B1460425E443E6B2C4F3072714
:1005B000C4F307484FEA1469E802FFF794FE0546C2
:1005C000042D49D120481F4988602048886008468A
:1005D000006940F010000861FF2E06D01C4808306A
:1005E0000680E802FFF77FFE0546042D08D1FF2FA5
:1005F00006D017480A300780E802FFF774FE054668
:10060000042D0AD1B8F1FF0F07D011480C30A0F823
:100610000080E802FFF767FE0546042D0AD1B9F114
:10062000FF0F07D00A480E30A0F80090E802FFF74D
:100630005AFE0546052D0FD00248006941F6EF71BC
:10064000084007E00020024023016745AB89EFCD59
:1006500000F8FF1F664908612846BDE8F08330B501
:10066000054604244FF43020FFF73DFE0446042CD9
:1006700041D160485E4988605F48886008460069EB
:1006800040F0200008610846006940F04000086121
:100690004FF43020FFF727FE0446042C22D15448A3
:1006A000006941F6DF710840514908610846006958
:1006B00040F0100008611DB100205049088002E0A0
:1006C000A5204E4908804FF43020FFF70CFE044669
:1006D000052C10D04648006941F6EF7108404449A6
:1006E000086108E0052C06D04148006941F6DF7139
:1006F00008403F490861204630BDF0B505460E462A
:10070000174604243B483A4988603B488860E00229
:10071000FFF7E9FD0446042C19D13548006940F083
:1007200010003349086147F0F8003043284333494B
:10073000891C0880E002FFF7D6FD0446052C06D090
:100740002B48006941F6EF710840294908612046AD
:10075000F0BD2748C069800870472548006A704787
:1007600000202349096801F0200109B1012000E0BF
:100770000020704729B11E4A126902431C4B1A61BE
:1007800004E01B4A12698243194B1A617047014603
:100790000020012908D1164AD26902F001020AB1EB
:1007A000012008E0002006E0114AD2680A400AB1A0
:1007B000012000E0002070470D49C8607047042008
:1007C0000B49C96801F0010109B101200EE0084997
:1007D000C96801F0040109B1022007E00449C968B1
:1007E00001F0100109B1032000E00420704700006F
:1007F0000020024023016745AB89EFCD00F8FF1FC1
:1008000010B50446CC48844208D10121042000F0F0
:100810002DFB0021042000F029FB46E0C74884425C
:1008200008D10121082000F021FB0021082000F060
:100830001DFB3AE0C248844208D10121102000F09B
:1008400015FB0021102000F011FB2EE0BD48844272
:1008500008D10121202000F009FB0021202000F018
:1008600005FB22E0B848844208D10121402000F075
:10087000FDFA0021402000F0F9FA16E0B348844266
:1008800008D10121802000F0F1FA0021802000F041
:10089000EDFA0AE0AE48844207D10121801500F04C
:1008A000E5FA0021A01500F0E1FA10BD10B5012114
:1008B000084600F0DBFA0021012000F0D7FA10BD55
:1008C0002DE9F041024600250026002000230024E7
:1008D000002791F803C00CF00F0591F803C00CF04D
:1008E000100CBCF1000F03D091F802C04CEA0505D2
:1008F00091F800C0BCF1000F31D0146800202BE04B
:100900004FF0010C0CFA00F3B1F800C00CEA03063A
:100910009E4220D183004FF00F0C0CFA03F7BC432A
:1009200005FA03FC4CEA040491F803C0BCF1280F5B
:1009300006D14FF0010C0CFA00FCC2F814C00AE01A
:1009400091F803C0BCF1480F05D14FF0010C0CFA2F
:1009500000FCC2F810C0401C0828D1D31460B1F8C4
:1009600000C0BCF1FF0F34DD546800202EE000F120
:10097000080C4FF0010808FA0CF3B1F800C00CEABB
:1009800003069E4221D183004FF00F0C0CFA03F7AF
:10099000BC4305FA03FC4CEA040491F803C0BCF123
:1009A000280F05D100F1080C08FA0CF8C2F81480E1
:1009B00091F803C0BCF1480F07D100F1080C4FF0CB
:1009C000010808FA0CF8C2F81080401C0828CED3A1
:1009D0005460BDE8F0814FF6FF7101800221817003
:1009E0000421C17070470246002093680B400BB190
:1009F000012000E0002070470146886880B27047FF
:100A000002460020D3680B400BB1012000E000201B
:100A100070470146C86880B2704701617047416104
:100A200070470AB1016100E041617047C1607047E1
:100A30004FF480320A4382618161826182698269F6
:100A4000704702460020434B18684FF680731840E9
:100A500040EA021008433F4B186070473E49C861A6
:100A60007047F0B50A46002300240021002500F05D
:100A70000046B6F1004F02D1364EF16901E0354E25
:100A80007168C0F3034583B200F44016B6F5401F09
:100A900008D121F070612F4E766826F070662D4FD8
:100AA0007E6012E000F48016B6F5801F06D10326A2
:100AB00006FA05F4A14341F0706106E0460D3601E7
:100AC00003FA06F6B14341F0706122B1460D3601DA
:100AD00003FA06F6314300F00046B6F1004F02D1AA
:100AE0001C4EF16101E01B4E7160F0BD30B500227B
:100AF0008B071C0F0F2303FA04F2164B08338C10DC
:100B000053F824309343134C08348D1044F82530A7
:100B100023468C1053F824308C07240F00FA04F479
:100B200023430C4C08348D1044F8253030BD0A495D
:100B3000DC3108607047000000080140000C0140F3
:100B4000001001400014014000180140001C014049
:100B5000002001400000014000002042DF48006802
:100B600040F00100DD49086008464068DC49084063
:100B7000DA49486008460068DA490840D749086001
:100B80000846006820F4802008600846406820F489
:100B9000FE0048604FF41F0088607047CF49096825
:100BA00021F48031CD4A11601146096821F4802179
:100BB0001160B0F5803F03D0B0F5802F0ED106E074
:100BC000C649096841F48031C44A116007E0C3494D
:100BD000096841F4A021C14A116000E000BF00BFD4
:100BE000704710B501460022002300204A11012A57
:100BF00002D1BA4C236806E0022A02D1B74C236A1C
:100C000001E0B64C636A01F01F02012494401C40CD
:100C10000CB1012000E0002010BD38B5002000908C
:100C20000024002500BF3120FFF7DBFF05460098B8
:100C3000401C00900098B0F5A06F01D0002DF2D0BC
:100C40003120FFF7CEFF08B1012400E00024204648
:100C500038BD01460020A14A106820F0F80040EAA3
:100C6000C10010607047A04908607047024600202C
:100C70009A4B586820F47C1042EA01031843974BC2
:100C80005860704798490866704701460020934AAB
:100C9000506820F003000843506070478F48406858
:100CA00000F00C007047014600208C4A506820F08C
:100CB000F00008435060704701460020874A5068A2
:100CC00020F4E06008435060704701460020834AEA
:100CD000506820F4605040EAC1005060704729B16C
:100CE0007E4A527A02437D4B5A7204E07B4A527A22
:100CF00082437A4B5A7270477B49D83108607047FB
:100D000001460020754A506820F440400843506076
:100D100070470021714A20321170704A82F8201009
:100D2000012802D004280AD104E001216B4A2032B4
:100D3000117005E00521694A2032117000E000BF02
:100D400000BF70476949086070476449096A0143F8
:100D5000624A11627047654944390860704730B58E
:100D600000210022002400235C4D6D6805F00C0179
:100D700021B1042905D0082923D105E05C4D056087
:100D800022E05B4D05601FE0544D6D6805F4701264
:100D9000524D6D6805F48034022505EB92421CB972
:100DA000544D554305600BE04C4D6D6805F400351E
:100DB0001DB1504D5543056002E04D4D5543056052
:100DC00002E04B4D056000BF00BF444D6D6805F06B
:100DD000F0010909484D6B5C0568DD4045603F4DF9
:100DE0006D6805F4E061090A434D6B5C4568DD40C0
:100DF00085603A4D6D6805F46051C90A3E4D6B5CE3
:100E00004568DD40C560354D6D6805F44041890B8E
:100E10003A4D6B5CC568B5FBF3F5056130BD29B192
:100E20002E4A526902432D4B5A6104E02B4A526903
:100E300082432A4B5A61704729B1284A926902437A
:100E4000264B9A6104E0254A92698243234B9A61BA
:100E5000704729B1214AD2690243204BDA6104E08C
:100E60001E4AD26982431D4BDA61704729B11B4A81
:100E7000D2680243194BDA6004E0184AD268824310
:100E8000164BDA60704729B1144A12690243134BBA
:100E90001A6104E0114A12698243104B1A617047CB
:100EA00012494039086070470F49C86470470B49C0
:100EB000C87170470948406A40F08070074948622D
:100EC000704701460020054A92680A400AB1012095
:100ED00000E000207047014988727047001002400E
:100EE0000000FFF8FFFFF6FE00004242800442428D
:100EF00000127A0000093D000000002010000020D0
:100F000010B50446FE48844208D10121C014FFF701
:100F1000ADFF0021E014FFF7A9FFC4E0B4F1804F5A
:100F200008D101210846FFF7AEFF00210120FFF79D
:100F3000AAFFB8E0F348844208D101210220FFF75C
:100F4000A2FF00210220FFF79EFFACE0EE488442A2
:100F500008D101210420FFF796FF00210420FFF7AC
:100F600092FFA0E0E948844208D101210820FFF760
:100F70008AFF00210820FFF786FF94E0E4488442BE
:100F800008D101211020FFF77EFF00211020FFF77C
:100F90007AFF88E0DF48844208D101212020FFF752
:100FA00072FF00212020FFF76EFF7CE0DA488442C8
:100FB00008D101214014FFF759FF00216014FFF709
:100FC00055FF70E0D548844209D10121C804FFF7DC
:100FD0004DFF00214FF40020FFF748FF63E0D048A9
:100FE000844209D101210805FFF740FF00214FF499
:100FF0008010FFF73BFF56E0CA48844209D1012127
:101000004805FFF733FF00214FF40010FFF72EFFD4
:1010100049E0C548844208D101214020FFF733FF51
:1010200000214020FFF72FFF3DE0C048844208D157
:1010300001218020FFF727FF00218020FFF723FFF9
:1010400031E0BB48844208D101218015FFF71BFF26
:101050000021A015FFF717FF25E0B648844209D10B
:1010600001210804FFF702FF00214FF48030FFF751
:10107000FDFE18E0B048844209D101214804FFF781
:10108000F5FE00214FF40030FFF7F0FE0BE0AB4817
:10109000844208D101218804FFF7E8FE00214FF4C3
:1010A0008020FFF7E3FE10BD00220288944B984297
:1010B0000ED0994B98420BD0B0F1804F08D0914B95
:1010C000984205D0904B984202D0904B984204D160
:1010D0004FF68F731A404B881A438D4B984207D0B6
:1010E0008C4B984204D04FF6FF431A40CB881A43EA
:1010F00002808B8883850B880385814B98420BD0B7
:10110000854B984208D08B4B984205D08A4B984229
:1011100002D08A4B984201D10B7A03860123838245
:10112000704770B5002400220023058C4FF6FE7630
:1011300035400584028C8388048B4FF68F752C40D4
:10114000B51E2C400D882C43751E2A400D892A435C
:101150004D882A436A4DA8420BD06F4DA84208D053
:10116000744DA84205D0744DA84202D0734DA842D8
:1011700013D14FF6F7752A404D892A434FF6FB7578
:101180002A408D882A434FF6FF652B404FF6FF55C6
:101190002B408D892B43CD892B4383800483CD88BD
:1011A0008586028470BD70B5002400220023058C62
:1011B0004FF6EF7635400584028C8388048B48F621
:1011C000FF752C404FF6FF452C400D884FF6FF76FB
:1011D00006EA05252C434FF6DF752A400D8906EAFD
:1011E00005152A434D8806EA05152A43444DA842B1
:1011F00002D0494DA8421DD14FF67F752A404D8936
:101200004FF6FF7606EA05152A434FF6BF752A40CA
:101210008D8806EA05152A434FF6FF352B404FF21D
:10122000FF752B408D8906EA85052B43CD8906EA9B
:1012300085052B4383800483CD880587028470BD98
:1012400070B5002400220023058C4FF6FF66354060
:101250000584028C8388848B4FF68F752C404FF663
:10126000FC752C400D882C434FF6FF552A400D8904
:101270004FF6FF7606EA05252A434D8806EA05253E
:101280002A431F4DA84202D0234DA8421DD14FF240
:10129000FF752A404D894FF6FF7606EA05252A4359
:1012A0004FF6FF352A408D8806EA05252A434EF67B
:1012B000FF752B404DF6FF752B408D8906EA05150D
:1012C0002B43CD8906EA05152B4383808483CD8883
:1012D0008587028470BD70B5002200230024058C30
:1012E0004EF6FF7635400584038C8488828B48F661
:1012F000FF752A404FF6FF452A400D8820E0000088
:10130000002C01400004004000080040000C004098
:10131000001000400014004000340140004C014027
:10132000005001400054014000180040001C0040E3
:1013300000200040004001400044014000480140BE
:101340004FF6FF7606EA05252A434DF6FF752B403A
:101350000D8906EA05352B434D8806EA05352B43F2
:10136000FA4DA84202D0FA4DA84208D14BF6FF75BB
:101370002C408D894FF6FF7606EA85152C43848034
:101380008283CD88A0F84050038470BD828B4FF2D9
:10139000FF331A408283828B4FF6FF7303EA0123E7
:1013A0001A4382837047F0B50C461546002200218F
:1013B0000026078C4EF6FF7C07EA0C070784828B19
:1013C000018C4FF6FF7707EA043640F6FF473A40B4
:1013D0004FF6FF7707EA05273A434FF6FF7707EA0C
:1013E00003373A43D94FB8420ED0D94FB8420BD049
:1013F000B0F1804F08D0D74FB84205D0D64FB84291
:1014000002D0D64FB84206D14DF6FF77394046F4A8
:101410008057394305E047F6FF57394044F4805779
:10142000394382830184F0BD828B4FF6F3731A40F7
:101430008283828B0A4382837047F0B50C4615463F
:10144000002200210026078C4FF6FF6C07EA0C07EC
:101450000784828B018C4FF6FF7707EA04264FF64C
:101460000C773A404FF6FF7707EA03172F433A43CA
:10147000B64FB8420ED0B64FB8420BD0B0F1804F45
:1014800008D0B44FB84205D0B34FB84202D0B34FE2
:10149000B84206D14FF6FF57394046F480773943BA
:1014A00005E04FF2FF57394044F480773943828397
:1014B0000184F0BD028B4FF2FF331A400283028B8E
:1014C0004FF6FF7303EA01231A4302837047F0B516
:1014D0000C461546002200210026078C4FF6EF7CB3
:1014E00007EA0C070784028B018C4FF6FF7707EAA7
:1014F000041640F6FF473A404FF6FF7707EA0337F6
:101500003A434FF6FF7707EA05273A438F4FB84231
:101510000ED08F4FB8420BD0B0F1804F08D08D4F16
:10152000B84205D08C4FB84202D08C4FB84206D199
:101530004FF6DF77394046F01007394305E04FF6A4
:101540005F77394044F01007394302830184F0BDCE
:10155000028B4FF6F3731A400283028B0A43028315
:101560007047F0B50C46154600220021068C4FF658
:10157000FE773E400684028B018C4FF60C7632409B
:101580007E1C06EA03162E433243704EB0420ED044
:101590006F4EB0420BD0B0F1804F08D06D4EB042CC
:1015A00005D06D4EB04202D06C4EB04206D14FF61F
:1015B000FD76314044F00106314305E04FF6F57603
:1015C000314044F00106314302830184F0BD70B51F
:1015D00005460C465D4885420ED05D4885420BD0DD
:1015E000B5F1804F08D05B48854205D05A48854206
:1015F00002D05A48854200D100E000BF208850B98F
:101600002389A28861882846FFF7ABFFE188284636
:10161000FFF79EFF25E0208804280AD12389A288AD
:1016200061882846FFF753FFE1882846FFF742FF0D
:1016300017E0208808280AD12389A28861882846D3
:10164000FFF7FBFEE1882846FFF7EEFE09E023895D
:10165000A28861882846FFF7A6FEE1882846FFF7A2
:1016600095FE70BD2DE9F04105460C460026012788
:10167000608808B9022600E00026A088012801D170
:10168000022700E001272088A0B92389A288618869
:101690002846FFF766FFE1882846FFF759FF2389B0
:1016A0003A4631462846FFF712FFE1882846FFF701
:1016B00001FF13E02389A28861882846FFF707FF0E
:1016C000E1882846FFF7F6FE23893A463146284648
:1016D000FFF747FFE1882846FFF73AFFBDE8F081B2
:1016E0000A884B881A438B881A43CB881A430B8984
:1016F0001A434B891A438B891A43A0F84420704738
:101700004FF6FF71818000210180C180418001720C
:1017100070470021018041808180C1800181418129
:101720008181C18170470021018041800121818038
:101730000021C180018170470021018041808180AA
:10174000C18001814181818170470000002C0140EE
:10175000003401400004004000080040000C00403C
:1017600021B1028842F00102028004E002884FF6B3
:10177000FE731A400280704731B1B0F8442042F441
:101780000042A0F8442005E0B0F84420C2F30E0265
:10179000A0F8442070471AB183890B43838102E08B
:1017A00083898B43838170478182704741EA0203BA
:1017B000A0F8483070471AB183890B43838102E057
:1017C00083898B438381704701894FF6F8721140FA
:1017D000018170470A46002101894FF68F73194035
:1017E00011430181704730B504460D462946204615
:1017F000FFF7F0FF208940F00700208130BD2DE980
:10180000F04104460D4616461F46602D06D13B4664
:10181000012231462046FFF75AFE05E03B460122F1
:1018200031462046FFF79DFE29462046FFF7D2FFAE
:10183000208940F007002081BDE8F08130B50C46DA
:1018400000210189C9B24FF6FF7505EA032515434A
:1018500025432943018130BD2DE9F04105460E465F
:1018600017469846002443463A4631462846FFF735
:10187000E5FF2C894FF6F870044044F007044FF65A
:101880008F70044044F070042C81BDE8F081F0B505
:1018900004460D4616461F463B463246294620461C
:1018A000FFF7CCFF208940F480402081F0BD018506
:1018B000828270470A46002101884FF68F731940D3
:1018C000114301807047F0B50C4615461E460021B5
:1018D000002200230189028B038C4FF6F8773940F0
:1018E00021434FF6FC473A4040F201173A434FF686
:1018F000DD773B404FF6FF7707EA06172F433B4360
:10190000018102830384F0BD0A460021018B4FF65A
:101910008F7319401143018370470A460021018BE0
:1019200048F6FF7319404FF6FF7303EA0223194389
:10193000018370470A460021818B4FF68F7319404F
:101940001143818370470A460021818B48F6FF735B
:1019500019404FF6FF7303EA02231943818370474E
:1019600021B1028842F08002028004E002884FF632
:101970007F731A400280704721B1828842F00402CE
:10198000828004E082884FF6FB731A4082807047A1
:1019900021B1828842F00802828004E082884FF6FA
:1019A000F7731A408280704721B1828842F00102A9
:1019B000828004E082884FF6FE731A40828070476E
:1019C0000A460021018B4FF6F7731940114301833A
:1019D00070470A460021018B4FF2FF7319404FF602
:1019E000FF7303EA02231943018370470A4600216B
:1019F000818B4FF6F77319401143818370470A4674
:101A00000021818B4FF2FF7319404FF6FF7303EAF9
:101A100002231943818370470A460021018B4FF648
:101A2000FB7319401143018370470A460021018B63
:101A30004FF6FF3319404FF6FF7303EA02231943B1
:101A4000018370470A460021818B4FF6FB731940D2
:101A50001143818370470A460021818B4FF6FF3383
:101A600019404FF6FF7303EA02231943818370473D
:101A70000A460021018B4FF67F7319401143018301
:101A800070470A460021018BC1F30E014FF6FF7328
:101A900003EA02231943018370470A460021818B20
:101AA0004FF67F7319401143818370470A46002126
:101AB000818BC1F30E014FF6FF7303EA0223194332
:101AC000818370470A460021018C4FF6FD7319404F
:101AD0001143018470470A460021018C4FF6F773C9
:101AE00019401143018470470A460021018C4FF6CA
:101AF000DF7319404FF6FF7303EA021319430184A1
:101B000070470A460021018C4FF67F7319404FF64B
:101B1000FF7303EA02131943018470470A46002148
:101B2000018C4FF6FF5319404FF6FF7303EA02236F
:101B30001943018470470A460021018C4FF2FF735C
:101B400019404FF6FF7303EA0223194301847047DB
:101B50000A460021018C4DF6FF7319404FF6FF73C2
:101B600003EA023319430184704730B5002301248E
:101B70008C40A3B2048C9C430484048C02FA01F5CB
:101B8000ADB22C43048430BD30B5002304248C4016
:101B9000A3B2048C9C430484048C02FA01F5ADB218
:101BA0002C43048430BD70B5034600200024184641
:101BB000183001258D40ACB21D8CA5431D8409B1A0
:101BC000082909D100EB6100056825F07005056062
:101BD0000568154305600EE00D1FC5F34E0528444A
:101BE000056825F4E045056005684FF6FF7606EACE
:101BF00002263543056070BD21B1028842F0020221
:101C0000028004E002884FF6FD731A40028070479C
:101C100021B1028842F00402028004E002884FF6FB
:101C2000FB731A400280704721B1828842F0800223
:101C3000828004E082884FF67F731A40828070476A
:101C400002884FF6F7731A40028002880A43028026
:101C5000704782884FF68F731A40828082880A43C9
:101C60008280704702894FF6F8731A400281028918
:101C70000A430281704702894FF67F731A4002813E
:101C800002890A43028170478184704781857047C9
:101C9000818670470187704781877047A0F84010A0
:101CA000704702884FF6FF431A40028002880A43B9
:101CB000028070470146888E70470146088F704742
:101CC0000146888F70470146B1F8400070470146D1
:101CD000888C70470146088D704702460020138AA1
:101CE0000B400BB1012000E000207047CA43028284
:101CF000704730B50246002000230024158A05EA0B
:101D00000103958905EA010413B10CB1012000E03B
:101D1000002030BDCA4302827047000010B504465F
:101D2000FB48844209D101218803FFF79FF8002175
:101D30004FF48040FFF79AF832E0F648844209D128
:101D400001214804FFF79FF800214FF40030FFF70E
:101D50009AF825E0F048844209D101218804FFF770
:101D600092F800214FF48020FFF78DF818E0EB483F
:101D7000844209D10121C804FFF785F800214FF4FE
:101D80000020FFF780F80BE0E548844208D10121EC
:101D90000805FFF778F800214FF48010FFF773F87B
:101DA00010BD2DE9F04786B005460E460024A24638
:101DB00000BFA1460027B08900B100BF2F462C8A82
:101DC0004CF6FF700440F08804432C82AC894EF638
:101DD000F3100440B08831890843718908430443F3
:101DE000AC81AC8A4FF6FF400440B0890443AC821A
:101DF00001A8FEF7B4FFC648874202D1DDF810A063
:101E000001E0DDF80CA0A88900F4004040B10AEB25
:101E1000CA0000EB0A1031684900B0FBF1F807E096
:101E20000AEBCA0000EB0A1031688900B0FBF1F838
:101E30006420B8FBF0F004012009642101FB108943
:101E4000A88900F4004040B1322000EBC900B0FB8B
:101E5000F1F000F00700044308E0322000EB091025
:101E60006421B0FBF1F000F00F0004432C8106B0B8
:101E7000BDE8F0874FF41651016000218180C180D8
:101E800001810C21418100218181704710B50246FA
:101E90000020108A4FF2FF0318400B884C88234320
:101EA0008C882343CC8823431843108210BD002123
:101EB000018041808180C180704721B1828942F4D4
:101EC0000052828104E082894DF6FF731A408281BC
:101ED0007047F0B50346002400260025002040F698
:101EE0006A17B94200D100BF1846C1F3421401F08D
:101EF0001F06012707FA06F5012C01D10C3004E07A
:101F0000022C01D1103000E014301AB107682F43C1
:101F1000076002E00768AF430760F0BD1AB1838A2B
:101F20000B43838202E0838A8B4383827047028A59
:101F30004FF6F0731A400282028A0A430282704707
:101F400082894FF2FF731A40828182890A4382811B
:101F5000704721B1828942F00202828104E08289C5
:101F60004FF6FD731A4082817047028A4FF6DF7385
:101F70001A400282028A0A430282704721B1028A11
:101F800042F48042028204E0028A4BF6FF731A4058
:101F900002827047C1F30802828070470146888838
:101FA000C0F308007047818941F0010181817047C9
:101FB000028BD2B20283028B42EA01220283704773
:101FC000028B02F47F420283028B0A430283704732
:101FD00021B1828A42F02002828204E0828A4FF696
:101FE000DF731A408282704721B1828A42F0100268
:101FF000828204E0828A4FF6EF731A408282704731
:1020000021B1828A42F00802828204E0828A4FF67D
:10201000F7731A408282704721B1828942F40042EC
:10202000828103E08289C2F30E028281704721B16E
:10203000828A42F40062828204E0828A4FF2FF7355
:102040001A4082827047828A4FF6FB731A4082825E
:10205000828A0A438282704721B1828A42F0020258
:10206000828204E0828A4FF6FD731A4082827047B2
:1020700002460020B1F5007F00D100BF13880B405D
:102080000BB1012000E00020704701F40072B2F5AE
:10209000007F00D100BFCA430280704770B502467E
:1020A000002400230025002040F66A16B14200D12A
:1020B00000BFC1F3421501F01F03012606FA03F326
:1020C000012D02D19689334006E0022D02D1168AF5
:1020D000334001E0968A33400C12012606FA04F4DC
:1020E0001688344013B10CB1012000E0002070BD0F
:1020F00010B50022002340F66A14A14200D100BFAF
:102100000A1201249440A3B2DC43048010BD0000F5
:10211000003801400044004000480040004C0040AE
:102120000050004010B5FEF719FD4FF48030FEF767
:1021300035FDFEF772FD0446012C24D11020FEF778
:1021400095F80220FEF77EF80020FEF7ACFD002097
:10215000FEF7BBFDA002FEF7AFFD4FF4E011200437
:10216000FEF784FD0120FEF78DFD00BF3920FEF74C
:1021700038FD0028FAD00220FEF787FD00BFFEF7E9
:102180008DFD0828FBD110BD10B5052200210846A1
:1021900000F026FD0020FE490870FE49086000BFDF
:1021A000FC48006841F2EC318842F9DB002211461C
:1021B000104600F015FD0020F549087000BFF448F6
:1021C00000781E28FBDB0020F24908600022642111
:1021D000104600F005FD00BFEE480068B0F5C87F6E
:1021E000FADB00221146104600F0FAFC0020E84914
:1021F000087000BFE64800781E28FBDB10BD10B554
:10220000044600226FF06301104600F0E9FC002054
:10221000E049086000BFDF48006861428842FADC9C
:1022200000221146104600F0DBFC0020D84908705F
:1022300000BFD74800781E28FBDB10BD10B5044650
:10224000002211466FF0630000F0CAFC0020D14963
:10225000086000BFCF480068A042FBDB00221146A7
:10226000104600F0BDFC0020C949087000BFC848F6
:1022700000781E28FBDB10BD10B504460022114675
:10228000642000F0ADFC0020C249086000BFC148D6
:10229000006861428842FADC00221146104600F0D4
:1022A0009FFC10BD10B5044600226421104600F0CA
:1022B00097FC0020B749086000BFB6480068A042FC
:1022C000FBDB00221146104600F08AFC0020B049DA
:1022D000087000BFAE4800781E28FBDB10BD10B5AB
:1022E0004FF4A061AC48FFF7D7FC4FF46171AA48E6
:1022F000FFF7CEFC4FF48761A748FFF7CBFC002027
:10230000A349087000BFA24800781E28FBDB40F2FA
:102310006C71A148FFF7C0FC00209D49087000BF08
:102320009B4800781428FBDB40F2A4619A48FFF731
:10233000AFFC4FF416719848FFF7ACFC10BD10B518
:1023400040F25A519448FFF7A3FC40F2DC51924806
:10235000FFF7A0FC40F26C718F48FFF79DFC002056
:102360008B49087000BF8A4800781E28FBDB4FF4B9
:1023700087618948FFF790FC00208549087000BFFD
:10238000834800781428FBDB40F2A4618248FFF701
:102390007FFC4FF416718048FFF77CFC10BD0EB532
:1023A00000207B49087000BF794800781428FBDBC7
:1023B00040F6EF10FFF760FF43F2C820FFF772FF0F
:1023C00000BF764800780028FBD0754880787449B3
:1023D0004978734A1278CDE90021029071488378D8
:1023E0004278017870A001F08DFA002076490870DB
:1023F0001EE06C4874490978405C62280DD067285B
:1024000006D072280ED1704800787049087009E033
:102410006D4800786D49487004E06B4800786B495E
:10242000887000BF00BF68480078401C664908708B
:10243000654800780328DCDB00205549087000BFA0
:10244000534800781E28FBDB41F25040FFF7D7FECF
:1024500000204F49087000BF4D4800781E28FBDB64
:10246000002059490870C0E04D4857490978405C40
:102470005649085C022818D0494853490978405CFD
:102480005249085C012804D140F2DC50FFF7B7FE46
:102490000BE043484C490978405C4C49085C0328F0
:1024A00003D140F2DC50FFF7FDFE4FF44870FFF718
:1024B000C5FEFFF714FF00203549087000BF3448FF
:1024C00000782828FBDB41F28830FFF7D5FE34483E
:1024D0003D490978405C3D49085C022818D03048E5
:1024E00039490978405C3949085C012804D140F633
:1024F000C410FFF7D7FE0BE0294833490978405C48
:102500003249085C032803D140F6C410FFF777FE78
:102510002F482D490978405C012804D140F2DC5055
:10252000FFF76DFE0FE02A4827490978405C022832
:1025300009D0274824490978405C032803D140F298
:10254000DC50FFF7AFFEFFF7FAFE002010490870DD
:1025500000BF0F4800782828FBDB1D481A4909787E
:10256000405C012804D140F2DC50FFF79BFE33E0D1
:10257000174815490978405C02282DD014481249A3
:102580000978405C032827D140F2DC5022E00000AB
:1025900033000020340000200034014042000020BD
:1025A0003F0000203C000020636F6C6F723A25638F
:1025B000202563202563206F726465723A256420AC
:1025C00025642025640D0A00140000201800002056
:1025D00015000020FFF713FE41F27C50FFF72EFE9E
:1025E00020480078401C1F4908701E4800780328C6
:1025F000FFF63AAF00BFFEE700BFFFF793FD1A49B1
:10260000B1F1807F00D31DE021F07F40401E4FF0EC
:10261000E022506150170F22002807DA13071D0E21
:10262000124B00F00F04241F1D5503E013071C0E6E
:102630000F4B1C5400BF00204FF0E0229061072098
:10264000106100BF00F036FB4FF4E13000F09CFD5C
:1026500000F05BFC07A001F055F901E0FFF79FFED9
:10266000FCE700001400002080EE360018ED00E0CA
:1026700000E400E0616161000CB500200190009071
:102680006C48006840F480306A49086000BF6948BF
:10269000006800F4003000900198401C0190009800
:1026A00018B90198B0F5A06FF1D16248006800F444
:1026B000003010B10120009001E00020009000984F
:1026C000012843D15C48006840F010005A49086076
:1026D0000846006820F0030008600846006840F0E3
:1026E0000200086053484068524948600846406804
:1026F00048600846406840F480604860084640688A
:1027000020F47C1048600846406840F4E8104860B7
:102710000846006840F08070086000BF45480068C7
:1027200000F000700028F9D04248406820F0030013
:10273000404948600846406840F00200486000BFD9
:102740003C48406800F00C000828F9D10CBD10B5D9
:10275000FFF792FF10BD10B53648006840F0010049
:1027600034490860084640683449084031494860A7
:1027700008460068324908402E490860084600684B
:1027800020F4802008600846406820F4FE0048607D
:102790004FF41F008860FFF7DAFF4FF0006029490F
:1027A000086010BD10B5002100200022214B5B689D
:1027B00003F00C0121B1042906D0082928D107E033
:1027C000214B224C236027E01F4B204C236023E049
:1027D000184B5B6803F47010164B5B6803F480328F
:1027E000022303EB904022B9194B4343174C23605B
:1027F0000DE0104B5B6803F4003323B1144B4343EB
:10280000124C236003E0104B4343104C236003E061
:102810000D4B0E4C236000BF00BF064B5B68C3F33B
:1028200003130C4CE15C094B1B68CB40074C236045
:1028300010BD000000100240002002400000FFF820
:10284000FFFFF6FE08ED00E000127A001C000020F9
:1028500000093D00200000202DE9F04F87B0002046
:10286000FA490870EDE0F949097801EB8101F84A6D
:1028700002EB8101B1F90E10F44A127802EB8202E8
:10288000F34B03EB8202B2F90C20881A00F0E7FE4A
:10289000EE49097801EB8101ED4A42F82100EB484D
:1028A000007800EB800002EB800041684FF0804030
:1028B00000F08AFD8046E548007800EB8000E44A9D
:1028C00052F82010404600F07CFD0746DF480078B3
:1028D00000EB8000DE4A02EB80008168384600F0A1
:1028E0001BFD044600F00DFF0546DA4ADA4B00F006
:1028F00044FECDE90001D549097801EB8101D44AB4
:1029000052F8210000F0FDFE80464FF03332D34BE9
:1029100000F033FE04460D46CC4A127802EB8202E8
:10292000CB4B03EB82025168C84A127802EB820259
:1029300053F8220000F042FD804600F0E2FE064619
:1029400022462B4600F072FD8246DDE9002300F0AE
:102950006DFD0022C24BCDE9020100F00EFECDE973
:10296000040100F096FE00B2B849097801EB81013C
:10297000B74A02EB81010882B448007800EB80007E
:10298000114651F82000B149097801EB810102EBB1
:1029900081014860AD48007800EB8000114601EBF2
:1029A00080004068A949097801EB810102EB8101AF
:1029B0008860A648007800EB8000114601EB80009B
:1029C000408AA249097801EB810102EB8101098A61
:1029D000084400B29D49097801EB810102EB8101B5
:1029E00048829A48007800EB8000114601EB800095
:1029F000B0F91200B0F5E15F08DD4FF4E150934902
:102A0000097801EB810102EB810148828F4800784F
:102A100000EB80008E4901EB8000B0F9120010F548
:102A2000E15F09DA4EF2E0308849097801EB810173
:102A3000874A02EB8101488284480078401C834920
:102A40000870824800780428FFF60DAF07B0BDE893
:102A5000F08F2DE9F8437E48B0F94E0000907C4895
:102A6000B0F93A30B0F92620B0F912107DA000F08C
:102A700049FF7748B0F9120000280ADB7448408A01
:102A800081B27C48FFF704F904217B48FDF7C5FFBC
:102A90000BE06F48408A00F5E15081B27548FFF7BE
:102AA000F7F804217448FDF7BAFF6948B0F9260029
:102AB000002816DB6649B1F9260000F0D9FD07466B
:102AC0006E4A6F4B00F059FD054600F001FE84B2DE
:102AD00021466848FFF7DEF808216748FDF79DFFAB
:102AE0000BE05B48C08C00F5E15081B26148FFF714
:102AF000D1F808216048FDF792FF5548B0F93A0037
:102B000000280ADB5248408F81B25A48FFF7C4F8C8
:102B100010215948FDF781FF0BE04D48408F00F52B
:102B2000E15081B25348FFF7B7F810215248FDF742
:102B300076FF4748B0F94E0000280BDB4448B0F858
:102B40004E0081B24B48FFF7A9F820214A48FDF713
:102B500064FF0CE03E48B0F84E0000F5E15081B251
:102B60004448FFF79BF820214348FDF758FFBDE894
:102B7000F88308B54FF08040808C00B234498881DA
:102B80004048008801B2324801843F48008801B2C1
:102B90002F4881863D48008801B22D48A0F8481092
:102BA000B0F9480000902A48B0F93430B0F920203C
:102BB000B0F90C1036A000F0A5FE2548B0F90C00C5
:102BC0003749096808443649086000204FF08041C1
:102BD00088842C4908802C4908802C49088008BD2D
:102BE00070B504460D461646281B2E4909782E4A14
:102BF0001278114406FB010000B21549C88128195A
:102C000028490978284A1278114406FB110001B2BC
:102C10000F484184234800782349097808447043C9
:102C2000291B401A01B20A48C18629191D4800789B
:102C30001D4A1278104406FB0010404201B20448BD
:102C4000A0F84A1033462A4621462FE030000020E3
:102C50004C0000209A9999999999D93F3333D33FE1
:102C600000002E40763A256409256409256409256B
:102C7000640D0A00002C014000080140295C8FC24D
:102C8000F528F03F2404004024080040240C0040B4
:102C9000723A25640925640925640925640D0A0032
:102CA000340000203100002032000020F8A000F0A5
:102CB00029FE70BD00B58BB0FA48FEF721F9FA483D
:102CC000FDF79EFDFDF7F2FD01210F20FEF7C1F893
:102CD000012142F60D00FEF7AFF80121F348FDF7A0
:102CE000C0FE0121F248FDF7BCFE4FF47060ADF864
:102CF0000C0018208DF80F0003208DF80E0003A99A
:102D0000E948FDF7DDFD3C20ADF80C0010208DF802
:102D10000F0002208DF80E0003A9E348FDF7D0FD57
:102D200048F2C300ADF80C0004208DF80F0003201A
:102D30008DF80E0003A9DC48FDF7C2FDC820ADF8F0
:102D40000C0004208DF80F0003208DF80E0003A95D
:102D5000D848FDF7B5FD4FF4E150ADF82400002050
:102D6000ADF82000ADF82600ADF822008DF828005F
:102D700008A9CC48FEF798F94FF6FF70ADF824008B
:102D80000020ADF82000ADF82600ADF8220008A91B
:102D9000C948FEF789F908A9C848FEF785F908A9C6
:102DA000C748FEF781F908A94FF08040FEF77CF98B
:102DB0006846FEF7B8FC0620ADF808006946BE4834
:102DC000FEF705FC6946BD48FEF701FC6946BC48B4
:102DD000FEF7FDFB69464FF08040FEF7F8FB00234D
:102DE0001A460321B448FEF76EFD00231A4603215C
:102DF000B248FEF768FD00231A460321B048FEF7EB
:102E000062FD00231A4603214FF08040FEF75BFD70
:102E100001218807FEF76AFF0121A748FEF766FF38
:102E20000121A648FEF762FF0121A548FEF75EFFDB
:102E300000204FF0804188849F49243108809F49B9
:102E4000243108809E49243108806020ADF81000AC
:102E50000120ADF812000020ADF816000220ADF8F8
:102E60001800C001ADF81C000020ADF8140004A942
:102E70008C48FEF756F904A98A48FEF794F904A98C
:102E80008848FEF7DDF904A98648FEF724FA0121F7
:102E90008448FEF771FC04218348FDF7BEFD08213C
:102EA0008148FDF7BAFD10217F48FDF7B6FD2021CE
:102EB0007D48FDF7B2FD08217A48FEF781FD082123
:102EC0007848FEF786FD08217648FEF78FFD082139
:102ED0007448FEF794FD01217248FEF741FD01217F
:102EE0007048FEF73DFC01218807FEF739FC0121FF
:102EF0007148FEF735FC01217048FEF731FC0121D5
:102F00006F48FEF72DFC0BB000BD00B589B0012164
:102F10001020FDF791FF6B48FDF7F2FF4FF4E070D2
:102F2000ADF8040018208DF8070002208DF8060087
:102F300001A96548FDF7C4FC4FF46150ADF81C00D1
:102F40006320ADF818000020ADF81E00ADF81A009F
:102F500006A95C48FEF7A8F86020ADF8080001203B
:102F6000ADF80A000020ADF80E00ADF8100002A97F
:102F70005448FEF7D6F802A95248FEF714F902A900
:102F80005048FEF75DF908214E48FEF719FD08216B
:102F90004C48FEF71EFD08214A48FEF727FD012197
:102FA0004848FEF7E9FB01214648FEF7D9FC01211C
:102FB0004448FEF7D5FB40F2A4614248FEF768FEA4
:102FC00040F28A213F48FEF765FE40F2D6613D4857
:102FD000FEF762FE09B000BD00B585B001211020EA
:102FE000FDF737FF01211020FDF726FF4FF4C070D9
:102FF000ADF8000018208DF8030002208DF80200C3
:1030000069463148FDF75CFC4FF6FF70ADF80C00E7
:103010000020ADF80800ADF80E00ADF80A0002A9D6
:103020002A48FEF741F84FF4A060FDF79DF83620DE
:103030008DF8040001208DF8050000208DF80600B1
:1030400001208DF8070001A8FDF793F80122114631
:103050001E48FEF7A0FB01211C48FEF781FC4FF43F
:1030600080711948FDF7D9FC05B000BD10B50121EC
:103070001648FEF73EFE18B101211448FEF74AFE3D
:103080001348007830B380210F48FDF7C6FC25E0D7
:1030900076767676763A25642025642025640D0AB6
:1030A00000000000002C014000080140000318004F
:1030B00000023000000C0140000400400008004005
:1030C000000C00400034014000100140001000409E
:1030D0003800002080210B48FDF7A1FC0A48007849
:1030E000C0430949087010BD10B508480078401C5D
:1030F00006490870FFF73DFDFFF7AEFBFFF7A9FC9F
:1031000010BD0000001001403800002033000020F6
:103110001FB501212020FDF79CFE42F21070ADF892
:10312000080041F6BC30ADF804000020ADF80A00FC
:10313000ADF8060001A91348FDF7B6FF37208DF85A
:10314000000001208DF8010000208DF80200012010
:103150008DF803006846FDF70CF801221146094876
:10316000FEF719FB00210748FEF7FAFB1FBD10B55B
:1031700001210448FEF7BDFD18B101210148FEF709
:10318000C9FD10BD0014004010B586B004460121F1
:103190001020FDF751FE0121C804FDF75AFE4FF43F
:1031A0000060ADF8000004208DF8030069464A482D
:1031B000FDF786FB4FF48060ADF8000003208DF82A
:1031C000020018208DF8030069464348FDF778FB9C
:1031D00001940020ADF80800ADF80A00ADF80C002D
:1031E000ADF810000C20ADF80E0001A93B48FEF729
:1031F000D8FD012240F225513848FEF76AFE012130
:103200003648FEF75AFE4FF4A060FCF7ADFF3420BD
:103210008DF8140003208DF8150002208DF816009B
:1032200001208DF8170005A8FCF7A3FF06B010BD1C
:1032300010B58AB0044628222949684600F05AF899
:103240005DF824000AB010BD70B504460D4600BFFD
:1032500040212248FEF70CFF0028F9D0E1B21F48B8
:10326000FEF798FE204670BD10B540F225511B4870
:10327000FEF714FF50B31B48007803280CDA1748F8
:10328000001D00881849174A12788854154800789C
:10329000401C1449087012E01248007806280EDA23
:1032A0000E48001D00883138C1B20E480078C01E9B
:1032B0000E4A11540B480078401C0A49087009480E
:1032C0000078062802DB01200949087040F22551E8
:1032D0000248FEF70DFF10BD00100140004C0040F9
:1032E000FC3A0008440000203C0000203F00002081
:1032F0004200002040EA01039B0703D009E008C90F
:10330000121F08C0042AFAD203E011F8013B00F8AA
:10331000013B521EF9D27047F0B480EA0102D40F8B
:103320004200B2EB410F02D20246084611464A0063
:1033300042D0C30DDDB2C1F3C752AD1A202D35DA2C
:10334000C1F3160141F4000204B15242C5F1200656
:1033500002FA06F12A411044B3EBD05F23D0C4B186
:10336000012DA0EBC35009DCF0BC4FF0004202EA93
:10337000C352DBB200F5000000F026BA400000F1B5
:10338000807000EBC350A0F1807040EAD17049001A
:1033900009E0490841EAC071A0EBC35000F5000004
:1033A000400800EBC350F0BC00F005BA61420122B6
:1033B00002EB4101001BF6E7F0BC704781F00041D1
:1033C000AAE780F00040A7E780EA010210B502F00A
:1033D0000043400022D04A001FD0010E01EB1261D1
:1033E000C0F35600C2F3560240F4000042F400025B
:1033F000A0FB022000047F39140400D0401C50EAD6
:10340000124001D44000491EC2B20C0604EBD01099
:10341000401C4008802A02D003E0002010BD20F0AC
:103420000100002900DA0020184310BD2DE9FE4FED
:10343000804681EA0300C00F0C46009021F0004155
:1034400023F00045B8EB0200A94105D240462146D1
:1034500090461C460B46024623F00040104347D0DE
:10346000270DC7F30A00C3F30A510290401A0190D6
:1034700040286BDAC3F3130040F4801B0098924697
:1034800020B10023D2EB030A63EB0B0B01985946E2
:10349000C0F14002504600F05DF906460D46504628
:1034A0005946019A00F075F910EB080061410024BB
:1034B00087EA115284EAE7731A4340D0009A62B354
:1034C000019A012A4FEA075215DC001B61EB020149
:1034D0004FF0004202EA0752CDE90042001C41F5DC
:1034E000801132462B4600F0ACF903B0BDE8F08FF6
:1034F00040462146F9E7001B61EB0201001C41F543
:10350000801300185B412018A2F5001747EB030158
:1035100040EAD570B6196D4111E06D084FEA3606E4
:1035200045EAC0754FEA0752001B61EB0201001C1F
:1035300041F5801149084FEA3000001951413246E7
:103540002B4603B0BDE8F04F00F06CB900980122A3
:1035500040000023D0EB020263EBE07300982146A9
:103560004FEAE074B8EB000061EB0401E9E783F097
:1035700000435BE781F0004158E72DE9FE4F81EA07
:10358000030404F0004421F0004100944FF0000BCC
:1035900023F0004350EA01045ED052EA03045BD0FA
:1035A000C3F30A54C1F30A552C44A4F2F334019432
:1035B000A0FB0254C1F3130141F48011C3F31303C0
:1035C00043F4801301FB024400FB034E840A970A74
:1035D00044EA815447EA8357A4FB076802958D0AA1
:1035E00005FB07854FEA932C04FB0C542705029D2D
:1035F0004FEA065847EA1637B5EB08056EEB070C9D
:10360000870E920E47EA811742EA8312A7FB020156
:10361000B6EB0B0164EB00042B0D43EA0C335E1890
:1036200044EB1C50DA465146E7FB0201C5F3130494
:103630004FEA0B3343EA14534FEA0432019C43EA46
:103640000603A4F10C040294009CCDE900B400F040
:10365000F8F803B0BDE8F08F00200146F9E7C10F8C
:1036600080EAE0700844CA079623002100F0ACB855
:103670000EB5C10F80EAE0700844CA07002140F28D
:1036800033438DE80E000A460B4600F0DAF803B02B
:1036900000BD70B5C1F30A5201F000450024C1F32A
:1036A000130140F2FF3341F480119A4201DA002005
:1036B00070BD40F233439A42A2F2334203DC5242DD
:1036C00000F057F800E090402C43F1D0404270BD2C
:1036D000C1F30A5210B5C1F3130140F2FF3341F4B4
:1036E00080119A4201DA002010BD40F233439A4221
:1036F000A2F2334203DC524200F03BF810BD90408E
:1037000010BD00F0004230F000400AD0C10D01F5BC
:103710006071C0F3160042EA0151C208400711432C
:10372000704700200146704730B50B460146002027
:103730002022012409E021FA02F59D4205D303FA73
:1037400002F5491B04FA02F52844151EA2F10102F4
:10375000F1DC30BD202A04DB203A00FA02F100201F
:1037600070479140C2F1200320FA03F319439040BF
:103770007047202A04DB203A21FA02F0002170472A
:1037800021FA02F3D040C2F12002914008431946C9
:103790007047202A06DBCB17203A41FA02F043EAB1
:1037A000E07306E041FA02F3D040C2F120029140FA
:1037B0000843194670470029A8BF7047401C4900BC
:1037C00008BF20F00100704710B4B0FA80FC00FA86
:1037D0000CF050EA010404BF10BC704749B1CCF1B1
:1037E000200421FA04F411FA0CF118BF012121433D
:1037F0000843A3EB0C01CB1D4FEA00614FEA1020F8
:1038000042BF002010BC704700EBC3501044002999
:10381000A4BF10BC7047401C490008BF20F0010045
:1038200010BC704710B5141E73F1000408DA401C78
:1038300041F1000192185B411A4301D120F00100CF
:1038400010BD2DE9F04D92469B4611B1B1FA81F2BF
:1038500002E0B0FA80F220329046FFF77BFF044688
:103860000F4640EA0A0041EA0B0153465A46084314
:1038700013D0114653EA010019D0C8F14002504656
:10388000FFF777FF05460E46504659464246FFF77A
:1038900061FF084305D0012004E020463946BDE819
:1038A000F08D0020054346EAE0762C4337430A9822
:1038B0006305E40AA0EB08000022FD0A44EA47542D
:1038C0000A3002D500200146E9E7010510196941D7
:1038D000DDE9084500196941BDE8F04DA2E70000A7
:1038E000064C074D06E0E06840F0010394E807004D
:1038F00098471034AC42F6D3FCF71EFC243B00087A
:10390000443B00080FB4054B10B503A9044A0298C4
:1039100000F018F810BC5DF814FB000049320008F4
:103920004800002002E008C8121F08C1002AFAD18E
:1039300070477047002001E001C1121F002AFBD12F
:10394000704700002DE9FF4F8BB09A460F460546A1
:10395000002606E025280BD052460D9990476D1C95
:10396000761C28780028F5D10FB03046BDE8F08FDE
:103970000024A0460122604900E0044315F8013FFD
:10398000203B02FA03F00842F7D128782E2817D1FD
:1039900015F8010F44F004042A280ED06FF02F020E
:1039A0002878A0F1300109290AD808EB880102EB38
:1039B000410100EB01086D1CF2E757F8048B6D1C08
:1039C000287869283ED006DC0028CDD063280BD0AB
:1039D000642804D136E0732810D075284BD05246A5
:1039E0000D999047761C85E017F8040B8DF80000C0
:1039F00000208DF80100E946012003E057F8049B00
:103A00004FF0FF3061074FF0000401D40AE0641C5E
:103A100044450DDA8442FADB19F804100029F6D186
:103A200006E0641C8442FCDB19F804100029F8D17C
:103A3000264404E019F8010B52460D999047641E84
:103A4000F8D257E001CF4FF00A0B002802DA4042CB
:103A50002D2102E0210504D52B218DF82410012110
:103A600003E0E10705D02021F7E70DF120090891D7
:103A70000CE00021F9E701CF4FF00A0BF9E75946B6
:103A8000FFF752FE01F1300209F8012D0028F6D1AE
:103A9000ADEB090000F1200B600701D44FF00108E5
:103AA000D84502DDA8EB0B0000E000208046002492
:103AB00006E009A85246005D0D999047641C761CEB
:103AC00008988442F5DB04E0302052460D99904777
:103AD000761CB8F10001A8F10108F5DC05E019F841
:103AE000010B52460D999047761CBBF10001ABF1DA
:103AF000010BF4DC6D1C34E709280100B004000060
:103B000060090000C012000080250000004B00008A
:103B10000096000000E1000000C2010000F4010076
:103B200000E80300443B0008000000204C000000B7
:103B300024390008903B00084C0000205404000089
:103B400034390008000000000102030401020304EC
:103B50000607080902040608000000000000000033
:103B600000A24A040000000000000000010203045B
:103B700006070809000A0A00000000000000000013
:103B80000000000000000000000000000000000035
:0400000508000131BD
:00000001FF
