:020000040800F2
:1000000050110020DD010008E1010008E3010008B3
:10001000E5010008E7010008E90100080000000010
:10002000000000000000000000000000EB010008DC
:10003000ED01000800000000EF010008F1010008D8
:10004000F3010008F3010008F3010008F3010008C0
:10005000F3010008F3010008F3010008F3010008B0
:10006000F30100083D150008F3010008F301000842
:10007000F3010008F3010008F3010008F301000890
:10008000F3010008F3010008F3010008F301000880
:10009000B3230008F3010008F3010008AF3800089B
:1000A000F3010008F3010008F3010008F301000860
:1000B000D5140008F301000887150008F3010008B3
:1000C000F3010008F3010008F3010008F301000840
:1000D000F3010008F30100088B070008AD1B0008BE
:1000E000ED140008F3010008F301000800F002F825
:1000F00000F05FF80AA090E8000C82448344AAF163
:100100000107DA4501D100F054F8AFF2090EBAE860
:100110000F0013F0010F18BFFB1A43F0010318473B
:1001200060BC000080BC00000A444FF0000C10F8D6
:10013000013B13F0070408BF10F8014B1D1108BF65
:1001400010F8015B641E05D010F8016B641E01F805
:10015000016BF9D113F0080F1EBF10F8014BAD1C55
:100160000C1B09D16D1E58BF01F801CBFAD505E073
:1001700014F8016B01F8016B6D1EF9D59142D6D3CD
:10018000704700000023002400250026103A28BFF5
:1001900078C1FBD8520728BF30C148BF0B607047F9
:1001A000642907F01385002070471FB51FBD10B5E7
:1001B00010BD07F0D9FE1146FFF7F7FF00F02AF84F
:1001C00007F0F7FE03B4FFF7F2FF03BC00F050FAAC
:1001D00030BF72B662B680F308887047084800479F
:1001E000FEE7FEE7FEE7FEE7FEE7FEE7FEE7FEE7E7
:1001F000FEE7FEE703480449044A054B7047000048
:10020000ED000008500B002050110020500D002080
:10021000500D002008B5092000F0D1F9482000F069
:1002200071F8022000F0B6F9012000F0B3F900F0F7
:100230000BFB00F05BFB2D48006818B901202C492E
:10024000087002E000202A49087000F098FD4FF481
:10025000E131242000F026FA4FF41651242001F059
:1002600033FC01F01FF801F075F801F0A7F800F079
:1002700053FE01F0A3F906F074FC06F086FC0021A1
:1002800041F61F4000F03DFF18480830006808B9EB
:1002900002F02BFB01F01AFE0020062303220221AC
:1002A0000090012001F03CFE1FE012480078012878
:1002B00004D102F07BFB00200E4908700E48007844
:1002C00020B907F0E5F906F0F3FE01E007F07AFA4D
:1002D00002F026F901200949087000200849087039
:1002E00000BF064800780028FBD1DEE730812142BC
:1002F000550000206A00002004000020510000206A
:10030000500000204FF0E021096921F004014FF076
:10031000E0221161C21700EB5272C2F3C702234BF5
:100320001A701946097801EB4102C2EBC1114FF670
:10033000FF7202EAC1011E4A1180704701461B4A42
:1003400012784A434FF0E0235A6100229A61012259
:100350001A6100BF4FF0E022106900F001021AB1EB
:1003600000F48032002AF5D000224FF0E0231A6119
:100370009A61704701460E4A12884A434FF0E023C3
:100380005A6100229A6101221A6100BF4FF0E022F7
:10039000106900F001021AB100F48032002AF5D091
:1003A00000224FF0E0231A619A617047B0000020EC
:1003B000B2000020A34A0A400243A34B1A607047D0
:1003C0000146072323EA010212029F4B1B1D1868F6
:1003D0004FF6FF0318409D4B184310439A4B1B1DCB
:1003E000186070472DE9F0410746884614461D46BF
:1003F0002846FFF7E5FFC5F1040007FA00F60F20D5
:10040000284100EA0800064306F00F06E21704EB55
:10041000D2625211920002F1E022D2F8002121466C
:10042000E31704EBD3635B11A4EB431C012303FA32
:100430000CF31A432046E31704EBD3635B119B00D4
:1004400003F1E023C3F800218148005D40EA061073
:100450007F490855BDE8F08170B504460B46CE17BC
:1004600001EB9676C6F38700CE1701EB9676B610B1
:10047000A1EB8606B606350E764B9B6943F0010369
:10048000744EB3614FEAB63353F820300F26AE40B6
:10049000B343714E46F82030334653F8203004FA07
:1004A00005F61E436C4B43F820606C4B1B6801261D
:1004B0008E403343694E336002F0010343B1674B12
:1004C0000C331B6801268E403343644E0C36336078
:1004D00002F0020343B1614B08331E6801238B40D5
:1004E0001E435E4B08331E6070BD00B500205949A5
:1004F0000861C8601420486100208861C86108460E
:10050000006840F00100086008464068544908400F
:100510005049486008460068524908404D49086003
:100520000846006820F4802008600846406820F4EF
:10053000FE0048600020886000214FF00060FFF757
:1005400039FF00BD10B540480830006840F0040095
:100550003D49083108603F48C06940F080503D493E
:10056000C8614148406840F480703F49486008468F
:10057000006840F0040008600846006840F002008F
:100580000860FFF725FE10BD3048001D2E49091DEB
:1005900008607047014649062E4A926942F00102FE
:1005A0002C4B9A612C4A083A526822F0E0622A4B9E
:1005B000083B5A601A4652680A435A60704730B581
:1005C00004460025FFF791FF2248006840F4803080
:1005D0002049086000BF1F480068400C0028FAD07E
:1005E0004FF480601B494860A01EC4B208464068B2
:1005F00040EA844048600846406840F480304860E3
:100600001A48006840F03200184908601148006834
:1006100040F080700F49086000BF0E480068400E2F
:100620000028FAD00B48406840F0020009494860B1
:1006300005E008484068C0F3870505F00305022D72
:10064000F7D130BD80FFFF1F08ED00E00000FA0584
:1006500000E400E0001002400800014000040140F6
:100660000000FFF8FFFFF6FE00700040002002408F
:10067000014600BF704700BF674A128802F040027F
:10068000002AF9D0C2B2644B1B1D1A80704763491F
:10069000088000BF6149091F098801F04001002955
:1006A000F8D070472DE9F05F05460E46300109F09D
:1006B000EDFC81465A4905FB01F009F0E7FC824652
:1006C000494609F099FB0746384609F0A7FC84B271
:1006D000204609F0DBFC8346394609F01CFE8246C1
:1006E0004FF0834109F01AFD814609F097FC8046DE
:1006F0004FF6FF7000EA041404EB080084B2494886
:10070000806940F00400474988610846C06940F4A8
:100710000030C8614448006820F47F4042490860C6
:100720000846006840F40B4008603F480C30006801
:1007300040F480603C490C3108603A48006940F45C
:100740008020384908610846006920F4802008614B
:100750003248001D0480001D008842F20C0108434D
:100760002E49083108800846008840F480700880CF
:100770000846008840F0200008800223262201213C
:100780000020FFF72FFEBDE8F09F2448001F0088DF
:1007900000F0200000283CD02449097851B92449B0
:1007A0000978491CC9B2224A11700A2902DD0121C7
:1007B0001E4A117019490988C8B21E49097869B9D9
:1007C0001D490978FE2909D11C490978FF2905D15D
:1007D0000121184A11700021194A11701549097830
:1007E00001290FD11749164A1278885414490978FB
:1007F000491C134A117011460978082902D10021B9
:100800000C4A11700C4909780C4A11700A49087099
:1008100000BF002070470000004800400444004032
:1008200040420F0000100240000801406700002015
:10083000BB00002068000020B9000020BA000020A2
:10084000B80000205E0000202148806940F00400CC
:100850001F4988611F48006820F070401D490860EA
:100860000846006840F0405008601A4808300068A8
:1008700040F400401749083108601548806940F08D
:100880000800134988611448006820F47F00124969
:1008900008600846006840F44C10086000200F49CA
:1008A0000860704718B900210D4A11600FE00D492A
:1008B0000968491C0B4A1160814208D1084909683E
:1008C000C943094AC2F8BC110021064A11607047A9
:1008D0000010024004080140040C0140B481214290
:1008E000BC012142BC000020000021425F48806919
:1008F00040F008005D4988615D48006820F0706044
:100900005B4908600846006840F00060086058488D
:100910000830006840F48040554908310860544868
:10092000006820F47020524908600846006840F4CE
:10093000002008604E480830006840F480504C4960
:1009400008310860704701464A48006828B94A489B
:100950000088401C484A108002E00020464A10806F
:100960004448006828B94548007810B90120434A36
:10097000107043480078B0B940480078012807D18A
:1009800040480078401C3F4A107001203C4A1070DB
:100990003C480078022806D100203A4A10703A4AB2
:1009A00010800220704733480068012804D10020DD
:1009B000324A1070324A10703248007801281CD137
:1009C00031480088401C304A108010460088884218
:1009D0000ADD29480088884206DA0020294A10707A
:1009E000294A10800120DDE723480088884204DD81
:1009F0000020244A1070244A10800020D2E72348A7
:100A0000007838B11B48006820B900201F490870E1
:100A10000120704717480068012801D11B49087060
:100A20000020F6E71A48008840B91248006828B943
:100A300018480088401C1749088002E0002015492A
:100A4000088014480088C82807DD01201049088064
:100A5000002010490880012070470D4800880128B7
:100A600002D100200A4908800020F5E7001002406A
:100A7000040C014038812142C6000020C000002043
:100A8000C1000020C2000020C4000020C8000020D7
:100A9000CC000020CA00002010B50A461AB101237C
:100AA000FE4C236002E00023FC4C2360002114E094
:100AB0000023FB4C236000F080031BB10123241FA3
:100AC000236003E00023F64C241F23600123F44C31
:100AD00023604306180E4B1CD9B20829E8DB01231A
:100AE000EE4C236010BD30B500241CE004F1B001D1
:100AF000C8B20021FFF7D0FF00210846FFF7CCFF66
:100B000000211020FFF7C8FF002508E0E54901EBB0
:100B1000C501085D0121FFF7BFFF681CC5B2802D2C
:100B2000F4DB601CC4B2082CE0DB30BD00B5002152
:100B30008D20FFF7B1FF00211420FFF7ADFF00214A
:100B4000AF20FFF7A9FF00BD00B500218D20FFF702
:100B5000A3FF00211020FFF79FFF0021AE20FFF729
:100B60009BFF00BD30B500240CE0002506E000200E
:100B7000CC4901EBC5010855681CC5B2802DF6DBD8
:100B8000601CC4B2082CF0DBFFF7ADFF30BDF0B540
:100B9000144600267F2801DC3F2900DDF0BD0B460E
:100BA000CF1701EB5777FF10C7F10707FAB2CF173E
:100BB00001EB5777FF10A1EBC707FDB2C5F107079F
:100BC0000123BB40DEB24CB1B64B03EBC0039B5CD0
:100BD0003343B44F07EBC007BB5408E0B14B03EB02
:100BE000C0039B5CB343AF4F07EBC007BB5400BFD0
:100BF000D4E72DE9F04F80460C4615461E46A34625
:100C0000A5F12000C5B200273EE00C2E07D105EB70
:100C10004500A54901EB800010F8079004E0A348C7
:100C200000EB051010F807904FF0000A26E009F0DD
:100C3000800028B121464046099AFFF7A8FF09E045
:100C4000099808B9012000E00020024621464046EC
:100C5000FFF79DFF4FEA49604FEA1069601CC4B27C
:100C6000A4EB0B00B04205D15C4608F1010000F096
:100C7000FF0806E00AF1010000F0FF0ABAF1080FD0
:100C8000D5DB00BF781CC7B2B742BEDBBDE8F08F32
:100C900010B50246012000E050430B00A1F1010411
:100CA000E1B2F9D110BD2DE9FF4F81B00746914661
:100CB0001E460E9D4FF0000A002439E0301B401EF6
:100CC000C1B20A20FFF7E4FFB9FBF0F00A21B0FB44
:100CD000F1F201FB1208BAF1000F16D1701EA0420A
:100CE00013DDB8F1000F0ED10120AB4605EBDB712F
:100CF000491001FB04710090C8B22B4620220299D2
:100D0000FFF777FF12E04FF0010A0120AB4605EB39
:100D1000DB71491001FB04710090C8B208F1300189
:100D2000CAB22B460299FFF764FF00BF601CC4B231
:100D3000B442C3DB05B0BDE8F08F78B505460E467A
:100D4000144618E07A2D03DD002506F11000C6B226
:100D50003A2E04DD002005460646FFF703FF01207A
:100D6000009022780C2331462846FFF742FF05F118
:100D70000800C5B2641C20780028E3D178BD10B506
:100D80004B48806940F0080049498861494800683B
:100D900020F47020474908600846006840F400309D
:100DA00008604348806940F0100041498861084666
:100DB000806940F0010088613F484068C0F313003B
:100DC0003D494860084640683C4908433A49486004
:100DD0003B48006840F48070394908603448006A34
:100DE00020F00100324908623648008820F00100F6
:100DF000344908803248006820F480703049086027
:100E000000202749083908606420FFF7B3FA012061
:100E10002D49C1F8B4010021AE20FFF73DFE0021AD
:100E2000D520FFF739FE00215020FFF735FE0021C5
:100E3000A820FFF731FE00213F20FFF72DFE002103
:100E4000D320FFF729FE00210846FFF725FE0021E9
:100E50004020FFF721FE00218D20FFF71DFE00211D
:100E60001420FFF719FE00212020FFF715FE0021B6
:100E70000220FFF711FE0021A120FFF70DFE002147
:100E8000C020FFF709FE0021DA20FFF705FE002150
:100E90001220FFF701FE0021812017E090812142FE
:100EA000BC012242EC01002006A500087AA9000836
:100EB00000100240000C0140001001400000202200
:100EC00000700040306C004000002242FFF7E4FD5B
:100ED0000021EF20FFF7E0FD0021D920FFF7DCFD26
:100EE0000021F120FFF7D8FD0021DB20FFF7D4FD22
:100EF00000213020FFF7D0FD0021A420FFF7CCFD1A
:100F00000021A620FFF7C8FD0021AF20FFF7C4FD98
:100F1000FFF728FE10BD00006D48806940F0040016
:100F20006B4988616B48006820F47000694908606B
:100F30006748806940F40070654988610846C06868
:100F400040F40070C8600846C06820F40070C860B3
:100F50000846406820F4404048600846406840F435
:100F6000004048605C4800685C4908405A49086095
:100F70000846006808600846006820F48070086031
:100F8000081D006820F00200091D0860084600687E
:100F900020F4602008600846006840F46020086083
:100FA0000846006840F4801008600846006820F495
:100FB0000060086048482830006820F47000464906
:100FC00028310860084600680020086042480C305C
:100FD000006820F4700040490C3108600846006841
:100FE00040F4603008603C48001D006840F001009B
:100FF0003949091D08600846006840F0080008608B
:1010000000BF3548001D006800F008000028F8D136
:101010003148001D006840F004002F49091D086098
:1010200000BF2D48001D006800F004000028F8D122
:101030007047014628483030006820F01F00264ADB
:101040003032106010460068084310602248001DCE
:10105000006840F48000204A121D106000BF1E4846
:10106000001F006800F002000028F8D01A4848303D
:10107000006880B270472DE9F04F87B00520FFF778
:10108000D8FF019008F0BEFA80464FF06632144B4C
:1010900008F008FB0022134BCDE9020108F002FB27
:1010A0000022114BCDE9040108F0FCFA06460022AB
:1010B0000E4B08F009F9044600220D4B08F004F924
:1010C000824608F059FA0690069807B0BDE8F08FFE
:1010D000001002400008014004240140FFFFF0001E
:1010E00066660A4000002640000059400000F03FBC
:1010F0000000B0406648806940F00800644988619B
:101100007047634A926942F40062614B9A611A46E1
:10111000926942F004029A615E4A12686FF30B0210
:101120005C4B1A601A46126840F6BB331A43594B9F
:101130001A60594A1080121F1180574A143A1288B7
:1011400042F4C042544B143B1A801A1D128842F0DC
:1011500060021B1D1A801A1F128842F060021B1FBA
:101160001A801A46128842F400621A801A461288BF
:1011700042F008021A801A1D128842F008021B1D54
:101180001A801A1D128842F480721B1D1A801A469A
:10119000128842F010021A801A46128842F00102A8
:1011A0001A803D4A1832128842F400423A4B1833F2
:1011B0001A804FF40042384B2C3B1A801A46128892
:1011C00042F001021A80324AD26942F00202304BE8
:1011D000DA611A46926942F008029A612D4A121F9A
:1011E000126822F07F422B4B1B1F1A601A461268AE
:1011F00042F03B421A60294A126822F00F02274B44
:101200001A601A46126842F00B021A60244A1080D3
:10121000121F1180224A143A128842F4C042204B15
:10122000143B1A801A1D128842F060021B1D1A809E
:101230001A1F128842F060021B1F1A801A46128879
:1012400042F400621A801A46128842F008021A809C
:101250001A1D128842F008021B1D1A801A1D1288DE
:1012600042F480721B1D1A801A46128842F0100246
:101270001A801A46128842F001021A80DA13084BCB
:101280002C3B1A801A46128842F001021A807047DD
:1012900000100240040801402C2C0140000C0140C9
:1012A0002C04004010B5BE48C06940F00100BC49A4
:1012B000C8610846806940F004008861B948006848
:1012C00020F0FF00B74908600846006840F044007D
:1012D0000860C804808940F00100C904888108467C
:1012E000808940F04000888101231C220321184698
:1012F000FFF778F800204FF0804108854FF6FF7027
:1013000088850846008820F44070088008460088D8
:1013100020F0600008800846008B40F00100088340
:101320000846008B40F4807008830846008C20F04B
:10133000020008840846008C20F02000088408463B
:10134000008940F0030008810846008840F0010051
:10135000088010BD10B59248806940F0080090499F
:1013600088619148006820F470408F490860084601
:10137000006840F400400860081D006820F07040DC
:10138000091D08600846006840F00040086003221C
:1013900011460120FFF760F803220F210120FFF71B
:1013A0005BF80223092200210846FFF71BF80223FD
:1013B000282200210846FFF715F810BD10B578481F
:1013C000C06940F004007649C8610846806940F071
:1013D000080088617448006820F07F407249086006
:1013E0000846006840F0884008607048008840F077
:1013F00001006E4908800846008840F040000880DF
:1014000001231E2203211846FEF7ECFF0020674946
:101410001C3108804FF6FF70091D088063480C38A6
:10142000008820F4407061490C3908800846008823
:1014300020F0600008805D480C30008840F001001A
:101440005A490C3108800846008840F480700880B2
:1014500056481430008820F00200544914310880A6
:101460000846008820F0200008805048001F0088AF
:1014700040F003004D49091F08804C480C38008893
:1014800040F0010049490C39088010BD014602298D
:1014900004D003290BD0042918D10EE04FF080426C
:1014A000928C10B200224FF080439A8410E0404AA0
:1014B000106800223E4B1A600AE03C4A183212883B
:1014C00010B20022394B18331A8001E0002000BF0F
:1014D00000BF70474FF08040008A4FF08040008A84
:1014E00020F001004FF08041088270474FF4004027
:1014F000304908603048006801280FD12E48303844
:10150000006828B92A480068401C2949086014E08E
:1015100027480068401E264908600EE026483038FB
:10152000006828B922480068401E2149086004E08C
:101530001F480068401C1E490860704708201D496C
:1015400008601D483038006870B91B48006828B929
:1015500017480068401C1649086013E014480068EA
:10156000401E134908600DE01348006828B9104870
:101570000068401E0E49086004E00D480068401CE9
:101580000B49086070470948001D00880748001D86
:10159000008820F001000549091D088070470000FF
:1015A0000010024000080140000C01400C080040FF
:1015B0002C000020140401403C812142F74880693E
:1015C00040F00800F5498861F548006820F0FF0008
:1015D000F34908600846006840F03300086070472F
:1015E00010B5EF48006820F0F000ED4908600846AB
:1015F000006840F0300008600120EA490860EA48CD
:10160000D0F8240108B9002010BD0120E549091FC8
:101610000860FEF793FE0020E349C1F8A401E14809
:101620008038006808B10020EEE70120FEF786FE52
:101630000020DC49091F08600120E5E710B5D84803
:10164000006820F0F000D64908600846006840F0C5
:10165000300008600020D349091F0860D249C1F852
:10166000A4010120FEF76AFE0120CE49091F08608F
:10167000CD49C1F8A401FEF761FE10BD10B50024EC
:10168000C748006820F0F000C549086008460068B7
:1016900040F0800008600120C2490860FEF74EFE5D
:1016A0000120C149C1F8A001FEF748FE0AE0601C14
:1016B000C4B2322C03DDFFF7C1FF002010BD0120B2
:1016C000FEF73CFEB748803800680028EFD1B549E6
:1016D000091F08600120F1E710B50020B149091F7A
:1016E0000860AF48006820F0F000AD490860084687
:1016F000006840F0300008600020AB49C1F8A40148
:101700000120FEF71BFE0120A649091F0860FEF715
:1017100015FE0020A449C1F8A00110BD10B500209D
:10172000A049091F08609E48006820F0F0009C490D
:1017300008600846006840F03000086001209A49BF
:10174000C1F8A401FEF7FAFD01209649091F0860BF
:10175000FEF7F4FD00209449C1F8A00110BD70B55A
:1017600004468F48006820F0F0008D490860084664
:10177000006840F03000086000208A49091F0860B6
:10178000002516E0E009874908606006040E012084
:10179000FEF7D4FD01208449C1F8A001FEF7CEFD7B
:1017A00000208049091F08600120FEF7C7FD681C62
:1017B000C5B2082DE6DB70BD2DE9F04105460E46A9
:1017C00017469846FFF70CFF10B90120BDE8F081DD
:1017D0006906080EFFF7C3FFFFF750FF18B9FFF7C0
:1017E0002DFF0120F2E73046FFF7B9FFFFF746FF74
:1017F00000240BE018F80400FFF7B1FFFFF73EFFED
:1018000018B9FFF71BFF0020E0E7641CBC42F1DBC6
:10181000FFF714FF0020D9E770B5054600246048A3
:10182000006820F0F0005E4908600846006840F05B
:1018300080000860002617E000205A49091F086050
:101840000220FEF77BFD01205749C1F8A001600688
:10185000040E54488038006808B1601CC4B20220ED
:10186000FEF76CFD701CC6B2082EE5DB15B1FFF764
:1018700033FF01E0FFF752FF204670BD2DE9F04134
:1018800006460F4614461D46FFF7AAFE10B9012072
:10189000BDE8F0817106080EFFF761FFFFF7EEFE6D
:1018A00018B9FFF7CBFE0120F2E73846FFF757FFE4
:1018B000FFF7E4FEFFF794FE012101EB4601C8B2F9
:1018C000FFF74DFFFFF7DAFE0DE0012C04D10020F9
:1018D000FFF7A2FF287003E00120FFF79DFF2870AB
:1018E0006D1C601EC4B2002CEFD1FFF7A7FE0020D4
:1018F000CEE770B505460E460024FFF771FE284678
:10190000FFF72DFF641CFFF7B9FE3046FFF727FFF6
:10191000641CFFF7B3FEFFF763FE691CC8B2FFF754
:101920001EFF641CFFF7AAFE0020FFF775FF0446A8
:10193000FFF784FE204670BD2DE9F041074688463A
:1019400015461E460024FFF74BFE3846FFF707FFFB
:10195000FFF794FE4046FFF702FFFFF78FFEFFF709
:101960003FFE791CC8B2FFF7FAFEFFF787FE00BF03
:101970000DE0681EA04204D00120FFF74DFF305556
:1019800003E00020FFF748FF3055601CC4B2AC42B2
:10199000EFDBFFF753FE2046BDE8F0810010024068
:1019A000040C0140A4812142008021422DE9F04134
:1019B00080460D4616461F460024FFF711FE40469E
:1019C000FFF7CDFEFFF75AFE2846FFF7C8FEFFF7E8
:1019D00055FE00BF06E0385DFFF7C1FEFFF74EFE83
:1019E000601CC4B2B442F6DBFFF728FE0120BDE85C
:1019F000F08170B505460E46144631462846FFF77D
:101A000078FF2070012070BD37B504460D4602AB4B
:101A1000012229462046FFF7C9FF3EBD2DE9F843C4
:101A20000746884614461D46089E6A464146384683
:101A3000FFF7DFFF28B3601CFF2101FA00F0C4F1BB
:101A400008012944491EFF220A41104300F0FF0902
:101A5000C5F1080006FA00F0C6B2C4F1070006415D
:101A60009DF8000000EA090000909DF80000304356
:101A700000909DF8002041463846FFF7C5FFBDE8BD
:101A8000F8830020FBE7F8B506460F4614461D46CE
:101A90006A4639463046FFF7ACFF2DB10120A04021
:101AA0009DF80010084305E00120A0409DF80010BB
:101AB00021EA0000C0B200909DF80020394630466F
:101AC000FFF7A2FFF8BD00002DE9F05F05460E46C6
:101AD000300108F0DBFA8146E24905FB01F008F02D
:101AE000D5FA8246494608F087F90746384608F095
:101AF00095FA84B2204608F0C9FA8346394608F0C0
:101B00000AFC82464FF0834108F008FB814608F04A
:101B100085FA80464FF6FF7000EA041404EB0800D3
:101B200084B2D148806940F00800CF4988610846F6
:101B3000C06940F48020C861CC48006820F47F4030
:101B4000CA4908600846006840F40B400860C7486E
:101B50000830006840F48060C44908310860C24819
:101B6000006940F48020C04908610846006920F4FB
:101B700080200861BE480480001D008842F20C01EC
:101B80000843BB49091D08800846008840F480705E
:101B900008800846008840F02000088002232722A1
:101BA00001210020FEF71EFCBDE8F09F2DE9FF5F3C
:101BB000AF480838008800F0200000287ED0AC48EC
:101BC000001F0088AB490870084600784B2803D1F5
:101BD0000120A94908700AE0A6480078492803D0E6
:101BE000A44800784A2802D10020A3490870A348DD
:101BF000007800284DD1A0480078D0B99D480078E1
:101C0000412809DB9B480078482805DC9948007882
:101C100040389B4908703CE096480078082804DC6E
:101C2000944800789649087033E000209449087081
:101C30002FE09148007801282BD18E480078432866
:101C400006D100208F49087001208F4908700FE0ED
:101C500088480078472806D101208A49087000206A
:101C60008949087004E00020864908708649087098
:101C700080480078412803D07E480078452805D167
:101C80007C48007840387E49087002E000207C499A
:101C90000870784800787B2802D101207B490870C1
:101CA000744800787D2802D102207849087077486E
:101CB000007801280CD16F48007800E07DE074497D
:101CC000744A1278885473480078401C714908702F
:101CD0006E480078022870D16D48C078502803D132
:101CE00001206D49087081E06948C078572803D108
:101CF00001206A49087079E065484078232875D04A
:101D0000644800786649087034E062490978644A9A
:101D10001278881A07F05FFC804642460B46002086
:101D2000604906F0CDFC04460D465D490978491E20
:101D3000574A515CA1F1300007F04DFC064622469F
:101D40002B4607F0AFFC82468B465748006807F0E9
:101D5000B9FF52465B46CDE9000107F0F9F9CDE93C
:101D6000020107F0C3F9504908604D480078401E51
:101D70004B4908704A4800780428C6DA444840783D
:101D80003038092831D2DFE800F0050C13191E2382
:101D9000282E2F004448006808F024F943490860C1
:101DA00023E04148006808F01DF9414908601CE043
:101DB0003D4800683F49086017E024E03A48006861
:101DC0003D49086011E0384800683C4908600CE073
:101DD000354800683A49086007E0334800683949E7
:101DE000086002E002E000E000BF00BF00202749D9
:101DF0000870284908702A4908702B490860322168
:101E0000234805F051FFBDE8FF9F2F480078F8B147
:101E1000184800785A281BD000202B4A107015480B
:101E20000078012806DB13480078082802DC1148F6
:101E300001780BE00F480078412807DB0D48007857
:101E4000482803DC0B4800784038C1B20846704788
:101E5000084800785A2802D101201B4A107000203F
:101E6000F5E7000040420F0000100240040C014062
:101E700008480040520000207B0000205500002050
:101E8000020000200000002001000020D0000020FF
:101E9000EC050020D1000020690000206A0000202D
:101EA000D200002000002440D4000020A800002020
:101EB000AC00002094000020980000209C0000202E
:101EC000A0000020A4000020D800002010B5124877
:101ED000806940F00800104988611048006820F4CB
:101EE00070000E4908600846006840F40000086071
:101EF0000A480C30006840F0200008490C310860A6
:101F0000012205211046FEF7A7FA022317221946DF
:101F10001846FEF767FA10BD00100240000C0140A1
:101F20002DE9F04704460D4617461E46DDF8209081
:101F30004FF0000814B10DB107B116B90120BDE88A
:101F4000F087601EC4B2681EC5B2781EC7B2701E8C
:101F500086B2FE48806940F00400FC498861FC4874
:101F6000006820F47F20FA4908600846006840F4C1
:101F700038200860F6480830006840F4C050F44942
:101F800008310860F148C06940F00070EF49C8614D
:101F90000020F04908600846006840F00100086031
:101FA00008E008F101001FFA80F8B8F1640F01DDC4
:101FB0000220C4E7E748001D006800F00100002887
:101FC000EFD0E4480068E34908600846006808600C
:101FD0000846006808600846006840F01000086085
:101FE0000846006808600846006808600020D94973
:101FF0001C3108600846006840EA8970086008469D
:10200000006840EA046008600846006840EA05503D
:1020100008600846006840EA074008600846006813
:1020200030430860CB48006820F00100C9490860CF
:1020300009E008F101001FFA80F84FF6F0708045C2
:1020400001DD03207BE7C348001D006800F00100AC
:102050000028EED1C048006840F00100BE49086089
:10206000BD481C30006820F00100BB491C310860ED
:10207000B9480C30006840F00100B7490C310860E5
:10208000B548001D0068B449091D0860B248143005
:102090000068B149143108600020AF494031086040
:1020A0000021AD4844300160AB481C30006840F06E
:1020B0000100A9491C310860A74800680020A64912
:1020C0000860A4481430006840F00200A1491431AF
:1020D00008600223142200210120FEF783F900206A
:1020E0002DE7F0B505460E46059C9A480830006875
:1020F00000F0806008B1002111E0964808300068C7
:1021000000F0006008B1012109E092480830006841
:1021100000F0805008B1022101E0FF20F0BD00274F
:102120008D48803800EB011007601EB9C5F30A0521
:102130006D0502E025F06045ED008748803800EB32
:10214000011000682843844F803F07EB0117386077
:102150008148803800EB0110006840EA86077E481D
:10216000803800EB011007607B48803800EB0110DD
:10217000006840EA42077848803800EB01100760A9
:1021800003F00F037448803800EB0110406820F022
:102190000F077148803800EB011047606E488038A7
:1021A00000EB0110406818436B4F803F07EB0117AD
:1021B0007860E0790006A77940EA0740677940EA4D
:1021C0000727207907436448803800EB0110C76077
:1021D000E0780006A77840EA0740677840EA0720E1
:1021E000277838435C4F803F07EB0117B8605A48A7
:1021F000803800EB0110006840F001075648803835
:1022000000EB01100760084688E70146002021B175
:10221000012916D002293CD127E04E4A0832126823
:1022200002F0010210434B4A0832126802F0020227
:102230001043484A0832126802F0806240EA126095
:1022400029E0444A0832126802F001021043414A70
:102250000832126802F0020210433E4A0832126845
:1022600002F0006240EA526015E03A4A0832126811
:1022700002F001021043374A0832126802F00202EB
:102280001043344A0832126802F0805240EA9260E9
:1022900001E0052000BF00BF7047014629B92D4865
:1022A0000C30006800F003007047012905D129486F
:1022B0001030006800F00300F6E70020F4E7F0B506
:1022C000DDE90554244E503E06EB0016366806F054
:1022D0000406167016783EB91F4E503E06EB0016E7
:1022E0003668760D0E6006E01B4E503E06EB00167B
:1022F0003668F6080E60184E503E06EB001636683B
:1023000006F002061E70144E503E06EB001676686C
:1023100006F00F062E70104E503E06EB0016B66803
:1023200026700D4E503E06EB0016B668360A6670F3
:10233000094E503E06EB0016B668360CA670064EE7
:10234000503E06EB0016B668360E07E0001002405D
:10235000040801400064004000660040E670C64E7C
:1023600006EB0016F6682671C34E06EB0016F668FB
:10237000360A6671C04E06EB0016F668360CA6717A
:10238000BD4E06EB0016F668360EE67130B9BB4E50
:10239000366846F02006B94F3E6009E0012807D1B3
:1023A000B64E361D366846F02006B44F3F1D3E60DF
:1023B000F0BD10B58AB0B2A103C9CDE9040102A8ED
:1023C00006A907AB08AACDE9001009A90020FFF76C
:1023D00076FF00240FE0072C04D102A8005DAA4973
:1023E00008700AE002A8005D04A9095D884200D0D7
:1023F00003E0601CC4B2072CEDDD00BF40F22111E8
:102400000998884207D1A048007820B19F480299D6
:102410000160039941600AB010BDF8B505460E464B
:10242000002433460022114640F201600095FFF778
:1024300058FE074601E0601C84B23846FFF7E5FE0F
:10244000072803D040F6FF708442F4DB40F6FF70AB
:10245000844201DB0120F8BD0020FCE710B586B006
:1024600004460020FFF719FF10B9002006B010BD88
:1024700002A803AB04AA05A9CDE900040020FFF7D8
:102480001EFF0598122805D19DF8100010B99DF87F
:102490000C0008B1002002909DF80800E6E7F8B5AE
:1024A00005460E46002433460022114640F20170D4
:1024B0000095FFF716FE074601E0601C84B238461F
:1024C000FFF7A3FE072803D040F6FF708442F4DB39
:1024D00040F6FF70844201DB0120F8BD0020FCE7DC
:1024E000F8B506460D460024082300221146304662
:1024F0000095FFF7F6FD074601E0601C84B2384600
:10250000FFF783FE072803D040F6FF708442F4DB18
:1025100040F6FF70844201DB0120F8BD0020FCE79B
:102520002DE9F84F5A480068002801DD002406E034
:1025300057480068002801DA022400E001245548C9
:102540000068002801DD002506E0524800680028E8
:1025500001DA022500E001254F480068002801DD6E
:10256000002606E04C480068002801DA022600E058
:1025700001264A494A48006807F0D0FD49490090C1
:1025800007F0CCFB834607F049FD87B24349464834
:10259000006807F0C3FD4349009007F0BFFB834686
:1025A00007F03CFD1FFA80F83C494048006807F0FE
:1025B000B5FD3C49009007F0B1FB834607F02EFDC6
:1025C0001FFA80F93A48808800F500401FFA80FA27
:1025D0003848007808B9012000E00020354908702B
:1025E00008460078B8B93812334908704F704FEA7E
:1025F0002820887081F803804FEA2920087181F82B
:1026000005904FEA2A20887181F807A04FF4807066
:10261000FFF766FF2DE01E490868002801DB014630
:1026200000E04142244A117010464470194908687C
:10263000002801DB014600E041421F4A917010462C
:10264000C57015490868002801DB014600E04142D9
:10265000194A117110464671184800680A2190FB0A
:10266000F1F011468871C820C87140F20110FFF7DF
:1026700037FFBDE8F88F0000B06500400C640040F3
:102680000A0C0F13181E25006600002056000020BB
:10269000080000200C000020100000200000C842AC
:1026A0007C0000200060EA468000002084000020BA
:1026B00088010020D90000206B0000204800002085
:1026C000D048D1494860D14848607047CE48006939
:1026D00040F08000CC4908617047CB48C16801F0E8
:1026E000010008B10120704701F0040008B1022088
:1026F000F9E701F0100008B10320F4E70020F2E749
:1027000070B5044600BFFFF7E8FF0546012D00D075
:1027100006E00120FDF712FE601E84B2002CF2D10B
:1027200000BF04B9FF25284670BD70B505460024DA
:1027300045F6FF70FFF7E4FF0446C4B9B2480069EC
:1027400040F00200B049086108464561006940F068
:102750004000086145F6FF70FFF7D2FF0446012CE8
:1027600005D0A948006920F00200A7490861204669
:1027700070BD70B505460E46FF20FFF7C1FF044649
:1027800094B9A148006940F001009F4908612E807A
:10279000FF20FFF7B5FF0446012C05D09A480069D9
:1027A00020F0010098490861204670BD0146088864
:1027B00070472DE9F04105460E461746002407E014
:1027C00036F814102846FFF7D4FFAD1C601C84B205
:1027D000BC42F5DBBDE8F08130B503460C4615463A
:1027E000002207E01846FFF7E1FF24F812009B1CC7
:1027F000501C82B2AA42F5DB30BD2DE9F05F804665
:102800008A461746B8F1006F02D38148804501D34C
:10281000BDE8F09FFFF754FFA8F1006B4FEA9B253E
:10282000CBF34809C9F50074A74200DC3C464EE0F2
:102830004FF0006101EB85208A147649FFF7CCFF49
:1028400000260BE009EB0600724931F810004FF644
:10285000FF71884200D003E0701C86B2A642F1DB13
:1028600000BFA6421BDA4FF0006101EB8520FFF7A5
:102870005CFF002608E03AF8160006EB0901654AFD
:1028800022F81100701C86B2A642F4DB4FF0006102
:1028900001EB85208A145F49FFF78BFF04E0224695
:1028A00051464046FFF785FFA74200D110E06D1C5E
:1028B0004FF000090AEB440A08EB4408381B87B2C2
:1028C000B7F5007F02DD4FF4007400E03C46AFE74F
:1028D00000BFFFF7FBFE00BF9AE713B504460122D5
:1028E00001A92046FFF789FF1CBD10B50A224A49FD
:1028F0004A48FFF771FF484800884FF6FF71884249
:102900002DD145484088884229D143488088884253
:1029100025D14148C088884221D13F48008988425A
:102920001DD13D484089884219D13B488089884261
:1029300015D11E203A49086040F6B8303949086080
:1029400039483A49086000203949086039483A490D
:1029500008603A483A4908603A49086025E02E483C
:1029600000882F4908602C4840882E4908602A4971
:10297000888807F08BFB2D4908602749C88807F035
:1029800085FB2B4908602449088907F07FFB2A4909
:1029900008602149488907F079FB294908601E49E8
:1029A000888907F073FB2749086010BD10B51C48E3
:1029B0000088254908801B48008848801B4800681B
:1029C00007F02CFB204988801948006807F026FB97
:1029D0001D49C8801848006807F020FB1A49088183
:1029E0001748006807F01AFB174948811548006826
:1029F00007F014FB144988810A220848FFF7FDFEFE
:102A000010BD00002301674500200240AB89EFCDD7
:102A1000000001081E060020C401002000E000089C
:102A2000A8000020AC0000200000A041940000207D
:102A300098000020000048439C0000200000404116
:102A4000A0000020A4000020D80100202DE9F047BC
:102A500090B0044689469246FE49B1F9040007F059
:102A6000FDFA8046FC480168404607F057FB0646E1
:102A700051464FF07E5007F051FB8046214607F04B
:102A80004DF90746314607F049F9054607F0AAFA1D
:102A9000F2490860EF49B1F9040007F0DFFA064691
:102AA000ED480168304607F039FB054607F00AF9A2
:102AB000CDE90C0151464FF07E5007F02FFB074641
:102AC00007F000F905460E46484607F0FBF8CDE949
:102AD00002010020E24906F0E3FA00224FF08043B1
:102AE000CDE9000106F0F0FB0746DDE9022306F020
:102AF000D9FDCDE906014FF03F41204607F00EFB1E
:102B0000074607F0DFF8CDE90401DDE9062306F00A
:102B10001FFB2A463346CDE9080106F019FBCDE933
:102B20000A01DDE90C2306F013FBCDE90E0106F0E6
:102B300023FDCC490860C749B1F9040007F08EFABB
:102B40000646C5480168304607F0E8FA054607F032
:102B5000B9F8CDE90E0151464FF07E5007F0DEFA8C
:102B6000054607F0AFF8CDE90A01484607F0AAF894
:102B7000CDE902010020BA4906F092FA054600228A
:102B80004FF0804306F0A0FBCDE90001DDE9022310
:102B900006F088FDCDE906014FF03F41204607F0E1
:102BA000BDFA054607F08EF8CDE90401DDE90623FC
:102BB00006F09EFFCDE90801DDE90A2306F0C8FA18
:102BC000CDE90C01DDE90E2306F0C2FA074606F056
:102BD000D3FCA549086010B0BDE8F0872DE9F047A7
:102BE0008CB004468946924651464FF07E5007F01D
:102BF00095FA0646214607F091F8054607F0F2F9E6
:102C00009A49086051464FF07E5007F087FA054612
:102C100007F058F8CDE90801484607F053F8054693
:102C20000E4600208E4906F03BFA074600224FF080
:102C3000804306F049FB2A463346CDE9000106F001
:102C400031FDCDE904014FF03F41204607F066FA1F
:102C5000054607F037F8CDE90201DDE9042306F067
:102C600077FACDE90601DDE9082306F071FACDE92E
:102C70000A0106F081FC7E49086051464FF07E5003
:102C800007F04CFA054607F01DF8CDE90801484663
:102C900007F018F8CDE902010020714906F000FAAA
:102CA000054600224FF0804306F00EFBCDE90001FF
:102CB000DDE9022306F0F6FC074688464FF03F4167
:102CC000204607F02BFA054606F0FCFF3A4643463D
:102CD000CDE9040106F00CFFCDE90601DDE908238A
:102CE00006F036FACDE90A0106F046FC61490860B3
:102CF0000CB0BDE8F08710B5002808DD4FF4E153B3
:102D00005D4C2380C0F5E1535C4C238007E04FF419
:102D1000E1535A4C238000F5E153574C238000299E
:102D20000ADD4FF4E153544C241D2380C1F5E153D7
:102D3000524C241D238009E04FF4E1534F4C241DD5
:102D4000238001F5E1534C4C241D2380002A0ADD29
:102D50004FF4E153484C08342380C2F5E153474C0B
:102D60000834238009E04FF4E153444C08342380B5
:102D700002F5E153404C0834238010BD40490968F6
:102D80004242914202DA41423D4A11603C4909689F
:102D9000814201DD3A4908603A490968424291425C
:102DA00002DA4142374A116036490968814201DD41
:102DB00034490860344909684242914202DA41428A
:102DC000314A116030490968814201DD2E490860AD
:102DD0007047014640F25642914211DA012000222A
:102DE000254B1A801B1D1A801B1D1A80234B1A802D
:102DF0001B1D1A801B1D1A800122244B1A6003E040
:102E00000022224B1A60002070472DE9F05F044633
:102E10000D46601B1E4908600846006807F01EF951
:102E200083461C480168584607F078F980461849DF
:102E30000968194A1268881A07F010F9834617487A
:102E40000168584607F06AF98146414606F066FF78
:102E5000074625E088010020E80000203C00002013
:102E60000000084040000020440000202000002016
:102E70002400002028000020342C014034040040AD
:102E8000300000203400002038000020B4812142AE
:102E900010010020A400002018010020A000002044
:102EA000FE48006807F0DAF88246394606F036FF39
:102EB000064607F097F8F9490860F9480068F949AB
:102EC0000860F6480068BDE8F09F2DE9F05F044611
:102ED0000D46601BF44908600846006807F0BEF81C
:102EE0008346F2480168584607F018F98046EE49D3
:102EF0000968EF4A1268881A07F0B0F88346ED486F
:102F00000168584607F00AF98146414606F006FF77
:102F10000746E948006807F0A1F88246394606F0FE
:102F2000FDFE064607F05EF8E3490860DE480068EB
:102F3000DF490860E0480068BDE8F09F2DE9F05FD8
:102F400004460D46601BDD4908600846006807F02E
:102F500085F88346D5480168584607F0DFF8804673
:102F6000D6490968D64A1268881A07F077F8834666
:102F7000D0480168584607F0D1F88146414606F02E
:102F8000CDFE0746CF48006807F068F8824639460C
:102F900006F0C4FE064607F025F8CA490860C7488F
:102FA0000068C7490860C7480068BDE8F09F10B5D1
:102FB000C54B1B684442A34202DA4342C24C236021
:102FC000C14B1B68834201DDBF4B1860BF4B1B68C0
:102FD0004C42A34202DA4B42BC4C2360BB4B1B6801
:102FE0008B4201DDB94B1960B94B1B685442A342B7
:102FF00002DA5342B64C2360B54B1B68934201DDA5
:10300000B34B1A6010BD0146002901DA4A4200E0C4
:103010000A4690B270472DE9F047AE48006807F0C5
:103020001DF80646AC480168304607F074F90546BD
:1030300006F0D8FF8246A948006807F00FF8064658
:10304000A7480168304607F066F9054606F0CAFF52
:103050000446A448006807F001F80646A248016843
:10306000304607F058F9054606F0BCFF8146BAF134
:10307000000F03D114B9B9F1000F0FD00AFB0AF108
:1030800004FB041109FB091006F0A5FA074606F037
:1030900007F8054606F070FA94490860BAF1000F87
:1030A00003D114B9B9F1000F0FD0484606F0D6FF8E
:1030B0000546204606F0D2FF0646504606F0CEFFF3
:1030C00007462A463146FFF789FD89480068FFF721
:1030D0009AFF8849096848438449096890FBF1F5DB
:1030E00085480068FFF78FFF8249096848437F4998
:1030F000096890FBF1F681480068FFF784FF7D497D
:10310000096848437949096890FBF1F72A46314636
:103110003846FFF74CFF7048006806F063FF6D49C2
:1031200008606F48006806F05DFF6C4908606E48F3
:10313000006806F057FF6B490860BDE8F0872DE98D
:10314000F04704460D46601B06F088FF6C49086096
:10315000084601686B48006806F0E0FD69490860B0
:10316000694801686648006807F0E0F880466748EB
:103170000168404606F0D2FF06466248016864488E
:10318000006806F0CBFF80465D4801686148006832
:1031900006F0C4FF8146414606F0C0FD07463146B1
:1031A00006F0BCFD5C490860554800685649086057
:1031B0005948006806F016FFBDE8F0872DE9F04792
:1031C00004460D46601B06F049FF54490860084656
:1031D00001685348006806F0A1FD51490860514854
:1031E00001684E48006807F0A1F88046474801682A
:1031F000404606F093FF0646494801684448006887
:1032000006F08CFF8046454801684248006806F099
:1032100085FF8146414606F081FD0746314606F0AE
:103220007DFD414908603D4800683E4908603E48D0
:10323000006806F0D7FEBDE8F0872DE9F0470446A8
:103240000D46601B06F00AFF384908600846016811
:103250003748006806F062FD354908603548016866
:103260003248006807F062F8804628480168404606
:1032700006F054FF06462E4801682548006806F00F
:103280004DFF8046294801682248006806F046FF45
:103290008146414606F042FD07464DE014010020FC
:1032A000100100201801002004010020A4000020CB
:1032B0000C010020A000002008010020F8000020E0
:1032C00000010020FC00002030000020340000201D
:1032D000380000204C010020880000205001002010
:1032E0008C00002054010020900000205801002094
:1032F00028000020A800002024000020200000203A
:103300003C01002044010020480100209C000020D6
:103310009800002094000020400100202C01002093
:103320003401002038010020300100201C01002061
:103330002401002028010020314606F0EFFCFD4961
:103340000860FD480068FD490860FA48006806F01A
:1033500049FEBDE8F0872DE9F0410446F84E01250D
:10336000002C7AD1F7480078092878D2DFE800F0FD
:10337000770511212D3D495965000020F24908606B
:103380003146F248006806F0C9FCF04908600125A2
:1033900067E03146EC48006806F0C0FCEA49086086
:1033A0003146EA48006806F0B9FCE84908600125A2
:1033B00057E03146E448006806F0B0FCE249086096
:1033C0000020E249086001254BE03146DE480068F4
:1033D00006F0A4FCDC4908603146DC48006806F0D1
:1033E000A5FFDA49086001253BE00020D6490860C6
:1033F0003146D648006806F099FFD4490860012597
:103400002FE03146D048006806F090FFCE490860B2
:103410003146CE48006806F089FFCC490860012596
:103420001FE03146C848006806F080FFC6490860C2
:103430000020C6490860012513E03146C2480068F3
:1034400006F074FFC04908603146C048006806F0C5
:1034500065FCBE490860012503E0ACE0FFE70025FC
:1034600000BF00BF35BBBA48007801280FD100204B
:10347000B5490860B54908603146B648006806F0AD
:1034800055FFB44908600020B34908601DE0B34807
:10349000007801280FD10020AB490860AB490860D3
:1034A0003146AC48006806F039FCAA4908600020A3
:1034B000A949086009E00020A3490860A349086001
:1034C000A4490860A648A4490860012D06D100203F
:1034D0009F490870A14908709E490860A14800688A
:1034E000404206F0BBFD074697480168384606F0A3
:1034F000E1FE06D29B480068404206F0AFFD9249CB
:1035000008609848006806F0A9FD07468E480168E3
:10351000384606F0CFFD05D29248006806F09EFDC1
:10352000894908608F480068404206F097FD0746C9
:1035300086480168384606F0BDFE06D28948006814
:10354000404206F08BFD814908608648006806F01D
:1035500085FD07467D480168384606F0ABFD05D27B
:103560008048006806F07AFD784908607D48006868
:10357000404206F073FD074676480168384606F07B
:1035800099FE06D277480068404206F067FD71490F
:1035900008607448006806F061FD07466D480168E0
:1035A000384606F087FD05D26E48006806F056FDE5
:1035B00068490860FEE0012CFCD1624800780B28C5
:1035C0006FD2DFE800F0F5061632425E6F8B9BD5B6
:1035D000E5006548006806F041FD07465B48016864
:1035E000384606F09BFB5949086001205F49087086
:1035F000DFE05D48006806F031FD0746524801688B
:10360000384606F08BFB5049086002205749087085
:103610005548006806F022FD07464C4801683846C8
:1036200006F07CFB49490860C3E04F48006806F09B
:1036300015FD074644480168384606F06FFB4249CD
:103640000860032049490870B3E04748006806F065
:1036500005FD07463C480168384606F05FFB3A49DD
:1036600008600420414908703F48006806F0F6FCF5
:10367000074636480168384606F04DFE3349086073
:1036800097E03948006806F0E9FC07462F480168D2
:10369000384606F040FE2D49086005203349087081
:1036A00087E085E03048006806F0D8FC07462648E9
:1036B0000168384606F02FFE2349086006202B4992
:1036C00008702948006806F0C9FC07461F480168D1
:1036D000384606F020FE1D4908606AE0224800686E
:1036E00006F0BCFC074618480168384606F013FE91
:1036F0001549086007201D4908705AE01A480068FB
:1037000006F0ACFC074610480168384606F003FE98
:103710000D4908600820154908701348006806F034
:103720009DFC074609480168384606F0F7FA074944
:1037300008603EE0200100201C010020280100203C
:103740009A99993E02000020880000208C000020F9
:103750000000002090000020E80000200100002070
:103760006F12833BA8000020AC000020DD00002089
:10377000F048006806F072FC0746EF4801683846DA
:1037800006F0C9FDEC4908600920EC49087010E01A
:10379000E848006806F062FC0746E74801683846DA
:1037A00006F0BCFAE44908600A20E449087000E029
:1037B00000BF00BFE0480268E1480168E1480068D6
:1037C000FFF744F9BDE8F08170B5DF48C07900F03B
:1037D000040008B9012401E04FF0FF34DA48C07951
:1037E00000F0020008B9012501E04FF0FF35D6488E
:1037F000C07900F0010008B9012601E04FF0FF3662
:10380000D1498A78497802EB012101FB04F006F0E6
:1038100025FCCC490860CC490A79C97802EB012122
:1038200001FB05F006F01AFCC5490860C6498A7913
:10383000497902EB012101FB06F006F00FFCBE49BD
:103840000860C148007801280AD108460268BC48CF
:103850000168BC480068FFF7F9F80020BB49086020
:10386000B9480078022811D1B648006806F0BAFBC2
:10387000B7490860B248006806F0B4FBB549086073
:10388000AD48006806F0AEFBB349086070BD10B5E6
:103890006420FDF758F80446022C07D1AF480078A1
:1038A00008B9012000E00020AC49087010BD70B5D7
:1038B000AB48006800287CD12020AA490860AA48AB
:1038C000007808B9012000E00020A7490870A74847
:1038D000007801280BD1A6480078401CC0B2A4494A
:1038E00008700A2803D100200870A04908709E487B
:1038F0000078012836D19F48007848B99E48007862
:10390000012805D190489D490A68026049684160D4
:1039100003F09CF9FFF7BBFF0020994908601AE00B
:1039200097480068072806D1874895490968405C90
:103930009449086013E0844891490968415C9248C1
:103940008F4A1268805C814200D008E08C48006891
:10395000401C8B4908608A4800680728E0DD00BFEA
:10396000002070BD0220FDF791FD8849086088485D
:10397000006809680844864908600320FDF786FD51
:1039800084490860844800680968084482490860DE
:103990000420FDF77BFD81490860814800680968C3
:1039A00008447F49086003F051F96420FCF77AFF6E
:1039B00000E0BDE0FDF75FFB054606F04FFB044667
:1039C00078480168204606F0A9F9764908604FF06A
:1039D0007E517548006806F0A1F9734904460860F5
:1039E000724906F0CBFA0ED170496E48006806F0B5
:1039F00003FA044606F0F6FA6D49086000206949AA
:103A00000860694908606B480078012803D05A486B
:103A10000078012801D1FFF7D7FE6748007810BB76
:103A20006448007830B95448007818B96248007882
:103A3000FFF791FC4648016854480068FFF77EFA9A
:103A40005E4908604348016852480068FFF73DFA44
:103A50005B4908604048016850480068FFF7D5F9A5
:103A60005849086053E05348007868B942480078E4
:103A700050B95548007818B9FEF7C7F9534908708E
:103A80004D480078FFF767FC3148016840480068FE
:103A9000FFF7D3FB494908602E4801683E4800689B
:103AA000FFF78CFB464908602B4801683C480068DA
:103AB000FFF745FB4349086023480078022802D0FD
:103AC000FFF7A9FA05E02F48026801680068FFF7D0
:103AD0006EFA3A48006841422C480068FFF72EFA17
:103AE000801036490860364800684142294800681D
:103AF000FFF7EBF980103249086032480068414214
:103B000026480068FFF781F980102E490860284890
:103B10000068FFF75EF958B941F6F420FFF72EF977
:103B2000284802682648016824480068FFF7E3F83F
:103B3000002016E7AC00002090000020DD000020EF
:103B40008C0000208800002056000020E8000020A3
:103B50003C00002040000020440000200400002021
:103B60001481214214040140DC0000205100002097
:103B70005000002068000020670000205E00002048
:103B8000EC000020A8000020F00000200800002029
:103B9000140000200C00002018000020100000205D
:103BA0001C000020E4000020E00000200000C842CB
:103BB0004800002066000020550000203000002052
:103BC00034000020380000207B000020020000208C
:103BD00038B50446FB4890F82400C0B114B1022067
:103BE000009001E000200090F64A1268D17BF54A6F
:103BF000526810786B460122FDF7DEFD10B14FF0E0
:103C0000FF3038BD9DF80010EE48417423E0ED48C8
:103C1000807A10B94FF0FF30F3E724B1E948407CD7
:103C200008B10020EDE714B10120009001E0002070
:103C30000090E44A1268D17BE24A526810786B46E1
:103C40000122FDF7B9FD10B14FF0FF30D9E79DF823
:103C50000010DC4841740020D3E738B5002419E097
:103C6000D8480068C07AA04204D0D6480068407D99
:103C7000A04200D10CE0D349496808786B46012284
:103C80002146FDF7FBFD10B14FF0FF3038BD00BFFE
:103C9000601CC4B2CB4840680079A042E0DC002040
:103CA000F4E770B504460D46C6480068C07AA042E5
:103CB00004D0C4480068407DA04202D14FF0FF30DC
:103CC00070BDC04840680079A04202DC4FF0FF3070
:103CD000F6E7BC49496808782B4601222146FDF7E2
:103CE000CDFDEDE738B50446B64890F82300A04274
:103CF00001D1002038BD14B13020009001E0002037
:103D00000090B048807C20B19DF8000040F0020097
:103D10000090AC4890F8220020B19DF8000040F0DF
:103D200080000090A74A1268117DA64A5268107858
:103D30006B460122FDF740FD10B14FF0FF30D9E78F
:103D4000A04880F823400020D4E738B5044604F0AA
:103D5000700010B10120009005E014B10020009027
:103D600001E040200090974A1268917C954A526881
:103D700010786B460122FDF71FFD20B1002191480C
:103D80008172481E38BD9DF8000020F040018D482A
:103D900001730020009004F0400020B99DF800005D
:103DA00040F00400009004F0200020B99DF80000CD
:103DB00040F00200009004F0100020B99DF80000CF
:103DC00040F00100009004F0080020B99DF80000C8
:103DD00040F0380000907B4A1268D17C794A5268E2
:103DE00010786B460122FDF7E7FC20B100217548F1
:103DF0008172481EC6E724B1082C02D00020FFF7CC
:103E000071FF70488472002101753220FCF7B2FA0C
:103E10000020B7E738B504466A48807CA04201D14B
:103E2000002038BD002C46D0664A12681179654AD8
:103E3000526810786B460122FDF720FD10B14FF05B
:103E4000FF30EEE79DF8000020F0200000905D4A72
:103E5000126811795B4A526810786B460122FDF7AF
:103E6000ABFC10B14FF0FF30DBE70320FCF782FA28
:103E700002200090534890F8220020B19DF80000E5
:103E800040F0800000904F4890F8230020B19DF84A
:103E9000000040F0300000904A4A1268117D494A03
:103EA000526810786B460122FDF786FC002851D03D
:103EB0004FF0FF30B5E7434A12681179414A526822
:103EC00010786B460122FDF7D9FC10B14FF0FF309E
:103ED000A7E73C48807A00F0010028B19DF8000077
:103EE00040F02000009004E09DF8000020F0200049
:103EF0000090344A12681179324A526810786B4641
:103F00000122FDF759FC10B14FF0FF3089E7032083
:103F1000FCF730FA2B4890F8220010B18020009076
:103F200001E000200090274890F8230020B19DF880
:103F3000000040F030000090224A1268117D214AB2
:103F4000526810786B460122FDF736FC10B14FF035
:103F5000FF3066E71B488474002062E708B5194803
:103F6000807A10B94FF0FF3008BD00200090154A4C
:103F70001268D17B134A526810786B460122FDF714
:103F80001BFC10B14FF0FF30EEE70E4A126851797A
:103F90000C4A526810786B460122FDF70DFC10B1F7
:103FA0004FF0FF30E0E7074A12681179054A52687E
:103FB00010786B460122FDF7FFFB28B14FF0FF3070
:103FC000D2E700005C010020F74890F824000028A8
:103FD00050D00C200090F44A12681179F24A5268CD
:103FE00010786B460122FDF7E7FB10B14FF0FF3070
:103FF000BAE7C0200090EC48807A00F0010020B1C0
:104000009DF8000040F020000090E74A1268117906
:10401000E54A526810786B460122FDF7CDFB10B1DE
:104020004FF0FF30A0E7E048407C10B10220009044
:1040300001E000200090DC4A1268D17BDA4A526825
:1040400010786B460122FDF7B7FB10B14FF0FF303F
:104050008AE700200090D44A12685179D24A526807
:1040600010786B460122FDF7A7FB002852D04FF0D5
:10407000FF3079E704200090CB4A12681179CA4AD0
:10408000526810786B460122FDF796FB10B14FF095
:10409000FF3069E7C448807C20B9C348807A00F0CB
:1040A000010010B94020009001E060200090BE4A5D
:1040B00012681179BC4A526810786B460122FDF7EC
:1040C0007BFB10B14FF0FF304EE7B748407C10B19A
:1040D0000120009001E000200090B34A1268D17BDB
:1040E000B14A526810786B460122FDF765FB10B1AA
:1040F0004FF0FF3038E7AC4A12685179AA4A52684B
:104100001078A94B10330122FDF756FB10B14FF088
:10411000FF3029E7002027E770B50446002624F089
:104120000104A14890F8240008B1002070BD9E4809
:10413000807A10B94FF0FF30F8E79B48057C807A11
:104140002040994908740846007CA04202D04FF0F4
:10415000FF3600E0002614B99348007D18B1012015
:10416000FFF736FD02E00020FFF732FD3CB1FFF71C
:10417000F5FE20B18C4805744FF0FF30D6E730468D
:10418000D4E738B504468848807A10B94FF0FF303C
:1041900038BDBC2C02DB0120009015E0622C02DB54
:1041A0000220009010E02A2C02DB032000900BE09C
:1041B000142C02DB0420009006E00A2C02DB052010
:1041C000009001E0062000907748C07A9DF800102A
:1041D000884201D10020DBE7734A12689178724A65
:1041E000526810786B460122FDF7E6FA10B14FF0E5
:1041F000FF30CDE79DF800106B48C1720020C7E783
:1042000038B50446282C02DD4FF0FF3038BDDCB94C
:104210000020FFF767FD00208DF8000007208DF8D3
:104220000100614A1268917C5F4A526810786B46BF
:104230000222FDF7C1FA10B14FF0FF30E6E700218E
:10424000594801750020E1E70120FFF74BFD2020D0
:104250008DF80000012C06D100208DF8010005200A
:10426000FFF78FFF17E0052C06DC01208DF8010019
:104270000520FFF786FF0EE0142C06DC02208DF8E7
:1042800001000A20FFF77DFF05E003208DF8010003
:104290001420FFF776FF9DF80100072101EB801045
:1042A000C0B28DF80100404A1268917C3E4A5268C3
:1042B00010786B460222FDF77FFA10B14FF0FF3005
:1042C000A4E708213848817200210173012101759A
:1042D0000020FFF721FF002098E738B50446324858
:1042E000807A10B94FF0FF3038BD2F4890F8240085
:1042F00010B14FF0FF30F7E72B48007D50B134B1DB
:10430000282C04DCE0B2FFF77BFF0020ECE7002064
:10431000FFF776FF042C01DA042404E0B4F57A7F79
:1043200001DD4FF47A744FF47A7090FBF4F0401E84
:10433000C0B200901C4A126851781B4A526810782B
:104340006B460122FDF738FA10B14FF0FF30CBE792
:104350009DF80000401C4FF47A7191FBF0F081B29F
:104360001148C1810146C9894810FFF70AFF0020A2
:10437000BAE738B504460C48807A10B94FF0FF30E0
:1043800038BD022C06D0042C07D0082C08D0102CE5
:104390000FD10BE0002000900EE0082000900BE011
:1043A0001020009008E000005C0100201820009020
:1043B00002E04FF0FF30E3E700BFF948407A9DF894
:1043C0000010B0EBE10F01D10020D9E7F44A1268E8
:1043D000D179F34A526810786B460122FDF7ECF967
:1043E00010B14FF0FF30CBE79DF80000C110EC4852
:1043F00041720020C4E738B50446E948807A10B914
:104400004FF0FF3038BDFA2C09D0B4F5FA7F09D04F
:10441000B4F57A7F09D0B4F5FA6F0CD108E000202A
:1044200000900BE00820009008E01020009005E0CC
:104430001820009002E04FF0FF30E3E700BFD848BB
:10444000007A9DF80010B0EBE10F01D10020D9E710
:10445000D34A12689179D24A526810786B46012289
:10446000FDF7AAF910B14FF0FF30CBE79DF800003F
:10447000C010CB4908720020C4E71CB580208DF81D
:104480000000C74A1268917CC54A526810786B4692
:104490000122FDF791F910B14FF0FF301CBD6420EF
:1044A000FBF768FF00208DF80000BD4A1268917C80
:1044B000BB4A526810786B460122FDF77DF910B1B6
:1044C0004FF0FF30EAE7B64A1268917DB44A52686D
:1044D00010786B460622FDF7D1F910B14FF0FF308E
:1044E000DCE79DF80500C007400F9DF8031001F0C0
:1044F000010140EA41009DF8011001F0010140EA8C
:10450000010494B1012C03D10121A548C17431E00B
:10451000022C03D10021A248C1742BE02146A1A0A6
:1045200003F014FB4FF0FF30B8E79D4A1268D178D2
:104530009B4A526810786B460122FDF79FF910B133
:104540004FF0FF30AAE79DF8000000F00F042CB9EF
:104550009E4803F0FBFA4FF0FF309FE7042C06D192
:104560009BA003F0F3FA01218D48C17402E0002101
:104570008B48C174FF218A488172FF2088490872E4
:10458000FF2187484172C1724FF6FF71C181FF213F
:10459000017481740121017380F82210002180F8D8
:1045A0002310417501751630016041608160163835
:1045B00080F8241080F82510C1844FF4FA60FFF7CA
:1045C0001AFF10B14FF0FF3068E70220FFF7D1FE6D
:1045D00010B14FF0FF3061E72A20FFF7D2FD10B194
:1045E0004FF0FF305AE73220FFF777FE10B14FF05F
:1045F000FF3053E70020FFF78FFD10B14FF0FF3081
:104600004CE70020FFF706FC10B14FF0FF3045E704
:104610000020FFF79AFB002040E770477CB5044676
:104620000D465F48807A00F0700010B94FF0FF30FF
:104630007CBD5B4A1268117B594A526810786B4600
:104640000622FDF71BF910B14FF0FF30F0E79DF89F
:1046500001009DF8001040EA012000B220809DF882
:1046600003009DF8021040EA012000B260809DF82E
:1046700005009DF8041040EA012000B2A08015B1A9
:104680002846FFF7CAFF0020D2E77CB504460D4656
:104690004348807A00F0080010B94FF0FF307CBD2D
:1046A0003F4A1268517B3E4A526810786B46062298
:1046B000FDF7E4F810B14FF0FF30F0E79DF801008E
:1046C0009DF8001040EA012000B220809DF8030010
:1046D0009DF8021040EA012000B260809DF80500BC
:1046E0009DF8041040EA012000B2A08015B12846D0
:1046F000FFF793FF0020D2E72DE9FE4F05460C4659
:104700002748807A18B94FF0FF30BDE8FE8F244A61
:104710001268917B224A5268107802AB0222FDF7A0
:10472000ADF810B14FF0FF30EFE79DF809009DF8AC
:10473000081040EA012006B214B12046FFF76DFFD1
:1047400017494968C88805F0A1FC154901904968D6
:10475000B1F9080005F082FC8346304605F07EFC86
:104760005946009005F0E2FD8246019905F044FBB0
:1047700081461F4905F0D2FA80464FF08F4105F07F
:10478000CDFC074605F02EFC28600020BDE710B5E3
:1047900088B004461CB94FF0FF3008B010BD29E0C6
:1047A0005C010020556E737570706F7274656420C3
:1047B000736F6674776172652070726F647563746D
:1047C000207265762025642E0A00000030BD0008A6
:1047D00048616C662073656E736974697669747973
:1047E000207061727420666F756E642E0D0A000071
:1047F00000000C42206830B9606820B9A06810B988
:10480000002008B010BDFA494968087806AB0322B9
:104810001146FDF733F810B14FF0FF30F1E79DF886
:104820001800082101EB201000F00F00ADF8000087
:104830009DF8190001EB201000F00F00ADF8020008
:104840009DF81A0001EB201000F00F00ADF80400F5
:1048500020684100BDF90000403091FBF0F000B24B
:10486000ADF8100060684100BDF90200403091FBD6
:10487000F0F000B2ADF81200A0684100BDF90400EC
:10488000403091FBF0F000B2ADF81400D84949680F
:10489000087806AB06221146FCF7F0FF10B14FF086
:1048A000FF30AEE79DF819009DF8181040EA01208E
:1048B00000B2ADF808009DF81B009DF81A1040EA00
:1048C000012000B2ADF80A009DF81D009DF81C10F3
:1048D00040EA012000B2ADF80C00BDF81000BDF8B0
:1048E0000810084400B2ADF81000BDF81200BDF881
:1048F0000A10084400B2ADF81200BDF81400BDF86B
:104900000C10084400B2ADF81400BDF81000000A05
:104910008DF81800BDF81000C0B28DF81900BDF870
:104920001200000A8DF81A00BDF81200C0B28DF80E
:104930001B00BDF81400000A8DF81C00BDF814001F
:10494000C0B28DF81D00AA494968087806AB062256
:104950001146FCF731FF10B14FF0FF3051E7002056
:104960004FE70146A248007A30B1012807D002285B
:1049700009D003280FD10AE0FA2008800EE04FF496
:10498000FA7008800AE04FF47A70088006E04FF46D
:10499000FA60088002E00020088000BF00BF00200D
:1049A000704701469248407A30B1012807D002286A
:1049B00008D003280CD108E0022008700BE0042086
:1049C000087008E00820087005E01020087002E078
:1049D0004FF0FF30704700BF8548C07C18B10878A1
:1049E0004006000E08700020F4E701468048C07AB7
:1049F000082817D2DFE800F01704070A0D10131873
:104A0000BC20088013E06220088010E02A20088083
:104A10000DE0142008800AE00A20088007E0052045
:104A2000088004E000BF00BF0020088000BF00BF76
:104A30000020704701466E4890F8240010B14FF0F6
:104A4000FF3070476A48C08908800020F9E70146B6
:104A500000200880401E704701464FF0FF3070472D
:104A600001466348007A30B1012807D0022808D0F7
:104A700003280CD108E05F4808600BE05E4808603E
:104A800008E05E48086005E05D48086002E04FF01D
:104A9000FF30704700BF0020FBE701465448407AD2
:104AA00030B1012808D002280AD0032810D10BE029
:104AB0004FF4804008800EE041F69C7008800AE0C8
:104AC0004FF48050088006E04FF40060088002E058
:104AD0004FF0FF30704700BF4548C07C10B10888D8
:104AE000401008800020F5E701464148007C08702E
:104AF0000020704701463E48807A10B101200870BE
:104B000001E0002008700020704738B5044638489E
:104B1000807A10B94FF0FF3038BD354A1268117CE9
:104B2000334A526810786B460222FCF7A7FE10B198
:104B30004FF0FF30F0E79DF801009DF8001040EACB
:104B4000012000B220800020E6E72DE9FE4F074655
:104B5000884692461D46DDF830B0002600242448E1
:104B600090F8240010B1601EBDE8FE8F0020287070
:104B70001F48807A10B94FF0FF30F5E71C48007CE1
:104B800010B94FF0FF30EFE71948007C00F040000B
:104B900008B1B01CC6B21648007C00F0200008B175
:104BA000B01CC6B21248007C00F0100008B1B01C66
:104BB000C6B20F48007C00F0080008B1B01DC6B2B4
:104BC0000B4A1268917A0A4A526810786B460222A0
:104BD000FCF754FE10B14FF0FF30C5E79DF801001F
:104BE0009DF8001040EA0129B1450BDA0020BBE72F
:104BF0005C01002000000343000083423333034282
:104C000033338341FC4840684088B9EB600F17DDBF
:104C1000F94A1268517CF84A526810786B460122B2
:104C2000FCF72CFE10B14FF0FF309DE79DF800001F
:104C300000F0100020B1FFF791F96FF0010093E749
:104C40005046FFF7EAFCEC4A1268D17AEA4A526809
:104C500010786B463246FCF711FE10B14FF0FF3072
:104C600082E799FBF6F0401E8BF8000000202870C8
:104C7000B4422AD0E048007C00F0080028B3601C51
:104C80001DF800001DF8041040EA012000B2A8F849
:104C90000000E01C1DF80010A01C1DF8000041EAF7
:104CA000002000B2A8F80200601D1DF80010201DB1
:104CB0001DF8000041EA002000B2A8F8040028789E
:104CC00040F008002870A01D84B2B44213D0CA4836
:104CD000007C00F0400070B1601C1DF800001DF861
:104CE000041040EA012000B23880287840F04000EB
:104CF0002870A01C84B2B44213D0BF48007C00F0DE
:104D0000200070B1601C1DF800001DF8041040EA7E
:104D1000012000B27880287840F020002870A01C84
:104D200084B2B44213D0B448007C00F0100070B1DB
:104D3000601C1DF800001DF8041040EA012000B2BC
:104D4000B880287840F010002870A01C84B20020A1
:104D50000AE7F8B504460F461646A74890F824001F
:104D600010B94FF0FF30F8BDA348807A10B94FF06A
:104D7000FF30F8E7A04A1268917A9F4A526810788B
:104D80006B460222FCF77AFD10B14FF0FF30EAE7E4
:104D90009DF801009DF8001040EA0125A54203DAC4
:104DA00000203070401EDEE7934840684088B5EB35
:104DB000600F17DD904A1268517C8F4A5268107854
:104DC0006B460122FCF75AFD10B14FF0FF30CAE7E5
:104DD0009DF8000000F0100020B1FFF7BFF86FF061
:104DE0000100C0E7E2B2844B1B68D97A824B5B6852
:104DF00018783B46FCF742FD10B14FF0FF30B2E7A8
:104E000095FBF4F0401E30700020ACE701467A4874
:104E100080F82210002070477CB505467649496825
:104E2000087801AB04220D21FCF728FD08B107200A
:104E30007CBD9DF80700C0F301109DF8041001F03F
:104E4000E00140EAE1008DF800009DF80700C0F3A2
:104E500081009DF8051001F0E00140EAE1008DF8C5
:104E600001009DF8070000F003009DF8061001F016
:104E7000E00140EAE1008DF8020000241CE01DF88A
:104E8000040018B9002045F8240013E05B4845F8F9
:104E9000240006E055F82400594905F03FF945F88B
:104EA00024001DF80400401EC0B20DF804000028C4
:104EB000F0D100BF601CC4B2032CE0DB0020B7E7D8
:104EC0002DE9FE4F06460F4600256846FFF7A4FF72
:104ED000002442E056F8240057F82410A0EB010A01
:104EE000BAF1000F01DB514601E0CAF100010846AA
:104EF00005F0B4F883464FF08F4104F07DFF804603
:104F00005DF82400002105F039F816D05DF8241072
:104F1000404604F071FF82464FF07E5105F006FADC
:104F2000814629F0004A3748416A504605F0C2F9E7
:104F300012D20120A04005430EE03248C16940462C
:104F400005F0B8F805D32F48016A404605F0B2F9DC
:104F500002D20120A0400543641C032CBADB284682
:104F6000BDE8FE8F2DE9FC5F06460F46002522496D
:104F70004968087801AB03220D21FCF77FFC10B1D2
:104F80000720BDE8FC9F9DF8040000F01F008DF88D
:104F900004009DF8050000F01F008DF805009DF845
:104FA000060000F01F008DF80600002462E056F8AD
:104FB000240057F82410A0EB010BBBF1000F01DB1C
:104FC000594601E0CBF10001084605F047F84FF0E3
:104FD0008F41009004F010FF814601A8005DC0B32E
:104FE0000849086805F052F883465946064804F017
:104FF00003FF80460FE000005C0100207B14AE3E02
:105000001D5A843F94AF000800B04C45FE4940460D
:1050100005F084F8804601A8005D401EC0B201A9D9
:1050200008550028F2D14146484604F0E5FE834683
:105030004FF07E5105F07AF982462AF0004BF34892
:105040008169584605F036F913D20120A040054386
:105050000FE0FFE7ED480169484605F02BF805D35E
:10506000EA484169484605F025F902D20120A040EE
:105070000543641C032C9ADB284682E72DE9F04F98
:1050800087B005460C46914601208DF8100000209F
:105090008DF81100DE4A1268917CDD4A5268107862
:1050A00004AB0222FCF788FB20B14FF0FF3007B0C1
:1050B000BDE8F08FC820FBF75DF900208DF81000E7
:1050C000D34A1268D17BD24A5268107804AB0122CD
:1050D000FCF772FB10B14FF0FF30E8E7CC4A1268E2
:1050E0005179CB4A5268107804AB0122FCF764FB7B
:1050F00010B14FF0FF30DAE7C54A1268917CC44A1C
:105100005268107804AB0122FCF756FB10B14FF047
:10511000FF30CCE7BE4A1268D17DBD4A5268107894
:1051200004AB0122FCF748FB10B14FF0FF30BEE7A3
:10513000B74A12681179B64A5268107804AB012256
:10514000FCF73AFB10B14FF0FF30B0E70C208DF8C0
:105150001000AF4A12681179AD4A5268107804AB5A
:105160000122FCF729FB10B14FF0FF309FE70F2021
:10517000FBF700F9A648806A407A8DF81000A44A2F
:1051800012689178A24A5268107804AB0122FCF7A9
:1051900013FB10B14FF0FF3089E79D48806A007A19
:1051A0008DF810009A4A12685178994A526810781E
:1051B00004AB0122FCF700FB10B14FF0FF3076E7A3
:1051C000B9F1000F07D09248806A807A40F0E00081
:1051D0008DF8100004E08E48806A807A8DF8100007
:1051E0008B4A126891798A4A5268107804AB01227E
:1051F000FCF7E2FA10B14FF0FF3058E7B9F1000FB9
:1052000007D08348806AC07A40F0E0008DF8100033
:1052100003E07E48C07A8DF810007D4A1268D1798B
:105220007B4A5268107804AB0122FCF7C5FA10B132
:105230004FF0FF303BE7B9F1000F02D0C820FBF779
:1052400099F840208DF81000714A12681179704A5F
:105250005268107804AB0122FCF7AEFA10B14FF09F
:10526000FF3024E778208DF81000694A12685179E0
:10527000674A5268107804AB0122FCF79DFA10B11E
:105280004FF0FF3013E761498889FBF773F800207E
:105290008DF810005E4A126851795D4A52681078A4
:1052A00004AB0122FCF788FA10B14FF0FF30FEE6A4
:1052B000574A1268917A564A5268107804AB022213
:1052C000FCF7DCFA10B14FF0FF30F0E69DF811006A
:1052D0009DF8101040EA012B0C209BFBF0F0C6B2A9
:1052E0000020A86068602860A0606060206082463E
:1052F00065E0474A1268D17A454A5268107804AB93
:105300000C22FCF7BBFA10B14FF0FF30CFE69DF84E
:1053100011009DF8101040EA012000B2ADF808001D
:105320009DF813009DF8121040EA012000B2ADF87C
:105330000A009DF815009DF8141040EA012000B203
:10534000ADF80C00BDF90810206808442060BDF9D4
:105350000A10606808446060BDF90C10A068084439
:10536000A0609DF817009DF8161040EA012000B2D9
:10537000ADF800009DF819009DF8181040EA0120D2
:1053800000B2ADF802009DF81B009DF81A1040EA2B
:10539000012000B2ADF80400BDF9001028680844EF
:1053A0002860BDF90210686808446860BDF90410FF
:1053B000A8680844A8600AF1010000F0FF0AB2459D
:1053C00097DB1248D0F800C02868C117090441EAE9
:1053D0001041070462460023384602F092FB324631
:1053E0000023CDE9020102F08CFB28600748D0F8C9
:1053F00000C06868C117090441EA10410704624609
:105400000023384606E0000054E3853F94AF0008CF
:105410005C01002002F075FB32460023CDE9020159
:1054200002F06FFB6860FE48D0F800C0A868C117A2
:10543000090441EA1041070462460023384602F09D
:1054400060FB32460023CDE9020102F05AFBA8605E
:10545000F348D0F804C02168C817000440EA114896
:105460000F04624600233846414602F04AFB3246AA
:105470000023CDE9020102F044FB2060E848D0F8A7
:1054800004C06068C117090441EA1041070462467C
:105490000023384602F035FB32460023CDE90201F5
:1054A00002F02FFB6060DE48D0F804C0A068C1178E
:1054B000090441EA1041070462460023384602F01D
:1054C00020FB32460023CDE9020102F01AFBA06066
:1054D000A068002804DDA068A0F58030A06003E08B
:1054E000A06800F58030A0600020E0E538B50446F3
:1054F000CC4890F82400A04201D1002038BD24B34C
:10550000C84890F8250010B94FF0FF30F6E70020AA
:10551000FEF75EFB0020FEF77DFCC249C88CFEF75B
:10552000DCFE00200090BF49496808786B460122E4
:105530002321FCF741F90121BA4880F82410012009
:10554000FEF746FBFEF70AFD13E00020FEF740FBE6
:10555000B448007C0090B349496808786B46012242
:105560002321FCF729F90021AE4880F82410FEF72A
:10557000F5FC0020C2E72DE9F04F8DB083460F46C1
:1055800002200C90A74890F8240020B10020FFF7DB
:10559000ADFF012600E0002603A8FFF7E2F905A809
:1055A000FFF7FFF901A8FFF720FA02A8FFF742FA78
:1055B0009C4890F80AA004A8FFF796FA002407E098
:1055C000002239465846FFF759FD00B902E0641C35
:1055D000022CF5DB00BF022C01D1002528E00024BD
:1055E00007E0012206A909A8FFF748FD00B902E07B
:1055F000641C022CF5DB00BF022C01D1002517E052
:1056000006A93846FFF75CFC00F0FF0809A95846D8
:10561000FFF7A8FC00F0FF090025B9F1000F01D148
:1056200045F00105B8F1000F01D145F0020500BFBA
:10563000FF207C490872FF217A484172C1724FF6FF
:10564000FF71C181FF218172017401210173BDF8D5
:105650000C00FEF7D0FE9DF81400FEF78AFEBDF8A0
:105660000400FEF78EFDBDF80800FEF736FE50463A
:10567000FEF76BFB9DF81000FEF74EFD16B1012002
:10568000FFF734FF28460DB0BDE8F08FF8B50446AB
:105690000D46164616B94FF0FF30F8BD6148807AC6
:1056A00010B94FF0FF30F8E720128DF80000E0B29B
:1056B0008DF801009DF8010028445A49496849893C
:1056C000884202DD4FF0FF30E7E7564A1268117E4C
:1056D000544A526810786B460222FCF76DF810B1FC
:1056E0004FF0FF30D9E7EAB24E4B1B68597D4D4B66
:1056F0005B6818783346FCF75FF810B14FF0FF3065
:10570000CBE70020C9E7F8B504460D46164616B9A2
:105710004FF0FF30F8BD4348807A10B94FF0FF30AA
:10572000F8E720128DF80000E0B28DF801009DF836
:10573000010028443B4949684989884202DD4FF00D
:10574000FF30E7E7374A1268117E364A5268107810
:105750006B460222FCF730F810B14FF0FF30D9E76A
:10576000EAB2304B1B68597D2E4B5B681878334684
:10577000FCF784F810B14FF0FF30CBE70020C9E709
:105780002DE9F04385B005460E46904699462548DA
:1057900090F8250020B14FF0FF3005B0BDE8F08350
:1057A00016B94FF0FF30F8E7002423E0281B10283B
:1057B00001DD102000E0281B87B23219394620464F
:1057C000FFF764FF10B14FF0FF30E6E701AA39465A
:1057D0002046FFF798FF10B14FF0FF30DDE730199A
:1057E0003A4601A902F02CFA10B16FF00100D4E79B
:1057F000E01984B2AC42D9DB4FEA28208DF80000D2
:1058000008F0FF008DF80100064A1268917E054AF3
:10581000526810786B460222FBF7CEFF38B103E0E6
:1058200094AF00085C0100204FF0FF30B5E7012184
:105830008A4880F82510A0F826900020ADE70146A0
:10584000864890F8240008700020704702464FF008
:10585000FF30704701464FF0FF307047F8B50546FE
:105860000F461446002C70D0B5F5FF5F01DDFF2612
:1058700005E0202D01DA012601E0C5F3471607B93E
:105880000127282C02DD4FF0FF30F8BD7348407D22
:1058900028BB724890F8240038B10020FFF726FE9C
:1058A00001216E4880F8201003E000216B4880F849
:1058B00020106A481630FFF754F868481830FFF790
:1058C00070F866481A30FFF790F864481C30FFF70C
:1058D000B1F86248817A81771F30FFF705F900201F
:1058E000FEF776F90020FEF78BFC00208DF8000013
:1058F0005A4A12689178594A526810786B460122C8
:10590000FBF75AFF10B14FF0FF30BEE740208DF893
:105910000000524A1268D17B504A526810786B4698
:105920000122FBF749FF00B165E08DF800608DF8BA
:1059300001704A4A1268117A484A526810786B46D8
:105940000222FBF739FF08B155E047E00520FAF7DE
:1059500011FD4248407A072101EBC000C0B28DF82A
:1059600000003E4A1268D1793C4A526810786B4672
:105970000122FBF721FF00B13DE020208DF800005F
:10598000012C03D100208DF801000EE0052C03DC72
:1059900001208DF8010008E0142C03DC02208DF8B2
:1059A000010002E003208DF801009DF801000721AD
:1059B00001EB8010C0B28DF80100284A1268917C7A
:1059C000264A526810786B460222FBF7F5FE00B1BA
:1059D00011E0012121484175002056E71F4A163287
:1059E000002103E0505C00B105E0491C0C29F9D30B
:1059F0004FF0FF3049E7FF2018490872FF21174890
:105A00004172C1724FF6FF71C181FF218172017431
:105A1000012101730146887FFEF797F90F49C88A73
:105A2000FEF7E9FC0D49087EFEF7A3FC0B49488B05
:105A3000FEF7A7FB0949888BFEF74FFC0749C87F93
:105A4000FEF76AFB054890F8200010B10120FFF72F
:105A50004DFD002101484175002016E75C01002042
:105A600010B5C8234FF48062F74940F6F630FFF7CF
:105A700087FE10BD10B586B00446F4A00068039000
:105A8000F3A000680290F3A000680190F2A0006803
:105A9000009004F0030003A9085C8DF8140003A82B
:105AA000C4F3C101405C8DF8150003A8C4F3811153
:105AB000405C8DF8160004F0030002A9085C8DF824
:105AC000100002A8C4F3C101405C8DF8110002A8C7
:105AD000C4F38111405C8DF8120005AA032140F245
