:020000040800F2
:10000000C0070020AD340008210D0008230D0008B2
:10001000270D00082B0D00082F0D00080000000020
:10002000000000000000000000000000330D000888
:10003000350D000800000000370D0008F518000815
:10004000C7340008C7340008C7340008C7340008A4
:10005000C7340008C7340008C7340008C734000894
:10006000C7340008C7340008C7340008C734000884
:10007000C7340008C7340008C7340008C734000874
:10008000C7340008C7340008C7340008C734000864
:10009000C7340008C7340008C7340008FF2C000824
:1000A000C7340008C7340008C7340008C734000844
:1000B000C7340008C7340008C7340008C734000834
:1000C000C7340008C7340008C7340008C734000824
:1000D000C7340008C7340008C7340008C734000814
:1000E000292D0008C7340008C7340008C7340008A9
:1000F000C7340008C7340008C7340008C7340008F4
:10010000C7340008C7340008C7340008C7340008E3
:10011000C7340008C7340008C7340008C7340008D3
:10012000C7340008C7340008C7340008C7340008C3
:10013000DFF80CD005F0A6FD00480047970C00083A
:10014000C007002000E0401E0028FCD17047F0B539
:10015000002201230024FE4F07F8120007EB42079C
:100160007970521C00250EE0002608E0FF27DFF81A
:10017000E4C30CEBC50C0CF80670771CFEB2082E1D
:10018000F4DB6F1CFDB2082DEEDBAFE0F14F07EBA7
:10019000C0077B545F1CFBB20024EF4F07EBC00786
:1001A0007F5C07F001074FB1EA4F07EBC00C4F1C13
:1001B0001CF807709F4201DD671CFCB2E64F07EB9D
:1001C000C0077F5C07F002074FB1DFF888C3471C08
:1001D0000CEBC7077F5C9F4201DD671CFCB2DE4F62
:1001E00007EBC0077F5C07F004074FB1D94F07EB5F
:1001F000C00C4F1E1CF807709F4201DD671CFCB24B
:10020000D54F07EBC0077F5C07F008074FB1471ECB
:10021000DFF840C30CEBC7077F5C9F4201DD671C22
:10022000FCB284B9571EFAB2C94F07EB420797F9DF
:100230000000C74F07EB420797F90110C54F07EBC6
:10024000C0077B5C51E0012C07DDC14F07F81200AD
:1002500007EB42077970571CFAB2BF4F07EBC00794
:100260007F5C07F0010757B1BA4F07EBC00C4F1C7A
:100270001CF807709F4202DD4F1C79B236E0B64F82
:1002800007EBC0077F5C07F0020757B1DFF8C4C275
:10029000471C0CEBC7077F5C9F4202DD471C78B20E
:1002A00024E0AD4F07EBC0077F5C07F0040757B1B0
:1002B000A84F07EBC00C4F1E1CF807709F4202DDD1
:1002C0004F1E79B212E0A44F07EBC0077F5C07F026
:1002D000080757B1471EDFF87CC20CEBC7077F5CED
:1002E0009F4202DD471E78B200E000BF002A7FF483
:1002F0004DAFF0BD2DE9F04781468A464FF0010829
:100300000026964890F9004090F901505146484621
:10031000FFF71DFF8CE08F4800EBC40010F805804C
:100320008D4800EBC400405D00F0010080B18948B9
:1003300000EBC401681C085C404509DA00278848C6
:100340000078874204D1701C46B2681C45B26FE049
:10035000814800EBC400405D00F0020080B17D499F
:10036000601C01EBC000405D404509DA01277C4874
:100370000078874204D1701C46B2601C44B257E03A
:10038000754800EBC400405D00F0040080B1714886
:1003900000EBC401681E085C404509DA022770487A
:1003A0000078874204D1701C46B2681E45B23FE017
:1003B000694800EBC400405D00F0080080B1601E99
:1003C000644901EBC000405D404509DA03276448F9
:1003D0000078874204D1701C46B2601E44B227E008
:1003E000391D5F4A1278881AC11700EB9171891084
:1003F000A0EB81014FB25B490F7016B1304601F09E
:10040000DBFA0026012F04D0022F05D0032F09D1DB
:1004100005E001F04CFC06E001F0D2FC03E001F045
:100420009CFC00E000BF00BF4C480470457000BF5A
:100430004C457FF470AF5545FBD12EB1304601F0ED
:10044000BBFA464804704570BDE8F08770B5FF24DC
:100450000025002640484449097800EBC100434983
:100460000978405C00F00C00F8B14048007841B2D7
:100470003D48007840B2FFF76AFE36483C490978AB
:1004800000EBC1003B490978405CA0420DDA3648D8
:10049000007845B23548007846B22E48344909788C
:1004A00000EBC10033490978445C2B482E49097898
:1004B00000EBC10030490978405C00F00900F8B158
:1004C0002D48007841B22848007840B2FFF73FFE3F
:1004D00020482749097800EBC10026490978405C8B
:1004E000A0420DDA2048007845B22348007846B291
:1004F00018481F49097800EBC1001E490978445C7F
:1005000015481E49097800EBC10018490978405C7C
:1005100000F00600D8B11548007841B217480078BD
:1005200040B2FFF714FE0B481149097800EBC100F7
:1005300010490978405CA04227DA1048007845B29B
:100540000A48007846B203480949097818E01CE0D7
:100550006C010020070000206C02002061000020D8
:1005600063000020BD0000200200002004000020E5
:1005700000000020010000200500002003000020F2
:1005800000EBC100F7490978445CF748F74909785E
:1005900000EBC100F6490978405C00F00300F8B1B7
:1005A000F348007841B2F148007840B2FFF7CFFD40
:1005B000F048F149097800EBC100EA490978405C4C
:1005C000A0420DDAE948007845B2E948007846B221
:1005D000E848E949097800EBC100E2490978445C40
:1005E00031462846FFF786FE70BD2DE9F04781466B
:1005F0008A464FF001080026E04890F9004090F943
:10060000015051464846FFF7A2FD8CE0D94800EB67
:10061000C40010F80580D44800EBC400405D00F031
:10062000010080B1D34800EBC401681C085C404560
:1006300009DA0027D2480078874204D1701C46B2FC
:10064000681C45B26FE0C84800EBC400405D00F094
:10065000020080B1C749601C01EBC000405D40450D
:1006600009DA0127C6480078874204D1701C46B2D7
:10067000601C44B257E0BC4800EBC400405D00F091
:10068000040080B1BB4800EBC401681E085C404513
:1006900009DA0227BA480078874204D1701C46B2B2
:1006A000681E45B23FE0B04800EBC400405D00F07A
:1006B000080080B1601EAF4901EBC000405D4045BD
:1006C00009DA0327AE480078874204D1701C46B28D
:1006D000601E44B227E0391DA94A1278881AC11752
:1006E00000EB91718910A0EB81014FB2A5490F7009
:1006F00016B1304601F060F90026012F04D0022F18
:1007000005D0032F09D105E001F0D1FA06E001F090
:1007100057FB03E001F021FB00E000BF00BF97485A
:100720000470457000BF4C457FF470AF5545FBD158
:100730002EB1304601F040F9904804704570BDE894
:10074000F08710B501460022002339B1012902D0FB
:10075000022919D10DE08A48017816E0884C2478E6
:10076000E01CC41700EB9474A410A0EB8404E1B265
:100770000BE0834C2478601CC41700EB9474A41025
:10078000A0EB8404E1B200E000BF00BF31B1012959
:100790000BD0022911D003291ED115E0774890F91A
:1007A00000204078401C43B217E074480078401C99
:1007B00042B2724890F901300FE0704890F9002081
:1007C0004078401E43B208E06C480078401E42B2B8
:1007D0006A4890F9013000E000BF00BF6A4800EBB2
:1007E000C200C05C10BD10B5644890F900005E49BD
:1007F00001EBC000614991F90110405C6049097842
:100800004C1CE11704EB91718910A4EB81020121CA
:100810009140084030B10220FFF793FF10B901F07A
:1008200046FA10BD554890F900004F4901EBC00051
:10083000524991F90110405C51490A7801219140D7
:10084000084020B10120FFF77CFF00B9E9E74B48E1
:1008500090F90000444901EBC000484991F90110AA
:10086000405C47490978CC1CE11704EB9171891071
:10087000A4EB810201219140084030B10020FFF734
:1008800060FF10B901F069FACBE700BFC9E710B506
:100890003A4890F90000344901EBC000374991F91A
:1008A0000110405C36490978CC1CE11704EB9171CA
:1008B0008910A4EB810201219140084030B1002051
:1008C000FFF73FFF10B901F048FA10BD2B4890F92F
:1008D0000000254901EBC000284991F90110405C56
:1008E00027490A7801219140084020B10120FFF7F3
:1008F00028FF00B9E9E7214890F900001A4901EB07
:10090000C0001E4991F90110405C1D4909784C1C3A
:10091000E11704EB91718910A4EB81020121914050
:10092000084030B10220FFF70CFF10B901F0BFF909
:10093000CBE700BFC9E710B5104890F900000A499D
:1009400001EBC0000D4991F90110405C0C490A7897
:10095000012191400840C8B10120FFF7F2FEA8B97B
:1009600010BD0000010000206C02002003000020E8
:10097000050000200700002000000020610000208A
:1009800063000020BD000020AC020020D64890F992
:100990000000D64901EBC000D34991F90110405C39
:1009A000D34909784C1CE11704EB91718910A4EB31
:1009B000810201219140084030B10220FFF7C1FEC1
:1009C00010B901F074F9CBE7C74890F90000C749A6
:1009D00001EBC000C44991F90110405CC449097899
:1009E000CC1CE11704EB91718910A4EB8102012169
:1009F0009140084030B10020FFF7A3FE10B901F08C
:100A0000ACF9ADE700BFABE710B5B74890F900000F
:100A1000B64901EBC000B44991F90110405CB449FA
:100A20000A7801219140084020B10120FFF789FE9A
:100A300000B910BDAC4890F90000AC4901EBC00012
:100A4000A94991F90110405CA9490978CC1CE1172A
:100A500004EB91718910A4EB8102012191400840BF
:100A600030B10020FFF76DFE10B901F076F9E0E734
:100A70009D4890F900009D4901EBC0009A4991F909
:100A80000110405C9A4909784C1CE11704EB917104
:100A90008910A4EB810201219140084030B102206D
:100AA000FFF74FFE10B901F002F9C2E700BFC0E73F
:100AB00010B58D48007800F00800002834D08A482E
:100AC000407800F00800B8B18948007830B10128BA
:100AD00007D0022808D003280CD108E0FFF7D7FE82
:100AE00009E0FFF780FE06E0FFF725FF03E0FFF7D0
:100AF0008BFF00E000BF4CE07D48007830B101285A
:100B000007D0022808D003280CD108E0FFF77CFFAB
:100B100009E0FFF7BCFE06E0FFF765FE03E0FFF724
:100B20000AFF00E000BF34E06F48407800F00800A2
:100B3000B8B16F48007830B1012807D0022808D03A
:100B400003280CD108E0FFF74EFE09E0FFF7F3FEA3
:100B500006E0FFF759FF03E0FFF799FE00E000BF52
:100B600017E06348007830B1012807D0022808D088
:100B700003280CD108E0FFF7DEFE09E0FFF744FF91
:100B800006E0FFF784FE03E0FFF72DFE00E000BF64
:100B900000BF10BD10B502460020544B03EBC2034A
:100BA0005B5C03F001033BB1524B03EBC2044B1CF3
:100BB000E35C0BB9431CD8B24C4B03EBC2035B5C48
:100BC00003F002033BB14B4C531C04EBC3035B5CCF
:100BD0000BB9431CD8B2454B03EBC2035B5C03F07B
:100BE00004033BB1434B03EBC2044B1EE35C0BB964
:100BF000431CD8B23D4B03EBC2035B5C03F008031C
:100C00003BB1531E3B4C04EBC3035B5C0BB9431C71
:100C1000D8B210BD10B50220052813D2DFE800F0CD
:100C20000306090C0F00FFF7DEFD0CE0FFF72FFEB7
:100C300009E0FFF73DFF06E0FFF77DFE03E0FFF769
:100C4000E3FE00E000BF00BF10BD10B501217D2014
:100C500003F0A8FB10BD10B52748FFF773FA012178
:100C6000264803F092F90821254803F08CF901F099
:100C7000B9FE2148FFF766FA01F0BBFE01211F48CB
:100C800003F081F908211E4803F07FF94FF47A70D0
:100C9000FFF758FA10BDFFF7D8FF00F0BCF802F0DC
:100CA00058F802F07DF800F0ECF9FFF7D4FF0220CD
:100CB0001449087001F096FE1348FFF743FA01F05B
:100CC00098FE10E0114802681148016811A005F073
:100CD00009F842F21070FFF735FA0A480078022846
:100CE00001D101F085FDEDE7610000206C020020DC
:100CF00063000020AC0200208096980000080140AC
:100D00000010014006000020C0C62D001801002080
:100D1000140100202564202564200D0A0000000035
:100D2000704700BFFEE700BFFEE700BFFEE700BF61
:100D3000FEE77047704770470CB5002001900090A7
:100D40006C48006840F480306A49086000BF694818
:100D5000006800F4003000900198401C0190009859
:100D600018B90198B0F5A06FF1D16248006800F49D
:100D7000003010B10120009001E0002000900098A8
:100D8000012843D15C48006840F010005A490860CF
:100D90000846006820F0030008600846006840F03C
:100DA000020008605348406852494860084640685D
:100DB00048600846406840F48060486008464068E3
:100DC00020F47C1048600846406840F4E810486011
:100DD0000846006840F08070086000BF4548006821
:100DE00000F000700028F9D04248406820F003006D
:100DF000404948600846406840F00200486000BF33
:100E00003C48406800F00C000828F9D10CBD10B532
:100E1000FFF792FF10BD10B53648006840F00100A2
:100E20003449086008464068344908403149486000
:100E300008460068324908402E49086008460068A4
:100E400020F4802008600846406820F4FE004860D6
:100E50004FF41F008860FFF7DAFF4FF00060294968
:100E6000086010BD10B5002100200022214B5B68F6
:100E700003F00C0121B1042906D0082928D107E08C
:100E8000214B224C236027E01F4B204C236023E0A2
:100E9000184B5B6803F47010164B5B6803F48032E8
:100EA000022303EB904022B9194B4343174C2360B4
:100EB0000DE0104B5B6803F4003323B1144B434344
:100EC000124C236003E0104B4343104C236003E0BB
:100ED0000D4B0E4C236000BF00BF064B5B68C3F395
:100EE00003130C4CE15C094B1B68CB40074C23609F
:100EF00010BD000000100240002002400000FFF87A
:100F0000FFFFF6FE08ED00E000127A004C00002022
:100F100000093D005000002000E0401E0028FCD1E8
:100F2000704700EBC0014FF0E022516111460969A2
:100F300041F00101116100BF4FF0E021096901F4A6
:100F400080310029F8D000214FF0E0221161916139
:100F5000704710B5FE4890F9010020B1012812D069
:100F600002282ED11FE02021FA4803F00EF84FF49A
:100F70008071F84803F007F8F548808981B2F64897
:100F800004F03EF91EE02021F24802F0FCFF4FF48D
:100F90008071F04802F0F9FFED48808981B2EE4897
:100FA00004F02EF90EE02021EA4802F0ECFF4FF4A5
:100FB0008071E84802F0E7FF0021E74804F020F9DB
:100FC00000E000BF00BF10BD10B5E44890F901007B
:100FD00020B1012812D002282ED11FE04FF48051F9
:100FE000DF4802F0D2FF0421DE4802F0CCFFDB48EC
:100FF000808981B2D84804F001F91EE04FF4805195
:10100000D74802F0C0FF0421D64802F0BEFFD34803
:10101000808981B2D04804F0F1F80EE04FF480519D
:10102000CF4802F0B0FF0421CE4802F0ACFF00210F
:10103000C94804F0E3F800E000BF00BF10BD10B5E0
:101040000220C6494870C24948700020C64948601D
:10105000FFF7BAFFFFF77DFF0020C449087010BDFD
:1010600010B50020BD494870B9494870C048BE4914
:101070004860FFF7A9FFFFF76CFF0120BB4908702C
:1010800010BD0020BB490860BB4908800881BB49EE
:101090000860BB4908800881B34948600881C8607E
:1010A00008614FF07C504861B6488861B648C86115
:1010B00000200884B54948600881C86008614FF085
:1010C0007C504861AF488861AF48C86100200884FF
:1010D00070472DE9FC5FA449B1F9080004F07BFCDE
:1010E0000646A1484168304604F027FB04469E4866
:1010F000C168204604F01EFB05469B48016928464E
:1011000004F018FB01904FF08041204604F0D4FC1D
:1011100006D24FF08041204604F00CFB04460DE05F
:101120004FF04041204604F0BDFC06D24FF0804114
:10113000204604F0ADFA044600E000244FF081415F
:10114000204604F0B9FC04D39149204604F0AAFCDF
:1011500003D200208F49087002E001208D490870F9
:101160008148C46005610146C869019904F0E8FA44
:1011700082468848007804F037FC83467A488169C3
:10118000584604F0DDFA8146214604F0D9FA80463B
:1011900075494869294604F0D3FA4146009004F0A5
:1011A00077FA0746514604F073FA064604F02EFC1F
:1011B0006D49098C084400B26B490884BDE8FC9F66
:1011C0002DE9F04F8DB07449898840F2D522501A2C
:1011D00004F001FC824671480168504604F0AAFA06
:1011E00083466F480168584604F0A4FA0C906B4897
:1011F000C0F800A06A48C0F800B00C9804F03EFCAB
:101200000446684A684B04F074FBCDE90601504679
:1012100004F034FC04460D466448007804F0E9FB11
:1012200006464FF03332624B04F063FB80462246A1
:101230002B4604F05EFBCDE90201584604F01EFC8B
:10124000044600225B4B04F054FBCDE90001DDE9CC
:10125000022304F0A7FACDE90401DDE9062304F036
:10126000A1FACDE9080104F0EAFB00B20A9004F00B
:10127000B2FB0B90504801680B9804F009FA4E49F4
:1012800008600DB0BDE8F08F2DE9F04F8DB04249F8
:10129000C98840F22532501A04F09DFB8246474827
:1012A0000168504604F046FA8346454801685846AE
:1012B00004F040FA0C904148C0F800A04048C0F843
:1012C00000B00C9804F0DAFB0446364A364B04F0C2
:1012D00010FBCDE90601504604F0D0FB04460D4654
:1012E0003848007804F085FB06464FF03332304B27
:1012F00004F0FFFA804622462B4604F0FAFACDE9C4
:101300000201584604F0BAFB04460022294B04F0BF
:10131000F0FACDE90001DDE9022304F043FACDE95A
:101320000401DDE9062304F03DFACDE9080104F0EB
:1013300086FB00B20A9004F04EFB0B902248016835
:101340000B9804F0A5F9204908600DB0BDE8F08FB6
:10135000FC020020000C014000080040EC020020CC
:1013600000100140001401405403002060000020E0
:101370000000F041440100200C030020480100203F
:10138000300300209A99993E0AD7A33C78030020A5
:10139000000080C035010020A8030020CC00002000
:1013A000D00000207B14AE47E17A943F3601002044
:1013B0003333D33F0000E03FD4000020D8000020AA
:1013C000DC00002037010020E00000202DE9FC5F58
:1013D000F849B1F9080004F0FEFA0646F5494868F4
:1013E000F549096804F054F90746314604F0A2F9BA
:1013F0000446F048C168204604F09CF90546ED48D3
:101400000169284604F096F901904FF0804120468A
:1014100004F052FB06D24FF08041204604F08AF9D6
:1014200004460DE04FF04041204604F03BFB06D25D
:101430004FF08041204604F02BF9044600E00024E0
:101440004FF08141204604F037FB04D3DB492046AE
:1014500004F028FB03D20020D949087002E00120E3
:10146000D7490870D348C46005610146C86901992D
:1014700004F066F98246D248007804F0B5FA834653
:10148000CC488169584604F05BF98146214604F056
:1014900057F98046C7494869294604F051F9414641
:1014A000009004F0F5F80746514604F0F1F80646BE
:1014B00004F0ACFABF49098C084400B2BD49088465
:1014C000BDE8FC9F10B5FFF704FEFFF77FFFBD48A6
:1014D000008CB849098C401A00B2BB498881084683
:1014E000B0F90C00B0F52F7F02DB4FF42F7088812C
:1014F000B548B0F90C00002802DC0020B249888110
:10150000B048008CAB49098C084400B2AF498881CF
:101510000846B0F90C00002813DB0020487008468C
:10152000B0F90C00B0F52F7F02DB4FF42F708881EB
:10153000A648B0F90C00002808DC0020A3498881E7
:1015400004E00220A1494870002088819F488089DA
:101550000A3000B29D498881FFF736FDFFF7F9FC9C
:1015600010BD9B4800889B4908800020984908606E
:101570009848008800B297490881974800889749A1
:1015800008800020944908609448008800B293497C
:1015900008819048B0F90800914908608F48B0F977
:1015A0000800904908608D49B1F90810894AB2F9DC
:1015B0000820881800EBD071491009B2814A1181C6
:1015C0008649B1F90810834AB2F90820881A00EB5D
:1015D000D071491009B2774A1181704710B504469D
:1015E000062C23D2DFE804F003080D13181D402158
:1015F0007D4802F0C8FC1AE080217B4802F0C3FC61
:1016000015E04FF48071784802F0BDFC0FE08021B6
:10161000764802F0B8FC0AE02021744802F0B3FCDE
:1016200005E01021714802F0AEFC00E000BF00BFF1
:1016300010BD10B56E4800780C286FD2DFE800F0BE
:10164000061F2B4C546F779098B1E6FF69480088CD
:1016500069490988401A694908800846008841F2AA
:101660008831884202DD07206449088001215F48F3
:1016700002F08BFC40215C4802F087FCE8E05E4809
:1016800040885F4908600121584802F07CFC012035
:10169000FFF7A4FFDCE05848408859490988081A38
:1016A0005649488008464088564908605248408854
:1016B000554908605148408841F28831884202DD2E
:1016C00007204E4948808021474802F05EFCFFF722
:1016D00077FDFFF7D9FDBBE0474880884549888002
:1016E0000220FFF77BFFB3E04248808842498988A7
:1016F000401A424988800846808841F288318842F1
:1017000002DD07203D4988804FF48071364802F0A1
:101710003CFCFFF755FDFFF7B7FD99E097E0364831
:10172000C0883449C8800320FFF758FF90E0314853
:10173000C0883149C988401A3049C8800846C088E5
:1017400041F28831884202DD07202C49C88080217F
:10175000264802F01AFCFFF733FDFFF795FD77E00E
:1017600025480089234908810420FFF737FF6FE0EF
:101770002048008920490989401A204908810846E3
:10178000008941F28831884202DD07201B49088127
:101790002021164802F0F9FBFFF712FDFFF774FD58
:1017A00056E015484089134948810520FFF716FF88
:1017B0004EE044E078030020B0000020000080C02C
:1017C0003801002054030020FC020020EC0200201D
:1017D000440100200C0300204801002030030020B9
:1017E00018010020140100200010014000080140F1
:1017F000390100209C030020B4030020A80300202E
:10180000C4000020C0000020C8000020F748408924
:10181000F7494989401AF74948810846408941F209
:101820008831884202DD0720F24948811021F248C0
:1018300002F0ABFBFFF7C4FCFFF726FD08E0EC4825
:101840000088EA4908800020FFF7C8FE00E000BFDA
:1018500000BFEA4804780078401C0C2190FBF1F2AC
:1018600001FB1200E5490870204610BD70B5E44840
:10187000008984B2E348006804F0ADF80546E0480A
:101880004168284604F018F911D2204604F0ACF85B
:101890000546DB484168284604F00EF907D8D849C8
:1018A00048684FF0814103F0F3FED549486070BDB0
:1018B00070B5D348008984B2D1494868D24904F050
:1018C000FBF816D8CE4948684FF07E5103F0E0FE91
:1018D0000546204604F088F80646294604F0E2F85A
:1018E00007D8C74948684FF07E5103F023FFC44929
:1018F000486070BD10B5FFF734FEFFF79AFE40B2A6
:10190000C2490870BB48C08840F24C41884204DD9F
:101910004FF08040BE4908600CE0B6488088B0F5C2
:10192000A06F04DD4FF04040B949086002E000209C
:10193000B7490860B2484068B6490860B049B1F993
:10194000080004F048F8B4490860AD48C068B349DD
:101950000860AB480069B2490860A949B1F92000A4
:1019600004F039F8AF490860AF484068AF490860F3
:10197000AD49B1F9080004F02EF8AD490860AA4855
:10198000C068AC490860A8480069AB490860A6492E
:10199000B1F9200004F01FF8A8490860A849B1F97E
:1019A0000C0004F018F8A7490860A748007801283F
:1019B00001D1FFF787FD10BD70B50022002301247F
:1019C0000025A24E35709E4D2D7805B100240128CA
:1019D0001AD1012201239E4D2D789E4E3678B542B4
:1019E00007D141F254559C4E358000259B4E3580E1
:1019F00006E041F25455984E3580FC25974E3580CF
:101A00001425804E356007E00025934E3580934EB7
:101A1000358014257B4E35608E4D2D788C4E35707B
:101A20008F4D2D78072D03D18D4D6D78072D17D053
:101A30008B4D2D78082D03D1894D6D78082D0FD051
:101A4000874D2D78072D03D1854D6D78082D07D052
:101A5000834D2D78082D0AD1814D6D78072D06D143
:101A60000022002300257C4E35807C4E35807D4D44
:101A70002D78032D03D07B4D2D78022D05D143F217
:101A80003815794E3560794E356001460125754E21
:101A90003570774D6E6840F26D15454306EB0515C0
:101AA000734E7560664D6E6840F26D15454306EBEA
:101AB0000515634E756002256D4E3570604E3570AC
:101AC000E5E0694D2D6841F2D066B54218D35C4D12
:101AD0006D68AD1B5A4E7560634D2D68A5F5B05508
:101AE000D03D614E356054B1451E68B200B9D4E0B6
:101AF0004D1E854204DD0025544E357000E0012462
:101B00005A4D2D6841F2D066B5420BD3584D6D68E1
:101B1000AD1B574E7560554D2D68A5F5B055D03DA0
:101B2000524E356002285FDA354DB5F908501E2D4A
:101B300005DD0325454E35704E4D314E756002B3BF
:101B40004A4D2D6842F260263544434E3688AD1B1F
:101B5000474E7560404D2D8842F26026751B384E09
:101B6000756007E0364D6E683F4D2D683235AE42E8
:101B700000D292E01F4D6D883F4E3688B542F1DBB2
:101B800006E01C4D6D883C4E3688B54200DD0122D2
:101B90004BB3184DAD88394E3688B54277DA334DA0
:101BA0002D6842F2602635442B4E3688AD1B304EF0
:101BB00075602D4D2D6842F260263544264E3688DC
:101BC000AD1B1F4E756007E01D4D6E68264D2D68DC
:101BD0003235AE4200D260E0064DAD88274E3688E1
:101BE000B54254DAF0E74BE051E000009C030020DE
:101BF000B4030020A80300200008014039010020A0
:101C000054030020A80000200000A0403F01002055
:101C1000B0000020E8000020EC000020F0000020D0
:101C2000F4000020F800002078030020FC000020D1
:101C30000001002004010020080100200C01002008
:101C4000FC0200201001002060000020B4000020F1
:101C5000BC000020BD000020B6000020B80000201D
:101C600061000020A70000204C010020500100204E
:101C7000EC0200200000F041240100202A01002095
:101C8000FE4DAD88FE4E3688B54200DD0123FD4D88
:101C90002D78002D7FF415AF00BF70BD0020FA49EC
:101CA0004860FA4948600320F9490870704710B548
:101CB0000320F84908700220F7490870F1490870BC
:101CC000F6490978481CC11700EB91718910A0EB07
:101CD0008101F24A1170F248EC49486000E000E0EE
:101CE000FDE700BF0020E94948600320E84908708B
:101CF00040F6B830E34948600020886040F6B830CC
:101D0000E54948600020886000BFE348806864308F
:101D1000E14949688842F8D900BFDA4880686430F0
:101D2000D84949688842F8D90320DA490870002068
:101D3000D7490870D8490870D2490870D6498881B7
:101D4000FFF742F90020CF498881FFF702F9002010
:101D5000D1498860CB49886010BD0220CD49087008
:101D60000420CD490870C7490870CC490978C81CBF
:101D7000C11700EB91718910A0EB8101C74A117066
:101D8000704743F2B060C44948600020C54908600C
:101D900043F2B060BB4948600020C349086000BFFF
:101DA000BD484168BF48006864308142F8D200BF36
:101DB000B4484168BC48006864308142F8D270473A
:101DC00010B5BA48007858B3B948AF49486000BF69
:101DD000AA480088B74909888842F9DBA7484088A3
:101DE000B54909888842F3DB4FF4C870AA494860B6
:101DF000002088604FF4C870A249486000208860C5
:101E000000BFA54880686430A34949688842F8D972
:101E100000BF9C48806864309A4949688842F8D974
:101E20000020A24908700120A449087000209649AA
:101E30004860FFF733FF042096490870022091495B
:101E400008709549087095490978881CC11700EBFE
:101E500091718910A0EB8101904A117098488B49CB
:101E6000486000E000E0FDE700BF002087494860CF
:101E70000520884908709348834948604FF42F60D3
:101E800085494860002088604FF42F607D49486094
:101E90000020886000BF8048806864307E494968BF
:101EA0008842F8D900BF774880686430754949682E
:101EB0008842F8D9FFF7F2FE01207649087082487F
:101EC000FFF72AF800207249087079486E49486087
:101ED0004FF47A7070494860002088604FF47A703F
:101EE000684948600020886000BF6B4880686430A3
:101EF000694949688842F8D900BF624880686430FF
:101F0000604949688842F8D90020634908705D49F2
:101F1000087061498881FFF757F800205949888186
:101F2000FFF717F842F6E0605B4988605549886022
:101F300010BD30B500200021584B1B789A1CD317D8
:101F400002EB93739B10A2EB83040123A340034392
:101F5000D8B24A4A52885D4B1B889A420EDD4F4BDD
:101F60001B78DA1CD31702EB93739B10A2EB83044C
:101F70000123A340984341F006010CE0474B1B7836
:101F8000DA1CD31702EB93739B10A2EB830401239B
:101F9000A3400343D8B2394A12884D4B1B889A425A
:101FA0000DDD364AD2884B4B1B889A4207DD3B4AEF
:101FB000137801229A40904341F0400105E0374AEE
:101FC000137801229A400243D0B22C4A92882C4BBB
:101FD0001B889A420EDD314B1B785A1CD31702EB3B
:101FE00093739B10A2EB83040123A340984341F019
:101FF00030010CE0294B1B785A1CD31702EB93736A
:102000009B10A2EB83040123A3400343D8B2324ABE
:1020100092F90020314B03EBC2022F4B93F90130B0
:10202000D0542D4A92F900202D4B03EBC2022A4BCB
:1020300093F90130D054284A92F90020294B03EB40
:10204000C202254B93F90130D054234A92F9012062
:10205000072A50DA204A92F90020224B03EBC203F0
:102060001D4A92F90120521C9B5C0122824323EA03
:102070008203194A92F900201A4C35E0A803002087
:102080002A010020FC0200205403002078030020D5
:10209000B4000020A7000020EC0200206300002014
:1020A00000008CC2500100204C010020BA0000202A
:1020B0000000F0412C0100202E01002034010020FE
:1020C0000000A0410000A0C1404B4C0024010020B2
:1020D000300100203201002061000020AC0200200D
:1020E0006C0200206400002004EBC204FE4A92F956
:1020F0000120521CA354FC4A92F90020072A19DA45
:10210000F94A92F90020521CF84B03EBC202F64B3D
:1021100093F90130D35C0222824323EA8203F24A1C
:1021200092F90020521CF14C04EBC202EE4C94F9DF
:1021300001401355EC4A92F90120002A1DDDEA4BBB
:1021400093F90030E94C04EBC304E74B93F90130F9
:102150005B1EE45C042323EA0002D31702EB9373B3
:1021600024EAA304E04B93F90030E04D05EBC305EE
:10217000DD4B93F901305B1EEC54DB4A92F90020F1
:10218000002A1DDDD84B93F900305B1ED74C04EBC1
:10219000C303D54C94F901401B5D082424EA0002D6
:1021A000D41702EB947423EAA403CF4C94F90040B3
:1021B000641ECE4D05EBC404CB4D95F9015063551B
:1021C000C94A92F90120072A19DAC74A92F9002070
:1021D000C74B03EBC203C44A92F90120521C9B5C1B
:1021E00000F0010243EA8203BF4A92F90020C04C8A
:1021F00004EBC204BC4A92F90120521CA354BA4A0F
:1022000092F90020072A19DAB74A92F90020521CE5
:10221000B74B03EBC202B44B93F90130D35C00F02F
:10222000020243EA8203B04A92F90020521CB04CE9
:1022300004EBC202AC4C94F901401355AA4A92F93E
:102240000120002A1CDDA84B93F90030A84C04EBB8
:10225000C304A54B93F901305B1EE35C00F004025C
:10226000D41702EB947443EAA4039F4C94F9004002
:102270009F4D05EBC4059C4C94F90140641E2B5501
:10228000994A92F90020002A1CDD974B93F90030FF
:102290005B1E974C04EBC303934C94F901401B5D08
:1022A00000F00802D41702EB947443EAA4038E4CA6
:1022B00094F90040641E8E4D05EBC4048A4D95F9D7
:1022C0000150635530BD10B58A48007830B10128FF
:1022D0000BD0022810D003281CD114E0824840788B
:1022E000401C40B28049487015E07F480078401C8F
:1022F00040B27D4908700EE07B484078401E40B2F5
:102300007949487007E078480078401E40B2764925
:10231000087000E000BF00BFFFF70BFE10BD70B5F6
:102320000024002501267448007800B10026734877
:102330000078032803D07148007802282BD143F29B
:1023400038106F4908606F490860012401256E4804
:10235000C07810B16C48007848B96B48407800F0FC
:10236000010020B16848807800F0010078B9664823
:10237000C07838B16448007820B141F69C006349C8
:1023800008800BE041F69C006049088006E00020D0
:102390005E49088002E000205C490880012057491E
:1023A000087014205A4908604BF28060594948600F
:1023B000514948600220574908704F490870002071
:1023C00055490870D7E04E48006841F2D061884214
:1023D00026D349484068401A474948604848006841
:1023E000A0F5B050D03846490860C6B14648C0781C
:1023F00090B14548007878B14848808848490988B4
:10240000884209DD4548C08846490988884203DD7D
:10241000012045490870B4E0FFF755FF00E00126B0
:102420003848006841F2D06188420BD3394840688F
:10243000401A3849486033480068A0F5B050D03899
:10244000304908608CB33048407800F0010058BB38
:102450002C48006842F2602108442C490988401A3F
:102460002C4948602648006842F260210844274908
:102470000988401A2049486010E01F4841682048F8
:1024800000683230814209D24BF2806021494860B5
:102490001949486000202049087072E01A484078C5
:1024A00000F001000028E8D007E0FFE71B48408863
:1024B0001B490988884200DD0124BDB31248807899
:1024C00000F0010098BB0F48006842F6F82108446C
:1024D0000E490988401A0F4948600948006842F6C9
:1024E000F8210844094923E061000020640000202D
:1024F0006C02002063000020FC020020A7000020E6
:102500004C01002050010020AC000020B60000204B
:10251000A8000020EC020020B4000020A803002046
:10252000240100202A010020BA0000201CE022E043
:102530000988401ACE49486010E0CD484168CD482E
:1025400000683230814209D24BF28060CA4948604B
:10255000C74948600020C949087012E0C84880781F
:1025600000F0010038B9E8E7C6488088C649098804
:10257000884200DD0125BE48007800287FF423AFA3
:1025800000BFFFF7A0FE70BD10B5FEF758FD00209C
:10259000BE490860B84948704FF461708881FEF701
:1025A00013FD00BFB948006840F6BE218842F9D348
:1025B0000120B1494870FEF707FD4FF47A70FEF72D
:1025C000ABFC0220AC494870FEF7FEFC4FF47A7079
:1025D000FEF7A2FC10BD10B5FEF731FD0020A549A5
:1025E0000860A34948704FF461708881FEF7B1FC20
:1025F00000BFA0480068B0F5166FFAD301209C49CF
:102600004870FEF7A6FC4FF47A70FEF785FC0220B6
:1026100097494870FEF79DFC4FF47A70FEF77CFCFA
:1026200010BD10B5FEF70BFD0020924908609749D8
:102630000860914948704FF4FA70888101208C49F4
:1026400048704FF4FA708881FEF7BEFCFEF781FCFB
:1026500000BF8E48006840F2A4618842F9D301208F
:10266000854948704FF47A7088810020804948700D
:102670004FF47A708881FEF7A7FCFEF76AFC844865
:10268000FEF74AFC02207C494870FEF79DFC0220C0
:1026900077494870FEF75DFC4FF47A70FEF73CFC1A
:1026A00010BD10B5FEF7CBFC0020724908607749D9
:1026B00008600120704948704FF4FA70888100204A
:1026C0006B4948704FF4FA708881FEF77DFCFEF785
:1026D00040FC00BF6748006840F20E618842F9D3B1
:1026E0000020654948704FF47A7088810120604964
:1026F00048704FF47A708881FEF766FCFEF729FC7B
:102700006348FEF709FC02205B494870FEF75CFC59
:10271000022057494870FEF71CFC4FF47A70FEF710
:10272000FBFB10BD10B5FEF78AFC00205149086084
:10273000564908600120504948704FF4FA7088816A
:1027400000204B4948704FF4FA708881FEF73CFC3A
:10275000FEF7FFFB00BF4748006840F6B3318842F0
:10276000F9D30020444948700120414948704FF492
:102770007A70414988813E498881FEF725FCFEF741
:10278000E8FB4448FEF7C8FB02203B494870FEF7CF
:102790001BFC022036494870FEF7DBFB4FF47A70D1
:1027A000FEF7BAFB10BD10B50120334948704FF455
:1027B000E160888101202E4948704FF4E1608881F2
:1027C000FEF702FCFEF7C5FB334800683349484377
:1027D0001621B0FBF1F42046FEF79EFB02202649AD
:1027E000487023494870FEF7EFFBFEF7B2FB10BDBF
:1027F00010B52448008840F24C41884232DDFEF793
:102800001EFCFFF7D0FF1F48C088B0F5497F05DCEC
:10281000FFF747FF01202249086028E01948808817
:10282000B0F5357F05DCFFF7FCFE02201C4908608F
:102830001DE00120104948700D4948704FF4FA70AE
:102840000D4988810A498881FEF7BEFBFEF781FBAE
:102850004FF47A70FEF760FBFFF764FF0320104926
:10286000086004E0FEF7FCFB00200D49086010BD85
:10287000FC0200204C010020EC020020B4000020EB
:10288000AC000020A80300202A01002050010020F5
:1028900050340300801A060018010020B0710B00AC
:1028A0001C01002010B5002807DA0A07140EFE4AA2
:1028B00000F00F031B1FD45403E00A07130EFB4A5A
:1028C000135410BD10B5FA4CB4F1807F01D3012030
:1028D00011E024F07F40401E4FF0E02148610F21BD
:1028E0004FF0FF30FFF7DEFF00204FF0E02188615E
:1028F00007200861002008B100BFFEE70021481E44
:10290000FFF7D0FF10BD08B50121142001F04AFDEA
:102910000120ADF8000010208DF8030003208DF891
:1029200002006946E34801F081FA0121E14801F023
:102930002AFB0820ADF8000010208DF803000320CA
:102940008DF802006946DC4801F070FA0821DA4887
:1029500001F019FB08BD00B589B00121022001F08A
:102960002EFD0121042001F01DFD4020ADF82000C6
:1029700018208DF8230003208DF8220008A9CD48E7
:1029800001F054FA44F61F60ADF818000020ADF8CD
:102990001400ADF81A00ADF8160005A9C74801F0FB
:1029A00039FE7020ADF804000120ADF806000020CB
:1029B000ADF80A00ADF80C0001A9C04801F067FEAF
:1029C0000121BE4802F08EF90821BC4802F0AEFA9F
:1029D0000121BA4802F07AFA0121B84802F076F9EA
:1029E00009B000BD10B543F69821B44802F006FCCA
:1029F00010BD10B50021B14802F000FC10BD08B5B3
:102A00000121142001F0CEFC4FF48070ADF80000DD
:102A100010208DF8030003208DF802006946A648B7
:102A200001F004FA8020ADF800006946A24801F0E8
:102A3000FDF94020ADF8000069469F4801F0F6F925
:102A40001020ADF8000069469A4801F0EFF9202007
:102A5000ADF800006946974801F0E8F98020ADF82C
:102A600000006946934801F0E1F94FF4E0719248A3
:102A700001F08BFAB0218F4801F087FA08BD08B544
:102A80000121382001F08EFC2020ADF8000010203C
:102A90008DF8030003208DF802006946884801F094
:102AA000C5F92021864801F06EFA4FF48070ADF828
:102AB00000006946824801F0B9F94FF480718048FE
:102AC00001F061FA4FF48050ADF8000069467A4891
:102AD00001F0ACF94FF48051774801F054FA04202A
:102AE000ADF800006946774801F0A0F90421754867
:102AF00001F049FA08BD00B589B00121042001F0B8
:102B00005EFC0121082001F04DFC4020ADF82000C2
:102B100018208DF8230003208DF8220008A96848AA
:102B200001F084F94FF43460ADF818000020ADF8DE
:102B30001400ADF81A00ADF8160005A9624801F0BE
:102B400069FD6020ADF804000120ADF8060000200A
:102B5000ADF80A00ADF80C0001A95B4801F097FD43
:102B60000121594802F0BEF80821574802F0DEF969
:102B70000121554802F0AAF90121534802F0A6F8B4
:102B800009B000BD00B589B00121042001F017FC97
:102B90000121082001F006FC8020ADF8200018205B
:102BA0008DF8230003208DF8220008A9444801F085
:102BB0003DF94FF43460ADF818000020ADF8140072
:102BC000ADF81A00ADF8160005A93F4801F022FD46
:102BD0006020ADF804000120ADF806000020ADF83B
:102BE0000A00ADF80C0001A9374801F092FD01215F
:102BF000354802F077F80821334802F0A0F90121A6
:102C0000314802F063F901212F4802F05FF809B062
:102C100000BD1FB50121084601F0C4FB01211820A9
:102C200001F0C0FB4FF40070ADF80C0048208DF8A7
:102C30000F0003A9224801F0F9F84FF48060ADF8C5
:102C40000C0048208DF80F0003A91B4801F0EEF896
:102C50000921012001F000FA4FF4007001900020DA
:102C60008DF808000C208DF8090001208DF80A006D
:102C700001A800F0FBFF0A21022001F0EDF94FF45A
:102C80008060019000208DF808000C208DF809006C
:102C900001208DF80A0001A800F0E8FF17208DF848
:102CA0000000012012E0000018ED00E000E400E068
:102CB00040190100000801400010014000040040DC
:102CC000000C014000140140000800408DF8010094
:102CD0008DF802008DF80300684600F0FEFB282006
:102CE0008DF8000002208DF8010000208DF8020010
:102CF00001208DF80300684600F0EFFB1FBD10B502
:102D00004FF4007001F018F848B120480068401CEA
:102D10001E4908601E480068401C1D4908604FF4A9
:102D2000007001F01AF810BD10B54FF4806001F08A
:102D300003F848B117480068401C16490860164857
:102D40000068401C144908604FF4806001F005F8E9
:102D500010BD10B5FFF7B6FDFFF7D5FDFFF7FBFD82
:102D6000FFF74DFEFFF78BFEFFF7C5FEFFF70AFFEB
:102D7000FFF74FFF00F0B1F84FF40063074A111559
:102D8000104600F074F900F0EAFA10BD440100208A
:102D90004C0100204801002050010020000C01409F
:102DA00000B585B0012144F2040001F0FBFA4FF4B4
:102DB0000070ADF8100018208DF8130003208DF876
:102DC000120004A92E4801F031F84FF48060ADF8EC
:102DD000100004208DF8130004A9294801F026F8FA
:102DE0004FF4165000900020ADF80400ADF8060036
:102DF000ADF80800ADF80C000C20ADF80A006946EB
:102E0000204802F084FA012240F225511D4802F0C8
:102E100016FB01211B4802F006FB05B000BD08B5FA
:102E20004FF4E06000F054FB25208DF800000020F6
:102E30008DF8010001208DF802008DF8030068462E
:102E400000F04BFB08BD70B504460D46E1B20D48DD
:102E500002F056FB00BF80210A4802F0BFFB0028A9
:102E6000F9D0204670BD10B5044600BF20210548AA
:102E700002F0B4FB0028F9D0024802F045FB10BD77
:102E8000000801400038014000B58BB00121084620
:102E900001F07BFA5A4800F0B1FD5A4800905A48B8
:102EA00001900020029006200390002004908020D2
:102EB00005904000069080000790202008900002B6
:102EC000099000200A9069464D4800F039FE012122
:102ED0004B4800F060FE0BB000BD00B587B001218B
:102EE0001C2001F05FFA0E20ADF8180000208DF8CC
:102EF0001B0006A9454800F099FF0120ADF8180015
:102F000000208DF81B0006A9414800F08FFF3020FB
:102F1000ADF8180000208DF81B0006A93D4800F010
:102F200085FFFFF7B1FF0121480201F03BFA0020C5
:102F3000019001208DF808008DF809004FF4602001
:102F400003900020049006208DF8140001A92D485C
:102F50004C3800F052FB4FF4004001F087F9062393
:102F60000122082127484C3800F0DFFB062302220B
:102F70000F2124484C3800F0D8FB062303220E21F1
:102F800020484C3800F0D1FB0623042203211D48C1
:102F90004C3800F0CAFB06230522022119484C38A0
:102FA00000F0C3FB06231A46012116484C3800F0F6
:102FB000BCFB012113484C3800F056FB012111489D
:102FC0004C3800F046FB0F484C3800F064FB00BF63
:102FD0000C484C3800F064FB0028F9D109484C3803
:102FE00000F068FB00BF07484C3800F068FB002881
:102FF000F9D1012103484C3800F06BFB07B000BD4C
:10300000080002404C240140B403002000080140A5
:10301000000C01400010014001460022C2488142DC
:1030200001D1042221E0C048814201D104221CE0E8
:10303000BE48814201D1082217E0BD48814201D13A
:10304000102212E0BB48814201D120220DE0BA4893
:10305000814201D1402208E0B848814201D180225A
:1030600003E0B748814200D1821590B270472DE944
:10307000F84307460C4615461E464FF00008C14669
:103080003846FFF7C9FF80462846FFF7C5FF81464F
:103090000121404601F086F90121484601F082F9FC
:1030A000ADF8004003208DF8020014208DF80300D5
:1030B0006946384600F0BAFEADF8006003208DF88E
:1030C000020014208DF803006946284600F0AEFE89
:1030D0004FF48061964800F056FF4FF40061944829
:1030E00000F051FFBDE8F883052000BF011EA0F1EC
:1030F0000100FBD1704710B54FF480618C4800F09F
:1031000042FFFFF7F1FF4FF40061894800F03BFFF9
:10311000FFF7EAFF8648806800F4806008B9012064
:1031200010BD4FF48061824800F02FFFFFF7DCFFF5
:103130004FF400617E4800F028FFFFF7D5FF7C4880
:10314000806800F48060012801D10220E8E70020B7
:10315000E6E710B54FF48061754800F016FFFFF701
:10316000C3FF4FF40061724800F00DFFFFF7BCFF92
:103170004FF480616E4800F006FFFFF7B5FF10BD09
:1031800010B54FF480616A4800F0FFFEFFF7ACFF16
:103190004FF40061664800F0F6FEFFF7A5FF4FF41C
:1031A0000061634800F0F1FEFFF79EFF10BD10B50F
:1031B0004FF480615E4800F0E6FEFFF795FF4FF4A4
:1031C00000615B4800F0DFFEFFF78EFF4FF4006107
:1031D000574800F0DAFEFFF787FF10BD70B50446D0
:1031E0004FF40061524800F0D0FE002521E004F0C9
:1031F000800028B14FF480614D4800F0C4FE04E027
:103200004FF480614A4800F0C0FE6006040EFFF7EC
:103210006BFF4FF40061464800F0B5FEFFF764FF16
:103220004FF40061424800F0B0FEFFF75DFF681CFC
:10323000C5B2082DDBDB4FF480613D4800F0A3FEF2
:10324000FFF752FF4FF40061394800F09CFEFFF792
:103250004BFF3748806800F4806030B14FF4006164
:10326000334800F092FE002070BD4FF400613048FA
:1032700000F08BFE0120F7E770B500244FF4806169
:103280002B4800F080FE4FF40061294800F07DFEDD
:1032900000BF002518E04FF40061254800F073FEE0
:1032A000FFF722FF6006040E2148806800F480606A
:1032B00008B144F001044FF400611D4800F065FEC0
:1032C000FFF712FF681CC5B2082DE4DB204670BD75
:1032D00070B506460C461546FFF70DFF3046FFF762
:1032E0007DFF2046FFF77AFF2846FFF777FFFFF7BD
:1032F00030FF70BD70B504460D46FFF7FCFE20465A
:10330000FFF76CFF2846FFF769FFFFF7F4FE611C2B
:10331000C8B2FFF763FFFFF7AFFF0646FFF747FFAF
:10332000FFF717FF304670BD00080140000C014058
:10333000001001400014014000180140001C014031
:1033400000200140002107E0002200E0521C47F26B
:1033500030539A42FADB491C8142F5DB704710B5C5
:103360006420FFF7EFFF00226B21D020FFF7B0FFB2
:1033700007221921D020FFF7ABFF07221A21D02006
:10338000FFF7A6FF18221B21D020FFF7A1FF012283
:103390001C21D020FFF79CFF6420FFF7D3FF10BD56
:1033A00070B50024002500263B21D020FFF7A2FFA6
:1033B00005463C21D020FFF79DFF064646EA052042
:1033C00004B2204670BD70B50024002500263D21C2
:1033D000D020FFF78FFF05463E21D020FFF78AFF60
:1033E000064646EA052004B2204670BD70B50024AA
:1033F000002500263F21D020FFF77CFF0546402115
:10340000D020FFF777FF064646EA052004B22046A3
:1034100070BD70B50024002500264321D020FFF7A1
:1034200069FF05464321D020FFF764FF064646EAC0
:10343000052004B2204670BD70B50024002500268A
:103440004521D020FFF756FF05464521D020FFF744
:1034500051FF064646EA052004B2204670BD70B50D
:103460000024002500264721D020FFF743FF054612
:103470004721D020FFF73EFF064646EA052004B26A
:10348000204670BD70B50024002500264121D020C3
:10349000FFF730FF05464221D020FFF72BFF0646FD
:1034A00046EA052004B2204670BD00000648804769
:1034B00006480047FEE7FEE7FEE7FEE7FEE7FEE719
:1034C000FEE7FEE7FEE7FEE7170E00083101000801
:1034D00031490143314A1160704770B50021002322
:1034E0000F22C47804B32D4C246804F4E064C4F5BE
:1034F000E064210AC1F10403CA40447804FA03F1EC
:103500008478144021430901254C0678A15504789C
:1035100004F01F050124AC4005786D11AD0005F1E4
:10352000E025C5F8004109E0047804F01F050124F6
:10353000AC401C4D0678761145F8264070BD1A4AFD
:103540000A400243154B1B1F1A60704739B1134ADA
:10355000121D12680243114B1B1D1A6006E00F4A30
:10356000121D126882430D4B1B1D1A607047042800
:1035700008D14FF0E021096941F004014FF0E02249
:10358000116107E04FF0E021096921F004014FF0DB
:10359000E0221161704700000000FA050CED00E028
:1035A00000E400E080E100E080FFFF1F10B504466A
:1035B000FA48844208D10121401500F00DFF002196
:1035C000601500F009FF17E0F548844208D1012199
:1035D000001500F001FF0021201500F0FDFE0BE0BA
:1035E000F048844208D10121C80300F0F5FE002113
:1035F0004FF4004000F0F0FE10BD30B50246002050
:1036000000235068E84C20400D790C6844EA0524FA
:10361000204350609068E54C2040D1E902542C438F
:103620004D7944EA450420439060D06A20F470004C
:103630000C7C641EE4B2234340EA0350D06230BDE8
:1036400000210160017141718160C160012101743B
:10365000704721B1826842F00102826003E0826813
:1036600022F001028260704721B1826842F48072C8
:10367000826003E0826822F480728260704710B535
:103680000023CBB21AB144681C43446002E0446892
:103690009C43446010BD816841F00801816070471F
:1036A000014600208A6802F008020AB1012000E009
:1036B00000207047816841F0040181607047014635
:1036C00000208A6802F004020AB1012000E0002014
:1036D000704721B1826842F4A002826003E08268F0
:1036E00022F4A00282607047014600208A6802F43A
:1036F00080020AB1012000E00020704710B50A46A0
:1037000000210023416821F46041531E41EA433106
:10371000416010BD21B1426842F40062426003E0A2
:10372000426822F4006242607047F0B504460D46DC
:1037300000200021092D11DDE068A5F10A0606EB45
:103740004607072606FA07F18843A5F10A0606EBA5
:10375000460603FA06F10843E0600CE0206905EB39
:103760004507072606FA07F1884305EB450603FAE5
:1037700006F108432061072A0FDA606B561E06EB3C
:1037800086071F2606FA07F18843561E06EB8606B3
:1037900005FA06F10843606322E00D2A0FDA206B78
:1037A000D61F06EB86071F2606FA07F18843D61FA9
:1037B00006EB860605FA06F10843206310E0E06A8E
:1037C000A2F10D0606EB86071F2606FA07F18843CD
:1037D000A2F10D0606EB860605FA06F10843E06243
:1037E000F0BD21B1826842F48012826003E08268F9
:1037F00022F48012826070470146C86C80B2704724
:1038000066484C300068704721B1426842F48062DB
:10381000426003E0426822F480624260704721B156
:10382000426842F48052426003E0426822F48052CF
:10383000426070470A460021816821F4E04111434B
:103840008160704721B1826842F40042826003E0E7
:10385000826822F400428260704721B1826842F49B
:103860000212826003E0826822F4021282607047D2
:10387000014600208A6802F400120AB1012000E02B
:1038800000207047F0B504461546002000220026AF
:10389000092911DDE068A1F10A0707EB470C0727AA
:1038A00007FA0CF29043A1F10A0707EB470703FA66
:1038B00007F21043E0600CE0206901EB410C0727A0
:1038C00007FA0CF2904301EB410703FA07F21043A9
:1038D0002061A06BC0F30156EF1C06F1010CA7EBB1
:1038E0000C0707EB870C1F2707FA0CF29043EF1C1D
:1038F00006F1010CA7EB0C0707EB870701FA07F2AB
:103900001043A063F0BD10B50A4600210023816B6F
:1039100021F44011531E41EA0351816310BD08B5E3
:10392000002300930090009B0B440093009B1A60BF
:1039300008BD08B5024600200090009201F1280061
:10394000009B184400900098006880B208BD0A46A9
:1039500000214168164B1940114341607047416294
:10396000826270470A460021416821F01F0111431D
:103970004160704740B109490831096841F40001CC
:10398000064A0832116007E004490831096821F449
:103990000001024A08321160704700000024014013
:1039A00000280140003C0140FFFEF0FFFDF7F1FF61
:1039B000FFFD3FFF0246002013680B400BB10120C2
:1039C00000E000207047CA430260704770B50246AD
:1039D0000020002300240B125568CEB205EA06042D
:1039E00015681D4015B10CB1012000E0002070BD2C
:1039F00000220A12D34303607047000001684FF6AB
:103A0000FE72114001600021016041608160C1606F
:103A10008D49884208D18C490839496841F00F0125
:103A2000894A083A51608AE087491431884208D1AE
:103A300085490839496841F0F001834A083A5160E4
:103A40007DE081492831884208D17F490839496899
:103A500041F470617C4A083A516070E07A493C3127
:103A6000884208D178490839496841F47041764A5A
:103A7000083A516063E074495031884208D1724974
:103A80000839496841F470216F4A083A516056E09C
:103A90006D496431884208D16B490839496841F45D
:103AA0007001694A083A516049E0674978318842B3
:103AB00008D165490839496841F07061624A083A9D
:103AC00051603CE06149884206D1011F096841F01C
:103AD0000F01021F116032E05C491431884208D1A5
:103AE0005A49091F096841F0F001584A121F116034
:103AF00025E056492831884208D15449091F0968F0
:103B000041F47061514A121F116018E04F493C3175
:103B1000884208D14D49091F096841F470414B4A58
:103B2000121F11600BE049495031884207D14749C3
:103B3000091F096841F47021444A121F116070473F
:103B400010B50022026847F6F0739A430C6A8B683E
:103B500023430C6923434C6923438C692343CC6979
:103B600023434C6A23438C6A23431A430260CB6885
:103B700043600B6883604B68C36010BD0021016027
:103B800041608160C160016141618161C161016227
:103B900041628162704721B1026842F00102026015
:103BA00004E002684FF6FE731A40026070471AB1D3
:103BB00003680B43036002E003688B4303607047B4
:103BC000416070470146486880B270470146002056
:103BD000002201F080531BB11C4B083B1A6802E025
:103BE000194B083B1A6802EA01030BB1012000E0FF
:103BF0000020704700F0805119B11449091F086076
:103C000002E011490839486070470146002000224F
:103C100001F080531BB10D4B083B1A6802E00A4BC0
:103C2000083B1A6802EA01030BB1012000E0002002
:103C3000704700F0805119B10449091F086002E083
:103C400001490839486070470800024008040240F2
:103C5000002044490860091D0860091D0860091D0D
:103C6000086041483F4914310860704700213D49D0
:103C70008279002A3AD00A46126803689A430B46B2
:103C80001A600A1D126803689A430B1D1A600279B4
:103C900011440A6803681A430A60324A08321268FB
:103CA00003689A432F4B08331A601A1D1268036881
:103CB0009A432C4B0C331A604279102A0ED11A1FEA
:103CC000126803681A43274B08331A601A1D1268DA
:103CD00003681A43234B0C331A600DE021494279E3
:103CE00011440A6803681A430A6005E00279114426
:103CF0000A6803689A430A607047002101600171F5
:103D00000C214171002181717047164910310968F9
:103D10000143144A10321160704701460020114AD5
:103D2000143212680A400AB1012000E000207047F6
:103D30000C49143108607047014600200022094BED
:103D40001B6803EA0102074B14331B680B4013B1D5
:103D50000AB1012000E000207047024914310860D8
:103D60007047000000040140FFFF0F0010B504463B
:103D7000CC48844208D10121042000F02DFB002111
:103D8000042000F029FB46E0C748844208D1012105
:103D9000082000F021FB0021082000F01DFB3AE084
:103DA000C248844208D10121102000F015FB0021F7
:103DB000102000F011FB2EE0BD48844208D1012103
:103DC000202000F009FB0021202000F005FB22E06C
:103DD000B848844208D10121402000F0FDFA0021BA
:103DE000402000F0F9FA16E0B348844208D10121DE
:103DF000802000F0F1FA0021802000F0EDFA0AE0C6
:103E0000AE48844207D10121801500F0E5FA002177
:103E1000A01500F0E1FA10BD10B50121084600F030
:103E2000DBFA0021012000F0D7FA10BD2DE9F041A6
:103E3000024600250026002000230024002791F8D8
:103E400003C00CF00F0591F803C00CF0100CBCF18E
:103E5000000F03D091F802C04CEA050591F800C0AC
:103E6000BCF1000F31D0146800202BE04FF0010CA2
:103E70000CFA00F3B1F800C00CEA03069E4220D110
:103E800083004FF00F0C0CFA03F7BC4305FA03FC58
:103E90004CEA040491F803C0BCF1280F06D14FF09E
:103EA000010C0CFA00FCC2F814C00AE091F803C03F
:103EB000BCF1480F05D14FF0010C0CFA00FCC2F820
:103EC00010C0401C0828D1D31460B1F800C0BCF168
:103ED000FF0F34DD546800202EE000F1080C4FF095
:103EE000010808FA0CF3B1F800C00CEA03069E4280
:103EF00021D183004FF00F0C0CFA03F7BC4305FAF5
:103F000003FC4CEA040491F803C0BCF1280F05D16E
:103F100000F1080C08FA0CF8C2F8148091F803C0FC
:103F2000BCF1480F07D100F1080C4FF0010808FA66
:103F30000CF8C2F81080401C0828CED35460BDE8AD
:103F4000F0814FF6FF710180022181700421C17060
:103F500070470246002093680B400BB1012000E03F
:103F6000002070470146886880B2704702460020F2
:103F7000D3680B400BB1012000E0002070470146E0
:103F8000C86880B2704701617047416170470AB1EB
:103F9000016100E041617047C16070474FF48032B9
:103FA0000A43826181618261826982697047024647
:103FB0000020434B18684FF68073184040EA021007
:103FC00008433F4B186070473E49C8617047F0B5E1
:103FD0000A46002300240021002500F00046B6F127
:103FE000004F02D1364EF16901E0354E7168C0F3E1
:103FF000034583B200F44016B6F5401F08D121F006
:1040000070612F4E766826F070662D4F7E6012E04C
:1040100000F48016B6F5801F06D1032606FA05F4D3
:10402000A14341F0706106E0460D360103FA06F641
:10403000B14341F0706122B1460D360103FA06F634
:10404000314300F00046B6F1004F02D11C4EF16141
:1040500001E01B4E7160F0BD30B500228B071C0FD4
:104060000F2303FA04F2164B08338C1053F8243054
:104070009343134C08348D1044F8253023468C109C
:1040800053F824308C07240F00FA04F423430C4C1B
:1040900008348D1044F8253030BD0A49DC31086001
:1040A0007047000000080140000C01400010014072
:1040B0000014014000180140001C01400020014094
:1040C0000000014000002042DF48006840F001008D
:1040D000DD49086008464068DC490840DA49486024
:1040E00008460068DA490840D74908600846006871
:1040F00020F4802008600846406820F4FE004860F4
:104100004FF41F0088607047CF49096821F480315F
:10411000CD4A11601146096821F480211160B0F583
:10412000803F03D0B0F5802F0ED106E0C649096864
:1041300041F48031C44A116007E0C349096841F481
:10414000A021C14A116000E000BF00BF704710B558
:1041500001460022002300204A11012A02D1BA4C54
:10416000236806E0022A02D1B74C236A01E0B64C6C
:10417000636A01F01F02012494401C400CB101202D
:1041800000E0002010BD38B500200090002400257C
:1041900000BF3120FFF7DBFF05460098401C009070
:1041A0000098B0F5A06F01D0002DF2D03120FFF7BC
:1041B000CEFF08B1012400E00024204638BD0146AE
:1041C0000020A14A106820F0F80040EAC100106009
:1041D0007047A04908607047024600209A4B586813
:1041E00020F47C1042EA01031843974B5860704753
:1041F00098490866704701460020934A506820F0AD
:1042000003000843506070478F48406800F00C007E
:104210007047014600208C4A506820F0F0000843A7
:104220005060704701460020874A506820F4E060E3
:1042300008435060704701460020834A506820F4CC
:10424000605040EAC1005060704729B17E4A527AFE
:1042500002437D4B5A7204E07B4A527A82437A4B86
:104260005A7270477B49D831086070470146002078
:10427000754A506820F44040084350607047002160
:10428000714A20321170704A82F82010012802D041
:1042900004280AD104E001216B4A2032117005E0A4
:1042A0000521694A2032117000E000BF00BF70474D
:1042B0006949086070476449096A0143624A1162AA
:1042C0007047654944390860704730B500210022C5
:1042D000002400235C4D6D6805F00C0121B1042918
:1042E00005D0082923D105E05C4D056022E05B4D37
:1042F00005601FE0544D6D6805F47012524D6D68F5
:1043000005F48034022505EB92421CB9544D554307
:1043100005600BE04C4D6D6805F400351DB1504D46
:104320005543056002E04D4D5543056002E04B4D9D
:10433000056000BF00BF444D6D6805F0F00109093C
:10434000484D6B5C0568DD4045603F4D6D6805F488
:10435000E061090A434D6B5C4568DD4085603A4D7C
:104360006D6805F46051C90A3E4D6B5C4568DD40DF
:10437000C560354D6D6805F44041890B3A4D6B5C65
:10438000C568B5FBF3F5056130BD29B12E4A526908
:1043900002432D4B5A6104E02B4A526982432A4B57
:1043A0005A61704729B1284A92690243264B9A61A3
:1043B00004E0254A92698243234B9A61704729B1F0
:1043C000214AD2690243204BDA6104E01E4AD269D5
:1043D00082431D4BDA61704729B11B4AD268024300
:1043E000194BDA6004E0184AD2688243164BDA604F
:1043F000704729B1144A12690243134B1A6104E051
:10440000114A12698243104B1A61704712494039B0
:10441000086070470F49C86470470B49C8717047FE
:104420000948406A40F08070074948627047014679
:104430000020054A92680A400AB1012000E00020ED
:104440007047014988727047001002400000FFF871
:10445000FFFFF6FE000042428004424200127A0052
:1044600000093D00540100206401002010B50446FD
:10447000FE48844208D10121C014FFF7ADFF00219E
:10448000E014FFF7A9FFC4E0B4F1804F08D1012187
:104490000846FFF7AEFF00210120FFF7AAFFB8E0B2
:1044A000F348844208D101210220FFF7A2FF002136
:1044B0000220FFF79EFFACE0EE48844208D10121C4
:1044C0000420FFF796FF00210420FFF792FFA0E0F1
:1044D000E948844208D101210820FFF78AFF002122
:1044E0000820FFF786FF94E0E448844208D10121C8
:1044F0001020FFF77EFF00211020FFF77AFF88E0F1
:10450000DF48844208D101212020FFF772FF0021FB
:104510002020FFF76EFF7CE0DA48844208D10121B9
:104520004014FFF759FF00216014FFF755FF70E0BA
:10453000D548844209D10121C804FFF74DFF00216D
:104540004FF40020FFF748FF63E0D048844209D1D0
:1045500001210805FFF740FF00214FF48010FFF70D
:104560003BFF56E0CA48844209D101214805FFF7C4
:1045700033FF00214FF40010FFF72EFF49E0C5483C
:10458000844208D101214020FFF733FF0021402061
:10459000FFF72FFF3DE0C048844208D10121802071
:1045A000FFF727FF00218020FFF723FF31E0BB4802
:1045B000844208D101218015FFF71BFF0021A015BF
:1045C000FFF717FF25E0B648844209D1012108040E
:1045D000FFF702FF00214FF48030FFF7FDFE18E0E7
:1045E000B048844209D101214804FFF7F5FE0021BB
:1045F0004FF40030FFF7F0FE0BE0AB48844208D1E7
:1046000001218804FFF7E8FE00214FF48020FFF726
:10461000E3FE10BD00220288944B98420ED0994BC5
:1046200098420BD0B0F1804F08D0914B984205D002
:10463000904B984202D0904B984204D14FF68F7322
:104640001A404B881A438D4B984207D08C4B9842A6
:1046500004D04FF6FF431A40CB881A4302808B8860
:1046600083850B880385814B98420BD0854B9842FC
:1046700008D08B4B984205D08A4B984202D08A4B87
:10468000984201D10B7A038601238382704770B56B
:10469000002400220023058C4FF6FE763540058469
:1046A000028C8388048B4FF68F752C40B51E2C40EE
:1046B0000D882C43751E2A400D892A434D882A43B4
:1046C0006A4DA8420BD06F4DA84208D0744DA84245
:1046D00005D0744DA84202D0734DA84213D14FF6B5
:1046E000F7752A404D892A434FF6FB752A408D887D
:1046F0002A434FF6FF652B404FF6FF552B408D891F
:104700002B43CD892B4383800483CD888586028407
:1047100070BD70B5002400220023058C4FF6EF76A3
:1047200035400584028C8388048B48F6FF752C4045
:104730004FF6FF452C400D884FF6FF7606EA05251B
:104740002C434FF6DF752A400D8906EA05152A43EA
:104750004D8806EA05152A43444DA84202D0494D2A
:10476000A8421DD14FF67F752A404D894FF6FF763E
:1047700006EA05152A434FF6BF752A408D8806EADA
:1047800005152A434FF6FF352B404FF2FF752B409E
:104790008D8906EA85052B43CD8906EA85052B43DD
:1047A00083800483CD880587028470BD70B50024A2
:1047B00000220023058C4FF6FF6635400584028CED
:1047C0008388848B4FF68F752C404FF6FC752C40F8
:1047D0000D882C434FF6FF552A400D894FF6FF7682
:1047E00006EA05252A434D8806EA05252A431F4D7A
:1047F000A84202D0234DA8421DD14FF2FF752A4096
:104800004D894FF6FF7606EA05252A434FF6FF3518
:104810002A408D8806EA05252A434EF6FF752B406F
:104820004DF6FF752B408D8906EA05152B43CD8982
:1048300006EA05152B4383808483CD88858702840F
:1048400070BD70B5002200230024058C4EF6FF7663
:1048500035400584038C8488828B48F6FF752A4096
:104860004FF6FF452A400D8820E00000002C014053
:104870000004004000080040000C00400010004010
:104880000014004000340140004C01400050014041
:104890000054014000180040001C0040002000406F
:1048A0000040014000440140004801404FF6FF76BF
:1048B00006EA05252A434DF6FF752B400D8906EAC9
:1048C00005352B434D8806EA05352B43FA4DA842A2
:1048D00002D0FA4DA84208D14BF6FF752C408D89C5
:1048E0004FF6FF7606EA85152C4384808283CD88B7
:1048F000A0F84050038470BD828B4FF2FF331A4002
:104900008283828B4FF6FF7303EA01231A4382836B
:104910007047F0B50C461546002200210026078C92
:104920004EF6FF7C07EA0C070784828B018C4FF65A
:10493000FF7707EA043640F6FF473A404FF6FF7725
:1049400007EA05273A434FF6FF7707EA03373A436A
:10495000D94FB8420ED0D94FB8420BD0B0F1804FEA
:1049600008D0D74FB84205D0D64FB84202D0D64F64
:10497000B84206D14DF6FF77394046F480573943A7
:1049800005E047F6FF57394044F4805739438283A6
:104990000184F0BD828B4FF6F3731A408283828BC1
:1049A0000A4382837047F0B50C4615460022002169
:1049B0000026078C4FF6FF6C07EA0C070784828BF2
:1049C000018C4FF6FF7707EA04264FF60C773A4042
:1049D0004FF6FF7707EA03172F433A43B64FB84223
:1049E0000ED0B64FB8420BD0B0F1804F08D0B44FC4
:1049F000B84205D0B34FB84202D0B34FB84206D147
:104A00004FF6FF57394046F48077394305E04FF2BF
:104A1000FF57394044F48077394382830184F0BDE5
:104A2000028B4FF2FF331A400283028B4FF6FF7363
:104A300003EA01231A4302837047F0B50C4615467A
:104A4000002200210026078C4FF6EF7C07EA0C07B6
:104A50000784028B018C4FF6FF7707EA041640F6B5
:104A6000FF473A404FF6FF7707EA03373A434FF6DE
:104A7000FF7707EA05273A438F4FB8420ED08F4F92
:104A8000B8420BD0B0F1804F08D08D4FB84205D05E
:104A90008C4FB84202D08C4FB84206D14FF6DF7728
:104AA000394046F01007394305E04FF65F7739404B
:104AB00044F01007394302830184F0BD028B4FF6A6
:104AC000F3731A400283028B0A4302837047F0B5E6
:104AD0000C46154600220021068C4FF6FE773E401C
:104AE0000684028B018C4FF60C7632407E1C06EA5F
:104AF00003162E433243704EB0420ED06F4EB0427A
:104B00000BD0B0F1804F08D06D4EB04205D06D4E45
:104B1000B04202D06C4EB04206D14FF6FD76314025
:104B200044F00106314305E04FF6F576314044F09C
:104B30000106314302830184F0BD70B505460C4681
:104B40005D4885420ED05D4885420BD0B5F1804F5F
:104B500008D05B48854205D05A48854202D05A4861
:104B6000854200D100E000BF208850B92389A28887
:104B700061882846FFF7ABFFE1882846FFF79EFFD4
:104B800025E0208804280AD12389A2886188284644
:104B9000FFF753FFE1882846FFF742FF17E0208820
:104BA00008280AD12389A28861882846FFF7FBFEDE
:104BB000E1882846FFF7EEFE09E02389A288618894
:104BC0002846FFF7A6FEE1882846FFF795FE70BD50
:104BD0002DE9F04105460C4600260127608808B9FA
:104BE000022600E00026A088012801D1022700E06B
:104BF00001272088A0B92389A28861882846FFF769
:104C000066FFE1882846FFF759FF23893A46314677
:104C10002846FFF712FFE1882846FFF701FF13E05F
:104C20002389A28861882846FFF707FFE188284684
:104C3000FFF7F6FE23893A4631462846FFF747FF3D
:104C4000E1882846FFF73AFFBDE8F0810A884B88E3
:104C50001A438B881A43CB881A430B891A434B8912
:104C60001A438B891A43A0F8442070474FF6FF710E
:104C7000818000210180C180418001727047002144
:104C8000018041808180C180018141818181C18118
:104C90007047002101804180012181800021C18075
:104CA000018170470021018041808180C1800181A4
:104CB0004181818170470000002C01400034014097
:104CC0000004004000080040000C004021B10288B0
:104CD00042F00102028004E002884FF6FE731A409F
:104CE0000280704731B1B0F8442042F40042A0F88D
:104CF000442005E0B0F84420C2F30E02A0F844209E
:104D000070471AB183890B43838102E083898B4307
:104D1000838170478182704741EA0203A0F84830DE
:104D200070471AB183890B43838102E083898B43E7
:104D30008381704701894FF6F872114001817047F5
:104D40000A46002101894FF68F73194011430181F2
:104D5000704730B504460D4629462046FFF7F0FF60
:104D6000208940F00700208130BD2DE9F041044644
:104D70000D4616461F46602D06D13B4601223146A0
:104D80002046FFF75AFE05E03B4601223146204609
:104D9000FFF79DFE29462046FFF7D2FF208940F00D
:104DA00007002081BDE8F08130B50C460021018963
:104DB000C9B24FF6FF7505EA03251543254329437C
:104DC000018130BD2DE9F04105460E461746984653
:104DD000002443463A4631462846FFF7E5FF2C8932
:104DE0004FF6F870044044F007044FF68F7004400B
:104DF00044F070042C81BDE8F081F0B504460D4606
:104E000016461F463B46324629462046FFF7CCFF52
:104E1000208940F480402081F0BD01858282704766
:104E20000A46002101884FF68F7319401143018013
:104E30007047F0B50C4615461E460021002200239F
:104E40000189028B038C4FF6F877394021434FF6E6
:104E5000FC473A4040F201173A434FF6DD773B40BA
:104E60004FF6FF7707EA06172F433B430181028382
:104E70000384F0BD0A460021018B4FF68F73194061
:104E80001143018370470A460021018B48F6FF73E6
:104E900019404FF6FF7303EA022319430183704759
:104EA0000A460021818B4FF68F731940114381838D
:104EB00070470A460021818B48F6FF7319404FF670
:104EC000FF7303EA022319438183704721B10288EB
:104ED00042F08002028004E002884FF67F731A409D
:104EE0000280704721B1828842F00402828004E08F
:104EF00082884FF6FB731A408280704721B1828806
:104F000042F00802828004E082884FF6F7731A406C
:104F10008280704721B1828842F00102828004E0E1
:104F200082884FF6FE731A40828070470A4600213D
:104F3000018B4FF6F77319401143018370470A46FE
:104F40000021018B4FF2FF7319404FF6FF7303EA04
:104F500002231943018370470A460021818B4FF6D3
:104F6000F77319401143818370470A460021818BF2
:104F70004FF2FF7319404FF6FF7303EA0223194300
:104F8000818370470A460021018B4FF6FB7319405D
:104F90001143018370470A460021018B4FF6FF330E
:104FA00019404FF6FF7303EA022319430183704748
:104FB0000A460021818B4FF6FB7319401143818310
:104FC00070470A460021818B4FF6FF3319404FF698
:104FD000FF7303EA02231943818370470A460021C5
:104FE000018B4FF67F7319401143018370470A46C6
:104FF0000021018BC1F30E014FF6FF7303EA022378
:105000001943018370470A460021818B4FF67F7355
:1050100019401143818370470A460021818BC1F3F7
:105020000E014FF6FF7303EA022319438183704791
:105030000A460021018C4FF6FD731940114301848B
:1050400070470A460021018C4FF6F773194011434F
:10505000018470470A460021018C4FF6DF73194026
:105060004FF6FF7303EA02131943018470470A469F
:105070000021018C4FF67F7319404FF6FF7303EA4E
:1050800002131943018470470A460021018C4FF630
:10509000FF5319404FF6FF7303EA022319430184BB
:1050A00070470A460021018C4FF2FF7319404FF6FA
:1050B000FF7303EA02231943018470470A46002163
:1050C000018C4DF6FF7319404FF6FF7303EA02336C
:1050D00019430184704730B5002301248C40A3B2EA
:1050E000048C9C430484048C02FA01F5ADB22C4379
:1050F000048430BD30B5002304248C40A3B2048C5A
:105100009C430484048C02FA01F5ADB22C43048460
:1051100030BD70B503460020002418461830012524
:105120008D40ACB21D8CA5431D8409B1082909D15D
:1051300000EB6100056825F0700505600568154302
:1051400005600EE00D1FC5F34E052844056825F4E3
:10515000E045056005684FF6FF7606EA022635430E
:10516000056070BD21B1028842F00202028004E0B5
:1051700002884FF6FD731A400280704721B1028801
:1051800042F00402028004E002884FF6FB731A40EA
:105190000280704721B1828842F08002828004E060
:1051A00082884FF67F731A408280704702884FF6DC
:1051B000F7731A40028002880A430280704782888F
:1051C0004FF68F731A40828082880A43828070472C
:1051D00002894FF6F8731A40028102890A4302815C
:1051E000704702894FF67F731A40028102890A4391
:1051F000028170478184704781857047818670473E
:105200000187704781877047A0F840107047028877
:105210004FF6FF431A40028002880A43028070471B
:105220000146888E70470146088F70470146888F77
:1052300070470146B1F8400070470146888C7047BE
:105240000146088D704702460020138A0B400BB1BF
:10525000012000E000207047CA430282704730B549
:105260000246002000230024158A05EA01039589DF
:1052700005EA010413B10CB1012000E0002030BDAB
:10528000CA4302827047000010B50446FB488442BE
:1052900009D101218803FFF79FF800214FF48040D6
:1052A000FFF79AF832E0F648844209D10121480418
:1052B000FFF79FF800214FF40030FFF79AF825E040
:1052C000F048844209D101218804FFF792F80021B7
:1052D0004FF48020FFF78DF818E0EB48844209D1A5
:1052E0000121C804FFF785F800214FF40020FFF7E3
:1052F00080F80BE0E548844208D101210805FFF75A
:1053000078F800214FF48010FFF773F810BD2DE9F5
:10531000F04786B005460E460024A24600BFA146CF
:105320000027B08900B100BF2F462C8A4CF6FF70D1
:105330000440F08804432C82AC894EF6F3100440FC
:10534000B08831890843718908430443AC81AC8A31
:105350004FF6FF400440B0890443AC8201A8FEF739
:10536000B4FFC648874202D1DDF810A001E0DDF8A5
:105370000CA0A88900F4004040B10AEBCA0000EB81
:105380000A1031684900B0FBF1F807E00AEBCA00E7
:1053900000EB0A1031688900B0FBF1F86420B8FB1B
:1053A000F0F004012009642101FB1089A88900F4B0
:1053B000004040B1322000EBC900B0FBF1F000F03A
:1053C0000700044308E0322000EB09106421B0FB21
:1053D000F1F000F00F0004432C8106B0BDE8F08727
:1053E0004FF41651016000218180C18001810C21A0
:1053F000418100218181704710B502460020108A4A
:105400004FF2FF0318400B884C8823438C882343BA
:10541000CC8823431843108210BD002101804180B5
:105420008180C180704721B1828942F4005282811B
:1054300004E082894DF6FF731A4082817047F0B50F
:105440000346002400260025002040F66A17B942D2
:1054500000D100BF1846C1F3421401F01F06012716
:1054600007FA06F5012C01D10C3004E0022C01D121
:10547000103000E014301AB107682F43076002E0D3
:105480000768AF430760F0BD1AB1838A0B4383827C
:1054900002E0838A8B4383827047028A4FF6F0735F
:1054A0001A400282028A0A430282704782894FF2BE
:1054B000FF731A40828182890A438281704721B139
:1054C000828942F00202828104E082894FF6FD73F4
:1054D0001A4082817047028A4FF6DF731A400282B7
:1054E000028A0A430282704721B1028A42F4804252
:1054F000028204E0028A4BF6FF731A400282704770
:10550000C1F308028280704701468888C0F3080012
:105510007047818941F0010181817047028BD2B2CD
:105520000283028B42EA012202837047028B02F45B
:105530007F420283028B0A430283704721B1828A31
:1055400042F02002828204E0828A4FF6DF731A4022
:105550008282704721B1828A42F01002828204E086
:10556000828A4FF6EF731A408282704721B1828A95
:1055700042F00802828204E0828A4FF6F7731A40F2
:105580008282704721B1828942F40042828103E025
:105590008289C2F30E028281704721B1828A42F46D
:1055A0000062828204E0828A4FF2FF731A40828294
:1055B0007047828A4FF6FB731A408282828A0A43BE
:1055C0008282704721B1828A42F00202828204E024
:1055D000828A4FF6FD731A4082827047024600208D
:1055E000B1F5007F00D100BF13880B400BB1012043
:1055F00000E00020704701F40072B2F5007F00D196
:1056000000BFCA430280704770B5024600240023E1
:105610000025002040F66A16B14200D100BFC1F358
:10562000421501F01F03012606FA03F3012D02D1F2
:105630009689334006E0022D02D1168A334001E0FC
:10564000968A33400C12012606FA04F41688344078
:1056500013B10CB1012000E0002070BD10B5002294
:10566000002340F66A14A14200D100BF0A120124AF
:105670009440A3B2DC43048010BD00000038014018
:105680000044004000480040004C004000500040F2
:10569000F0B480EA0102D40F4200B2EB410F02D213
:1056A0000246084611464A0042D0C30DDDB2C1F39E
:1056B000C752AD1A202D35DAC1F3160141F40002AC
:1056C00004B15242C5F1200602FA06F12A41104403
:1056D000B3EBD05F23D0C4B1012DA0EBC35009DCE4
:1056E000F0BC4FF0004202EAC352DBB200F500000A
:1056F00000F03CBA400000F1807000EBC350A0F114
:10570000807040EAD170490009E0490841EAC0715F
:10571000A0EBC35000F50000400800EBC350F0BC04
:1057200000F01BBA6142012202EB4101001BF6E7C7
:10573000F0BC704781F00041AAE780F00040A7E785
:1057400080EA010210B502F00043400022D04A0076
:105750001FD0010E01EB1261C0F35600C2F35602D6
:1057600040F4000042F40002A0FB022000047F3954
:10577000140400D0401C50EA124001D44000491EDD
:10578000C2B20C0604EBD010401C4008802A02D0A4
:1057900003E0002010BD20F00100002900DA002005
:1057A000184310BD2DE9FE4F804681EA0300C00F6B
:1057B0000C46009021F0004123F00045B8EB0200B8
:1057C000A94105D24046214690461C460B4602465A
:1057D00023F00040104347D0270DC7F30A00C3F35E
:1057E0000A510290401A019040286BDAC3F313006B
:1057F00040F4801B0098924620B10023D2EB030AAC
:1058000063EB0B0B01985946C0F14002504600F083
:1058100073F906460D4650465946019A00F08BF939
:1058200010EB08006141002487EA115284EAE77313
:105830001A4340D0009A62B3019A012A4FEA0752F4
:1058400015DC001B61EB02014FF0004202EA075237
:10585000CDE90042001C41F5801132462B4600F094
:10586000C2F903B0BDE8F08F40462146F9E7001BBE
:1058700061EB0201001C41F5801300185B41201808
:10588000A2F5001747EB030140EAD570B6196D4148
:1058900011E06D084FEA360645EAC0754FEA075237
:1058A000001B61EB0201001C41F5801149084FEA21
:1058B00030000019514132462B4603B0BDE8F04F8D
:1058C00000F082B90098012240000023D0EB0202D0
:1058D00063EBE073009821464FEAE074B8EB0000F8
:1058E00061EB0401E9E783F000435BE781F00041ED
:1058F00058E72DE9FE4F81EA030404F0004421F04B
:10590000004100944FF0000B23F0004350EA0104E3
:105910005ED052EA03045BD0C3F30A54C1F30A55C4
:105920002C44A4F2F3340194A0FB0254C1F31301FC
:1059300041F48011C3F3130343F4801301FB0244C9
:1059400000FB034E840A970A44EA815447EA8357CE
:10595000A4FB076802958D0A05FB07854FEA932C87
:1059600004FB0C542705029D4FEA065847EA1637F8
:10597000B5EB08056EEB070C870E920E47EA811710
:1059800042EA8312A7FB0201B6EB0B0164EB0004B1
:105990002B0D43EA0C335E1844EB1C50DA4651469B
:1059A000E7FB0201C5F313044FEA0B3343EA145338
:1059B0004FEA0432019C43EA0603A4F10C0402946A
:1059C000009CCDE900B400F00EF903B0BDE8F08F03
:1059D00000200146F9E7C10F80EAE0700844CA07D9
:1059E0009623002100F0C2B896230022114600F051
:1059F000BDB80EB540F2334102910021CDE900114E
:105A00000A460B4600F0EFF803B000BD00F000427C
:105A100020F00040C10DC0F3160040F400007F29C3
:105A200001DA00207047962903DCC1F19601C840D5
:105A300001E096398840002AF4D04042704770B5A2
:105A4000C1F30A5201F000450024C1F3130140F2F2
:105A5000FF3341F480119A4201DA002070BD40F218
:105A600033439A42A2F2334203DC524200F053F82D
:105A700000E090402C43F1D0404270BD00F0004265
:105A800030F000400AD0C10D01F56071C0F316007E
:105A900042EA0151C2084007114370470020014605
:105AA00070470000002801DBC0F10040002901DB45
:105AB000C1F1004181427047002801DBC0F1004084
:105AC000002901DBC1F100418842704730B50B4627
:105AD000014600202022012409E021FA02F59D421E
