:020000040800F2
:10000000D818002001010008090100080B010008B0
:100010000D0100080F010008110100080000000098
:1000200000000000000000000000000013010008B4
:10003000150100080000000017010008C72500088E
:100040001B0100081B0100081B0100081B01000820
:100050001B0100081B010008593200086F3200081C
:100060001B0100081B0100081B0100081B01000800
:100070001B0100081B0100081B0100081B010008F0
:100080001B0100081B0100081B0100081B010008E0
:100090001B0100081B0100081B0100081B010008D0
:1000A0001B0100081B0100081B0100081B010008C0
:1000B0007F3200082B2500081B0100081B010008E7
:1000C0001B0100081B0100081B0100081B010008A0
:1000D0001B010008CD2A0008732B00088F2B000895
:1000E0001B0100081B0100081B010008DFF80CD0F1
:1000F00003F0B0FA00480047DD1D0008D8180020C2
:100100000648804706480047FEE7FEE7FEE7FEE7B1
:10011000FEE7FEE7FEE7FEE7FEE7FEE7D323000883
:10012000ED00000831490143314A1160704770B554
:10013000002100230F22C47804B32D4C246804F45A
:10014000E064C4F5E064210AC1F10403CA404478C4
:1001500004FA03F18478144021430901254C067800
:10016000A155047804F01F050124AC4005786D11F9
:10017000AD0005F1E025C5F8004109E0047804F080
:100180001F050124AC401C4D0678761145F8264029
:1001900070BD1A4A0A400243154B1B1F1A60704774
:1001A00039B1134A121D12680243114B1B1D1A600C
:1001B00006E00F4A121D126882430D4B1B1D1A6088
:1001C0007047042808D14FF0E021096941F004018B
:1001D0004FF0E022116107E04FF0E021096921F0C2
:1001E00004014FF0E0221161704700000000FA05A1
:1001F0000CED00E000E400E080E100E080FFFF1F84
:10020000002044490860091D0860091D0860091D97
:10021000086041483F4914310860704700213D495A
:100220008279002A3AD00A46126803689A430B463C
:100230001A600A1D126803689A430B1D1A6002793E
:1002400011440A6803681A430A60324A0832126885
:1002500003689A432F4B08331A601A1D126803680B
:100260009A432C4B0C331A604279102A0ED11A1F74
:10027000126803681A43274B08331A601A1D126864
:1002800003681A43234B0C331A600DE0214942796D
:1002900011440A6803681A430A6005E002791144B0
:1002A0000A6803689A430A6070470021016001717F
:1002B0000C21417100218171704716491031096884
:1002C0000143144A10321160704701460020114A60
:1002D000143212680A400AB1012000E00020704781
:1002E0000C49143108607047014600200022094B78
:1002F0001B6803EA0102074B14331B680B4013B160
:100300000AB1012000E00020704702491431086062
:100310007047000000040140FFFF0F0010B50446C5
:10032000CC48844208D10121042000F02DFB00219B
:10033000042000F029FB46E0C748844208D101218F
:10034000082000F021FB0021082000F01DFB3AE00E
:10035000C248844208D10121102000F015FB002181
:10036000102000F011FB2EE0BD48844208D101218D
:10037000202000F009FB0021202000F005FB22E0F6
:10038000B848844208D10121402000F0FDFA002144
:10039000402000F0F9FA16E0B348844208D1012168
:1003A000802000F0F1FA0021802000F0EDFA0AE050
:1003B000AE48844207D10121801500F0E5FA002102
:1003C000A01500F0E1FA10BD10B50121084600F0BB
:1003D000DBFA0021012000F0D7FA10BD2DE9F04131
:1003E000024600250026002000230024002791F863
:1003F00003C00CF00F0591F803C00CF0100CBCF119
:10040000000F03D091F802C04CEA050591F800C036
:10041000BCF1000F31D0146800202BE04FF0010C2C
:100420000CFA00F3B1F800C00CEA03069E4220D19A
:1004300083004FF00F0C0CFA03F7BC4305FA03FCE2
:100440004CEA040491F803C0BCF1280F06D14FF028
:10045000010C0CFA00FCC2F814C00AE091F803C0C9
:10046000BCF1480F05D14FF0010C0CFA00FCC2F8AA
:1004700010C0401C0828D1D31460B1F800C0BCF1F2
:10048000FF0F34DD546800202EE000F1080C4FF01F
:10049000010808FA0CF3B1F800C00CEA03069E420A
:1004A00021D183004FF00F0C0CFA03F7BC4305FA7F
:1004B00003FC4CEA040491F803C0BCF1280F05D1F9
:1004C00000F1080C08FA0CF8C2F8148091F803C087
:1004D000BCF1480F07D100F1080C4FF0010808FAF1
:1004E0000CF8C2F81080401C0828CED35460BDE838
:1004F000F0814FF6FF710180022181700421C170EB
:1005000070470246002093680B400BB1012000E0C9
:10051000002070470146886880B27047024600207C
:10052000D3680B400BB1012000E00020704701466A
:10053000C86880B2704701617047416170470AB175
:10054000016100E041617047C16070474FF4803243
:100550000A438261816182618269826970470246D1
:100560000020434B18684FF68073184040EA021091
:1005700008433F4B186070473E49C8617047F0B56B
:100580000A46002300240021002500F00046B6F1B1
:10059000004F02D1364EF16901E0354E7168C0F36B
:1005A000034583B200F44016B6F5401F08D121F090
:1005B00070612F4E766826F070662D4F7E6012E0D7
:1005C00000F48016B6F5801F06D1032606FA05F45E
:1005D000A14341F0706106E0460D360103FA06F6CC
:1005E000B14341F0706122B1460D360103FA06F6BF
:1005F000314300F00046B6F1004F02D11C4EF161CC
:1006000001E01B4E7160F0BD30B500228B071C0F5E
:100610000F2303FA04F2164B08338C1053F82430DE
:100620009343134C08348D1044F8253023468C1026
:1006300053F824308C07240F00FA04F423430C4CA5
:1006400008348D1044F8253030BD0A49DC3108608B
:100650007047000000080140000C014000100140FC
:100660000014014000180140001C0140002001401E
:100670000000014000002042DF48006840F0010017
:10068000DD49086008464068DC490840DA494860AE
:1006900008460068DA490840D749086008460068FB
:1006A00020F4802008600846406820F4FE0048607E
:1006B0004FF41F0088607047CF49096821F48031EA
:1006C000CD4A11601146096821F480211160B0F50E
:1006D000803F03D0B0F5802F0ED106E0C6490968EF
:1006E00041F48031C44A116007E0C349096841F40C
:1006F000A021C14A116000E000BF00BF704710B5E3
:1007000001460022002300204A11012A02D1BA4CDE
:10071000236806E0022A02D1B74C236A01E0B64CF6
:10072000636A01F01F02012494401C400CB10120B7
:1007300000E0002010BD38B5002000900024002506
:1007400000BF3120FFF7DBFF05460098401C0090FA
:100750000098B0F5A06F01D0002DF2D03120FFF746
:10076000CEFF08B1012400E00024204638BD014638
:100770000020A14A106820F0F80040EAC100106093
:100780007047A04908607047024600209A4B58689D
:1007900020F47C1042EA01031843974B58607047DD
:1007A00098490866704701460020934A506820F037
:1007B00003000843506070478F48406800F00C0009
:1007C0007047014600208C4A506820F0F000084332
:1007D0005060704701460020874A506820F4E0606E
:1007E00008435060704701460020834A506820F457
:1007F000605040EAC1005060704729B17E4A527A89
:1008000002437D4B5A7204E07B4A527A82437A4B10
:100810005A7270477B49D831086070470146002002
:10082000754A506820F440400843506070470021EA
:10083000714A20321170704A82F82010012802D0CB
:1008400004280AD104E001216B4A2032117005E02E
:100850000521694A2032117000E000BF00BF7047D7
:100860006949086070476449096A0143624A116234
:100870007047654944390860704730B5002100224F
:10088000002400235C4D6D6805F00C0121B10429A2
:1008900005D0082923D105E05C4D056022E05B4DC1
:1008A00005601FE0544D6D6805F47012524D6D687F
:1008B00005F48034022505EB92421CB9544D554392
:1008C00005600BE04C4D6D6805F400351DB1504DD1
:1008D0005543056002E04D4D5543056002E04B4D28
:1008E000056000BF00BF444D6D6805F0F0010909C7
:1008F000484D6B5C0568DD4045603F4D6D6805F413
:10090000E061090A434D6B5C4568DD4085603A4D06
:100910006D6805F46051C90A3E4D6B5C4568DD4069
:10092000C560354D6D6805F44041890B3A4D6B5CEF
:10093000C568B5FBF3F5056130BD29B12E4A526992
:1009400002432D4B5A6104E02B4A526982432A4BE1
:100950005A61704729B1284A92690243264B9A612D
:1009600004E0254A92698243234B9A61704729B17A
:10097000214AD2690243204BDA6104E01E4AD2695F
:1009800082431D4BDA61704729B11B4AD26802438A
:10099000194BDA6004E0184AD2688243164BDA60D9
:1009A000704729B1144A12690243134B1A6104E0DB
:1009B000114A12698243104B1A617047124940393B
:1009C000086070470F49C86470470B49C871704789
:1009D0000948406A40F08070074948627047014604
:1009E0000020054A92680A400AB1012000E0002078
:1009F0007047014988727047001002400000FFF8FC
:100A0000FFFFF6FE000042428004424200127A00DC
:100A100000093D00000000201000002010B5044631
:100A2000FE48844208D10121C014FFF7ADFF002128
:100A3000E014FFF7A9FFC4E0B4F1804F08D1012111
:100A40000846FFF7AEFF00210120FFF7AAFFB8E03C
:100A5000F348844208D101210220FFF7A2FF0021C0
:100A60000220FFF79EFFACE0EE48844208D101214E
:100A70000420FFF796FF00210420FFF792FFA0E07B
:100A8000E948844208D101210820FFF78AFF0021AC
:100A90000820FFF786FF94E0E448844208D1012152
:100AA0001020FFF77EFF00211020FFF77AFF88E07B
:100AB000DF48844208D101212020FFF772FF002186
:100AC0002020FFF76EFF7CE0DA48844208D1012144
:100AD0004014FFF759FF00216014FFF755FF70E045
:100AE000D548844209D10121C804FFF74DFF0021F8
:100AF0004FF40020FFF748FF63E0D048844209D15B
:100B000001210805FFF740FF00214FF48010FFF797
:100B10003BFF56E0CA48844209D101214805FFF74E
:100B200033FF00214FF40010FFF72EFF49E0C548C6
:100B3000844208D101214020FFF733FF00214020EB
:100B4000FFF72FFF3DE0C048844208D101218020FB
:100B5000FFF727FF00218020FFF723FF31E0BB488C
:100B6000844208D101218015FFF71BFF0021A01549
:100B7000FFF717FF25E0B648844209D10121080498
:100B8000FFF702FF00214FF48030FFF7FDFE18E071
:100B9000B048844209D101214804FFF7F5FE002145
:100BA0004FF40030FFF7F0FE0BE0AB48844208D171
:100BB00001218804FFF7E8FE00214FF48020FFF7B1
:100BC000E3FE10BD00220288944B98420ED0994B50
:100BD00098420BD0B0F1804F08D0914B984205D08D
:100BE000904B984202D0904B984204D14FF68F73AD
:100BF0001A404B881A438D4B984207D08C4B984231
:100C000004D04FF6FF431A40CB881A4302808B88EA
:100C100083850B880385814B98420BD0854B984286
:100C200008D08B4B984205D08A4B984202D08A4B11
:100C3000984201D10B7A038601238382704770B5F5
:100C4000002400220023058C4FF6FE7635400584F3
:100C5000028C8388048B4FF68F752C40B51E2C4078
:100C60000D882C43751E2A400D892A434D882A433E
:100C70006A4DA8420BD06F4DA84208D0744DA842CF
:100C800005D0744DA84202D0734DA84213D14FF63F
:100C9000F7752A404D892A434FF6FB752A408D8807
:100CA0002A434FF6FF652B404FF6FF552B408D89A9
:100CB0002B43CD892B4383800483CD888586028492
:100CC00070BD70B5002400220023058C4FF6EF762E
:100CD00035400584028C8388048B48F6FF752C40D0
:100CE0004FF6FF452C400D884FF6FF7606EA0525A6
:100CF0002C434FF6DF752A400D8906EA05152A4375
:100D00004D8806EA05152A43444DA84202D0494DB4
:100D1000A8421DD14FF67F752A404D894FF6FF76C8
:100D200006EA05152A434FF6BF752A408D8806EA64
:100D300005152A434FF6FF352B404FF2FF752B4028
:100D40008D8906EA85052B43CD8906EA85052B4367
:100D500083800483CD880587028470BD70B500242C
:100D600000220023058C4FF6FF6635400584028C77
:100D70008388848B4FF68F752C404FF6FC752C4082
:100D80000D882C434FF6FF552A400D894FF6FF760C
:100D900006EA05252A434D8806EA05252A431F4D04
:100DA000A84202D0234DA8421DD14FF2FF752A4020
:100DB0004D894FF6FF7606EA05252A434FF6FF35A3
:100DC0002A408D8806EA05252A434EF6FF752B40FA
:100DD0004DF6FF752B408D8906EA05152B43CD890D
:100DE00006EA05152B4383808483CD88858702849A
:100DF00070BD70B5002200230024058C4EF6FF76EE
:100E000035400584038C8488828B48F6FF752A4020
:100E10004FF6FF452A400D8820E00000002C0140DD
:100E20000004004000080040000C0040001000409A
:100E30000014004000340140004C014000500140CB
:100E40000054014000180040001C004000200040F9
:100E50000040014000440140004801404FF6FF7649
:100E600006EA05252A434DF6FF752B400D8906EA53
:100E700005352B434D8806EA05352B43FA4DA8422C
:100E800002D0FA4DA84208D14BF6FF752C408D894F
:100E90004FF6FF7606EA85152C4384808283CD8841
:100EA000A0F84050038470BD828B4FF2FF331A408C
:100EB0008283828B4FF6FF7303EA01231A438283F6
:100EC0007047F0B50C461546002200210026078C1D
:100ED0004EF6FF7C07EA0C070784828B018C4FF6E5
:100EE000FF7707EA043640F6FF473A404FF6FF77B0
:100EF00007EA05273A434FF6FF7707EA03373A43F5
:100F0000D94FB8420ED0D94FB8420BD0B0F1804F74
:100F100008D0D74FB84205D0D64FB84202D0D64FEE
:100F2000B84206D14DF6FF77394046F48057394331
:100F300005E047F6FF57394044F480573943828330
:100F40000184F0BD828B4FF6F3731A408283828B4B
:100F50000A4382837047F0B50C46154600220021F3
:100F60000026078C4FF6FF6C07EA0C070784828B7C
:100F7000018C4FF6FF7707EA04264FF60C773A40CC
:100F80004FF6FF7707EA03172F433A43B64FB842AD
:100F90000ED0B64FB8420BD0B0F1804F08D0B44F4E
:100FA000B84205D0B34FB84202D0B34FB84206D1D1
:100FB0004FF6FF57394046F48077394305E04FF24A
:100FC000FF57394044F48077394382830184F0BD70
:100FD000028B4FF2FF331A400283028B4FF6FF73EE
:100FE00003EA01231A4302837047F0B50C46154605
:100FF000002200210026078C4FF6EF7C07EA0C0741
:101000000784028B018C4FF6FF7707EA041640F63F
:10101000FF473A404FF6FF7707EA03373A434FF668
:10102000FF7707EA05273A438F4FB8420ED08F4F1C
:10103000B8420BD0B0F1804F08D08D4FB84205D0E8
:101040008C4FB84202D08C4FB84206D14FF6DF77B2
:10105000394046F01007394305E04FF65F773940D5
:1010600044F01007394302830184F0BD028B4FF630
:10107000F3731A400283028B0A4302837047F0B570
:101080000C46154600220021068C4FF6FE773E40A6
:101090000684028B018C4FF60C7632407E1C06EAE9
:1010A00003162E433243704EB0420ED06F4EB04204
:1010B0000BD0B0F1804F08D06D4EB04205D06D4ED0
:1010C000B04202D06C4EB04206D14FF6FD763140B0
:1010D00044F00106314305E04FF6F576314044F027
:1010E0000106314302830184F0BD70B505460C460C
:1010F0005D4885420ED05D4885420BD0B5F1804FEA
:1011000008D05B48854205D05A48854202D05A48EB
:10111000854200D100E000BF208850B92389A28811
:1011200061882846FFF7ABFFE1882846FFF79EFF5E
:1011300025E0208804280AD12389A28861882846CE
:10114000FFF753FFE1882846FFF742FF17E02088AA
:1011500008280AD12389A28861882846FFF7FBFE68
:10116000E1882846FFF7EEFE09E02389A28861881E
:101170002846FFF7A6FEE1882846FFF795FE70BDDA
:101180002DE9F04105460C4600260127608808B984
:10119000022600E00026A088012801D1022700E0F5
:1011A00001272088A0B92389A28861882846FFF7F3
:1011B00066FFE1882846FFF759FF23893A46314602
:1011C0002846FFF712FFE1882846FFF701FF13E0EA
:1011D0002389A28861882846FFF707FFE18828460F
:1011E000FFF7F6FE23893A4631462846FFF747FFC8
:1011F000E1882846FFF73AFFBDE8F0810A884B886E
:101200001A438B881A43CB881A430B891A434B899C
:101210001A438B891A43A0F8442070474FF6FF7198
:10122000818000210180C1804180017270470021CE
:10123000018041808180C180018141818181C181A2
:101240007047002101804180012181800021C180FF
:10125000018170470021018041808180C18001812E
:101260004181818170470000002C01400034014021
:101270000004004000080040000C004021B102883A
:1012800042F00102028004E002884FF6FE731A4029
:101290000280704731B1B0F8442042F40042A0F817
:1012A000442005E0B0F84420C2F30E02A0F8442028
:1012B00070471AB183890B43838102E083898B4392
:1012C000838170478182704741EA0203A0F8483069
:1012D00070471AB183890B43838102E083898B4372
:1012E0008381704701894FF6F87211400181704780
:1012F0000A46002101894FF68F731940114301817D
:10130000704730B504460D4629462046FFF7F0FFEA
:10131000208940F00700208130BD2DE9F0410446CE
:101320000D4616461F46602D06D13B46012231462A
:101330002046FFF75AFE05E03B4601223146204693
:10134000FFF79DFE29462046FFF7D2FF208940F097
:1013500007002081BDE8F08130B50C4600210189ED
:10136000C9B24FF6FF7505EA032515432543294306
:10137000018130BD2DE9F04105460E4617469846DD
:10138000002443463A4631462846FFF7E5FF2C89BC
:101390004FF6F870044044F007044FF68F70044095
:1013A00044F070042C81BDE8F081F0B504460D4690
:1013B00016461F463B46324629462046FFF7CCFFDD
:1013C000208940F480402081F0BD018582827047F1
:1013D0000A46002101884FF68F731940114301809E
:1013E0007047F0B50C4615461E460021002200232A
:1013F0000189028B038C4FF6F877394021434FF671
:10140000FC473A4040F201173A434FF6DD773B4044
:101410004FF6FF7707EA06172F433B43018102830C
:101420000384F0BD0A460021018B4FF68F731940EB
:101430001143018370470A460021018B48F6FF7370
:1014400019404FF6FF7303EA0223194301837047E3
:101450000A460021818B4FF68F7319401143818317
:1014600070470A460021818B48F6FF7319404FF6FA
:10147000FF7303EA022319438183704721B1028875
:1014800042F08002028004E002884FF67F731A4027
:101490000280704721B1828842F00402828004E019
:1014A00082884FF6FB731A408280704721B1828890
:1014B00042F00802828004E082884FF6F7731A40F7
:1014C0008280704721B1828842F00102828004E06C
:1014D00082884FF6FE731A40828070470A460021C8
:1014E000018B4FF6F77319401143018370470A4689
:1014F0000021018B4FF2FF7319404FF6FF7303EA8F
:1015000002231943018370470A460021818B4FF65D
:10151000F77319401143818370470A460021818B7C
:101520004FF2FF7319404FF6FF7303EA022319438A
:10153000818370470A460021018B4FF6FB731940E7
:101540001143018370470A460021018B4FF6FF3398
:1015500019404FF6FF7303EA0223194301837047D2
:101560000A460021818B4FF6FB731940114381839A
:1015700070470A460021818B4FF6FF3319404FF622
:10158000FF7303EA02231943818370470A4600214F
:10159000018B4FF67F7319401143018370470A4650
:1015A0000021018BC1F30E014FF6FF7303EA022302
:1015B0001943018370470A460021818B4FF67F73E0
:1015C00019401143818370470A460021818BC1F382
:1015D0000E014FF6FF7303EA02231943818370471C
:1015E0000A460021018C4FF6FD7319401143018416
:1015F00070470A460021018C4FF6F77319401143DA
:10160000018470470A460021018C4FF6DF731940B0
:101610004FF6FF7303EA02131943018470470A4629
:101620000021018C4FF67F7319404FF6FF7303EAD8
:1016300002131943018470470A460021018C4FF6BA
:10164000FF5319404FF6FF7303EA02231943018445
:1016500070470A460021018C4FF2FF7319404FF684
:10166000FF7303EA02231943018470470A460021ED
:10167000018C4DF6FF7319404FF6FF7303EA0233F6
:1016800019430184704730B5002301248C40A3B274
:10169000048C9C430484048C02FA01F5ADB22C4303
:1016A000048430BD30B5002304248C40A3B2048CE4
:1016B0009C430484048C02FA01F5ADB22C430484EB
:1016C00030BD70B5034600200024184618300125AF
:1016D0008D40ACB21D8CA5431D8409B1082909D1E8
:1016E00000EB6100056825F070050560056815438D
:1016F00005600EE00D1FC5F34E052844056825F46E
:10170000E045056005684FF6FF7606EA0226354398
:10171000056070BD21B1028842F00202028004E03F
:1017200002884FF6FD731A400280704721B102888B
:1017300042F00402028004E002884FF6FB731A4074
:101740000280704721B1828842F08002828004E0EA
:1017500082884FF67F731A408280704702884FF666
:10176000F7731A40028002880A4302807047828819
:101770004FF68F731A40828082880A4382807047B6
:1017800002894FF6F8731A40028102890A430281E6
:10179000704702894FF67F731A40028102890A431B
:1017A00002817047818470478185704781867047C8
:1017B0000187704781877047A0F840107047028802
:1017C0004FF6FF431A40028002880A4302807047A6
:1017D0000146888E70470146088F70470146888F02
:1017E00070470146B1F8400070470146888C704749
:1017F0000146088D704702460020138A0B400BB14A
:10180000012000E000207047CA430282704730B5D3
:101810000246002000230024158A05EA0103958969
:1018200005EA010413B10CB1012000E0002030BD35
:10183000CA4302827047000010B50446FB48844248
:1018400009D101218803FFF79FF800214FF4804060
:10185000FFF79AF832E0F648844209D101214804A2
:10186000FFF79FF800214FF40030FFF79AF825E0CA
:10187000F048844209D101218804FFF792F8002141
:101880004FF48020FFF78DF818E0EB48844209D12F
:101890000121C804FFF785F800214FF40020FFF76D
:1018A00080F80BE0E548844208D101210805FFF7E4
:1018B00078F800214FF48010FFF773F810BD2DE980
:1018C000F04786B005460E460024A24600BFA1465A
:1018D0000027B08900B100BF2F462C8A4CF6FF705C
:1018E0000440F08804432C82AC894EF6F310044087
:1018F000B08831890843718908430443AC81AC8ABC
:101900004FF6FF400440B0890443AC8201A8FEF7C3
:10191000B4FFC648874202D1DDF810A001E0DDF82F
:101920000CA0A88900F4004040B10AEBCA0000EB0B
:101930000A1031684900B0FBF1F807E00AEBCA0071
:1019400000EB0A1031688900B0FBF1F86420B8FBA5
:10195000F0F004012009642101FB1089A88900F43A
:10196000004040B1322000EBC900B0FBF1F000F0C4
:101970000700044308E0322000EB09106421B0FBAB
:10198000F1F000F00F0004432C8106B0BDE8F087B1
:101990004FF41651016000218180C18001810C212A
:1019A000418100218181704710B502460020108AD4
:1019B0004FF2FF0318400B884C8823438C88234345
:1019C000CC8823431843108210BD00210180418040
:1019D0008180C180704721B1828942F400528281A6
:1019E00004E082894DF6FF731A4082817047F0B59A
:1019F0000346002400260025002040F66A17B9425D
:101A000000D100BF1846C1F3421401F01F060127A0
:101A100007FA06F5012C01D10C3004E0022C01D1AB
:101A2000103000E014301AB107682F43076002E05D
:101A30000768AF430760F0BD1AB1838A0B43838206
:101A400002E0838A8B4383827047028A4FF6F073E9
:101A50001A400282028A0A430282704782894FF248
:101A6000FF731A40828182890A438281704721B1C3
:101A7000828942F00202828104E082894FF6FD737E
:101A80001A4082817047028A4FF6DF731A40028241
:101A9000028A0A430282704721B1028A42F48042DC
:101AA000028204E0028A4BF6FF731A4002827047FA
:101AB000C1F308028280704701468888C0F308009D
:101AC0007047818941F0010181817047028BD2B258
:101AD0000283028B42EA012202837047028B02F4E6
:101AE0007F420283028B0A430283704721B1828ABC
:101AF00042F02002828204E0828A4FF6DF731A40AD
:101B00008282704721B1828A42F01002828204E010
:101B1000828A4FF6EF731A408282704721B1828A1F
:101B200042F00802828204E0828A4FF6F7731A407C
:101B30008282704721B1828942F40042828103E0AF
:101B40008289C2F30E028281704721B1828A42F4F7
:101B50000062828204E0828A4FF2FF731A4082821E
:101B60007047828A4FF6FB731A408282828A0A4348
:101B70008282704721B1828A42F00202828204E0AE
:101B8000828A4FF6FD731A40828270470246002017
:101B9000B1F5007F00D100BF13880B400BB10120CD
:101BA00000E00020704701F40072B2F5007F00D120
:101BB00000BFCA430280704770B50246002400236C
:101BC0000025002040F66A16B14200D100BFC1F3E3
:101BD000421501F01F03012606FA03F3012D02D17D
:101BE0009689334006E0022D02D1168A334001E087
:101BF000968A33400C12012606FA04F41688344003
:101C000013B10CB1012000E0002070BD10B500221E
:101C1000002340F66A14A14200D100BF0A12012439
:101C20009440A3B2DC43048010BD000000380140A2
:101C30000044004000480040004C0040005000407C
:101C40000120FEF79EFD00F07FF840F2DF116320D7
:101C500000F040FC4FF4E13000F0D8FCC82000F068
:101C600086F811E032480068012809D10020304987
:101C7000086030480079C01DC1B22E4800F0B2FEA5
:101C800000F0BDFE00F084F9ECE70120FEF779FDDD
:101C900000F05AF840F2DF11632000F01BFC4FF413
:101CA000E13000F0B3FCC82000F061F82248007970
:101CB000C01DC1B2204800F095FE03E000F09FFE79
:101CC00000F066F9FAE710B51C480079C01DC1B2F2
:101CD0001A4800F087FE10BD10B50120FEF751FD37
:101CE00000F032F840F2DF11632000F0F3FB4FF414
:101CF000E13000F08BFC642000F039F8642000F043
:101D000036F80C480079C01DC1B20A4800F06AFEDE
:101D100001F054F90A4800782C2801DB01F0AEF9F3
:101D200000F06DFE00F034F9064800F050FC10BDE4
:101D3000EC000020200000202700002048000020A8
:101D4000AC010020801A060010B50420FEF739FA15
:101D50001E4800681E49B0FBF1F01E4908600846A5
:101D600000684FF47A7148431B49086010BD014672
:101D7000194A12684A434FF0E0235A6100229A61DF
:101D80001A46126942F001021A6100BF4FF0E022C8
:101D9000106900F001021AB100F48032002AF5D077
:101DA0004FF0E022126922F001024FF0E0231A61A5
:101DB00000229A617047002105E0002200E0521CD9
:101DC000502AFCD3491C8142F7D37047D40000202D
:101DD000A0860100140000201800002001217D20B1
:101DE000FEF7B8FD4FF480630D4AD114104600F0A1
:101DF00038FF4FF4E13000F009FC4FF4165000F0CA
:101E00003DFDFFF760FF01F0CAF8FFF79DFF01F00D
:101E100093F801F083F901E000F044FCFCE70000D6
:101E2000000C014070B5034600200DE002EBC20437
:101E300004EB021403EBC404255CC2EBC216FE4C97
:101E400034442554441CE0B28842EFDBFA4C641F52
:101E5000A15470BDF0B503460C46002227E00021D6
:101E600010E0C2EBC205F54E06EB45056E5CC4EB17
:101E7000C415EF1801F108057D5DAE4200D003E006
:101E80004D1CE9B20C29ECDB00BF0C290DDBC4EBC7
:101E9000C4151D446D79C5F1FF05C2EBC206E74FBD
:101EA00007EB46063573104605E0551CEAB2E44DD3
:101EB0002D68AA42D3D300BFE14D2D68AA4234D386
:101EC00000210FE0C4EBC415EE1801F10805755DA3
:101ED000DB4E3668C6EBC606D84F07EB4606755490
:101EE0004D1CE9B20C29EDDBC4EBC4151D446D7922
:101EF000C5F1FF05D24E3668C6EBC606CF4F07EBDD
:101F0000460635730125CE4E3668C6EBC60607EB8E
:101F100046067573CA4D2D686D1CC94E3560354631
:101F20002D68C82D01D300253560F0BD30B50246BF
:101F300000200DE0C1EBC1139C1800F10803E35C25
:101F400001EB4104BF4D05EB84042354431CD8B27C
:101F50000C28EFDBC1EBC11313441B790F3BDCB240
:101F6000B84B3C335C5400200CE0C1EBC1139C180F
:101F700000F11403E45CB34B413303EB81131C54B5
:101F8000431CD8B2AF4B3C335B5C8342EDDC30BDCD
:101F900030B50025002400BFB3E0A748401F405DD6
:101FA00008B9002030BDC5EBC511A34808444078EE
:101FB00001283AD1C5EBC5119F48084480783928DB
:101FC00014D008DC07281DD00C2823D0122825D0D7
:101FD000282828D106E0492810D0B62816D0FF2896
:101FE00021D11FE00020984908701DE0012096498A
:101FF000887029469048FFF799FF15E00120924923
:10200000C87011E00120904908710DE001208E494F
:10201000487109E001208C49C87105E001208A4916
:10202000887101E000E000BF65E0C5EBC5118248A2
:1020300008444078FF285ED0C5EBC5117E480844AF
:102040004078022857D1C5EBC5117B4808448078F9
:10205000222802D027284CD125E029467648FFF7D0
:10206000F9FE044601207849487008468068401C03
:102070008860764810F81400C4EBC4016F4A02EB84
:102080004101097B88420DDAC4EBC400114601EB23
:102090004000007B6D4901F814006D48007801EBA9
:1020A0004401487026E029466348FFF7D3FE044602
:1020B00001206549487008468068401C8860634874
:1020C00010F81400C4EBC4015C4A02EB4101097B27
:1020D00088420DDAC4EBC400114601EB4000007BDE
:1020E0005A4901F814005A48007801EB440148703D
:1020F00000E000BF00BF00204F49491F48550120A4
:1021000050E7544800788542FFF647AF00BF49E7E3
:1021100030B501460C7948788D7828440D792844EB
:10212000C3B2002205E0501D085C1844C3B2501C25
:10213000C2B2A242F7DB601D0B54002030BD7FB558
:102140000546002406E0295D434A04F10C001154C1
:10215000601CC4B20C2CF6DB3F48407900F0F00064
:102160009DF8081008443C4948710846FFF7D0FF25
:1021700039480079C01DC1B2374800F033FC4FF434
:10218000FA60FFF718FE9DF80400344948719DF885
:10219000050088719DF80600C8719DF80700087257
:1021A0009DF808004872002088729DF80900C872E6
:1021B000002008739DF80A0048730846FFF7A8FF3F
:1021C00026480079C01DC1B2244800F00BFC7FBD39
:1021D0007FB50546002406E0295D1F4A04F10C0086
:1021E0001154601CC4B20C2CF6DB1B48407900F083
:1021F000F0009DF808100844174948710846FFF799
:1022000087FF15480079C01DC1B2134800F0EAFBF2
:102210002820FFF7D0FD9DF80A00092101EB4000BE
:102220000F4908719DF8040048719DF805008871F8
:102230009DF80600C87115E0C10100204804002087
:102240001C000020440F00203C040020C51000208A
:10225000AC010020F4000020500000206A000020A3
:102260007A0000209DF8070008729DF80800487267
:10227000002088729DF80900C872002008739DF83C
:102280000A004873002407E00398015D184A04F12E
:102290000E001154601CC4B29DF80A00B4EB400F4C
:1022A000F2DB1348FFF734FF7E219DF80A00092274
:1022B00002EB4000801D0E4A115410460079C01DEB
:1022C000C1B2104600F08EFB7FBD10B502460B4632
:1022D0000C2100BF481E145C185C844201D0002011
:1022E00010BD481EC1B20029F4D10120F8E700005A
:1022F0007A0000200CB50020019000906C48006826
:1023000040F480306A49086000BF6948006800F402
:10231000003000900198401C0190009818B9019875
:10232000B0F5A06FF1D16248006800F4003010B140
:102330000120009001E0002000900098012843D186
:102340005C48006840F010005A4908600846006880
:1023500020F0030008600846006840F002000860B2
:1023600053484068524948600846406848600846FB
:10237000406840F4806048600846406820F47C1063
:1023800048600846406840F4E81048600846006825
:1023900040F08070086000BF4548006800F00070A1
:1023A0000028F9D04248406820F0030040494860C6
:1023B0000846406840F00200486000BF3C48406862
:1023C00000F00C000828F9D10CBD10B5FFF792FF02
:1023D00010BD10B53648006840F00100344908606F
:1023E000084640683449084031494860084600685A
:1023F000324908402E4908600846006820F48020D1
:1024000008600846406820F4FE0048604FF41F0052
:102410008860FFF7DAFF4FF000602949086010BDBF
:1024200010B5002100200022214B5B6803F00C0155
:1024300021B1042906D0082928D107E0214B224CDC
:10244000236027E01F4B204C236023E0184B5B6880
:1024500003F47010164B5B6803F48032022303EB25
:10246000904022B9194B4343174C23600DE0104BA9
:102470005B6803F4003323B1144B4343124C2360D5
:1024800003E0104B4343104C236003E00D4B0E4C14
:10249000236000BF00BF064B5B68C3F303130C4C03
:1024A000E15C094B1B68CB40074C236010BD00006A
:1024B00000100240002002400000FFF8FFFFF6FE7F
:1024C00008ED00E000127A00D400002000093D0071
:1024D000D80000207FB505460C4601210220FEF7FA
:1024E00046FA0020ADF80A00ADF80600A8B2ADF833
:1024F0000800A0B2ADF8040001A93C48FEF762FB59
:10250000012211463948FEF7D4FE1D208DF8000047
:1025100001208DF803008DF802006846FDF707FEE4
:1025200001213248FEF7AAFE7FBD10B501212F48D8
:10253000FFF76DF960B12E480068401C2C49086017
:10254000B0F57A7F04D30020086001202949086093
:1025500001212648FFF76CF910BD30B500BF2648B1
:102560000068264AB0FBF2F1B1F1807F01D301206F
:102570001DE021F07F40401E4FF0E02250615017D7
:102580000F22002807DA13071D0E1D4B00F00F0461
:10259000241F1D5503E013071C0E1A4B1C5400BFCB
:1025A00000204FF0E02290610720106100200128F8
:1025B000D5D030BD1448006820B113480068401ED3
:1025C00011490860704700B5FFF7F4FF00BD01B581
:1025D0000D490098086004E00B480068401E0A4955
:1025E0000860094800680028F6D108BD00040040D2
:1025F000E8000020EC000020D400002040420F0042
:1026000018ED00E000E400E0F000002010B586B016
:102610000446012144F20400FEF79CF94FF40070D7
:10262000ADF8140018208DF8170003208DF816005F
:1026300005A9FE48FDF7D2FE4FF48060ADF8140006
:1026400004208DF8170005A9F848FDF7C7FE00948F
:102650000020ADF80400ADF80600ADF80800ADF8B4
:102660000C000C20ADF80A006946F148FFF727F985
:1026700025208DF8100000208DF8110001208DF824
:1026800012008DF8130004A8FDF751FD012240F25D
:102690002551E748FFF7ABF90121E548FFF79BF922
:1026A00006B010BD10B50220E2490870002406E013
:1026B000E148015DE1A001F00BF8601CC4B2DE4806
:1026C000005DBD28F4DD0021DCA001F001F8002050
:1026D000D8490870DA48FFF77AFF0220D549087018
:1026E000002406E0D748015DD4A000F0F1FF601C93
:1026F000C4B2D448005DBD28F4DD0021CFA000F0B5
:10270000E7FF0020CB490870CD48FFF760FF0220AB
:10271000C8490870002406E0CB48015DC7A000F05E
:10272000D7FF601CC4B2C848005DBD28F4DD00219D
:10273000C2A000F0CDFF0020BE490870C048FFF7DE
:1027400046FF0220BB490870002406E0BF48015D37
:10275000BAA000F0BDFF601CC4B2BC48005DBD283B
:10276000F4DD0021B5A000F0B3FF0020B1490870EE
:10277000B348FFF72CFF0220AE490870002406E0A2
:10278000B348015DADA000F0A3FF601CC4B2B04827
:10279000005DBD28F4DD0021A8A000F099FF002015
:1027A000A4490870A648FFF712FF0220A14908704B
:1027B000002406E0A748015DA0A000F089FF601C8E
:1027C000C4B2A448005DCB28F4DD00219BA000F03A
:1027D0007FFF0020974908709948FFF7F8FE022014
:1027E00094490870002406E09B48015D93A000F026
:1027F0006FFF601CC4B29848005DA628F4DD00217C
:102800008EA000F065FF00208A4908708C48FFF711
:10281000DEFE022087490870002406E08F48015D33
:1028200086A000F055FF601CC4B28C48005DA6284D
:10283000F4DD002181A000F04BFF00207D490870ED
:102840007F48FFF7C4FE02207A490870002406E0A2
:102850008348015D79A000F03BFF601CC4B2804852
:10286000005DA628F4DD002174A000F031FF0020F7
:10287000704908707248FFF7AAFE10BD10B586B007
:10288000044601210820FEF765F801218804FEF7BF
:102890006EF84FF40060ADF8000004208DF80300DE
:1028A00069467048FDF79AFD4FF48060ADF800006E
:1028B00003208DF8020018208DF80300694669484E
:1028C000FDF78CFD02940020ADF80C00ADF80E0071
:1028D000ADF81000ADF814000C20ADF8120002A9FC
:1028E0006148FEF7ECFF012240F225515E48FFF7F8
:1028F0007EF801215C48FFF76EF84FF4A060FDF709
:1029000011FC27208DF8040003208DF8050002201B
:102910008DF8060001208DF8070001A8FDF707FCDF
:1029200006B010BD10B586B0044601210520FEF7A3
:1029300011F801214D48FEF71AF80820ADF81400EF
:1029400048208DF8170005A93848FDF747FD0420F9
:10295000ADF8140003208DF8160018208DF817002C
:1029600005A93248FDF73AFD26208DF81000032016
:102970008DF811008DF8120001208DF8130004A8C5
:10298000FDF7D5FB00940020ADF80400ADF806007B
:10299000ADF80800ADF80C000C20ADF80A0069464F
:1029A0003348FEF78CFF012240F225513048FFF7F3
:1029B0001EF801212E48FFF70EF806B010BD10B525
:1029C000044621461A48FFF773F800BF80211848D3
:1029D000FFF7DCF80028F9D080211548FFF7E3F86D
:1029E000204610BD70B504460D46002604E014F8DC
:1029F000010BFFF7E4FF761CAE42F8D370BD70B553
:102A0000002452E01B4850F8240005284BD904EB61
:102A1000C40000EB0410184901EBC000057915480B
:102A200050F82410E81D81423DD327E00008014002
:102A300000380140F5000020F70000202563000069
:102A4000809698000E010020250100203A01002008
:102A50004F010020640100207B010020880100203C
:102A600095010020000C01400048004001000200D8
:102A700000440040C4140020DC10002004EBC4001B
:102A800000EB0410584901EBC001A81D085C7E282A
:102A900009D1E81DC1B222465348FFF7C3F900200F
:102AA000524941F82400601CC4B251480078844265
:102AB000A8DB70BD10B58AB0044628224D4968468F
:102AC00000F0B6FD5DF824000AB010BD10B540F26C
:102AD00025514948FFF770F8002849D04648FEF7CD
:102AE000EBFFC4B241484249097850F82100B0B91F
:102AF000BB2C14D13E48007800EBC00101EB001064
:102B0000394901F8304039483949097850F82100ED
:102B1000401C3649364A127841F8220028E03348F2
:102B200030B33349097850F82100C82820D2304802
:102B3000007800EBC00101EB00102B4901EBC00055
:102B40002A492B4A127851F8221044542748284920
:102B5000097850F82100401C2449254A127841F890
:102B600022007E2C04D122480078401C20490870A5
:102B700010BD10B540F225511F48FFF71DF828B1D0
:102B80001E48FEF799FFC4B21D48047010BD10B571
:102B900040F225511848FFF70FF818B11948FEF711
:102BA0008BFFC4B210BD70B504460D4616480078C0
:102BB00002280BD100BF40211048FEF7E7FF002894
:102BC000F9D0E1B20D48FEF773FF0AE000BF4021E3
:102BD0000C48FEF7DBFF0028F9D0E1B20948FEF708
:102BE00067FF204670BD0000DC100020C4140020E8
:102BF000F4000020E43700080038014000440040A1
:102C0000F600002000480040F500002001460022A8
:102C1000C248814201D1042221E0C048814201D151
:102C200004221CE0BE48814201D1082217E0BD48C1
:102C3000814201D1102212E0BB48814201D1202201
:102C40000DE0BA48814201D1402208E0B8488142F3
:102C500001D1802203E0B748814200D1821590B2B1
:102C600070472DE9F84307460C4615461E464FF0BF
:102C70000008C1463846FFF7C9FF80462846FFF7DF
:102C8000C5FF814601214046FDF764FE012148460B
:102C9000FDF760FEADF8004003208DF8020014201F
:102CA0008DF8030069463846FDF798FBADF80060E3
:102CB00003208DF8020014208DF803006946284691
:102CC000FDF78CFB4FF400619648FDF734FC4FF4A0
:102CD00080619448FDF72FFCBDE8F883052000BF14
:102CE000011EA0F10100FBD1704710B54FF4006147
:102CF0008C48FDF720FCFFF7F1FF4FF48061894815
:102D0000FDF719FCFFF7EAFF8648806800F40060D1
:102D100008B9012010BD4FF400618248FDF70DFC99
:102D2000FFF7DCFF4FF480617E48FDF706FCFFF7FC
:102D3000D5FF7C48806800F40060012801D10220A2
:102D4000E8E70020E6E710B54FF400617548FDF7AD
:102D5000F4FBFFF7C3FF4FF480617248FDF7EBFB14
:102D6000FFF7BCFF4FF400616E48FDF7E4FBFFF78F
:102D7000B5FF10BD10B54FF400616A48FDF7DDFBEB
:102D8000FFF7ACFF4FF480616648FDF7D4FBFFF717
:102D9000A5FF4FF480616348FDF7CFFBFFF79EFF6F
:102DA00010BD10B54FF400615E48FDF7C4FBFFF79E
:102DB00095FF4FF480615B48FDF7BDFBFFF78EFF89
:102DC0004FF480615748FDF7B8FBFFF787FF10BD50
:102DD00070B504464FF480615248FDF7AEFB002504
:102DE00021E004F0800028B14FF400614D48FDF768
:102DF000A2FB04E04FF400614A48FDF79EFB600629
:102E0000040EFFF76BFF4FF480614648FDF793FB1C
:102E1000FFF764FF4FF480614248FDF78EFBFFF738
:102E20005DFF681CC5B2082DDBDB4FF400613D4837
:102E3000FDF781FBFFF752FF4FF480613948FDF742
:102E40007AFBFFF74BFF3748806800F4006030B131
:102E50004FF480613348FDF770FB002070BD4FF4E4
:102E600080613048FDF769FB0120F7E770B5002469
:102E70004FF400612B48FDF75EFB4FF48061294859
:102E8000FDF75BFB00BF002518E04FF4806125488B
:102E9000FDF751FBFFF722FF6006040E2148806812
:102EA00000F4006008B144F001044FF480611D4853
:102EB000FDF743FBFFF712FF681CC5B2082DE4DBEA
:102EC000204670BD70B506460C461546FFF70DFF4F
:102ED0003046FFF77DFF2046FFF77AFF2846FFF7D1
:102EE00077FFFFF730FF70BD70B504460D46FFF762
:102EF000FCFE2046FFF76CFF2846FFF769FFFFF74F
:102F0000F4FE611CC8B2FFF763FFFFF7AFFF064690
:102F1000FFF747FFFFF717FF304670BD000801407D
:102F2000000C014000100140001401400018014055
:102F3000001C0140002001401FB501210846FDF79B
:102F400009FD0120ADF80C0048208DF80F0002208B
:102F50008DF80E0003A9F748FDF740FA0021084656
:102F6000FDF752FB0120019000208DF808000C2095
:102F70008DF8090001208DF80A0001A8FDF74EF92F
:102F800006208DF8000002208DF801008DF8020067
:102F900001208DF803006846FDF7C9F81FBD08B58C
:102FA000F020ADF8000010208DF8030003208DF80C
:102FB00002006946DF48FDF711FA08BD10B5DE488A
:102FC000FFF705FBDD48007870B9DA480C3000687F
:102FD0004FF67F710840D7490C31086008460068F9
:102FE00040F01000086037E0D448007801280ED186
:102FF000D0480C3000684FF6EF710840CD490C31D5
:1030000008600846006840F04000086024E0CB48B3
:10301000007802280ED1C7480C3000684FF6BF7107
:103020000840C4490C3108600846006840F02000A0
:10303000086011E0C148007803280DD1BD480C306C
:1030400000684FF6DF710840BA490C310860084645
:10305000006840F080000860B8480078401CB7491C
:103060000870B7480078401CB5490870B34800782C
:10307000032802DD0020B149087010BD10B548E0FA
:10308000B048FFF7A4FAAB480C3000684FF6DF7188
:103090000840A8490C3108600846006840F08000EC
:1030A0000860A848FFF793FAA2480C3000684FF672
:1030B000BF7108409F490C3108600846006840F025
:1030C000200008609F48FFF782FA9A480C30006899
:1030D0004FF6EF71084097490C31086008460068C8
:1030E00040F0400008609748FFF771FA91480C30B3
:1030F00000684FF67F7108408E490C310860084621
:10310000006840F0100008608D480078001F8C496E
:1031100008708B4800780028B2DC10BD1FB5012173
:103120000846FDF717FC0220ADF80C0048208DF88A
:103130000F0002208DF80E0003A97E48FDF74EF91E
:1031400002210020FDF760FA0220019000208DF896
:1031500008000C208DF8090001208DF80A0001A854
:10316000FDF75CF807208DF8000002208DF80100C3
:103170008DF8020001208DF803006846FCF7D7FFA8
:103180001FBD00B585B001210846FDF7F0FB012108
:103190000846FDF7DFFB0220ADF8100014208DF883
:1031A000130002208DF8120004A96248FDF716F9F9
:1031B00001210020FDF728FA4FF08040FDF72EFC9A
:1031C0004FF4FA60ADF804004720ADF8000000208D
:1031D000ADF80600ADF8020069464FF08040FDF7FB
:1031E000F1FC00214FF08040FEF748F901218807EB
:1031F000FEF79CFA00214FF08040FEF78BFA012188
:103200008807FEF701FB012211469007FEF751F8EF
:103210001C208DF80C0000208DF80D0004208DF886
:103220000E0001208DF80F0003A8FCF780FF02219B
:103230004048FDF780F905B000BD10B502213D48BA
:10324000FDF77BF944F620614806FEF7ADFA01214F
:103250008807FEF713F810BD10B50120FDF755F8EB
:1032600001203949087039A000F032FA10BD10B5BC
:103270000220FDF74AF837A000F02AFA10BD10B579
:1032800001218807FEF7D4FA3448007801280DD1CF
:1032900002212848FDF74FF913214FF08040FEF737
:1032A00083FA00204FF080418884FDE02B480078AD
:1032B000022819D100214007FDF7E0FF00204FF060
:1032C0008041888400BF1B480830006800F002007D
:1032D0000028F8D126214FF08040FEF765FA012141
:1032E0008807FDF7CBFFDFE01C48007803280CD1EE
:1032F00000BF10480830006800F002000028F8D035
:1033000000204FF080418884CEE0144800780428E3
:1033100026D100BF07480830006800F002000028EE
:10332000F8D14FF0804188840A214807FEF73CFA23
:10333000BAE0000000080140407E0500B401002012
:10334000AC01002020BF0200B50100206D71320DDC
:103350000A0000007261696E0D0A0000A4010020DD
:10336000A8480078052810D100BFA748006800F0E1
:1033700002000028F9D000204FF0804188841821F5
:103380004FF08040FEF710FA8EE09E480078062845
:103390008BD14FF47A71C806FEF706FA00BF9A483F
:1033A000006800F002000028F9D14FF08040808CC6
:1033B000964908600846006818B108460068322837
:1033C00043D39348007848B9924801780120884057
:1033D0009149097808449049087036E08C48007893
:1033E000012809D18B480178012088408B49097850
:1033F00008448A49087028E085480078022809D1E5
:103400008448017801208840854909780844844926
:1034100008701AE07E480078032809D17D480178B9
:10342000012088407F49097808447E4908700CE0F3
:1034300077480078042808D1764801780120884030
:103440007949097808447849087072480078401C26
:103450007049087005206B4908706E48007807288D
:1034600016DD00206B49087069480078401C6849E7
:1034700008700846007804280ADD002061490870B9
:103480004FF08041888400214FF08040FDF7F6FE28
:1034900000204FF0804188840A214807FEF784F914
:1034A00001218807FDF7EAFE56480078401C55497F
:1034B000087010BD08B501210820FDF74BFA4FF444
:1034C0000060ADF8000003208DF8020004208DF8A4
:1034D000030069465548FCF781FF08BD08B5012186
:1034E0000820FDF737FA4FF40060ADF80000032024
:1034F0008DF8020010208DF8030069464B48FCF758
:103500006DFF08BD10B5FFF7E9FF4FF400614748B4
:10351000FDF713F844F63820FFF759F84FF400612F
:103520004248FDF708F81E20FFF751F8FFF7C2FFE9
:1035300010BD10B54FF400613C48FCF7E2FF10BD30
:1035400010B500BF4FF400613848FCF7DAFF0028DF
:10355000F8D02820FFF73BF84FF400613348FCF720
:10356000D0FF012809D100BF4FF400612F48FCF7BC
:10357000C8FF0128F8D0012010BD0020FCE770B57D
:103580000024002504E06400FFF7DAFF04436D1C0B
:10359000082DF8D3204670BD70B504460025FFF70E
:1035A000B1FFFFF7C6FF50BB00BFFFF7C2FF002807
:1035B000FBD000BFFFF7BDFF0128FBD0002503E0D3
:1035C000FFF7DDFF60556D1C052DF9D300BFFFF738
:1035D000B0FF0028FBD0FFF781FF4FF400611348D4
:1035E000FCF7A9FF207861780844A1780844E178C5
:1035F0000844C6B22079B04201D0012070BD00203D
:10360000FCE70000A401002008080140B0010020F0
:10361000AB010020AA010020A5010020A601002086
:10362000A7010020A8010020A9010020000C0140F2
:1036300040EA01039B0703D009E008C9121F08C034
:10364000042AFAD203E011F8013B00F8013B521EB4
:10365000F9D27047064C074D06E0E06840F00103E0
:1036600094E8070098471034AC42F6D3FCF742FDCB
:103670000C3800082C38000870B58C1810F8015B65
:1036800015F0070301D110F8013B2A1106D110F8FB
:10369000012B03E010F8016B01F8016B5B1EF9D1FF
:1036A0002B0705D40023521E0DD401F8013BFAE785
:1036B00010F8013BCB1A921C03E013F8015B01F8F0
:1036C000015B521EF9D5A142D8D3002070BD000085
:1036D0000FB4054B10B503A9044A029800F017F87F
:1036E00010BC5DF814FB0000A72B0008B8010020F7
:1036F00002E008C8121F08C1002AFAD170477047BB
:10370000002001E001C1121F002AFBD170472DE902
:10371000F84F9946924688460546002706E0252838
:103720000AD051464A4690476D1C7F1C28780028D5
:10373000F5D13846BDE8F88F002315F8011F18466B
:103740002E2915D115F8011F04232A290DD06FF059
:103750002F022978A1F13004092C09D800EB800050
:1037600002EB400008446D1CF3E758F8040B6D1C95
:103770002A78002ADDD0632A07D0732A0FD010469A
:1037800051464A4690477F1C2AE018F8042B8DF8D2
:10379000002000218DF801106E46012103E058F849
:1037A000046B4FF0FF315A074FF0000401D409E0D9
:1037B000641C84420BDA8C42FADB325D002AF7D1BA
:1037C00005E0641C8C42FCDB305D0028F9D1274405
:1037D00004E016F8010B51464A469047641EF8D2A1
:1037E0006D1CA3E7B004000060090000C0120000D7
:1037F00080250000004B00000096000000E1000062
:1038000000C2010000F4010000E803002C380008A9
:1038100000000020BC01000078360008F0380008E5
:10382000BC0100201C17000000370008412D0102D8
:10383000030404C009060708090204060812BB2293
:103840002214227EBB12271303221B0A560A2228A7
:103850001A28071A07384A0A081B0109081A121001
:103860001A1508120C331323D320601AC21A123906
:10387000420932031B04491012497A111029801A97
:103880000581093E0833857E84A24A0469D8F11275
:10389000FDF816140101B8C3CEEFC6B7D4DACED204
:1038A000B5C4D7F3C7B0B7BD174BD3D217CA1217D9
:1038B0000913150B11D7F3155BD3D2561014BCD2D4
:1038C000D6F7C4FAB5C4D4BFB3D7CDFCB4F8C1CBD6
:1038D000FD380C0A0101CCEDBCD3B3C9B9A60D7DEE
:1038E000D0DEB8C40D2DC9BEB3FD0D19C40117003B
:04000005080000ED02
:00000001FF
