:020000040800F2
:10000000200D0020BD010008C1010008C301000847
:10001000C5010008C7010008C90100080000000070
:10002000000000000000000000000000CB010008FC
:10003000CD01000800000000CF010008D101000838
:10004000D3010008D3010008D3010008D301000840
:10005000D3010008D3010008D3010008D301000830
:10006000D3010008D3010008D3010008D301000820
:10007000D3010008D3010008D3010008D301000810
:10008000D3010008D3010008D3010008D301000800
:10009000D3010008D3010008D3010008D3010008F0
:1000A000D30100080F1B0008D3010008D30100088A
:1000B000D3010008D3010008D3010008D3010008D0
:1000C000D3010008D3010008D3010008D3010008C0
:1000D000D3010008DF17000845150008D301000808
:1000E000D3010008D3010008D301000800F002F892
:1000F00000F04FF80AA090E8000C82448344AAF173
:100100000107DA4501D100F044F8AFF2090EBAE870
:100110000F0013F0010F18BFFB1A43F0010318473B
:1001200090940000B09400000A4410F8014B14F0C1
:100130000F0508BF10F8015B240908BF10F8014B38
:100140006D1E05D010F8013B6D1E01F8013BF9D181
:10015000641E03D0641E01F8015BFBD19142E4D31D
:10016000704700000023002400250026103A28BF15
:1001700078C1FBD8520728BF30C148BF0B60704719
:10018000642905F0B386002070471FB51FBD10B568
:1001900010BD06F07BF81146FFF7F7FF00F02AF8D4
:1001A00006F099F803B4FFF7F2FF03BC00F016FA6B
:1001B00030BF72B662B680F30888704708480047BF
:1001C000FEE7FEE7FEE7FEE7FEE7FEE7FEE7FEE707
:1001D000FEE7FEE703480449044A054B7047000068
:1001E000ED00000820070020200D0020200900203D
:1001F00020090020092000F098F9482000F038F884
:10020000022000F07DF9012000F07AF900F074FA84
:1002100000F0A8FA00F04FFC4FF41651482000F00F
:10022000F7F94FF41651242001F01AF9002141F694
:100230001F4000F091FD00F0E5FD00F01AFE00F017
:1002400089FE05F0A4F905F0B6F941F61F41312009
:1002500000F0FCFC08E005F0F9FB0449086005F03B
:1002600045FC642000F03CF8F5E700001800002091
:100270004FF0E021096921F004014FF0E022116103
:10028000C21700EB5272C2F3C702234B1A70194611
:10029000097801EB4102C2EBC1114FF6FF7202EA8D
:1002A000C1011E4A1180704701461B4A12784A4319
:1002B0004FF0E0235A6100229A6101221A6100BFC7
:1002C0004FF0E022106900F001021AB100F4803210
:1002D000002AF5D000224FF0E0231A619A6170479E
:1002E00001460E4A12884A434FF0E0235A61002229
:1002F0009A6101221A6100BF4FF0E022106900F0FC
:1003000001021AB100F48032002AF5D000224FF029
:10031000E0231A619A61704730000020320000200B
:10032000A34A0A400243A34B1A60704701460723C1
:1003300023EA010212029F4B1B1D18684FF6FF03B0
:1003400018409D4B184310439A4B1B1D1860704773
:100350002DE9F0410746884614461D462846FFF71A
:10036000E5FFC5F1040007FA00F60F20284100EA76
:100370000800064306F00F06E21704EBD2625211A2
:10038000920002F1E022D2F800212146E31704EBAB
:10039000D3635B11A4EB431C012303FA0CF31A4350
:1003A0002046E31704EBD3635B119B0003F1E023CA
:1003B000C3F800218148005D40EA06107F490855D6
:1003C000BDE8F08170B504460B46CE1701EB96767A
:1003D000C6F38700CE1701EB9676B610A1EB860622
:1003E000B606350E764B9B6943F00103744EB3613C
:1003F0004FEAB63353F820300F26AE40B343714E68
:1004000046F82030334653F8203004FA05F61E43F0
:100410006C4B43F820606C4B1B6801268E403343C5
:10042000694E336002F0010343B1674B0C331B6824
:1004300001268E403343644E0C36336002F00203D3
:1004400043B1614B08331E6801238B401E435E4B52
:1004500008331E6070BD00B5002059490861C860AE
:100460001420486100208861C8610846006840F097
:1004700001000860084640685449084050494860F7
:1004800008460068524908404D490860084600681F
:1004900020F4802008600846406820F4FE00486090
:1004A0000020886000214FF00060FFF739FF00BD99
:1004B00010B540480830006840F004003D4908315C
:1004C00008603F48C06940F080503D49C8614148DC
:1004D000406840F480703F4948600846006840F03A
:1004E000040008600846006840F002000860FFF75A
:1004F0005FFE10BD3048001D2E49091D0860704781
:10050000014649062E4A926942F001022C4B9A613B
:100510002C4A083A526822F0E0622A4B083B5A60A3
:100520001A4652680A435A60704730B5044600259F
:10053000FFF791FF2248006840F4803020490860AE
:1005400000BF1F480068400C0028FAD04FF48060BC
:100550001B494860A01EC4B20846406840EA844077
:1005600048600846406840F4803048601A48006897
:1005700040F03200184908601148006840F080706F
:100580000F49086000BF0E480068400E0028FAD0EE
:100590000B48406840F002000949486005E00848FF
:1005A0004068C0F3870505F00305022DF7D130BD83
:1005B00080FFFF1F08ED00E00000FA0500E400E006
:1005C0000010024008000140000401400000FFF854
:1005D000FFFFF6FE0070004000200240014600BF11
:1005E000704700BF404A128802F04002002AF9D04A
:1005F000C2B23D4B1B1D1A8070473B49091D088044
:1006000000BF3949098801F040010029F9D070473D
:100610002DE9F05F05460E46300107F095F9814659
:10062000324905FB01F007F08FF98246494607F091
:1006300041F80746384607F04FF984B2204607F0E4
:1006400083F98346394607F0C4FA82464FF0834166
:1006500007F0C2F9814607F03FF980464FF6FF7078
:1006600000EA041404EB080084B22148806940F0D9
:1006700004001F4988610846806940F48040886111
:100680001C48006820F47F601A490860084600682A
:1006900040F40B6008601648C06840F4804014497C
:1006A000C8600846C06820F48040C8600E48083022
:1006B0000480001D008842F20C0108430A490C31F5
:1006C00008800846008840F480700880084600884A
:1006D00040F0200008800223252203210846FFF76E
:1006E00037FEBDE8F09F00000038014040420F0097
:1006F00000100240040801401548806940F00400E1
:10070000134988611348006820F00F001149086000
:100710000846006840F0030008600E480830006892
:1007200040F480700B490831086070470A49096835
:10073000491C094A1160814208D108490968C94326
:10074000074AC2F8A0110021034A11607047000057
:10075000001002400408014038000020A00121429E
:10076000000021421648806940F004001449886165
:100770001448006820F470001249086008460068B8
:1007800040F4000008600F480830006840F4005052
:100790000C490831086070470B48007838B10B48A5
:1007A000006820B9002008490870012070470748F8
:1007B0000068012801D1044908700020F6E7000014
:1007C00000100240040801403C0000203401214296
:1007D00010B50A461AB10123FE4C236002E0002343
:1007E000FC4C2360002114E00023FB4C236000F04C
:1007F00080031BB10123241D236003E00023F64C7A
:10080000241D23600123F44C23604306180E4B1C67
:10081000D9B20829E8DB0123EE4C236010BD30B5C6
:1008200000241CE004F1B001C8B20021FFF7D0FFA2
:1008300000210846FFF7CCFF00211020FFF7C8FF7A
:10084000002508E0E54901EBC501085D0121FFF73E
:10085000BFFF681CC5B2802DF4DB601CC4B2082C3D
:10086000E0DB30BD00B500218D20FFF7B1FF002196
:100870001420FFF7ADFF0021AF20FFF7A9FF00BD57
:1008800000B500218D20FFF7A3FF00211020FFF706
:100890009FFF0021AE20FFF79BFF00BD30B5002475
:1008A0000CE0002506E00020CC4901EBC50108550D
:1008B000681CC5B2802DF6DB601CC4B2082CF0DBCE
:1008C000FFF7ADFF30BDF0B5144600267F2801DCF0
:1008D0003F2900DDF0BD0B46CF1701EB5777FF1026
:1008E000C7F10707FAB2CF1701EB5777FF10A1EB5B
:1008F000C707FDB2C5F107070123BB40DEB24CB10B
:10090000B64B03EBC0039B5C3343B44F07EBC0070C
:10091000BB5408E0B14B03EBC0039B5CB343AF4F48
:1009200007EBC007BB5400BFD4E72DE9F04F80466A
:100930000C4615461E46A346A5F12000C5B2002769
:100940003EE00C2E07D105EB4500A54901EB8000E8
:1009500010F8079004E0A34800EB051010F807908A
:100960004FF0000A26E009F0800028B121464046F9
:10097000099AFFF7A8FF09E0099808B9012000E0EB
:100980000020024621464046FFF79DFF4FEA49609E
:100990004FEA1069601CC4B2A4EB0B00B04205D151
:1009A0005C4608F1010000F0FF0806E00AF10100D2
:1009B00000F0FF0ABAF1080FD5DB00BF781CC7B200
:1009C000B742BEDBBDE8F08F10B50246012000E063
:1009D00050430B1EA1F10104E1B2F9D110BD2DE984
:1009E000FF4F81B0074691461E460E9D4FF0000A0C
:1009F000002439E0301B401EC1B20A20FFF7E4FF9B
:100A0000B9FBF0F00A21B0FBF1F201FB1208BAF1D8
:100A1000000F16D1701EA04213DDB8F1000F0ED1E9
:100A20000120AB4605EBDB71491001FB047100901E
:100A3000C8B22B4620220299FFF777FF12E04FF051
:100A4000010A0120AB4605EBDB71491001FB047183
:100A50000090C8B208F13001CAB22B460299FFF7E4
:100A600064FF00BF601CC4B2B442C3DB05B0BDE884
:100A7000F08F78B505460E46144618E07A2D03DD52
:100A8000002506F11000C6B23A2E04DD002005460E
:100A90000646FFF703FF0120009022780C23314621
:100AA0002846FFF742FF05F10800C5B2641C207814
:100AB0000028E3D178BD10B54B48806940F00800AC
:100AC000494988614948006820F47F004749086027
:100AD0000846006840F4081008604348806940F008
:100AE0001000414988610846806940F00100886132
:100AF0003F48406820F07F403D49486008464068D4
:100B000040F0085048603B48006840F48070394924
:100B100008603548006A20F0010033490862364811
:100B2000008820F00100344908803248006820F431
:100B300080703049086000202649091D0860642043
:100B4000FFF7CEFB01202D49C1F8BC010021AE20EA
:100B5000FFF73EFE0021D520FFF73AFE002150208E
:100B6000FFF736FE0021A820FFF732FE00213F20CC
:100B7000FFF72EFE0021D320FFF72AFE00210846B2
:100B8000FFF726FE00214020FFF722FE00218D20E6
:100B9000FFF71EFE00211420FFF71AFE002120207F
:100BA000FFF716FE00210220FFF712FE0021A12010
:100BB000FFF70EFE0021C020FFF70AFE0021DA2019
:100BC000FFF706FE00211220FFF702FE0021812020
:100BD00016E00000B8012242B08121420802002044
:100BE000C27D00083682000800100240040C01405B
:100BF0000010014000700040306C004000002242B4
:100C0000FFF7E6FD0021EF20FFF7E2FD0021D920EC
:100C1000FFF7DEFD0021F120FFF7DAFD0021DB20E8
:100C2000FFF7D6FD00213020FFF7D2FD0021A420E0
:100C3000FFF7CEFD0021A620FFF7CAFD0021AF205F
:100C4000FFF7C6FDFFF72AFE10BD000070B5054690
:100C50000C463548806940F4006033498861334868
:100C60000580001F048031482038008840F00100D2
:100C70002E49203908800846008840F0400008804E
:100C80002A482C38008840F0010028492C39088077
:100C90000223192203210120FFF75AFB70BD70B512
:100CA00004460D462048C06940F001001E49C86155
:100CB0000846806940F0040088611D48006820F4FF
:100CC0007F401B4908600846006840F40240086005
:100CD000C80484850585808B40F48070C9048883AE
:100CE0000846808B88830846808B88830846008C62
:100CF00008840846008C40F48050088408468089A7
:100D000040F0100088810846808940F00100888109
:100D10000846008840F00100088001231C220321BE
:100D20001846FFF715FB70BD001002402C2C014047
:100D3000000801402F48806940F008002D49886173
:100D40002D48006880B22C490860084600682B498D
:100D5000084329490860704700B503460A46FFF773
:100D6000E9FF2448C06940F004002249C8610846F0
:100D7000806940F0080088611F48001D006820F06D
:100D8000FF001D49091D08600846006840F0BB00CF
:100D900008601B480380001F028019481038008833
:100DA00040F4C0401649103908800846008840F0D9
:100DB000600008800846008840F40060088008460B
:100DC000008840F008000880081D008840F480502A
:100DD000091D08800846008840F480700880C81308
:100DE00007492C3908800846008840F00100088037
:100DF00000BD000000100240000C01400000222253
:100E00002C0800404F48C06940F001004D49C861BE
:100E10000846806940F0040088614B48006820F073
:100E2000FF00494908600846006840F04400086037
:100E30000020C90408854FF6FE7088850846008B9F
:100E400040F0010008830846008B40F4807008835E
:100E50000846008C08840846008C088408460089EF
:100E600040F0030008810846008840F00100088037
:100E700070473448C06940F002003249C8610846F2
:100E8000806940F0040088612F48006820F07F40AE
:100E90002D4908600846006840F08840086000203E
:100EA0002A4908804FF6FE70091D0880274810382F
:100EB000008840F001002549103908800846008864
:100EC00040F4807008802148083800881F4908399C
:100ED00008800846008808801C482038008840F0B8
:100EE00003001A492039088018482838008840F043
:100EF000010016492839088070470146022904D0AC
:100F000003290BD0042919D111E04FF08042928CB3
:100F100010B200224FF080439A8411E00B4A121F56
:100F2000128810B20022094B1B1F1A8008E0084AE1
:100F3000128810B20022064B1A8001E0002000BF88
:100F400000BF704700100240000801402804004024
:100F500024080040F748806940F00800F54988619E
:100F6000F548006820F47F40F349086008460068AF
:100F700040F44C500860704710B5EF48006820F40A
:100F80007040ED4908600846006840F44050086031
:100F90000120EA490860EA48D0F82C0108B900208D
:100FA00010BD0120E549091F0860FFF77DF9002009
:100FB000E349C1F8AC01E1488038006808B100207D
:100FC000EEE70120FFF770F90020DC49091F0860F7
:100FD0000120E5E710B5D848006820F47040D649F4
:100FE00008600846006840F4405008600020D3497B
:100FF000091F0860D249C1F8AC010120FFF754F97C
:101000000120CE49091F0860CD49C1F8AC01FFF7A6
:101010004BF910BD10B50024C748006820F470409B
:10102000C54908600846006840F400400860012097
:10103000C2490860FFF738F90120C149C1F8A80189
:10104000FFF732F90AE0601CC4B2322C03DDFFF76F
:10105000C1FF002010BD0120FFF726F9B7488038F6
:1010600000680028EFD1B549091F08600120F1E7A9
:1010700010B50020B149091F0860AF48006820F48E
:101080007040AD4908600846006840F44050086070
:101090000020AB49C1F8AC010120FFF705F90120A0
:1010A000A649091F0860FFF7FFF80020A449C1F80E
:1010B000A80110BD10B50020A049091F08609E4876
:1010C000006820F470409C4908600846006840F4BD
:1010D0004050086001209A49C1F8AC01FFF7E4F8DC
:1010E00001209649091F0860FFF7DEF800209449A7
:1010F000C1F8A80110BD70B504468F48006820F4FF
:1011000070408D4908600846006840F4405008600F
:1011100000208A49091F0860002516E0E009874978
:1011200008606006040E0120FFF7BEF80120844924
:10113000C1F8A801FFF7B8F800208049091F08602E
:101140000120FFF7B1F8681CC5B2082DE6DB70BDC1
:101150002DE9F04105460E4617469846FFF70CFF6D
:1011600010B90120BDE8F0816906080EFFF7C3FF42
:10117000FFF750FF18B9FFF72DFF0120F2E73046C7
:10118000FFF7B9FFFFF746FF00240BE018F8040053
:10119000FFF7B1FFFFF73EFF18B9FFF71BFF002075
:1011A000E0E7641CBC42F1DBFFF714FF0020D9E745
:1011B00070B5054600246048006820F470405E4920
:1011C00008600846006840F400400860002617E008
:1011D00000205A49091F08600220FFF765F8012026
:1011E0005749C1F8A8016006040E544880380068C9
:1011F00008B1601CC4B20220FFF756F8701CC6B2DA
:10120000082EE5DB15B1FFF733FF01E0FFF752FFD2
:10121000204670BD2DE9F04106460F4614461D4696
:10122000FFF7AAFE10B90120BDE8F0817106080E93
:10123000FFF761FFFFF7EEFE18B9FFF7CBFE0120C5
:10124000F2E73846FFF757FFFFF7E4FEFFF794FE9B
:10125000012101EB4601C8B2FFF74DFFFFF7DAFEAF
:101260000DE0012C04D10020FFF7A2FF287003E05D
:101270000120FFF79DFF28706D1C601EC4B2002C7A
:10128000EFD1FFF7A7FE0020CEE770B505460E466A
:101290000024FFF771FE2846FFF72DFF641CFFF7BF
:1012A000B9FE3046FFF727FF641CFFF7B3FEFFF7D8
:1012B00063FE691CC8B2FFF71EFF641CFFF7AAFE9D
:1012C0000020FFF775FF0446FFF784FE204670BD3F
:1012D0002DE9F0410746884615461E460024FFF7D3
:1012E0004BFE3846FFF707FFFFF794FE4046FFF737
:1012F00002FFFFF78FFEFFF73FFE791CC8B2FFF732
:10130000FAFEFFF787FE00BF0DE0681EA04204D082
:101310000120FFF74DFF305503E00020FFF748FFA5
:101320003055601CC4B2AC42EFDBFFF753FE2046E1
:10133000BDE8F08100100240040C0140AC81214264
:10134000008021422DE9F04180460D4616461F4699
:101350000024FFF711FE4046FFF7CDFEFFF75AFECF
:101360002846FFF7C8FEFFF755FE00BF06E0385DD0
:10137000FFF7C1FEFFF74EFE601CC4B2B442F6DBBD
:10138000FFF728FE0120BDE8F08170B505460E4646
:10139000144631462846FFF778FF2070012070BDC3
:1013A00037B504460D4602AB012229462046FFF719
:1013B000C9FF3EBD2DE9F8430746884614461D4641
:1013C000089E6A4641463846FFF7DFFF28B3601C97
:1013D000FF2101FA00F0C4F108012944491EFF224F
:1013E0000A41104300F0FF09C5F1080006FA00F0B9
:1013F000C6B2C4F1070006419DF8000000EA0900EA
:1014000000909DF80000304300909DF80020414678
:101410003846FFF7C5FFBDE8F8830020FBE7F8B5C5
:1014200006460F4614461D466A4639463046FFF7C3
:10143000ACFF2DB10120A0409DF80010084305E04D
:101440000120A0409DF8001021EA0000C0B20090E9
:101450009DF8002039463046FFF7A2FFF8BD000096
:101460002DE9F05F05460E46300106F06DFA814623
:10147000E64905FB01F006F067FA8246494606F0A8
:1014800019F90746384606F027FA84B2204606F0D6
:101490005BFA8346394606F09CFB82464FF0834157
:1014A00006F09AFA814606F017FA80464FF6FF706A
:1014B00000EA041404EB080084B2D548806940F0C7
:1014C0000400D34988610846C06940F40030C8610F
:1014D000D048006820F47F40CE4908600846006884
:1014E00040F40B400860CB480C30006840F004002A
:1014F000C8490C310860C648006940F40030C4494E
:1015000008610846006920F400300861C248048080
:10151000001D008842F20C010843BF49091D0880E4
:101520000846008840F4807008800846008840F033
:10153000200008800223262203210846FEF708FF28
:10154000BDE8F09FB4480838008800F0200000286B
:1015500064D0B148001F0088B04908600846007890
:10156000AF490870AD480068012809D10020AD4995
:101570000870AD490870AD490870AD49087046E083
:10158000A648006802280AD10120A6490870002058
:10159000A5490870A5490870A549087037E09F481B
:1015A000006803280BD100209E49087001209E4945
:1015B000087000209D4908709D49087027E09748F1
:1015C000006804280AD100209649087096490870DE
:1015D0009649087001209649087018E08F48006805
:1015E00005280BD100208F4908708F490870012011
:1015F0008E49087000208E49087008E00020894953
:1016000008708949087089490870894908708448B8
:101610004078834988700846007848707047817820
:10162000844A1160C178844A1160704783490978FF
:1016300081B9AA280ED181490978491C7F4A1170C5
:101640000021784A1170784A1170784A1170784AEE
:101650001170C3E079490978012907D1FF2805D124
:1016600076490978491C754A1170B7E073490978C1
:10167000022923D102280BD10321714A11706F492D
:101680000978491C6D4A117001216E4A1170A5E05C
:1016900003280BD104216A4A117068490978491C52
:1016A000664A11700221674A117097E00021634A6F
:1016B0001170644A1170624A11708FE05F490978B5
:1016C000032924DB5E490978C91C5C4A12789142DF
:1016D0001DDD5D4909685A4A127891420DDA5B496D
:1016E000594A1268885455490978491C534A11705F
:1016F00055490968491C544A116053490968504AC0
:10170000127891426AD100214F4A116066E04C493B
:101710000978C91C494A1278914207D1FF2805D19E
:1017200046490978491C454A117057E044490978EF
:10173000091D424A127891423ED1AA283CD100218B
:10174000384A1170384A11700121384A117000214D
:10175000374A11703B49097801290CD13B49097876
:101760003B4A1160394949783A4A116037498978CA
:10177000394A116018E033490978022914D13349F4
:101780004978364A116031490978126801EB022123
:10179000324A11602D49C97851602C4989785268C4
:1017A00001EB02212D4A51600021244A1170254A83
:1017B0001170234A117011E001211A4A11700021A1
:1017C000194A1170194A1170194A11701B4A117087
:1017D0001C4A11701A4A11701B4A11607047204848
:1017E000008800F0200078B100201D49091D0988FB
:1017F000C8B20949091F088000BF1949098801F0CA
:1018000040010029F9D000BF7047000040420F009E
:10181000001002400008014008440040640000201D
:1018200040000020010000200200002003000020F2
:1018300004000020A0000020A40000206800002078
:10184000690000206A000020700000206B0000206A
:10185000580000205C0000206000002050000020A4
:10186000003801400146002901DA484200E00846FC
:10187000704700B503460A46002B07DD0120FE49EC
:1018800008600020FD49C1F8940106E00020FA49F3
:1018900008600120F949C1F894011846FFF7E2FFFA
:1018A000F7490880002A08DA0120F3490831086066
:1018B0000020F249C1F89C0107E00020EE49083100
:1018C00008600120ED49C1F89C011046FFF7CAFFEE
:1018D000EB49091D088000BD41F27C50E9490968C7
:1018E0004242914202DA4142E64A1160E549096802
:1018F000814201DDE3490860E349096842429142BF
:1019000002DA4142E04A1160DF490968814201DDA3
:10191000DD490860704730B502460020DB4B1B688C
:10192000DB4C2360002A01DA02F5B4728B1AD74C23
:10193000236023461B68B42B05DD23461B68A3F5F3
:10194000B47323600AE0D14B1B6813F1B40F05DABE
:10195000CE4B1B6803F5B473CC4C2360CD4B1B6896
:10196000CA4C24686343C94C2468C94D2D68641B64
:10197000C94D2D6805FB0430642800DD642030BDAE
:101980002DE9F0410446012C7ED04621D020FFF7FE
:101990007CFC06464521D020FFF777FC06EB0025AE
:1019A000284605F0B9FFBD4908604821D020FFF75F
:1019B0006CFC06464721D020FFF767FC06EB0025AC
:1019C000284605F0A9FFB64908603C21D020FFF762
:1019D0005CFC06463B21D020FFF757FC06EB0025B8
:1019E000284605F099FFAF4908604021D020FFF755
:1019F0004CFC06463F21D020FFF747FC06EB0025B4
:101A0000284605F089FFA84908604FF08E41A34899
:101A1000006806F0ADF807D24FF08F419F4800688C
:101A200006F0E2F89D4908604FF08E419C4800683E
:101A300006F09EF807D24FF08F419948006806F0F3
:101A4000D3F8974908604FF08E419648006806F039
:101A50008FF807D24FF08F419248006806F0C4F823
:101A6000904908604FF08E418F48006806F080F87A
:101A700007D24FF08F418C48006806F0B5F88A49CC
:101A800008608648006800E03FE080F00040874939
:101A900008608248006805F073FD05464FF0663225
:101AA000834B05F0B9F8074604F0C8FF7B4908608E
:101AB00080480078022809D17948006880F0004504
:101AC00029467948006803F0E5F90CE07948007888
:101AD000032808D17148006880F0004529467648FF
:101AE000006803F0EEFA75480068754908606C48B4
:101AF000006805F045FD0546724A734B05F066FA2D
:101B0000074604F09BFF71490860BDE8F0812DE9AC
:101B1000F05F4FF0000A6E48008800F001000028D6
:101B20007ED06B48008820F0010069490880694830
:101B3000007808B9012000E00020664908700846D6
:101B40000078012808D103F097FD5A480078FFF784
:101B500017FF0020BDE8F09F56480078FFF710FF00
:101B600003F08AFD0220FFF7C8F95B4908600320F3
:101B7000FFF7C3F95949086059480068082879D126
:101B80000020574908605448006805F0CCF9044625
:101B9000544A554B05F01AFA064604F04FFF5349D4
:101BA00008604E48006805F0BEF904464D4A4E4BA9
:101BB00005F00CFA064604F041FF4D4908604FF06D
:101BC00080414A48006805F007FF834605F0D8FCCD
:101BD0008046484A484B05F0F9F90646474A484BC3
:101BE00005F0F4F9044604F029FF464908604FF077
:101BF00080413F48006805F0EFFE834605F0C0FCD9
:101C000006463C4A3C4B05F0E1F904463B4A3C4B56
:101C100005F0DCF9804604F011FF3B49086000E064
:101C200044E1384801683848006805F0D5FC804632
:101C300005F0A6FC06460022344B05F0C7F9044621
:101C400004F0FCFE3249086008460068314908602B
:101C50001E4800684860FA202F49088000BF2E48BF
:101C6000001F008800F040000028F8D000202B4919
:101C7000086068E076E00000908121420080214207
:101C80003C08004010000020140000201401002037
:101C900010010020A0000020A4000020B4000020BB
:101CA000B8000020AC000020B0000020240000207C
:101CB0006666304000000020A80000207C01002063
:101CC00020000020D508FD4CBD6E513F28000020AB
:101CD000102C014000010020080000200C00002012
:101CE0009C000020FCA9F1D24D62603FC40000209E
:101CF000C8000020F1D4C853FB2109409A99999952
:101D00009999B93FD0000020D40000200000E03FA6
:101D1000CC0000200401002004380140980000207D
:101D2000F648F7490968405CF649088000BFF54865
:101D3000001F008800F040000028F8D0F04800683C
:101D4000401CEF490860EE4800680828E8DBAF2037
:101D5000EC49088000BFEB48001F008800F04000FD
:101D60000028F8D0E8480068401CE7490860E748C8
:101D70000068E7490860E74800684860E649E748C6
:101D8000006805F0F5FE74D86420FEF7CFFCE44847
:101D90000078012822D1E3480068012808D1E248F0
:101DA000006805F07DFDE14908600020DD4908601C
:101DB000DD48006805F074FD0446DC4801682046F3
:101DC000FFF7A9FD8246DA4800885044D9490860E7
:101DD000D7480088A0EB0A00D7490860D0480078AF
:101DE00080B9D648007868B9D548007850B9D54848
:101DF000007838B90020CF490860CF490860012039
:101E0000C8490860C848006805F04AFDCE49086026
:101E1000CC480078012808D1C24908600020C54993
:101E2000086041F22A20C4490860C54800780128AA
:101E300008D1BC49086041F22A20BE490860002050
:101E4000BD490860BD480078012806D1B549086041
:101E5000BE48B8490860B8490860FFF73DFDBC4876
:101E60000068012806D1B4480168B2480068FFF74D
:101E700000FD13E00020AF490860AF480068B54995
:101E800008600020AC49086008460168A94800685D
:101E9000FFF7EFFCAF480068A74908604FF07E519C
:101EA0009E48006805F098FB9C490860002051E6B8
:101EB0002DE9F84F05460C46A74E4FF07E57A7492F
:101EC000284605F091FE00903946204605F084FD35
:101ED00082463046009905F07FFD8346514605F065
:101EE0007BFB814605F0DCFC80464046BDE8F88F70
:101EF0002DE9FE4F05460E461746002481E098481E
:101F000050F82400974941F82400974850F82400DD
:101F1000934941F8240055F8241056F82420881AD3
:101F200005F0FAFC904941F824008D4850F824103F
:101F30004FF0804005F050FD00908B4850F8241081
:101F4000009805F046FE8346864850F8241058460F
:101F500005F042FB82468548006805F0DDFC5146ED
:101F6000019005F039FD81468148006805F0D4FCF8
:101F700001907D4850F82410019805F02DFD82460F
:101F8000774A52F82410784A52F8240005F02CFEC3
:101F900001907848006805F0BFFC0090019905F0B9
:101FA0001BFD8346514605F017FB4946029005F09C
:101FB00013FB8046704850F82410404605F00CFB97
:101FC0006D4941F8240051F824006C4905F0D0FD1A
:101FD00004D26A48684941F824000AE0664951F889
:101FE0002400674905F0C4FC03D26548624941F802
:101FF0002400614951F8240005F052FC47F8240000
:10200000641C022CFFF67BAFBDE8FE8F2DE9F84F74
:102010000646894615465B480078582191FBF0F743
:10202000384605F079FC0446DFF85CA14FF0000B60
:1020300043480078012803D04248007801283BD16A
:102040004FF07E515148006805F0C6FA4F490746E7
:1020500008604FF07E5105F0EFFB0ED14946304647
:1020600005F0BAFA009005F01BFC8046FFF7FAFB7A
:10207000074605F051FC4649086045480168454857
:1020800005F018FB444908600846006805F078FA36
:1020900007464FF03332414B04F05CFF02D2404818
:1020A0003D4908603F493C48006805F061FD0BD29E
:1020B0003C483949086007E03B4837490860002040
:1020C00032490860324908601D480078012808D16B
:1020D000314801683548006805F086FD33490860DD
:1020E00069E018480078012862D12B4801682F4820
:1020F000006805F071FA2D4908605CE004010020D9
:1021000098000020043801409C00002008000020B6
:10211000DC0000200C00002000004844FC000020EF
:102120000100002094000020E4010020880000202D
:102130000C010020100000201400002002000020EC
:10214000030000200400002080000020D6EDFFFFE7
:10215000340121428C000020000096430000C04062
:10216000280100203001002020010020F400002080
:10217000F0000020EC000020180100200080BB458A
:102180000080BBC505000020000028424801002057
:102190004001002000004842440100203333E33F67
:1021A0009A99193F000040406666663F380100205A
:1021B00000202F49086021462D48006805F0D8FC12
:1021C00001D22B48046084F0004729480168384652
:1021D00005F0CEFC03D284F0004025490860254874
:1021E0000078012803D024480078012802D14FF05C
:1021F0007E5B01E04FF0000B5946284605F0ECFBF2
:1022000000901B48006880F000485146404605F0A9
:10221000E3FB0746009905F0E7FC1849086008460B
:10222000006805F03DFBBDE8F88F70B505460E4629
:102230001349284605F09CFB08D31249284605F0AF
:1022400097FC03D31048007801280DD10124002009
:102250000E4908600E49C1F890010C49091D08603B
:102260000B49C1F89C0100E00024204670BD00002D
:102270003801002001000020020000203C01002065
:10228000000020C20000204206000020948121426C
:102290000080214238B50446FB4890F82400C0B1C4
:1022A00014B10220009001E000200090F64A12686C
:1022B000D17BF54A526810786B460122FEF748FF41
:1022C00010B14FF0FF3038BD9DF80010EE4841745A
:1022D00023E0ED48807A10B94FF0FF30F3E724B1E6
:1022E000E948407C08B10020EDE714B101200090DE
:1022F00001E000200090E44A1268D17BE24A526873
:1023000010786B460122FEF723FF10B14FF0FF302B
:10231000D9E79DF80010DC4841740020D3E738B5B8
:10232000002419E0D8480068C07AA04204D0D648FA
:102330000068407DA04200D10CE0D349496808788C
:102340006B4601222146FEF765FF10B14FF0FF30CA
:1023500038BD00BF601CC4B2CB4840680079A042C1
:10236000E0DC0020F4E770B504460D46C64800687E
:10237000C07AA04204D0C4480068407DA04202D187
:102380004FF0FF3070BDC04840680079A04202DCC9
:102390004FF0FF30F6E7BC49496808782B46012228
:1023A0002146FEF737FFEDE738B50446B64890F80A
:1023B0002300A04201D1002038BD14B1302000908C
:1023C00001E000200090B048807C20B19DF8000022
:1023D00040F002000090AC4890F8220020B19DF837
:1023E000000040F080000090A74A1268117DA64AC4
:1023F000526810786B460122FEF7AAFE10B14FF02A
:10240000FF30D9E7A04880F823400020D4E738B552
:10241000044604F0700010B10120009005E014B1F2
:102420000020009001E040200090974A1268917CC3
:10243000954A526810786B460122FEF789FE20B15A
:10244000002191488172481E38BD9DF8000020F09F
:1024500040018D4801730020009004F0400020B935
:102460009DF8000040F00400009004F0200020B926
:102470009DF8000040F00200009004F0100020B928
:102480009DF8000040F00100009004F0080020B921
:102490009DF8000040F0380000907B4A1268D17C23
:1024A000794A526810786B460122FEF751FE20B13E
:1024B000002175488172481EC6E724B1082C02D05D
:1024C0000020FFF771FF70488472002101753220EF
:1024D000FDF706FF0020B7E738B504466A48807C60
:1024E000A04201D1002038BD002C46D0664A1268B7
:1024F0001179654A526810786B460122FEF78AFE10
:1025000010B14FF0FF30EEE79DF8000020F0200002
:1025100000905D4A126811795B4A526810786B46E8
:102520000122FEF715FE10B14FF0FF30DBE703206C
:10253000FDF7D6FE02200090534890F8220020B10B
:102540009DF8000040F0800000904F4890F8230074
:1025500020B19DF8000040F0300000904A4A126817
:10256000117D494A526810786B460122FEF7F0FD52
:10257000002851D04FF0FF30B5E7434A1268117977
:10258000414A526810786B460122FEF743FE10B1B3
:102590004FF0FF30A7E73C48807A00F0010028B1F7
:1025A0009DF8000040F02000009004E09DF800003D
:1025B00020F020000090344A12681179324A5268A3
:1025C00010786B460122FEF7C3FD10B14FF0FF30CB
:1025D00089E70320FDF784FE2B4890F8220010B114
:1025E0008020009001E000200090274890F8230010
:1025F00020B19DF8000040F030000090224A12689F
:10260000117D214A526810786B460122FEF7A0FD29
:1026100010B14FF0FF3066E71B488474002062E77A
:1026200008B51948807A10B94FF0FF3008BD002076
:102630000090154A1268D17B134A526810786B4695
:102640000122FEF785FD10B14FF0FF30EEE70E4A94
:10265000126851790C4A526810786B460122FEF7D5
:1026600077FD10B14FF0FF30E0E7074A12681179AB
:10267000054A526810786B460122FEF769FD28B1C1
:102680004FF0FF30D2E700004C010020F74890F8EF
:102690002400002850D00C200090F44A12681179D0
:1026A000F24A526810786B460122FEF751FD10B1D4
:1026B0004FF0FF30BAE7C0200090EC48807A00F07D
:1026C000010020B19DF8000040F020000090E74A92
:1026D00012681179E54A526810786B460122FEF7BC
:1026E00037FD10B14FF0FF30A0E7E048407C10B15B
:1026F0000220009001E000200090DC4A1268D17BAB
:10270000DA4A526810786B460122FEF721FD10B1BB
:102710004FF0FF308AE700200090D44A12685179C8
:10272000D24A526810786B460122FEF711FD00284C
:1027300052D04FF0FF3079E704200090CB4A126866
:102740001179CA4A526810786B460122FEF700FDE3
:1027500010B14FF0FF3069E7C448807C20B9C3480E
:10276000807A00F0010010B94020009001E0602064
:102770000090BE4A12681179BC4A526810786B46C4
:102780000122FEF7E5FC10B14FF0FF304EE7B748ED
:10279000407C10B10120009001E000200090B34A7D
:1027A0001268D17BB14A526810786B460122FEF75D
:1027B000CFFC10B14FF0FF3038E7AC4A12685179C6
:1027C000AA4A52681078A94B10330122FEF7C0FCC8
:1027D00010B14FF0FF3029E7002027E770B504461D
:1027E000002624F00104A14890F8240008B100203C
:1027F00070BD9E48807A10B94FF0FF30F8E79B48D3
:10280000057C807A2040994908740846007CA042E3
:1028100002D04FF0FF3600E0002614B99348007D47
:1028200018B10120FFF736FD02E00020FFF732FD6E
:102830003CB1FFF7F5FE20B18C4805744FF0FF3036
:10284000D6E73046D4E738B504468848807A10B9D0
:102850004FF0FF3038BDBC2C02DB0120009015E0AA
:10286000622C02DB0220009010E02A2C02DB032005
:1028700000900BE0142C02DB0420009006E00A2CF0
:1028800002DB0520009001E0062000907748C07A26
:102890009DF80010884201D10020DBE7734A1268DE
:1028A0009178724A526810786B460122FEF750FC0C
:1028B00010B14FF0FF30CDE79DF800106B48C172AA
:1028C0000020C7E738B50446282C02DD4FF0FF3062
:1028D00038BDDCB90020FFF767FD00208DF800004F
:1028E00007208DF80100614A1268917C5F4A5268A6
:1028F00010786B460222FEF72BFC10B14FF0FF3030
:10290000E6E70021594801750020E1E70120FFF7C3
:102910004BFD20208DF80000012C06D100208DF801
:1029200001000520FFF78FFF17E0052C06DC0120D2
:102930008DF801000520FFF786FF0EE0142C06DC61
:1029400002208DF801000A20FFF77DFF05E003203B
:102950008DF801001420FFF776FF9DF80100072194
:1029600001EB8010C0B28DF80100404A1268917CE2
:102970003E4A526810786B460222FEF7E9FB10B11E
:102980004FF0FF30A4E7082138488172002101731D
:10299000012101750020FFF721FF002098E738B5DD
:1029A00004463248807A10B94FF0FF3038BD2F48C6
:1029B00090F8240010B14FF0FF30F7E72B48007D6E
:1029C00050B134B1282C04DCE0B2FFF77BFF0020CB
:1029D000ECE70020FFF776FF042C01DA042404E082
:1029E000B4F57A7F01DD4FF47A744FF47A7090FB7E
:1029F000F4F0401EC0B200901C4A126851781B4A85
:102A0000526810786B460122FEF7A2FB10B14FF01E
:102A1000FF30CBE79DF80000401C4FF47A7191FB2A
:102A2000F0F081B21148C1810146C9894810FFF711
:102A30000AFF0020BAE738B504460C48807A10B97E
:102A40004FF0FF3038BD022C06D0042C07D0082CE4
:102A500008D0102C0FD10BE0002000900EE00820D1
:102A600000900BE01020009008E000004C010020D6
:102A70001820009002E04FF0FF30E3E700BFF94874
:102A8000407A9DF80010B0EBE10F01D10020D9E7AA
:102A9000F44A1268D179F34A526810786B460122E1
:102AA000FEF756FB10B14FF0FF30CBE79DF800006A
:102AB000C110EC4841720020C4E738B50446E9482B
:102AC000807A10B94FF0FF3038BDFA2C09D0B4F538
:102AD000FA7F09D0B4F57A7F09D0B4F5FA6F0CD13A
:102AE00008E0002000900BE00820009008E0102093
:102AF000009005E01820009002E04FF0FF30E3E77F
:102B000000BFD848007A9DF80010B0EBE10F01D16A
:102B10000020D9E7D34A12689179D24A52681078D6
:102B20006B460122FEF714FB10B14FF0FF30CBE7EC
:102B30009DF80000C010CB4908720020C4E71CB506
:102B400080208DF80000C74A1268917CC54A5268FF
:102B500010786B460122FEF7FBFA10B14FF0FF3000
:102B60001CBD6420FDF7BCFB00208DF80000BD4AB1
:102B70001268917CBB4A526810786B460122FEF7BE
:102B8000E7FA10B14FF0FF30EAE7B64A1268917DDC
:102B9000B44A526810786B460622FEF73BFB10B130
:102BA0004FF0FF30DCE79DF80500C007400F9DF8AF
:102BB000031001F0010140EA41009DF8011001F00D
:102BC000010140EA010494B1012C03D10121A5487F
:102BD000C17431E0022C03D10021A248C1742BE062
:102BE0002146A1A003F042F94FF0FF30B8E79D4A1B
:102BF0001268D1789B4A526810786B460122FEF722
:102C000009FB10B14FF0FF30AAE79DF8000000F07B
:102C10000F042CB99E4803F029F94FF0FF309FE7CD
:102C2000042C06D19BA003F021F901218D48C17429
:102C300002E000218B48C174FF218A488172FF2085
:102C400088490872FF2187484172C1724FF6FF71AF
:102C5000C181FF21017481740121017380F8221068
:102C6000002180F823104175017516300160416024
:102C70008160163880F8241080F82510C1844FF444
:102C8000FA60FFF71AFF10B14FF0FF3068E702203B
:102C9000FFF7D1FE10B14FF0FF3061E72A20FFF7B8
:102CA000D2FD10B14FF0FF305AE73220FFF777FE28
:102CB00010B14FF0FF3053E70020FFF78FFD10B148
:102CC0004FF0FF304CE70020FFF706FC10B14FF04B
:102CD000FF3045E70020FFF79AFB002040E77047F0
:102CE0007CB504460D465F48807A00F0700010B94C
:102CF0004FF0FF307CBD5B4A1268117B594A526825
:102D000010786B460622FEF785FA10B14FF0FF30BF
:102D1000F0E79DF801009DF8001040EA012000B2A4
:102D200020809DF803009DF8021040EA012000B2C7
:102D300060809DF805009DF8041040EA012000B273
:102D4000A08015B12846FFF7CAFF0020D2E77CB566
:102D500004460D464348807A00F0080010B94FF051
:102D6000FF307CBD3F4A1268517B3E4A5268107862
:102D70006B460622FEF74EFA10B14FF0FF30F0E737
:102D80009DF801009DF8001040EA012000B220806B
:102D90009DF803009DF8021040EA012000B2608017
:102DA0009DF805009DF8041040EA012000B2A080C3
:102DB00015B12846FFF793FF0020D2E72DE9FE4F1B
:102DC00005460C462748807A18B94FF0FF30BDE819
:102DD000FE8F244A1268917B224A5268107802AB17
:102DE0000222FEF717FA10B14FF0FF30EFE79DF81F
:102DF00009009DF8081040EA012006B214B12046EF
:102E0000FFF76DFF17494968C88804F09DFD154913
:102E100001904968B1F9080004F07EFD8346304610
:102E200004F07AFD5946009004F0DEFE82460199D6
:102E300004F040FC81461F4904F0CEFB80464FF071
:102E40008F4104F0C9FD074604F02AFD28600020E8
:102E5000BDE710B588B004461CB94FF0FF3008B08C
:102E600010BD29E04C010020556E737570706F72B3
:102E700074656420736F6674776172652070726F19
:102E800064756374207265762025642E0A00000044
:102E90006095000848616C662073656E736974699B
:102EA00076697479207061727420666F756E642E15
:102EB0000D0A000000000C42206830B9606820B99B
:102EC000A06810B9002008B010BDFA494968087818
:102ED00006AB03221146FEF79DF910B14FF0FF300B
:102EE000F1E79DF81800082101EB201000F00F0019
:102EF000ADF800009DF8190001EB201000F00F0064
:102F0000ADF802009DF81A0001EB201000F00F0050
:102F1000ADF8040020684100BDF90000403091FB8D
:102F2000F0F000B2ADF8100060684100BDF9020099
:102F3000403091FBF0F000B2ADF81200A068410003
:102F4000BDF90400403091FBF0F000B2ADF8140080
:102F5000D8494968087806AB06221146FEF75AF9A7
:102F600010B14FF0FF30AEE79DF819009DF8181032
:102F700040EA012000B2ADF808009DF81B009DF862
:102F80001A1040EA012000B2ADF80A009DF81D00B9
:102F90009DF81C1040EA012000B2ADF80C00BDF80D
:102FA0001000BDF80810084400B2ADF81000BDF8DC
:102FB0001200BDF80A10084400B2ADF81200BDF8C6
:102FC0001400BDF80C10084400B2ADF81400BDF8B0
:102FD0001000000A8DF81800BDF81000C0B28DF87E
:102FE0001900BDF81200000A8DF81A00BDF8120091
:102FF000C0B28DF81B00BDF81400000A8DF81C004B
:10300000BDF81400C0B28DF81D00AA4949680878BF
:1030100006AB06221146FEF79BF810B14FF0FF30C9
:1030200051E700204FE70146A248007A30B101285D
:1030300007D0022809D003280FD10AE0FA2008801F
:103040000EE04FF4FA7008800AE04FF47A700880BE
:1030500006E04FF4FA60088002E00020088000BF1C
:1030600000BF0020704701469248407A30B10128E5
:1030700007D0022808D003280CD108E002200870ED
:103080000BE00420087008E00820087005E010201C
:10309000087002E04FF0FF30704700BF8548C07CE9
:1030A00018B108784006000E08700020F4E70146C9
:1030B0008048C07A082817D2DFE800F01704070A12
:1030C0000D101318BC20088013E06220088010E067
:1030D0002A2008800DE0142008800AE00A200880D9
:1030E00007E00520088004E000BF00BF0020088042
:1030F00000BF00BF0020704701466E4890F82400D2
:1031000010B14FF0FF3070476A48C0890880002036
:10311000F9E7014600200880401E704701464FF045
:10312000FF30704701466348007A30B1012807D06C
:10313000022808D003280CD108E05F4808600BE0A3
:103140005E48086008E05E48086005E05D48086089
:1031500002E04FF0FF30704700BF0020FBE7014660
:103160005448407A30B1012808D002280AD00328F8
:1031700010D10BE04FF4804008800EE041F69C70C7
:1031800008800AE04FF48050088006E04FF40060A9
:10319000088002E04FF0FF30704700BF4548C07C18
:1031A00010B10888401008800020F5E7014641482A
:1031B000007C08700020704701463E48807A10B1BC
:1031C0000120087001E0002008700020704738B529
:1031D00004463848807A10B94FF0FF3038BD354A80
:1031E0001268117C334A526810786B460222FEF74F
:1031F00011F810B14FF0FF30F0E79DF801009DF895
:10320000001040EA012000B220800020E6E72DE90E
:10321000FE4F0746884692461D46DDF830B0002630
:103220000024244890F8240010B1601EBDE8FE8FF1
:10323000002028701F48807A10B94FF0FF30F5E762
:103240001C48007C10B94FF0FF30EFE71948007CB4
:1032500000F0400008B1B01CC6B21648007C00F077
:10326000200008B1B01CC6B21248007C00F010006B
:1032700008B1B01CC6B20F48007C00F0080008B1CD
:10328000B01DC6B20B4A1268917A0A4A5268107889
:103290006B460222FDF7BEFF10B14FF0FF30C5E7CD
:1032A0009DF801009DF8001040EA0129B1450BDAB4
:1032B0000020BBE74C0100200000034300008342D4
:1032C0003333034233338341FC4840684088B9EBD1
:1032D000600F17DDF94A1268517CF84A526810787D
:1032E0006B460122FDF796FF10B14FF0FF309DE7CE
:1032F0009DF8000000F0100020B1FFF791F96FF089
:10330000010093E75046FFF7EAFCEC4A1268D17AD5
:10331000EA4A526810786B463246FDF77BFF10B1DF
:103320004FF0FF3082E799FBF6F0401E8BF800006B
:1033300000202870B4422AD0E048007C00F0080049
:1033400028B3601C1DF800001DF8041040EA01209D
:1033500000B2A8F80000E01C1DF80010A01C1DF829
:10336000000041EA002000B2A8F80200601D1DF82C
:103370000010201D1DF8000041EA002000B2A8F84E
:103380000400287840F008002870A01D84B2B442E0
:1033900013D0CA48007C00F0400070B1601C1DF8DA
:1033A00000001DF8041040EA012000B2388028789F
:1033B00040F040002870A01C84B2B44213D0BF4833
:1033C000007C00F0200070B1601C1DF800001DF8AA
:1033D000041040EA012000B27880287840F02000F4
:1033E0002870A01C84B2B44213D0B448007C00F012
:1033F000100070B1601C1DF800001DF8041040EAB8
:10340000012000B2B880287840F010002870A01C7D
:1034100084B200200AE7F8B504460F461646A748CE
:1034200090F8240010B94FF0FF30F8BDA348807A1F
:1034300010B94FF0FF30F8E7A04A1268917A9F4A1E
:10344000526810786B460222FDF7E4FE10B14FF08F
:10345000FF30EAE79DF801009DF8001040EA0125E1
:10346000A54203DA00203070401EDEE79348406832
:103470004088B5EB600F17DD904A1268517C8F4A87
:10348000526810786B460122FDF7C4FE10B14FF070
:10349000FF30CAE79DF8000000F0100020B1FFF7F0
:1034A000BFF86FF00100C0E7E2B2844B1B68D97A25
:1034B000824B5B6818783B46FDF7ACFE10B14FF0CD
:1034C000FF30B2E795FBF4F0401E30700020ACE70F
:1034D00001467A4880F82210002070477CB50546E6
:1034E00076494968087801AB04220D21FDF792FE68
:1034F00008B107207CBD9DF80700C0F301109DF8BE
:10350000041001F0E00140EAE1008DF800009DF8B0
:103510000700C0F381009DF8051001F0E00140EACA
:10352000E1008DF801009DF8070000F003009DF810
:10353000061001F0E00140EAE1008DF802000024ED
:103540001CE01DF8040018B9002045F8240013E021
:103550005B4845F8240006E055F82400594904F07A
:103560003BFA45F824001DF80400401EC0B20DF8D7
:1035700004000028F0D100BF601CC4B2032CE0DBC3
:103580000020B7E72DE9FE4F06460F4600256846A6
:10359000FFF7A4FF002442E056F8240057F8241057
:1035A000A0EB010ABAF1000F01DB514601E0CAF1BC
:1035B0000001084604F0B0F983464FF08F4104F053
:1035C00079F880465DF82400002104F035F916D022
:1035D0005DF82410404604F06DF882464FF07E51AD
:1035E00004F002FB814629F0004A3748416A504600
:1035F00004F0BEFA12D20120A04005430EE032488A
:10360000C169404604F0B4F905D32F48016A404629
:1036100004F0AEFA02D20120A0400543641C032C42
:10362000BADB2846BDE8FE8F2DE9FC5F06460F4653
:10363000002522494968087801AB03220D21FDF7D6
:10364000E9FD10B10720BDE8FC9F9DF8040000F0E3
:103650001F008DF804009DF8050000F01F008DF894
:1036600005009DF8060000F01F008DF806000024FC
:1036700062E056F8240057F82410A0EB010BBBF1D0
:10368000000F01DB594601E0CBF10001084604F0D0
:1036900043F94FF08F41009004F00CF8814601A8E7
:1036A000005DC0B30849086804F04EF983465946E6
:1036B000064803F0FFFF80460FE000004C010020A9
:1036C0007B14AE3E1D5A843F5088000800B04C4524
:1036D000FE49404604F080F9804601A8005D401E86
:1036E000C0B201A908550028F2D14146484603F06E
:1036F000E1FF83464FF07E5104F076FA82462AF0CD
:10370000004BF3488169584604F032FA13D2012085
:10371000A04005430FE0FFE7ED480169484604F08B
:1037200027F905D3EA484169484604F021FA02D254
:103730000120A0400543641C032C9ADB284682E745
:103740002DE9F04F87B005460C46914601208DF8D3
:10375000100000208DF81100DE4A1268917CDD4ACD
:103760005268107804AB0222FDF7F2FC20B14FF052
:10377000FF3007B0BDE8F08FC820FCF7B1FD002096
:103780008DF81000D34A1268D17BD24A5268107863
:1037900004AB0122FDF7DCFC10B14FF0FF30E8E78D
:1037A000CC4A12685179CB4A5268107804AB012296
:1037B000FDF7CEFC10B14FF0FF30DAE7C54A1268D2
:1037C000917CC44A5268107804AB0122FDF7C0FC1A
:1037D00010B14FF0FF30CCE7BE4A1268D17DBD4A30
:1037E0005268107804AB0122FDF7B2FC10B14FF023
:1037F000FF30BEE7B74A12681179B64A52681078AE
:1038000004AB0122FDF7A4FC10B14FF0FF30B0E78C
:103810000C208DF81000AF4A12681179AD4A526839
:10382000107804AB0122FDF793FC10B14FF0FF308C
:103830009FE70F20FCF754FDA648806A407A8DF878
:103840001000A44A12689178A24A5268107804AB1A
:103850000122FDF77DFC10B14FF0FF3089E79D4854
:10386000806A007A8DF810009A4A12685178994A55
:103870005268107804AB0122FDF76AFC10B14FF0DA
:10388000FF3076E7B9F1000F07D09248806A807A5E
:1038900040F0E0008DF8100004E08E48806A807AE5
:1038A0008DF810008B4A126891798A4A5268107814
:1038B00004AB0122FDF74CFC10B14FF0FF3058E78C
:1038C000B9F1000F07D08348806AC07A40F0E00069
:1038D0008DF8100003E07E48C07A8DF810007D4A14
:1038E0001268D1797B4A5268107804AB0122FDF747
:1038F0002FFC10B14FF0FF303BE7B9F1000F02D0C1
:10390000C820FCF7EDFC40208DF81000714A1268C9
:103910001179704A5268107804AB0122FDF718FC47
:1039200010B14FF0FF3024E778208DF81000694A7D
:1039300012685179674A5268107804AB0122FDF78A
:1039400007FC10B14FF0FF3013E761498889FCF79D
:10395000C7FC00208DF810005E4A126851795D4A5C
:103960005268107804AB0122FDF7F2FB10B14FF062
:10397000FF30FEE6574A1268917A564A526810782C
:1039800004AB0222FDF746FC10B14FF0FF30F0E629
:103990009DF811009DF8101040EA012B0C209BFBB4
:1039A000F0F0C6B20020A86068602860A060606087
:1039B0002060824665E0474A1268D17A454A5268DB
:1039C000107804AB0C22FDF725FC10B14FF0FF304E
:1039D000CFE69DF811009DF8101040EA012000B2DA
:1039E000ADF808009DF813009DF8121040EA012080
:1039F00000B2ADF80A009DF815009DF8141040EAD9
:103A0000012000B2ADF80C00BDF908102068084490
:103A10002060BDF90A10606808446060BDF90C10B0
:103A2000A0680844A0609DF817009DF8161040EAB1
:103A3000012000B2ADF800009DF819009DF81810A3
:103A400040EA012000B2ADF802009DF81B009DF88D
:103A50001A1040EA012000B2ADF80400BDF90010D0
:103A6000286808442860BDF9021068680844686046
:103A7000BDF90410A8680844A8600AF1010000F02C
:103A8000FF0AB24597DB1248D0F800C02868C1177A
:103A9000090441EA1041070462460023384602F057
:103AA000C0F932460023CDE9020102F0BAF92860DC
:103AB0000748D0F800C06868C117090441EA1041FE
:103AC000070462460023384606E0000054E3853FC1
:103AD000508800084C01002002F0A3F93246002370
:103AE000CDE9020102F09DF96860FE48D0F800C0FF
:103AF000A868C117090441EA10410704624600237F
:103B0000384602F08EF932460023CDE9020102F078
:103B100088F9A860F348D0F804C02168C8170004E9
:103B200040EA11480F04624600233846414602F03D
:103B300078F932460023CDE9020102F072F92060E3
:103B4000E848D0F804C06068C117090441EA104190
:103B5000070462460023384602F063F93246002328
:103B6000CDE9020102F05DF96060DE48D0F804C0E2
:103B7000A068C117090441EA104107046246002306
:103B8000384602F04EF932460023CDE9020102F038
:103B900048F9A060A068002804DDA068A0F5803086
:103BA000A06003E0A06800F58030A0600020E0E5A0
:103BB00038B50446CC4890F82400A04201D100203A
:103BC00038BD24B3C84890F8250010B94FF0FF3035
:103BD000F6E70020FEF75EFB0020FEF77DFCC24901
:103BE000C88CFEF7DCFE00200090BF4949680878C9
:103BF0006B4601222321FDF7ABFA0121BA4880F878
:103C000024100120FEF746FBFEF70AFD13E000201A
:103C1000FEF740FBB448007C0090B349496808783F
:103C20006B4601222321FDF793FA0021AE4880F86C
:103C30002410FEF7F5FC0020C2E72DE9F04F8DB00F
:103C400083460F4602200C90A74890F8240020B12C
:103C50000020FFF7ADFF012600E0002603A8FFF7D4
:103C6000E2F905A8FFF7FFF901A8FFF720FA02A87B
:103C7000FFF742FA9C4890F80AA004A8FFF796FACA
:103C8000002407E0002239465846FFF759FD00B9E5
:103C900002E0641C022CF5DB00BF022C01D10025E0
:103CA00028E0002407E0012206A909A8FFF748FD43
:103CB00000B902E0641C022CF5DB00BF022C01D12C
:103CC000002517E006A93846FFF75CFC00F0FF0866
:103CD00009A95846FFF7A8FC00F0FF090025B9F133
:103CE000000F01D145F00105B8F1000F01D145F0F9
:103CF000020500BFFF207C490872FF217A4841720B
:103D0000C1724FF6FF71C181FF21817201740121DF
:103D10000173BDF80C00FEF7D0FE9DF81400FEF70D
:103D20008AFEBDF80400FEF78EFDBDF80800FEF720
:103D300036FE5046FEF76BFB9DF81000FEF74EFD79
:103D400016B10120FFF734FF28460DB0BDE8F08F13
:103D5000F8B504460D46164616B94FF0FF30F8BDCB
:103D60006148807A10B94FF0FF30F8E720128DF8E3
:103D70000000E0B28DF801009DF8010028445A4986
:103D800049684989884202DD4FF0FF30E7E7564A2B
:103D90001268117E544A526810786B460222FDF771
:103DA000D7F910B14FF0FF30D9E7EAB24E4B1B689C
:103DB000597D4D4B5B6818783346FDF7C9F910B152
:103DC0004FF0FF30CBE70020C9E7F8B504460D46B9
:103DD000164616B94FF0FF30F8BD4348807A10B947
:103DE0004FF0FF30F8E720128DF80000E0B28DF8B8
:103DF00001009DF8010028443B49496849898842EF
:103E000002DD4FF0FF30E7E7374A1268117E364A8D
:103E1000526810786B460222FDF79AF910B14FF004
:103E2000FF30D9E7EAB2304B1B68597D2E4B5B68F7
:103E300018783346FDF7EEF910B14FF0FF30CBE7BD
:103E40000020C9E72DE9F04385B005460E469046AF
:103E50009946254890F8250020B14FF0FF3005B075
:103E6000BDE8F08316B94FF0FF30F8E7002423E0F7
:103E7000281B102801DD102000E0281B87B2321912
:103E800039462046FFF764FF10B14FF0FF30E6E7F8
:103E900001AA39462046FFF798FF10B14FF0FF30D6
:103EA000DDE730193A4601A902F05CF810B16FF075
:103EB0000100D4E7E01984B2AC42D9DB4FEA2820F4
:103EC0008DF8000008F0FF008DF80100064A126826
:103ED000917E054A526810786B460222FDF738F948
:103EE00038B103E0508800084C0100204FF0FF304B
:103EF000B5E701218A4880F82510A0F82690002017
:103F0000ADE70146864890F824000870002070470D
:103F100002464FF0FF30704701464FF0FF307047C8
:103F2000F8B505460F461446002C70D0B5F5FF5F76
:103F300001DDFF2605E0202D01DA012601E0C5F3B1
:103F4000471607B90127282C02DD4FF0FF30F8BDD6
:103F50007348407D28BB724890F8240038B1002097
:103F6000FFF726FE01216E4880F8201003E00021B3
:103F70006B4880F820106A481630FFF754F86848FC
:103F80001830FFF770F866481A30FFF790F8644869
:103F90001C30FFF7B1F86248817A81771F30FFF754
:103FA00005F90020FEF776F90020FEF78BFC0020D3
:103FB0008DF800005A4A12689178594A5268107870
:103FC0006B460122FDF7C4F810B14FF0FF30BEE799
:103FD00040208DF80000524A1268D17B504A526846
:103FE00010786B460122FDF7B3F800B165E08DF85B
:103FF00000608DF801704A4A1268117A484A526886
:1040000010786B460222FDF7A3F808B155E047E0AF
:104010000520FCF765F94248407A072101EBC00012
:10402000C0B28DF800003E4A1268D1793C4A52680D
:1040300010786B460122FDF78BF800B13DE020209F
:104040008DF80000012C03D100208DF801000EE056
:10405000052C03DC01208DF8010008E0142C03DCA2
:1040600002208DF8010002E003208DF801009DF888
:104070000100072101EB8010C0B28DF80100284A31
:104080001268917C264A526810786B460222FDF72E
:104090005FF800B111E0012121484175002056E789
:1040A0001F4A1632002103E0505C00B105E0491CB4
:1040B0000C29F9D34FF0FF3049E7FF201849087267
:1040C000FF2117484172C1724FF6FF71C181FF2174
:1040D00081720174012101730146887FFEF797F90F
:1040E0000F49C88AFEF7E9FC0D49087EFEF7A3FCDC
:1040F0000B49488BFEF7A7FB0949888BFEF74FFC5D
:104100000749C87FFEF76AFB054890F8200010B108
:104110000120FFF74DFD002101484175002016E701
:104120004C01002010B5C8234FF48062F74940F6D7
:10413000F630FFF787FE10BD10B586B00446F4A038
:1041400000680390F3A000680290F3A0006801905B
:10415000F2A00068009004F0030003A9085C8DF849
:10416000140003A8C4F3C101405C8DF8150003A836
:10417000C4F38111405C8DF8160004F0030002A91D
:10418000085C8DF8100002A8C4F3C101405C8DF8F2
:10419000110002A8C4F38111405C8DF8120005AA39
:1041A000032140F22640FFF7D3FD18B14FF0FF3056
:1041B00006B010BD04AA032140F22A40FFF7C8FD53
:1041C00010B14FF0FF30F3E701980590009804908C
:1041D00004F0040058B19DF8140040F001008DF87F
:1041E00014009DF8100040F001008DF8100004F05C
:1041F000200058B19DF8150040F001008DF8150021
:104200009DF8110040F001008DF8110004F4807059
:1042100058B19DF8160040F001008DF816009DF889
:10422000120040F001008DF8120005AA03214FF49E
:104230008860FFF78DFD10B14FF0FF30B8E704AA9A
:10424000032140F23140FFF783FD10B14FF0FF3002
:10425000AEE7B34804810020AAE71FB50446B04882
:10426000007A00F0030054F820000190AC48007A76
:1042700000F0040010B1019840420190A848007A73
:10428000C0F3C10054F820000290A548007A00F065
:10429000200010B1029840420290A148007AC0F379
:1042A000811054F8200003909D48008900F480702C
:1042B00010B10398404203909A49019880FB010194
:1042C000800F40EA810001909649029880FB01101E
:1042D000820042EA917002909249039880FB01109B
:1042E000820042EA917003900198000E8DF8000060
:1042F0000198000C8DF801000198000A8DF8020069
:104300000198C0B28DF803006A4604214FF474701E
:10431000FFF71EFD18B14FF0FF3004B010BD02983A
:10432000000E8DF800000298000C8DF80100029834
:10433000000A8DF802000298C0B28DF803006A46A8
:1043400004214FF47570FFF703FD10B14FF0FF30FB
:10435000E3E70398000E8DF800000398000C8DF839
:1043600001000398000A8DF802000398C0B28DF88E
:1043700003006A4604214FF47670FFF7E9FCCCE7AE
:1043800070B588B0064601A8FEF7E9FEBDF8040046
:104390000021C90341EA5045C4036148007A00F096
:1043A000030056F8200005905D48007A00F00400F4
:1043B00010B10598404205905948007AC0F3C100F9
:1043C00056F8200006905648007A00F0200010B100
:1043D0000698404206905248007AC0F3811056F881
:1043E000200007904E48008900F4807010B10798B3
:1043F000404207900598C117A0FB042301FB04313C
:1044000000FB0510810041EA927005900698C117E3
:10441000A0FB042301FB043100FB0510810041EAED
:10442000927006900798C117A0FB042301FB04318A
:1044300000FB0510810041EA927007900598000E7C
:104440008DF808000598000C8DF809000598000A01
:104450008DF80A000598C0B28DF80B000698000E82
:104460008DF80C000698000C8DF80D000698000AD7
:104470008DF80E000698C0B28DF80F000798000E58
:104480008DF810000798000C8DF811000798000AAD
:104490008DF812000798C0B28DF8130002AA0C2103
:1044A0004FF42570FFF754FC08B070BD30B585B0EF
:1044B00004461DA207CA02AB07C3C82C03DD4FF098
:1044C000FF3005B030BDC82090FBF4F0401E85B22F
:1044D000280A8DF80000E8B28DF801006A46022132
:1044E00040F21620FFF734FC10B14FF0FF30E8E740
:1044F00002AA0C2140F6C120FFF72AFC10B14FF0B0
:10450000FF30DEE7064884810020DAE7788800087B
:104510004CCD6C000CC92C00365676002646660041
:104520000806002009E3CA02FEF2ABC4AAF1DFDFED
:10453000BBAFDFDF0146FC48808908800020704760
:104540002DE9FC4706460F4606F0070010B1B7F507
:10455000C86F03DD4FF0FF30BDE8FC87384603F03D
:10456000F3F98146F14903F0A5F880466846FEF765
:104570007AFD9DF80000022806D0042816D00828ED
:1045800026D0102848D135E04FF08D41404603F049
:1045900023FA814603F0A0F984B2E549404603F0CE
:1045A0001BFA814603F098F985B238E04FF08C4150
:1045B000404603F011FA814603F08EF984B2DD49DA
:1045C000404603F009FA814603F086F985B226E0F9
:1045D0004FF08B41404603F0FFF9814603F07CF930
:1045E00084B2D549404603F0F7F9814603F074F9E7
:1045F00085B214E04FF08A41404603F0EDF9814660
:1046000003F06AF984B2CD49404603F0E5F98146EA
:1046100003F062F985B202E04FF0FF309CE700BF83
:1046200020128DF80400E0B28DF8050028128DF8F4
:104630000600E8B28DF8070006F00100A0B101AA5B
:1046400002214FF4EA70FFF783FB10B14FF0FF3007
:1046500082E70DF1060202214FF49270FFF778FB1A
:1046600010B14FF0FF3077E706F00200A0B101AAC9
:1046700002214FF4EC70FFF76BFB10B14FF0FF30ED
:104680006AE70DF1060202214FF49470FFF760FB18
:1046900010B14FF0FF305FE706F00400A0B101AAAF
:1046A00002214FF4EE70FFF753FB10B14FF0FF30D3
:1046B00052E70DF1060202214FF49670FFF748FB16
:1046C00010B14FF0FF3047E7002045E738B504460A
:1046D0000020009004F0010020B19DF8000040F09F
:1046E0003000009004F0020020B19DF8000040F07E
:1046F0000C00009004F0040020B19DF8000040F090
:10470000030000906A4601214FF4A470FFF720FBDC
:1047100038BD38B50446012C01DA012402E0042C2E
:1047200000DD0424601EC0B200906A46012140F200
:104730004F10FFF70DFB38BD38B50446052094FB3C
:10474000F0F085B228128DF80000E8B28DF8010073
:104750006A4602214FF4EF70FFF7FAFA38BD38B518
:104760000446052094FBF0F085B228128DF8000075
:10477000E8B28DF801006A4602214FF4ED70FFF7B0
:10478000E7FA38BDF8B505460E464FF47A7095FB4A
:10479000F0F000FB06F4200E8DF80000200C8DF8E0
:1047A0000100200A8DF80200E0B28DF803006A468D
:1047B00004214FF4AE70FFF7CBFAF8BD38B50446CC
:1047C000052094FBF0F084B220128DF80000E0B2D6
:1047D0008DF801006A4602214FF4AD70FFF7B8FA78
:1047E00038BD38B50446052094FBF0F084B22012A1
:1047F0008DF80000E0B28DF801006A4602214FF406
:10480000AC70FFF7A5FA38BD38B5044614B94FF0BF
:10481000FF3038BD6A4604214FF45870FFF7D5FACF
:1048200010B14FF0FF30F4E79DF8000000069DF84E
:10483000011040EA01409DF8021040EA01209DF875
:104840000310084320600020E3E738B50446200E3B
:104850008DF80000200C8DF80100200A8DF8020070
:10486000E0B28DF803006A4604214FF45870FFF758
:104870006FFA38BD38B5044614B94FF0FF3038BD73
:104880006A4604214FF47170FFF79FFA10B14FF0A0
:10489000FF30F4E79DF8000000069DF8011040EAA3
:1048A00001409DF8021040EA01209DF803100843E2
:1048B00000EB8000800020600020E0E738B504466F
:1048C0001420B4FBF0F4200E8DF80000200C8DF8BD
:1048D0000100200A8DF80200E0B28DF803006A465C
:1048E00004214FF47170FFF733FA38BD38B5044630
:1048F00064B120208DF8000028208DF801003020C0
:104900008DF8020038208DF8030004E0A322042172
:10491000684601F053FB6A46042140F69E20FFF7EB
:1049200017FAFDF77DFE38BD080600200000484359
:10493000000040460000C045000040450000C04463
:1049400038B5044664B1C0208DF80000C2208DF84F
:104950000100C4208DF80200C6208DF8030004E099
:104960008B220421684601F029FB6A46042140F6A7
:104970009820FFF7EDF9FDF753FE38BD3EB504462C
:104980006CB1FDA1D1E900208968CDE90020029138
:104990006A4609214FF49760FFF7DAF93EBDF9A2A4
:1049A000D2E900109268CDE9010200916A4609211E
:1049B0004FF49760FFF7CCF9F0E73EB504460220CC
:1049C0008DF80000CA208DF80100E3208DF8020068
:1049D00009208DF803006A4604216820FFF7B8F922
:1049E000A3208DF8000004F0400048B1C0208DF8ED
:1049F0000100C8208DF80200C2208DF8030006E0F7
:104A0000A3208DF801008DF802008DF8030004F456
:104A1000C07048B1C4208DF80400CC208DF805008A
:104A2000C6208DF8060006E0A3208DF804008DF85E
:104A300005008DF80600A3208DF807008DF808000A
:104A40008DF809006A460A2140F6A720FFF780F991
:104A500004F0030018B120208DF8000002E0D820F7
:104A60008DF800006A46012140F6B620FFF770F984
:104A700004F0200018B10120FFF780FF02E00020C1
:104A8000FFF77CFF04F4C07008B304F4807060B1D9
:104A9000B2208DF800008B208DF80100B6208DF833
:104AA00002009B208DF803000BE0B0208DF8000081
:104AB00080208DF80100B4208DF8020090208DF840
:104AC00003006A46042140F6A220FFF741F904F0F2
:104AD000010020B3F8208DF800006A4601214FF450
:104AE0000B60FFF735F9FA210720FFF729FD0720B2
:104AF000FFF7ECFD0120FFF70CFE6420FFF71CFE22
:104B00004FF4FA70FFF72BFEC821A148FFF73AFED9
:104B10002820FFF753FE0A20FFF763FE08E0D820A5
:104B20008DF800006A4601214FF40B60FFF710F981
:104B300004F0020018B1D9208DF8000002E0D8205E
:104B40008DF800006A46012140F23D70FFF700F940
:104B500004F0040018B10120FFF7F2FE02E000208B
:104B6000FFF7EEFE04F0100018B10120FFF7BEFEC3
:104B700002E00020FFF7BAFE44F0080085494881B2
:104B8000FDF74EFD00208349887304F0400018B102
:104B90000846807B801D887304F4C07020B17D4876
:104BA000807B801D7B49887304F0140020B1794814
:104BB000807B10307749887304F0030020B175487A
:104BC000807B001D7349887300203EBD01467148FB
:104BD00040890880002070472DE9F0410446E078C4
:104BE00000F0C006E07800F03F05607800F00100BA
:104BF00098B1EF102846E91705EB5171C910A5EBE4
:104C0000C101491C01F0FF086248006820B16148F9
:104C1000414602683846904700BF607800F00800BF
:104C200030B15C48406818B1B0115A4A51688847A1
:104C30000020BDE8F08110B586B0044656A207CA30
:104C400003AB07C357A207CA8DE80700012C09D0A0
:104C5000022C0ED103AA0B2140F68220FFF778F830
:104C600006B010BD6A460B2140F68220FFF770F8AF
:104C7000F6E74FF0FF30F3E72DE9F04F8DB0074630
:104C8000884615469946DDE9166B002400203080E1
:104C90004049887B5A4605A9FEF7BDFB18B1601E46
:104CA0000DB0BDE8F08F3B48807A00F0140000287A
:104CB00061D09DF8140000069DF8151040EA0140EF
:104CC0009DF8161040EA01209DF81710084328604F
:104CD0009DF8180000069DF8191040EA01409DF863
:104CE0001A1040EA01209DF81B10084368609DF8E7
:104CF0001C0000069DF81D1040EA01409DF81E10A2
:104D000040EA01209DF81F100843A8609DF820008C
:104D100000069DF8211040EA01409DF8221040EA6B
:104D200001209DF823100843E86004F11000C4B28C
:104D3000286800140190686800140290A8680014A4
:104D40000390E8680014049001984043029901FB25
:104D50000100039901FB0100049901FB010ABAF16A
:104D6000706F02DBBAF1885F22DDFDF759FC00208D
:104D70003080401E94E721E0B8AAB38DB4980D3579
:104D80005D000000B8AAAAAAB088C3C5C700000089
:104D900009E3CA0208060020D8B1B9F38BA391B683
:104DA00009B4D900DAB1B9F38BA391B6DAB4DA0059
:104DB000B6F9000040F48070308000BF3448807A3B
:104DC00000F0400020B305A9601C085C095D40EAC2
:104DD000012000B2A8F8000005A9E01C095C05AAA2
:104DE000A01C105C41EA002000B2A8F8020005A94E
:104DF000601D095C201D105C41EA002000B2A8F88B
:104E00000400A01DC4B2B6F9000040F008003080D4
:104E10001F48408900F4C07008B305A9601C085CF5
:104E2000095D40EA012000B2388005A9E01C095C58
:104E300005AAA01C105C41EA002000B2788005A9F8
:104E4000601D095C201D105C41EA002000B2B880A2
:104E5000A01DC4B2B6F9000040F0700030800C48CC
:104E6000807A00F0030018B105A90819FFF7B4FE15
:104E70004846FDF734FF002012E701460448016070
:104E80000020704701460248416000207047000042
:104E9000080600202DE9F04105460C46C24801688D
:104EA000204602F0A1FE0746C0480168384602F0DD
:104EB00093FD0646BE480168304602F08DFBBC49B2
:104EC0000860BC484168BC48006802F08DFE064698
:104ED000B8488168304602F087FEB8490860B54896
:104EE000C06880F000404860B248C06880F0004070
:104EF0008860B3480068C8600868AC49096802F077
:104F00006BFD0646AB480168304602F065FBA949D7
:104F10000860AA494868A549096802F05DFD06468F
:104F2000A4484168304602F057FBA2494860A349B3
:104F300088689E49096802F04FFD06469D488168D1
:104F4000304602F049FB9B4988609C49C8689749F4
:104F5000096802F041FD06469648C168304602F0F5
:104F60003BFB9449C86092480168284602F03CFE29
:104F7000944908609448007802F0E6FC06468D48A3
:104F80000168304602F028FD904908608E4800789C
:104F900002F0DAFC064687488168304602F01CFDC4
:104FA0008B4908608848007802F0CEFC07468748A5
:104FB0000168384602F010FD064686480168304612
:104FC00002F00AFB84490860084601687F480068CF
:104FD00002F070FB814908607F4801687C480068E6
:104FE00002F068FB7E490860784800687D490860E7
:104FF0007548007802F0A8FC06466E4841683046C5
:1050000002F0EAFC78490860764801687348006855
:1050100002F0E2FC064667480168304602F0D9FD1E
:1050200064490860704801686C48006802F0D4FC6C
:10503000064660484168304602F0CBFD5D49486055
:10504000684801686648006802F0C6FC0646594890
:105050008168304602F0BDFD5649886062480168AB
:105060005F48006802F0B8FC06465248C168304606
:1050700002F0AFFD4F49C8605248016857480068C8
:1050800002F0AAFC06464A480168304602F0A4FA3B
:10509000474908604B4801685148006802F09CFC91
:1050A000064641480168304602F096FA3E490860DB
:1050B00008460168204602F097FD4C490860BDE8AB
:1050C000F0812DE9F04F8BB083468A46504602F0BE
:1050D00057FA8046464A474B01F078FFCDE9020176
:1050E0003348006802F04CFACDE90001DDE9022303
:1050F00001F0D6FC04460D463F4801684FF07E5053
:1051000002F072FD804602F03BFA064622462B462C
:1051100001F05CFFCDE9060137480168584602F00E
:105120005BFC044602F02CFACDE90401DDE906231C
:1051300001F0B6FCCDE9080101F080FC1C490860D3
:105140000BB0BDE8F08F2DE9F04104460D46E56156
:10515000E168206802F040FA06463146206802F015
:10516000A9FA20616168E06902F03EFD0746216905
:1051700002F032FC0646616802F02EFA60614FF0E0
:105180007E50216902F030FD0646216802F024FCC1
:10519000A06160696060A168A06902F01DFA2060EA
:1051A0006069BDE8F08100009801002090010020B6
:1051B0007C010020BC010020840100201806002092
:1051C000880100209C01002094010020A001002003
:1051D000A40100208C010020A8010020AC010020C7
:1051E000B0010020B4010020B8010020800100209F
:1051F0007B14AE47E17A743F78010020014691F9B3
:105200000020002A01DD00201EE091F90020002A84
:1052100001DA042018E091F90120002A01DD0120C3
:1052200012E091F90120002A01DA05200CE091F941
:105230000220002A01DD022006E091F90220002A66
:1052400001DA062000E00720704770B505462846C1
:10525000FFF7D4FF0446E81CFFF7D0FF44EAC00084
:1052600084B2A81DFFF7CAFF44EA801084B220462A
:1052700070BD70B588B002A905A8FEF7DEFC044633
:10528000072C3FD101A8FDF74DFF059802F044FB24
:105290000646019902F0A0FB054602F001FB0590CD
:1052A000069802F039FB0646019902F095FB054687
:1052B00002F0F6FA0690079802F02EFB06460199D6
:1052C00002F08AFB054602F0EBFA079005A8FEF70C
:1052D000C4FF6846FDF743FFBDF80010029848433D
:1052E0000290BDF80010039848430390BDF80010E9
:1052F00004984843049002A8FFF742F8FEA000F08B
:10530000B5FD00BF08B070BD2DE9F04304460D4661
:10531000DDE907670021012041E0DFF800C43CF827
:105320001080A0F1010CDFF8F49329F81C8009F13A
:10533000160C3CF81090A0F1010CDFF8E08308F1A6
:10534000160828F81C9008F1160C3CF81090A0F1F3
:10535000010C08F1160828F81C9008F1160C3CF80E
:105360001090A0F1010C08F1160828F81C9008F123
:10537000160C3CF81090A0F1010C08F1160828F862
:105380001C9008F1160C3CF81090A0F1010C08F1EB
:10539000160828F81C9000F1010C0CF0FF000A28F8
:1053A000BBDBDFF878C3ACF81240ACF82850ACF89F
:1053B0003E20ACF85430ACF86A60ACF88070002144
:1053C000002008E0DFF854C33CF910C0614400F14C
:1053D000010C0CF0FF000A28F4DB4FF00A0C91FBE3
:1053E000FCFC0FFA8CFCDFF83483A8F814C0002111
:1053F00000200AE0DFF824C30CF1160C3CF910C0C1
:10540000614400F1010C0CF0FF000A28F2DB4FF0C0
:105410000A0C91FBFCFC0FFA8CF8DFF800C3ACF827
:105420002A80002100200AE0DFF8F0C20CF12C0CE9
:105430003CF910C0614400F1010C0CF0FF000A2897
:10544000F2DB4FF00A0C91FBFCFC0FFA8CF8DFF852
:10545000CCC2ACF84080002100200AE0DFF8BCC2DA
:105460000CF1420C3CF910C0614400F1010C0CF04D
:10547000FF000A28F2DB4FF00A0C91FBFCFC0FFA4C
:105480008CF8DFF898C2ACF85680002100200AE0C2
:10549000DFF888C20CF1580C3CF910C0614400F1EF
:1054A000010C0CF0FF000A28F2DB4FF00A0C91FB14
:1054B000FCFC0FFA8CF8DFF864C2ACF86C800021B9
:1054C00000200AE0DFF854C20CF16E0C3CF910C069
:1054D000614400F1010C0CF0FF000A28F2DB4FF0F0
:1054E0000A0C91FBFCFC0FFA8CF8DFF830C2ACF828
:1054F0008280BDE8F08338B50446032302226B2185
:10550000D0200094FBF756FF38BD38B5044602237F
:1055100004221B21D0200094FBF74CFF38BD38B586
:105520000446022304221C21D0200094FBF742FFF2
:1055300038BD10B50446234606226B21D020FBF768
:105540006EFF10BD10B5764B01227521D020FBF700
:10555000BFFE7348007810BD10B5FFF7F3FF682851
:1055600001D1012010BD0020FCE710B50446234600
:1055700005226A21D020FBF752FF10BD10B504466A
:10558000234601223721D020FBF749FF10BD10B57B
:105590000220FFF7B0FF0320FFF7B7FF0020FFF75F
:1055A000BEFF0020FFF7C5FF0020FFF7DEFF002051
:1055B000FFF7E4FF10BD38B5002000906B460122D4
:1055C00075216820FBF726FE56A000F04FFC9DF8E1
:1055D000000068280ED000BF5B48006800F4E0605F
:1055E0005A490843001D58490860BFF34F8F00BF58
:1055F00000BFFEE7FDF7A3FA00283CD17820FCF7B6
:1056000006FF10B947A000F031FC7820FDF7E6F85E
:1056100010B94FA000F02AFCC820FDF7C0F910B95E
:1056200055A000F023FCFEF77DFD10B95CA000F052
:105630001DFC6848FFF709FE0446FEF77DFD10B922
:1056400065A000F013FC40F27310FFF7B6F910B933
:105650006BA000F00BFCC820FEF728FF10B972A069
:1056600000F004FCFFF705FE0120FEF7A1FA10B9D7
:1056700076A000F0FBFB38BD2DE9F04F8DB00AA8F5
:105680007B490BAB06AACDE900107A497A48FFF7AF
:10569000F3FA7748008800F4807000282AD0069832
:1056A00002F03AF904464FF09D4102F003F87349C5
:1056B0000860079802F030F904464FF09D4101F070
:1056C000F9FF6F490860089802F026F904464FF088
:1056D0009D4101F0EFFF6B490860099802F01CF949
:1056E00004464FF09D4101F0E5FF674908606348BB
:1056F0000168CBE0A7E1000073657474696E6720F0
:10570000626961732073756363657366756C6C7928
:10571000202E2E2E2E2E2E0D0A00000036060020E2
:10572000280600206D70755F7365745F73656E7316
:105730006F7220636F6D706C657465202E2E2E2E37
:105740002E2E0D0A000000000CED00E00000FA050E
:105750006D70755F636F6E6669677572655F6669A8
:10576000666F20636F6D706C657465202E2E2E2E13
:105770002E2E0D0A000000006D70755F7365745F5A
:1057800073616D706C655F7261746520636F6D70BD
:105790006C657465202E2E2E2E2E2E0D0A00000014
:1057A000646D705F6C6F61645F6D6F74696F6E5F65
:1057B0006472697665725F6669726D776172652081
:1057C000636F6D706C657465202E2E2E2E2E2E0D3F
:1057D0000A000000F8010020646D705F7365745F5B
:1057E0006F7269656E746174696F6E20636F6D703E
:1057F0006C657465202E2E2E2E2E2E0D0A000000B4
:10580000646D705F656E61626C655F66656174751D
:10581000726520636F6D706C657465202E2E2E2E60
:105820002E2E0D0A00000000646D705F7365745FBA
:105830006669666F5F7261746520636F6D706C6519
:105840007465202E2E2E2E2E2E0D0A006D70755F83
:105850007365745F646D705F737461746520636FEA
:105860006D706C657465202E2E2E2E2E2E0D0A0066
:10587000D8010020D2010020CC010020E801002046
:10588000EC010020F0010020F40100204FF08040E6
:1058900002F0A2F8049089480168049802F09CF88C
:1058A0008346874801684FF0404002F095F8049025
:1058B00084480168049802F08FF85946059001F079
:1058C0008BFE824601F05CFE064600F089FD8046B4
:1058D0004FF066327C4B01F079FB044601F0AEF8E4
:1058E0007A490860754801684FF0804002F074F80A
:1058F000019072480168019802F06EF88246704883
:1059000001684FF0404002F067F801906C48016870
:10591000019802F061F88346514602F065F981462C
:105920004FF07E5101F058FE044601F029FECDE90A
:105930000201674801684FF0804002F04DF883464D
:105940005F480168584602F047F881465B480168A5
:105950004FF0804002F040F883465A4801685846AC
:1059600002F03AF88246494601F036FE044601F05C
:1059700007FE0746DDE9022300F07AFF4FF06632AA
:10598000514BCDE9040101F021FB054601F056F829
:10599000504908604B4801684FF0804002F01CF805
:1059A000019048480168019802F016F88246434881
:1059B00001684FF0404002F00FF801903F48016845
:1059C000019802F009F88346514602F00DF981462C
:1059D0004FF07E5101F000FE044601F0D1FD054676
:1059E0000E463B4801684FF0804001F0F5FF8346CA
:1059F00034480168584601F0EFFF8146304801689D
:105A00004FF0804001F0E8FF83462C48016858467B
:105A100001F0E2FF8246494601F0DEFD044601F056
:105A2000AFFD07462A46334600F022FF4FF06632AC
:105A3000254BCDE9020101F0C9FACDE9040100F0DE
:105A4000FDFF254908600DB0BDE8F08F2DE9F05F3E
:105A50004221D020FBF719FC05464121D020FBF75D
:105A600014FC05EB0024204601F056FF82464FF05F
:105A70008E41504602F07CF805D24FF08F415046DF
:105A800002F0B2F882461549504601F013FE8346F3
:105A900001F076FD8046124A124B01F001F80646ED
:105AA0000022114B01F092FA044600F0C7FF824633
:105AB000504601F0F5FEBDE8F09F0000F001002027
:105AC000EC010020F401002066A64C40DC0100201F
:105AD000E8010020E0010020E40100200000AA43CA
