:020000040800F2
:10000000E8080020010100080B1900083916000853
:100010000919000855030008791F000800000000B6
:100020000000000000000000000000002F19000880
:100030009B030008000000002D190008311900087A
:100040001B0100081B0100081B0100081B01000820
:100050001B0100081B0100081B0100081B01000810
:100060001B0100081B0100081B0100081B01000800
:100070001B0100081B0100081B0100081B010008F0
:1000800059030008650300081B0100081B01000854
:100090001B0100081B0100081B0100081B010008D0
:1000A0001B0100081B0100081B0100081B010008C0
:1000B0001B0100081B0100081B0100081B010008B0
:1000C0001B0100081B0100081B0100081B010008A0
:1000D0001B010008291F0008351F00081B0100082C
:1000E0001B0100081B0100081B010008DFF80CD0F1
:1000F00000F01EF9004800471D230008E808002012
:100100000648804706480047FEE7FEE7FEE7FEE7B1
:10011000FEE7FEE7FEE7FEE7FEE7FEE7A9190008B7
:10012000ED000008D2B201E000F8012B491EFBD21D
:1001300070470022F6E710B513460A4604461946F2
:10014000FFF7F0FF204610BDF0B480EA0102D40FA3
:100150004200B2EB410F02D20246084611464A0065
:1001600042D0C30DDDB2C1F3C752AD1A202D35DA2E
:10017000C1F3160141F4000204B15242C5F1200658
:1001800002FA06F12A411044B3EBD05F23D0C4B188
:10019000012DA0EBC35009DCF0BC4FF0004202EA95
:1001A000C352DBB200F5000000F094B8400000F14B
:1001B000807000EBC350A0F1807040EAD17049001C
:1001C00009E0490841EAC071A0EBC35000F5000006
:1001D000400800EBC350F0BC00F073B8614201224C
:1001E00002EB4101001BF6E7F0BC704781F00041D3
:1001F000AAE780F00040A7E780EA010210B502F00C
:100200000043400022D04A001FD0010E01EB1261D2
:10021000C0F35600C2F3560240F4000042F400025C
:10022000A0FB022000047F39140400D0401C50EAD7
:10023000124001D44000491EC2B20C0604EBD0109B
:10024000401C4008802A02D003E0002010BD20F0AE
:100250000100002900DA0020184310BD420005D03B
:10026000C0F3C7525242914201DC0020704700EBBC
:10027000C1507047C10F80EAE0700844CA07962356
:10028000002100F027B896230022114600F022B882
:1002900000F0004220F00040C10DC0F3160040F411
:1002A00000007F2901DA00207047962903DCC1F1A4
:1002B0009601C84001E096398840002AF4D04042B7
:1002C00070470029A8BF7047401C490008BF20F0B4
:1002D0000100704710B4B0FA80FC00FA0CF050EA4C
:1002E000010404BF10BC704749B1CCF1200421FACD
:1002F00004F411FA0CF118BF012121430843A3EBC8
:100300000C01CB1D4FEA00614FEA102042BF0020D4
:1003100010BC704700EBC35010440029A4BF10BCB0
:100320007047401C490008BF20F0010010BC704716
:10033000064C074D06E0E06840F0010394E8070032
:1003400098471034AC42F6D3FFF7D4FE8C25000852
:10035000AC250008FEE70000014800F083B800006B
:1003600014010020014800F07DB800005801002071
:1003700030B590F840500124AC40C56B6C60046807
:1003800063604368102B036803D099600068C26003
:1003900030BD9A600068C16030BD704701680A686E
:1003A00022F00E020A6001680A6822F001020A6067
:1003B00090F84020C36B012101FA02F25A6080F8E4
:1003C0002110002180F820100846704710B590F8E1
:1003D00021100024022903D00421816301243DE07F
:1003E00001680A6822F00E020A6001680A6822F0B9
:1003F00001020A601A4A0168914201D1012121E0FB
:10040000174A1432914201D110211BE0144A2832BC
:10041000914201D1891515E0114A3C32914201D136
:1004200089140FE00E4A5032914202D14FF48031CC
:1004300008E00B4A6432914202D14FF4801101E08E
:100440004FF08071064A083A5160012180F821106E
:10045000002180F82010416B01B18847204610BD73
:10046000080002402DE9F05FC16B0C6801680B6861
:10047000D0F840C0042202FA0CF2494DDFF824A162
:10048000494E4A4FDFF828B1DFF828E122422CD04C
:100490005A072AD50A68920603D40A6822F0040291
:1004A0000A600168A94201D1042219E0514501D135
:1004B000402215E0B14202D14FF4806210E0B9420F
:1004C00002D14FF480420BE0594502D14FF4802213
:1004D00006E0714502D14FF4800201E04FF08062E6
:1004E0002F4908394A60C16A3BE04FF0020808FA18
:1004F0000CF818EA040F4FF000094FF0010235D054
:100500005FEA837832D50B689B0605D40B6823F02D
:100510000A030B6080F821200168A94201D1022260
:1005200019E0514501D1202215E0B14202D14FF42A
:10053000007210E0B94202D14FF400520BE059456D
:1005400002D14FF4003206E0714502D14FF400129F
:1005500001E04FF00072124908394A6080F820909B
:10056000816A00291AD0BDE8F05F0847082505FA1E
:100570000CF5254212D01B0710D50B6823F00E0393
:100580000B6090F84010C36B02FA01F1596082636E
:1005900080F8212080F82090016BE2E7BDE8F09F11
:1005A000080002401C0002403000024044000240AB
:1005B000580002406C00024030B548B308C81549E5
:1005C00014221944B1FBF2F18900C163124981631D
:1005D000022141771A6843F6F0718A43D0E900148A
:1005E0002143D0E902452C43214304692143446956
:1005F00021438469214311431960002141628162D2
:10060000C16201634163012242770177084630BD30
:10061000012030BDF8FFFDBF0000024070B5044668
:1006200090F82000002501280CD0012084F820003B
:1006300094F821600020012E06D084F820000225C5
:10064000284670BD022070BD022684F82160A06398
:100650002068066826F0010606602046FFF788FE3F
:10066000E06A00282068016802D041F00E0106E02F
:1006700021F0040101602068016841F00A01016075
:100680002068016841F001010160D9E72DE9F84FC8
:10069000DFF890A100220AF1040B144601274FF065
:1006A0000F090BF1040E00BF0B6807FA04F52B408D
:1006B000AB4274D1DFF870C14E68A6EB0C086645FA
:1006C0002BD00DDC032E34D005DC36B3012E19D02F
:1006D000022E2FD11BE0112E16D0122E2AD119E096
:1006E000B8F5881F19D006DCB8F5803F15D0B8F5ED
:1006F000801F1FD111E0B8F5001F0ED0B8F5041F00
:1007000018D10AE0CA6815E0CA68121D12E0CA686A
:1007100008320FE0CA680C320CE08A682AB1012A5C
:100720004FF0080203D0456104E0042202E00561B5
:1007300000E00022FF2B01D8064601E000F104068C
:100740004FEA840501D9A5F12005D6F800C009FAC1
:1007500005F82CEA080C02FA05F54CEA050CC6F877
:1007600000C04D68ED0057D5304DAE6946F001062A
:10077000AE61AD6924F0030605F0010500952C4D2E
:1007800006EB050CDCF80850A6074FEA167809FAC4
:1007900008F6B543274EB04202D1002610E03BE0F8
:1007A000254EB04201D101260AE0244EB04201D1CB
:1007B000022605E0224EB04201D1032600E00426C5
:1007C00006FA08F62E43CCF808604D68DAF80060A7
:1007D000ED03554601D51E4300E09E432E604D6853
:1007E000DBF80060AD035D4601D51E4300E09E438B
:1007F0002E604D68DEF80060ED02754601D51E439F
:1008000000E09E432E604D68AD020E4D2E6801D56E
:100810001E4300E09E432E60641C102CFFF444AF86
:10082000BDE8F88F000401400000111000100240E4
:100830000000014000080140000C01400010014090
:10084000001401400C0401400AB101617047090421
:10085000FBE70000014880687047000004000020AA
:1008600002488168027811448160704704000020CA
:10087000074810B5016841F010010160032000F045
:1008800095F8002000F006F800F024F8002010BDD4
:100890000020024070B50D4D04464FF47A7128785F
:1008A000B1FBF0F00A490968B1FBF0F000F025FB5C
:1008B00048B9102C07D200222146501E00F056F8ED
:1008C00000206C6070BD012070BD0000040000209D
:1008D000000000201D4808B5816941F001018161D7
:1008E000806900F001000090032000F05FF8002212
:1008F00011466FF00B0000F039F8002211466FF03E
:100900000A0000F033F8002211466FF0090000F0F1
:100910002DF800221146501F00F028F80022114641
:10092000101F00F023F800221146901E00F01EF860
:1009300000221146501E00F019F80548416821F0C8
:10094000E06141F00071416008BD0000001002400C
:100950000000014000F01F02012191404009800089
:1009600000F1E020C0F8001170470000F0B40E4B19
:100970001B680C46C3F30223C3F10705042D00D9FD
:100980000425191D072901D2002300E0DB1E0126E2
:1009900006FA05F1491E214099409E40761E1640F8
:1009A0003143F0BC00F0B2BF0CED00E0064900F0AE
:1009B000070208684FF6FF03184040EA0220034A86
:1009C00010430860704700000CED00E00000FA05DD
:1009D0002DE9F047DFF83C8105460E46D8F80000C7
:1009E00000F00700B0420CD2D8F8001021F0070147
:1009F0003143C8F80010D8F8000000F00700B042FA
:100A000063D12878444C800705D56068A96820F038
:100A1000F000084360602878C00745D06868012866
:100A200016D02168022816D0890700294DDA61689E
:100A300021F0030101436160FFF70CFF696807467D
:100A400041F2883001290FD00229814619D027E0D0
:100A500021688903E9E78901E7E700BFFFF7FAFEAC
:100A6000C11B494501D918E081466068C0F3810087
:100A70000128F3D118E000BFFFF7ECFEC11B494588
:100A80000BD86068C0F381000228F5D10CE000BFEC
:100A9000FFF7E0FEC11B494502D90320BDE8F087FE
:100AA000606810F00C0FF3D1D8F80010404601F048
:100AB0000701B1420BD9016821F007013143016000
:100AC000006800F00700B04201D00120E6E7287876
:100AD000400705D56068E96820F4E060084360607D
:100AE0002878000706D56068296920F4605040EA3C
:100AF000C100606000F03CF86168084AC1F303116E
:100B0000515CC840064908600020FFF7C3FE002082
:100B1000C4E7000000200240001002403C2500080D
:100B2000000000200148006870470000000000201D
:100B30000448054900684968044AC1F30221515C30
:100B4000C840704700000020001002404C250008FB
:100B50000448054900684968044AC1F3C221515C50
:100B6000C840704700000020001002404C250008DB
:100B700012A185B00FC98DE80F0014A0144A0068B7
:100B800004905168134801F00C03042B10D0082B7B
:100B90000ED1C1F38343C9031DF803000AD5516880
:100BA00004AAC1F34041515C0A4A5043B0FBF1F042
:100BB00005B0704708494843FAE7000002030405FE
:100BC000060708090A0B0C0D0E0F10100102000099
:100BD0000010024000127A0000093D002DE9F84F94
:100BE00004460078B94DC00748D06868C0F381005A
:100BF000012807D06868C0F38100022809D168681D
:100C0000C00306D52868800338D5606800286FD0F7
:100C100034E06068B0F5803F0BD010B1B0F5A02F84
:100C200011D0286820F480302860286820F48020C3
:100C300002E0286840F480302860606888B1FFF7DF
:100C400009FE064609E0286840F480202860F0E7A5
:100C5000FFF700FE801B642875D828688003F7D54D
:100C60000CE0FFF7F7FD064605E000BFFFF7F2FDD9
:100C7000801B6428F0D828688003F7D42078944E2D
:100C800080074FF001094FF000083BD5686810F06D
:100C90000C0F07D06868C0F38100022809D168688A
:100CA000C00306D42868800714D5206901281FD105
:100CB00010E02069B0B1C6F80090FFF7CBFD074601
:100CC00005E000BFFFF7C6FDC01B0228C4D8286896
:100CD0008007F7D52868616920F0F80040EAC10074
:100CE00028600FE0C6F80080FFF7B4FD074606E075
:100CF000E9E000BFFFF7AEFDC01B022823D828683B
:100D00008007F7D4207800072CD57248A169D9B1A3
:100D1000C0F80090FFF79EFD074604E0FFF79AFD3C
:100D2000C01B02280FD8686A8007F7D56A484FF4BD
:100D3000FA510068B0FBF1F0009000BF0098411E2E
:100D40000091FAD20EE080E0C0F80080FFF782FD4B
:100D5000074604E0FFF77EFDC01B022875D8686ACD
:100D60008007F7D42078400760D5E8690027C000E5
:100D700008D4E86940F08050E861E869012700F094
:100D80008050009055480168C90513D40168834616
:100D900041F480710160FFF75DFD824606E000BF0F
:100DA000FFF758FDA0EB0A0064284ED8DBF80000DE
:100DB000C005F5D5E06801280AD008B1052813D090
:100DC000286A20F001002862286A20F0040002E06E
:100DD000286A40F001002862E06841F2883B98B13F
:100DE000FFF738FD82460BE0286A40F004002862D5
:100DF000EEE700BFFFF72EFDA0EB0A0159455AD8D8
:100E0000286A8007F6D50CE0FFF724FD824605E04E
:100E1000FFF720FDA0EB0A0159454CD8286A80074E
:100E2000F6D41FB1E86920F08050E861E06988B32A
:100E30006968C1F38101022945D00228C6F86080A3
:100E400004D0FFF707FD044638E034E0FFF702FD69
:100E5000074604E0FFF7FEFCC01B02282BD82868D9
:100E60008001F7D4206AB0F5803F05D16868A16899
:100E700020F4003008436860D4E908010843696839
:100E800021F4741108436860C6F86090FFF7E2FC33
:100E9000044606E015E000BFFFF7DCFC001B02285B
:100EA00009D828688001F7D50BE000BFFFF7D2FC16
:100EB000001B022802D90320BDE8F88F28688001B2
:100EC000F4D40020F8E70120F6E70000001002400B
:100ED00000004242800442420000002000700040B6
:100EE0004FF0E0210428086903D020F004000861D5
:100EF000704740F00400FAE7704710B5401EB0F1AB
:100F0000807F01D3012010BD4FF0E02460610F21EC
:100F1000601700F0FBFC0020A0610720206100208A
:100F200010BD10B5FFF7E8FF10BD30B590F83C20BC
:100F3000012A20D0012280F83C20022380F83D3095
:100F400003685C6824F070045C6003685C680D688A
:100F50002C435C6003689C6824F080049C600368F8
:100F60009C6849680C439C6080F83D20002180F813
:100F70003C10084630BD022030BD2DE9F0410D4641
:100F8000040003D094F83D0018B108E00120BDE84A
:100F9000F081002084F83C00204600F039F802205F
:100FA00084F83D002068816821F007018160211DDF
:100FB000206800F01DFD226890689169166A2B6810
:100FC000AF69034340F20330814341EA0721A86837
:100FD000EF6908434FF6FC418843E96840EA07207F
:100FE000014328692F6A000140EA07300843696815
:100FF0006D6926F0AA0646EA051529439360226822
:10100000906120680162012084F83D000020BEE765
:1010100010B5036800221249124886B0B3F1804F20
:1010200014D0114CA3420FD1CB6943F00203CB6122
:10103000C96901F0020104915FF0C001CDE900121D
:1010400069460292FFF722FB06B010BDCB6943F060
:101050000103CB61C96901F0010104910321EDE7AE
:1010600000100240000801400004004010B5044692
:10107000006891B1042904D00122002100F0EEFCA7
:10108000206801225FF0040100F0E8FC206801689C
:1010900041F001010160002010BD01220021F3E7B1
:1010A0001FB500680649884209D14FF4407000908E
:1010B00002200190039069460248FFF7E7FA1FBD3E
:1010C00000080040000C014070B5044690F83C0058
:1010D0000D4601280DD0012684F83C60022084F8DA
:1010E0003D0042B1042A18D0082A2AD00C2A4DD13A
:1010F00039E0022070BD206800F0BCFC20688169E6
:1011000041F0080181612068816921F00401816159
:10111000206881692A69114311E0206800F0D2FC3F
:101120002068816941F4006181612068816921F44E
:1011300080618161206881692A6941EA02218161B7
:1011400024E0206800F0EAFC2068C16941F0080151
:10115000C1612068C16921F00401C1612068C169D1
:101160002A69114311E0206800F004FD2068C1697C
:1011700041F40061C1612068C16921F48061C161ED
:101180002068C1692A6941EA0221C16184F83D6091
:10119000002084F83C0070BD10B5040003D094F822
:1011A0003D0010B107E0012010BD002084F83C0094
:1011B000204600F00DF8022084F83D00211D206833
:1011C00000F016FC012084F83D00002010BD000056
:1011D00008B500680649884208D10648C16941F04F
:1011E0000401C161C06900F00400009008BD000066
:1011F000000800400010024010B5044600680122BB
:1012000000F02CFC07492068884203D1416C41F46E
:10121000004141642068016841F001010160002043
:1012200010BD0000002C014010B504460068416963
:1012300094F83920C1F3C011212A0BD151B1416971
:1012400021F080014161206B08B1FFF7A7F820462B
:1012500000F02CFD2068416994F83A20C1F3801118
:10126000222A0BD151B1416921F040014161606BEB
:1012700008B1FFF793F8204600F00AFD002010BDEA
:101280007047000070B5026804461068D168536961
:1012900010F00F0F51D003F0010501F490763543A3
:1012A0005DD0C20705D0CA0503D5E26B42F001024A
:1012B000E263420705D5DA0703D0E26B42F002028F
:1012C000E263820705D5DA0703D0E26B42F004023D
:1012D000E263020705D5DA0703D0E26B42F00802A9
:1012E000E263E26B002A34D0800604D5880602D57A
:1012F000204600F0E4FC20684069E16BC0F38010F8
:1013000001F008010143204624D000F0C1FC206810
:10131000416949061AD5416921F040014161606B7C
:10132000A0B11B494163606BFFF750F8002810D053
:10133000606B416BBDE87040084783060FD58B0694
:101340000DD52046BDE8704000F0B9BC2046FFF73F
:1013500097FF70BDFFF794FF0020E06370BD0306A8
:1013600006D50B0604D52046BDE8704000F0AABDA6
:101370004006F3D54806F1D5D168204621F040015A
:10138000D160202184F8391000F054F970BD0000BC
:10139000B91B000870B5040004D094F8390000258A
:1013A00010B106E0012070BD84F83850204600F0EE
:1013B00023F8242084F839002068C16821F4005102
:1013C000C160204600F0C6FC2068016921F490410C
:1013D00001612068416921F02A0141612068C168EA
:1013E00041F40051C160E563202084F8390084F89D
:1013F0003A00002070BD0000F0B506463C4F03687F
:101400003C48022103223C4D002485B0BB421ED142
:10141000836943F4804383618069039200F48040D0
:1014200004900802CDE9000169462846FFF72EF92D
:101430002815CDE90004694628460294FFF726F9ED
:10144000002211462520FFF791FA25204CE02B4F72
:10145000BB424BD1C36943F40033C361C0690392FB
:1014600000F4003004900420CDE9000169462846CC
:10147000FFF70CF90820CDE90004694628460294DC
:10148000FFF704F91F4D1E488027C5E90004C5E990
:1014900002472C616C61AC612846EC61FFF78CF867
:1014A00018B1A12118A000F068FD75636E62154D9A
:1014B00013484435143001C5102091C5114845F832
:1014C000104944306C61AC61EC61FFF775F818B1FC
:1014D000B1210DA000F051FD3563002211462620F8
:1014E0006E62FFF743FA2620FFF734FA05B0F0BD2D
:1014F0000038014000100240000801400044004054
:101500006C000240140100202E2E2F5372632F75A1
:10151000736172742E630000F8B5044690F83A00C7
:1015200020283CD1C1B3BAB394F83800012836D092
:10153000012084F83800A162A2850025E5632220FD
:1015400084F83A00636B17489862636B1648D86258
:10155000636B16481863606B134645630846666BF9
:10156000216802463046091DFFF758F820680168D7
:101570004168009184F83850C16841F48071C160BD
:101580002068416941F0010141612068416941F0F1
:10159000400141610020F8BDFFE70120FBE7022088
:1015A000F9E70000131C00084F1C0008C91B0008C5
:1015B0007047704770B5044690F83900202830D144
:1015C00069B362B394F8380001282AD0012084F866
:1015D00038002162A284E2840025E563212084F89A
:1015E0003900236B10489862236B1048D862236B34
:1015F0000F481863206B134645632668206B321D25
:10160000FFF70CF821686FF04000086084F838504C
:101610002068416941F080014161002070BD0120D6
:1016200070BD022070BD0000591C0008871C000816
:10163000C91B000870477047FEE700000D4808B559
:10164000416941F0010141614069002200F001005F
:10165000009011461020FFF789F91020FFF77AF962
:10166000002211461120FFF781F9BDE80840112042
:10167000FFF770B90010024030B51B4885B0816992
:1016800041F020018161816901F0200104918169AB
:1016900041F004018161816901F0040104918169D3
:1016A00041F0080181618069104D00F0080004904C
:1016B00000224FF44F612846FFF7C6F84FF4406010
:1016C0000090112003240190694603942846FEF7F8
:1016D000DDFFF02000900120019069460394284628
:1016E000FEF7D4FF05B030BD00100240000C0140F1
:1016F00010B517488CB04FF080410024C0E90014A9
:101700004FF6FF71C0E90241046184610320CDE915
:1017100000040120CDE902040494CDE905400794BA
:1017200069460B480894FFF728FC18B14C2109A022
:1017300000F023FC099409A905480A94FFF7F5FB7A
:10174000002803D0532103A000F017FC0CB010BDFB
:101750009C0100202E2E2F5372632F74696D2E630F
:101760000000000010B518488CB016490024C0E9EC
:1017700000144FF6FF71C0E9024104618461032047
:10178000CDE900040120CDE902040494CDE905402F
:10179000079469460C480894FFF7EFFB18B16E21D7
:1017A0000AA000F0EAFB099409A907480A94FFF788
:1017B000BCFB002803D0752104A000F0DEFB0CB0B8
:1017C00010BD000000040040DC0100202E2E2F532D
:1017D00072632F74696D2E630000000010B51F48FE
:1017E0008AB01D490024C0E9001441F61F41C0E938
:1017F000024104618461FFF7CFFC18B1872118A072
:1018000000F0BBFB079407A914480894FFF78DFB71
:1018100018B18E2112A000F0B0FB6020CDE90004C9
:101820000294082269460D480494FFF74DFC18B154
:1018300097210BA000F0A1FB0C2269460748FFF797
:1018400043FC18B19C2106A000F097FB0348FFF76A
:1018500027FC0AB010BD0000000800401C02002058
:101860002E2E2F5372632F74696D2E6300000000BB
:101870000D4810B50B4901604FF41651416000212D
:1018800081600C22C160C0E904128161C161FFF76F
:1018900081FD002805D0BDE81040462103A000F0DE
:1018A0006CBB10BD00380140940000202E2E2F5339
:1018B00072632F75736172742E6300000D4810B54A
:1018C0000B4901604FF416514160002181600C22E8
:1018D000C160C0E904128161C161FFF75BFD0028AE
:1018E00005D0BDE81040592103A000F046BB10BD53
:1018F00000440040D40000202E2E2F5372632F7519
:10190000736172742E630000FEE770470907090EC9
:10191000002806DA00F00F0000F1E02080F8141D26
:10192000704700F1E02080F800147047704770475E
:1019300010B5FEF795FFBDE81040FFF7F2BA30B5DD
:101940008FB001210804CDE9001000240294022583
:101950000491CDE907504FF4E01009906846FFF775
:101960003DF900B1FEE70F20CDE90A054FF4806094
:10197000CDE90C4002210AA80E94FFF729F800B126
:10198000FEE7FFF7CFF84FF47A71B0FBF1F0FFF705
:10199000B4FA0420FFF7A4FA00221146501EFEF705
:1019A000E5FF0FB030BD00000D48016841F00101B6
:1019B000016041680B4A1140416001680A4A1140C8
:1019C0000160016821F480210160416821F4FE0179
:1019D00041604FF41F0181600449C00308607047F3
:1019E000001002400000FFF8FFFFF6FE08ED00E0E7
:1019F000F0B50268164B174C174D4FF080479842D0
:101A000005D0B84203D0A04201D0A84203D122F0B1
:101A100070064A683243984205D0B84203D0A042CB
:101A200001D0A84203D122F44074CA68224322F0B4
:101A300080044A69224302608A68C2620A6882623C
:101A4000984201D10969016301214161F0BD0000A3
:101A5000002C0140000400400008004010B50123A4
:101A6000046A8B409C430462036A8A401343036206
:101A700010BD000030B5026A22F001020262026A63
:101A80004368846924F073050C682C4322F0020536
:101A90008A682A430A4DA8420BD122F00805CA6879
:101AA00023F440732A434D6922F004021D438B69DD
:101AB0002B434360846149684163026230BD00008A
:101AC000002C014030B5026A22F010020262026A64
:101AD000436884690D6824F4E64444EA05248D686B
:101AE00022F0200242EA05120B4DA8420ED1CD6829
:101AF00022F0800242EA05124D6923F4406343EA72
:101B000085038D6922F0400243EA850343608461C6
:101B100049688163026230BD002C014030B5026A21
:101B200022F480720262036A4268C46923F400737B
:101B300024F073050C682C438D6843EA05230C4D93
:101B4000A8420ED1CD6823F4006343EA05234D6912
:101B500022F4405242EA05128D6923F4806342EA7E
:101B600005124260C4614968C163036230BD000070
:101B7000002C014030B5026A22F480520262046AED
:101B80004268C3690D6823F4E64343EA05238D6880
:101B900024F4005444EA0534064DA84204D14D69AA
:101BA00022F4804242EA85124260C36149680164BE
:101BB000046230BD002C014010B5406A0021C1858F
:101BC000C184FFF75DFB10BD70B5446A20684069B1
:101BD00094F83910C0F3C0100025212904D118B1A0
:101BE000E584204600F062F82068406994F83A10D5
:101BF000C0F38010222904D118B1E585204600F0F9
:101C000047F8E06B40F01000E0632046FFF738FB38
:101C100070BD10B50146406A09680968890613D489
:101C20000021C1850168CA6822F48072CA60016817
:101C30004A6922F001024A6101684A6922F04002C1
:101C40004A61202180F83A10FFF7B2FC10BD10B5B0
:101C5000406AFFF7AEFC10BD10B50146406A096846
:101C6000096889060CD40021C18401684A6922F000
:101C700080024A610068C16841F04001C16010BD46
:101C8000FFF7D8FC10BD10B5406AFFF7D4FC10BDBB
:101C90000168CA6822F49072CA6001684A6922F039
:101CA00001024A61202180F83A1070470168CA6831
:101CB00022F0C002CA60202180F83910704710B5A8
:101CC00090F83A10222901D0022010BD8168B1F5A8
:101CD000805F11D00169002901681FD0496801F0B7
:101CE0007F03816A4A1C82620B70C18D491E090400
:101CF000090CC18518D02BE00269816A002A0268AC
:101D0000526805D0D2B20A80816A491C8162ECE730
:101D1000C2F308020A80816A891CF7E74A68816A6F
:101D20004B1C83620A70E0E70168CA6822F0200257
:101D3000CA600168CA6822F48072CA6001684A6990
:101D400022F001024A61202180F83A10FFF730FCAE
:101D5000002010BD2DE9F041044600680169E268E9
:101D600021F44051114301612169A0680843616970
:101D700008432168CA6841F20C639A430243CA606F
:101D800020684169A26921F44071114341614C49C5
:101D900020686425322688423CD1FEF7D9FE00EB4C
:101DA000C00101EB001061688900B0FBF1F7FEF79C
:101DB000CFFE00EBC00101EB00106168B046890066
:101DC000B0FBF1F0B0FBF5F06FF01801484307EB02
:101DD000800106EB0110B0FBF5F000F0F006FEF715
:101DE000B7FE00EBC00101EB001061688900B0FB99
:101DF000F1F0B0FBF5F006EB0016FEF7A9FE00EBE4
:101E0000C00101EB001061688900B0FBF1F7FEF73B
:101E10009FFE3BE0FEF78CFE00EBC00101EB0010E3
:101E200061688900B0FBF1F7FEF782FE00EBC001AC
:101E300001EB00106168B0468900B0FBF1F0B0FB27
:101E4000F5F06FF01801484307EB800106EB011035
:101E5000B0FBF5F000F0F006FEF76AFE00EBC00103
:101E600001EB001061688900B0FBF1F0B0FBF5F008
:101E700006EB0016FEF75CFE00EBC00101EB001064
:101E800061688900B0FBF1F7FEF752FE00EBC0017C
:101E900001EB001061688900B0FBF1F0B0FBF5F0D8
:101EA0006FF01801484307EB800108EB0110B0FB0D
:101EB000F5F0216800F00F0030448860BDE8F08143
:101EC0000038014090F83910212901D002207047D4
:101ED0008168B1F5805F016A0BD04A1C026202681A
:101EE00009785160C18C491E0904090CC1840ED0C7
:101EF00017E009880268C1F30801516001690029EF
:101F0000016A02D0491C0162ECE7891CFBE7016809
:101F1000CA6822F08002CA600068C16841F04001CE
:101F2000C1600020704700000148FFF7ABB9000016
:101F30009400002008B50E48FFF7A4F90C4800688B
:101F40000168C943C90611D401684168009101685C
:101F500040680748FFF768F9064800684068BDE830
:101F60000840C0F1800080B200F042B908BD000016
:101F7000D400002014010020FEE7FEE702E008C8BC
:101F8000121F08C1002AFAD170477047002001E0F3
:101F900001C1121F002AFBD17047002800DA40421D
:101FA00080B270472DE9FF5F00200090684600F086
:101FB0004BF93B49002488784E780D78FEF763F999
:101FC00003903046FEF75FF902902846FEF75BF972
:101FD000DFF8CCB041F2883A0BF10C0BABF10809F9
:101FE00001902F481C3000F1080150F82460A0F146
:101FF000080541F8246055F8241040F824101438DE
:10200000884630F914103DF91400081AFEF732F929
:1020100045F82400074601214046FEF71FF93946DE
:10202000FEF7E7F83146FEF78FF801460398FEF712
:10203000E3F8064639460298FEF7DEF805464146C3
:102040003846FEF7D3F801460198FEF7D5F8294641
:10205000FEF77AF83146FEF777F81249FEF7CCF82A
:102060005D465BF82410FEF76FF845F82400FEF794
:102070000FF901B229F81410514502DD29F814A016
:1020800004E0094A914201DA29F81420641C022C68
:10209000A7DB0348001D00F0EFF9BDE8FF9F00003B
:1020A0005C000020CDCCCC3D78ECFFFF1FB50024B8
:1020B0006846009400F0C8F803AA02A901A800F03D
:1020C000DFF81048FA210B220170BDF800104170B2
:1020D000090A8170BDF80210C170090A01714471CA
:1020E00084719DF80410C1719DF8081001729DF86B
:1020F0000C104172AF21817201460348FFF75AFA72
:102100001FBD0000DC020020D40000202DE9F041BA
:10211000364C00250127617804F1040E4A1CD6B222
:1021200022469278D31CB1B14FF0020C012916D08F
:10213000022926D0032914D3994212D2E168914290
:1021400004DA0EF801006670491CE160914200D18A
:10215000E560BDE8F081AA2803D16770F9E7FF28A0
:102160000CD0994201D1FF281FD0121D914201D1FC
:10217000AA281CD06570E570A570E9E784F801C055
:10218000E7E70321022802D0032804D009E0A17068
:102190006170E770DDE70420A070617084F803C00F
:1021A000D7E76570E570A570D3E76670D1E70F4A91
:1021B000E378121D012B10785178927812D0022BFF
:1021C000EFD100EB012000F47F4108480830018086
:1021D0009EF8031002EB012101F47F41418000F0E1
:1021E0003BF9DEE700F040F9DBE700004C0000209F
:1021F00070B505460024084E04E0305DFFF786FF09
:10220000641CA4B2AC42F8D3BDE8704080220249FD
:102210000248FFF781B900005C020020D4000020D2
:1022200006480268506A06494880064803685B6AA7
:102230000B80002151620068416270479C010020C0
:1022400088000020DC010020014909680160704716
:102250008800002010B5FEF7FDFA4FF0E0214A6932
:102260008B694969D21A4FF47A735A43B2FBF1F180
:1022700000EB4002C2EBC01001EBC00010BD00003B
:10228000044B10B51C78047058780870987810705A
:1022900010BD00005C00002010B518210448FEF7B6
:1022A000E5FEBDE8104018210248FEF7DFBE000041
:1022B0009C010020DC01002010B508210448FEF735
:1022C0009BFFBDE810400C210148FEF795BF0000C0
:1022D0001C02002010B5084C4FF47A7262806060D6
:1022E0002170880000F032F8A0602178BDE810402D
:1022F0008900FDF71EBF000034000020054800687B
:10230000C16841F01001C160802203490148FFF714
:1023100003B90000D40000204C000020FEF7A8FA0A
:10232000FFF70DFBFFF7A8F9FFF788F9FFF7E0F9D2
:10233000FFF718FAFFF752FAFFF79AFAFFF7BEFA1B
:1023400000F0ECF800F038F8FCE70000F0B50B30D6
:10235000154D20F007010024144A0FE003688B425A
:102360000BD38B4205D95E1A43184768C3E900674F
:1023700000E04368136002C004E0021D10680028FA
:10238000ECD12046002802D1286808B10020F0BD19
:10239000064A07481060074A121A22F00702C0E9ED
:1023A000002401202860D7E7900000208C00002046
:1023B000EC020020E80400202DE9F0414FF47A7788
:1023C000FFF748FF06460025224C2FE0FEF742FAB1
:1023D000A168B4F802E031F82510401A82B26068B2
:1023E00005EB450100EB8103B3F808C0BEFBFCFC24
:1023F000BCF1000F01D14FF0010C624514D35A8992
:10240000E260BA4210D8266150F821008047FEF7FA
:1024100021FAA16841F82500FFF71CFF0646206954
:10242000301AB84208D23F1A6D1CEDB220788542AE
:10243000CCD36069384460616078401CC0B2607081
:10244000202804D110206070606940086061BDE8F8
:10245000F081000034000020024902880A80408890
:102460004880704764000020024B187059709A70C1
:10247000704700005C00002070B50446B0F9000011
:10248000244D002806DD012210212846FEF7DCF944
:10249000002205E0002210212846FEF7D5F901228E
:1024A00020212846FEF7D0F9B4F90200002806DA08
:1024B000012240212846FEF7C7F9002205E000224C
:1024C00040212846FEF7C0F9012280212846FEF768
:1024D000BBF9002041F28831D1F1000234F910300B
:1024E0008B4202DD24F8101003E0934201DA24F855
:1024F0001020401C0228F1DBB4F90000FFF74DFD6D
:10250000054D2968C863B4F90200FFF746FD296844
:10251000086470BD000C01401C02002010B50321AE
:102520000548FFF7D7FEFFF7C7FEFFF7B5FEBDE88A
:102530001040FFF7E3BE0000100000200000000084
:102540000000000001020304060708090000000063
:1025500001020304646174616C696E6B5F6D616993
:102560006E000000656E636F6465725F6D61696E19
:1025700000000000636F6E74726F6C5F76656C6F45
:10258000636974795F6D61696E000000AC250008B5
:1025900000000020940000007C1F00084026000876
:1025A00094000020540800008C1F000800A24A0478
:1025B00001000000100000000000000021220008BF
:1025C0006425000864000A00AD20000854250008B6
:1025D0000A000A00A51F00087425000864000A000C
:1025E00000000000000000000000000000000000EB
:1025F00000000000000000000000000000000000DB
:1026000000000000000000000000000000000000CA
:1026100000000000000000000000000000000000BA
:1026200000000000000000000000000000000000AA
:10263000000000000000000000000000000000009A
:04000005080000ED02
:00000001FF
