:020000040800F2
:1000000008050020450100084D0100084F010008C7
:1000100051010008530100085501000800000000CC
:100020000000000000000000000000005701000870
:1000300059010008000000005B0100085D01000894
:100040005F0100085F0100085F0100085F01000810
:100050005F0100085F0100085F0100085F01000800
:100060005F0100085F0100085F0100085F010008F0
:100070005F0100085F0100085F0100085F010008E0
:100080005F0100085F0100085F0100085F010008D0
:100090005F0100085F0100085F0100085F010008C0
:1000A0005F0100085F0100085F0100085F010008B0
:1000B0005F0100085F0100085F0100085F010008A0
:1000C0005F0100085F0100085F0100085F01000890
:1000D0005F0100085B1300085F0100085F01000872
:1000E0005F0100085F0100085F0100085F01000870
:1000F0005F0100085F0100085F0100085F01000860
:100100005F0100085F0100085F0100085F0100084F
:100110005F0100085F0100085F0100085F0100083F
:100120005F0100085F0100085F0100085F0100082F
:10013000DFF80CD001F0D4F900480047E1100008C6
:10014000080500200648804706480047FEE7FEE70E
:10015000FEE7FEE7FEE7FEE7FEE7FEE7FEE7FEE777
:1001600001120008310100082849084328490860A5
:10017000704730B50F23C27801780125F2B1244AC7
:10018000126801F1E02102F4E062C2F5E062120AB5
:10019000C2F10404D3404278A24084781C40144346
:1001A000220181F80024007800F01F018D404009F1
:1001B000800000F1E020C0F8005130BD01F01F00C8
:1001C00085404809800000F1E020C0F8805130BD32
:1001D000104A114001430E48001F016070470C4A4D
:1001E000121D0029116801D0014300E08143116014
:1001F00070474FF0E0210428086903D020F0040084
:100200000861704740F00400FAE700000000FA05BA
:100210000CED00E080FFFF1F10B501214C072046C8
:1002200000F012FD2046BDE81040002100F00CBD9A
:1002300030B5374C236840F6FE7282409343D1E9D3
:1002400000252A43D1E902510D432A4382401A4333
:10025000226030BD0021016041608160C160704753
:100260002B4B01228240186809B1104300E09043F3
:1002700018607047264B9A148240186809B11043E1
:1002800000E0904318607047214B1B1D02090120BC
:1002900090400029196801D0014300E081431960B2
:1002A00070471B49091D0028086802D040F0030070
:1002B00001E020F0030008607047154B814018688A
:1002C0000AB1084300E0884318607047104A08B537
:1002D000104408300090016008BD0D4A08B5104474
:1002E00014300090016008BD082805D042EA0141A1
:1002F000074A10440162704742EA0121F8E70449C5
:1003000008B501EB90002C300090006880B208BD69
:1003100000740040FD4A116801F03801014311608A
:100320007047FA490A6822F008020A600A68024324
:100330000A607047F5490A6822F010020A600A68EC
:1003400002430A607047F148F1494160F149416058
:100350007047EE48EE494160EE4941607047EB4816
:10036000016941F0800101617047E848016941F08D
:10037000800101617047E5490420CA68D20701D0B5
:1003800001207047CA68520701D502207047C9682A
:10039000C906FBD50320704700B50346FFF7EBFF06
:1003A00002E0FFF7E8FF5B1E012803D0002B00D11D
:1003B000052000BD002BF4D1FAE770B505464FF4D7
:1003C00030263046FFF7E8FF042811D1CF4C2069D2
:1003D00040F0020020616561206940F0400020612A
:1003E0003046FFF7D9FF216941F6FD7211402161C6
:1003F00070BD30B54FF430252846FFF7CDFF0428F7
:1004000010D1C24C206940F004002061206940F006
:10041000400020612846FFF7BFFF216941F6FB72CB
:100420001140216130BD00B50346FFF7A4FF02E093
:10043000FFF7A1FF5B1E012803D0002B00D1052090
:1004400000BD002BF4D1FAE730B54FF43025284633
:10045000FFF7E9FF042810D1AC4C206940F00400FC
:100460002061206940F0400020612846FFF7DBFF53
:10047000216941F6FB721140216130BDA349002082
:10048000C969890700D50120704770B5A525FFF718
:10049000F5FF00B100254FF430263046FFF77CFF12
:1004A000042827D1994C9A48A0609A48A0602069F6
:1004B00040F020002061206940F04000206130467B
:1004C000FFF76AFF41F6EF7604280ED1206941F666
:1004D000DF7108402061206940F0100020618E48E3
:1004E00005804FF40050FFF757FF052802D021691F
:1004F0003140216170BDF8B5064600204FF4005C24
:1005000000900D466046FFF747FF042816D17F4C48
:10051000206940F00100206135806046FFF73CFF14
:1005200041F6FE77042806D1B61C280C00963080D0
:100530006046FFF731FF216939402161F8BDF0B510
:1005400006464FF400570D463846FFF725FF0428AE
:100550000CD16E4C206940F0010020613580384696
:10056000FFF71AFF2169BA1E11402161F0BDF0B5F5
:1005700006464FF400570D463846FFF70DFF042896
:1005800013D1624C6248A0606248A060206940F0CC
:100590001000206135803846FFF7FEFE052804D0A4
:1005A000216941F6EF7211402161F0BD2DE9F04162
:1005B000C043C7B2C0F30726C0F30745040E4FF48B
:1005C00000584046FFF7E8FE04283CD1DFF83CC164
:1005D0004F49CCF808104F49CCF80810DCF810103F
:1005E00041F01001CCF81010FF2F07D04A48083016
:1005F00007804046FFF7D0FE04281BD1FF2E07D00E
:1006000045480A3006804046FFF7C6FE042811D14F
:10061000FF2D07D040480C3005804046FFF7BCFE58
:10062000042807D1FF2C07D03B480E3004804046F9
:10063000FFF7B2FE052806D0DCF8101041F6EF7285
:100640001140CCF81010BDE8F08170B505464FF4AC
:1006500030263046FFF7A0FE042818D12B4C2C483A
:10066000A0602C48A060206940F020002061206933
:1006700040F0400020613046FFF78EFE41F6DF710A
:10068000042805D0052802D022690A40226170BDE5
:10069000206908402061206940F0100020611E4858
:1006A0000DB1002100E0A52101803046FFF774FE66
:1006B0000528ECD0216941F6EF721140216170BD2F
:1006C000F0B5124C0746124816460D46A060114878
:1006D000A0604FF4005C6046FFF75EFE042814D172
:1006E000206940F01000206135430B493D43891CCF
:1006F00045F0F80008806046FFF74EFE052804D05C
:10070000216941F6EF7211402161F0BD00200240E5
:1007100023016745AB89EFCD00F8FF1F1C48C06976
:10072000800870471A48006A704719490020096814
:10073000890600D501207047154A0029116901D0AA
:10074000014300E081431161704701460020104AD7
:10075000012903D0D2680A4203D17047D169C90781
:10076000FBD0012070470A49C8607047084904203F
:10077000CA68D20701D001207047CA68520701D564
:1007800002207047C968C906FBD5032070470000E6
:10079000002002408F4910B5884206D10121042073
:1007A00000F049FA002104203BE08B49884206D141
:1007B0000121082000F03FFA0021082031E087499C
:1007C000884206D10121102000F035FA00211020C6
:1007D00027E08349884206D10121202000F02BFA2E
:1007E000002120201DE07F49884206D101214020C0
:1007F00000F021FA0021402013E07B49884206D115
:100800000121802000F017FA0021802009E07749BB
:1008100088420AD184150121204600F00CFA0021FB
:100820002046BDE8104000F006BA10BD10B5012109
:10083000084600F000FA0021BDE81040012000F059
:10084000FAB9F0B5CC78002204F00F03E40601D524
:100850008C7823430C784FF00F0C14F0FF0F4FF0FF
:10086000010E1BD005680E880EFA02F42640A6423F
:1008700010D196000CFA06F725EA070703FA06F5E9
:10088000CE783D43282E02D0482E02D002E04461AB
:1008900000E00461521C082AE5D305600A88FF2A9B
:1008A0001CD94468002202F108060EFA06F50E88EB
:1008B0002E40AE420ED196000CFA06F7BC4303FA66
:1008C00006F7CE783C43282E00D14561CE78482EDD
:1008D00000D10561521C082AE5D34460F0BD4FF6F3
:1008E000FF710180022181700421C17070470246AE
:1008F000002092680A4200D001207047806880B2D0
:10090000704702460020D2680A4200D0012070479A
:10091000C06880B2704701617047416170470AB199
:100920000161704741617047C160704741F4803296
:100930008261816182618169806970472C4B10B549
:100940001A684FF68074224042EA0010084318608B
:1009500010BD2849C8617047F0B5254C002801DA60
:10096000E36900E06368450D2E0185B2C0F30157CD
:10097000B540C0F30342032F05D0C6020AD50326B3
:100980009640B34307E023F07062636823F070631E
:10099000636002E0AB4343F0706201B12A43002878
:1009A00001DAE261F0BD6260F0BD10B58A0721F0A6
:1009B00003040F49120F21440F238C6893409C437A
:1009C0008C608B68904003438B6010BD0949C1F86F
:1009D000DC00704700080140000C0140001001409D
:1009E0000014014000180140001C0140002001409B
:1009F0000000014000002042A548016841F00101CB
:100A000001604168A34A114041600168A24A114057
:100A10000160016821F480210160416821F4FE0138
:100A200041604FF41F018160704799490A6822F4C0
:100A300080320A600A6822F480220A60B0F5803FA2
:100A400007D0B0F5802F03D1086840F4A0200860DB
:100A50007047086840F48030F9E7034600205909E0
:100A60008B4A01290AD002290AD0516A03F01F02D9
:100A7000012393400B4200D0012070471168F5E735
:100A8000116AF3E718B500204FF4A06400903120FC
:100A9000FFF7E3FF0099491C0091A14201D0002813
:100AA000F5D03120FFF7D9FF002800D0012018BD74
:100AB000774A116821F0F80141EAC00010607047E0
:100AC000764908607047724B5A68084322F47C12DA
:100AD0001043586070477149086670476C4A516806
:100AE00021F003010143516070476948406800F0FC
:100AF0000C007047664A516821F0F00101435160D3
:100B00007047634A516821F4E061014351607047C6
:100B10005F4A516821F4605141EAC000506070475B
:100B20005B4A0029517A01D0014300E081435172B0
:100B300070475A49C1F8D8007047554A516821F4A6
:100B400040410143516070475149002281F8202003
:100B500081F82020012802D0042802D1052081F844
:100B6000200070474E490860704749490A6A0243AD
:100B70000A6270474A4944390860704730B5444AB0
:100B80005168484B11F00C0103D0042901D0082909
:100B900001D0036012E05168536801F470114FF006
:100BA000020413F4803F04EB914102D053689B038D
:100BB00001D53D4B00E03B4B5943016051680F2389
:100BC00003EA1111394B5C5C0168E14041605468F3
:100BD000072505EA14241C5D21FA04F48460546896
:100BE00005EAD4241B5DD940C1605268032303EA9F
:100BF00092322E4B1B1F9A5CB1FBF2F1016130BDAA
:100C0000234A0029516901D0014300E08143516129
:100C100070471F4A0029916901D0014300E08143D8
:100C2000916170471A4A0029D16901D0014300E05F
:100C30008143D1617047164A0029D16801D0014330
:100C400000E08143D1607047114A0029116901D049
:100C5000014300E081431161704711494039086048
:100C600070470E49C86470470949C8717047084801
:100C7000416A41F0807141627047054A0146002097
:100C800092680A4200D0012070470149887270477B
:100C9000001002400000FFF8FFFFF6FE0000424295
:100CA0008004424200127A0000093D000400002046
:100CB000C44910B588420AD101218C032046FFF7B0
:100CC000BAFF2046BDE810400021FFF7B4BFBE497F
:100CD000884202D101214C0410E0BC49884202D173
:100CE00001218C040AE0BA49884202D10121CC04D6
:100CF00004E0B84988420AD101210C052046FFF7DB
:100D0000A3FF2046BDE810400021FFF79DBF10BDA6
:100D100030B50446008A85B00D464CF6FF71084098
:100D2000E98801432182A0894EF6F3110840A98881
:100D30002A8911436A8902431143A181A08A4FF68F
:100D4000FF410840A9890143A1826846FFF716FFC9
:100D50009C48844201D1039800E00298A1890904CB
:100D600000EBC00101EB0010296801D5490000E04B
:100D70008900B0FBF1F06422B0FBF2F109010B092C
:100D80006FF018056B4300EB8300A3891D044FF03F
:100D9000320306D503EBC000B0FBF2F000F0070011
:100DA00005E003EB0010B0FBF2F000F00F00084389
:100DB000208105B030BD4FF41651016000218180C3
:100DC000C18001810C2242818181704710B5028A65
:100DD0004FF2FF031A400B884C8823438C88C98844
:100DE0000C4323431343038210BD00210180418043
:100DF0008180C18070470029818902D041F400516F
:100E000001E021F400518181704710B5C1F3421314
:100E100001F01F040121A140012B07D0022B07D0B4
:100E20001430002A026805D00A4304E00C30F8E7C9
:100E30001030F6E78A43026010BD002A828A01D092
:100E40000A4300E08A4382827047028A22F00F023E
:100E50000282028A0A4302827047828922F4006277
:100E6000828182890A43828170470029818902D068
:100E700041F0020101E021F0020181817047028A04
:100E800022F020020282028A0A430282704700296D
:100E9000018A02D041F4804101E021F480410182C5
:100EA0007047C1F30801818070478088C0F3080053
:100EB0007047818941F0010181817047028BD2B274
:100EC0000283028B42EA012101837047028B02F404
:100ED0007F420283028B0A43028370470029818A82
:100EE00002D041F0200101E021F020018182704711
:100EF0000029818A02D041F0100101E021F01001A7
:100F0000818270470029818A02D041F0080101E006
:100F100021F00801818270470029818902D041F4C3
:100F2000004101E0C1F30E01818170470029818AEF
:100F300002D041F4006101E021F400618182704738
:100F4000828A22F004028282828A0A438282704765
:100F50000029818A02D041F0020101E021F0020162
:100F6000818270470246002012880A4200D0012088
:100F70007047C9430180704770B501F01F05012615
:100F80000024C1F3421306FA05F2012B0FD0022B05
:100F90000FD0838A4FEA11210088134206FA01F626
:100FA00000EA060001D000B10124204670BD83890B
:100FB000F0E7038AEEE70A0A01219140C943018064
:100FC00070470000003801400044004000480040E5
:100FD000004C00400050004010B5FFF70DFD4FF4ED
:100FE00080342046FFF721FDFFF74CFD012822D178
:100FF0001020FFF79FF90220FFF78CF90020FFF780
:1010000079FD0020FFF784FDA011FFF77AFD4FF472
:10101000E0112046FFF757FD0120FFF75CFD392066
:10102000FFF71BFD0028FAD00220FFF757FDFFF75E
:101030005CFD0828FBD110BD30B585B0012104202E
:10104000FFF7E7FD01214807FFF7ECFD3020ADF881
:10105000100000248DF8134003203F4D8DF812003E
:1010600004A92846FFF7EDFB10212846FFF753FCA3
:101070004021ADF8101048218DF8131004A928461E
:10108000FFF7DFFB00940194694600200394FFF70B
:10109000CFF869461020FFF7CBF801210020FFF7B9
:1010A000DFF801211020FFF7DBF805B030BD10B5E7
:1010B00001210846FFF7B6FD4FF0804100208884EB
:1010C00010BD10B50022254B144606E09C609968BF
:1010D000491C99601A29FAD3521C8242F6D310BDDA
:1010E000FFF77AFFFFF7A8FF1B4E1C4C002540219D
:1010F0003046FFF7FCFB0128F9D1616840F6FA7031
:10110000814202D9012060700DE0B1F5FA6F08D27A
:1011100065702078401CC0B2207002280AD9257062
:1011200008E0607830B1491E6160207820B1012864
:1011300008D00CE0491CF7E7A08881B20020FFF737
:10114000C5F804E0A08881B20020FFF7C6F8282087
:10115000FFF7B7FFCBE700000008014014000020B4
:101160000CB500224C4800920192016841F4803194
:1011700001604FF4A063016801F40031019100990E
:10118000491C0091019911B900999942F3D1016864
:10119000890333D50121019140490A6842F01002C8
:1011A0000A600A6822F003020A600A6842F002023A
:1011B0000A604168416041684160416841F4806172
:1011C0004160416821F47C114160416841F4E811BB
:1011D0004160016841F08071016001688901FCD5BE
:1011E000416821F003014160416841F00201416022
:1011F0004168C1F381010229FAD10CBD01920CBDF5
:10120000254810B5016841F0010101604168244A98
:10121000114041600168234A11400160016821F4D6
:1012200080210160416821F4FE0141604FF41F01FB
:101230008160FFF795FF1C494FF00060086010BD0A
:10124000154A10B55068194B10F00C01184803D01E
:10125000042901D0082901D0036012E051685368C5
:1012600001F470114FF0020413F4803F04EB91413C
:1012700002D053689B0301D50E4B00E00B4B594342
:10128000016051680A4AC1F30311121D515C0268E2
:10129000CA40026010BD0000001002400020024061
:1012A0000000FFF8FFFFF6FE08ED00E000127A00F4
:1012B0002400002000093D0070B5044686B00121DD
:1012C00044F20400FFF7A5FC4FF48060ADF8100075
:1012D0000420744E8DF8130004A93046FFF7B1FACC
:1012E0007015ADF8100003258DF8125018208DF8F8
:1012F000130004A93046FFF7A4FA0020ADF804005B
:101300000094ADF80600ADF80800ADF80C000C2014
:10131000654CADF80A0069462046FFF7F9FC01224A
:1013200040F225512046FFF770FD01212046FFF7CE
:1013300062FD4FF4A060FEF717FF25208DF8140022
:101340008DF8155002208DF8160001208DF8170039
:1013500005A8FEF70EFF06B070BD10B5524C40F266
:1013600025512046FFF708FE00280FD02046FFF742
:101370009CFD4E4AC1B24E4B106808B9BB2906D03D
:10138000441EC72C02D21954401C106010BD1970A5
:101390000120FAE770B5444C054601462046FFF7A8
:1013A00080FD80212046FFF7DDFD0028F9D0802157
:1013B0002046FFF7DEFD284670BD70B50E46054697
:1013C000002404E015F8010BFFF7E4FF641CB442AD
:1013D000F8D370BD70B5044686B001210420FFF734
:1013E00018FC01214804FFF71DFC0425ADF810503E
:1013F00003208DF8120018202A4E8DF8130004A93E
:101400003046FFF71EFA0820ADF810008DF8135093
:1014100004A93046FFF715FA0020ADF80400009447
:10142000ADF80600ADF80800ADF80C000C20214C1A
:10143000ADF80A0069462046FFF76AFC012240F237
:1014400025512046FFF7E1FC01212046FFF7D3FCA0
:1014500026208DF8140002208DF815008DF8160056
:1014600001208DF8170005A8FEF783FE73E710B57D
:101470008AB0044628221049684600F01FF85DF83B
:1014800024000AB010BD70B50A4C05464021204624
:10149000FFF768FD0028F9D029462046FFF701FD37
:1014A000284670BD00080140003801403800002087
:1014B0003C000020004400402415000840EA0103DD
:1014C0009B0703D009E008C9121F08C0042AFAD2FA
:1014D00003E011F8013B00F8013B521EF9D27047BE
:1014E000064C074D06E0E06840F0010394E8070071
:1014F00098471034AC42F6D3FEF71EFE4C15000898
:101500006C15000802E008C8121F08C1002AFAD1B1
:1015100070477047002001E001C1121F002AFBD173
:1015200070470000B004000060090000C012000015
:1015300080250000004B00000096000000E1000044
:1015400000C2010000F4010000E803006C1500086F
:10155000000000203C00000004150008A815000849
:101560003C000020CC04000014150008020406080A
:101570000000000001020304010203040607080939
:10158000000000000A000000000000000000000051
:1015900000A24A0400000000000000000102030451
:0815A000060708090000000025
:0400000508000131BD
:00000001FF
